{
  "abi": [
    {
      "inputs": [
        {
          "internalType": "uint256[]",
          "name": "array",
          "type": "uint256[]"
        }
      ],
      "stateMutability": "nonpayable",
      "type": "constructor"
    },
    {
      "inputs": [
        {
          "internalType": "uint256",
          "name": "element",
          "type": "uint256"
        }
      ],
      "name": "findUpperBound",
      "outputs": [
        {
          "internalType": "uint256",
          "name": "",
          "type": "uint256"
        }
      ],
      "stateMutability": "view",
      "type": "function"
    }
  ],
  "bytecode": "608060405234801561001057600080fd5b506040516102b73803806102b78339818101604052602081101561003357600080fd5b810190808051604051939291908464010000000082111561005357600080fd5b90830190602082018581111561006857600080fd5b825186602082028301116401000000008211171561008557600080fd5b82525081516020918201928201910280838360005b838110156100b257818101518382015260200161009a565b5050505091909101604052505082516100d492506000915060208401906100db565b505061013b565b828054828255906000526020600020908101928215610116579160200282015b828111156101165782518255916020019190600101906100fb565b50610122929150610126565b5090565b5b808211156101225760008155600101610127565b61016d8061014a6000396000f3fe608060405234801561001057600080fd5b506004361061002b5760003560e01c806333e3a58a14610030575b600080fd5b61004d6004803603602081101561004657600080fd5b503561005f565b60408051918252519081900360200190f35b600061006b8183610071565b92915050565b81546000906100825750600061006b565b82546000905b808210156100d157600061009c8383610112565b9050848682815481106100ab57fe5b906000526020600020015411156100c4578091506100cb565b8060010192505b50610088565b6000821180156100f95750838560018403815481106100ec57fe5b9060005260206000200154145b1561010a575060001901905061006b565b509392505050565b6000600280830660028506018161012557fe5b0460028304600285040101939250505056fea26469706673582212204ce5ca30129568d94da93eb6e2e63b2488ac1d308e684f80618c1481300c1c0664736f6c634300060c0033",
  "bytecodeSha1": "8441ab6f63d2ff0006ec4f8a95b011201a99ea22",
  "compiler": {
    "evm_version": "istanbul",
    "optimizer": {
      "enabled": true,
      "runs": 200
    },
    "version": "0.6.12+commit.27d51765"
  },
  "contractName": "ArraysImpl",
  "language": "Solidity",
  "natspec": {
    "kind": "dev",
    "methods": {},
    "version": 1
  },
  "opcodes": "PUSH1 0x80 PUSH1 0x40 MSTORE CALLVALUE DUP1 ISZERO PUSH2 0x10 JUMPI PUSH1 0x0 DUP1 REVERT JUMPDEST POP PUSH1 0x4 CALLDATASIZE LT PUSH2 0x2B JUMPI PUSH1 0x0 CALLDATALOAD PUSH1 0xE0 SHR DUP1 PUSH4 0x33E3A58A EQ PUSH2 0x30 JUMPI JUMPDEST PUSH1 0x0 DUP1 REVERT JUMPDEST PUSH2 0x4D PUSH1 0x4 DUP1 CALLDATASIZE SUB PUSH1 0x20 DUP2 LT ISZERO PUSH2 0x46 JUMPI PUSH1 0x0 DUP1 REVERT JUMPDEST POP CALLDATALOAD PUSH2 0x5F JUMP JUMPDEST PUSH1 0x40 DUP1 MLOAD SWAP2 DUP3 MSTORE MLOAD SWAP1 DUP2 SWAP1 SUB PUSH1 0x20 ADD SWAP1 RETURN JUMPDEST PUSH1 0x0 PUSH2 0x6B DUP2 DUP4 PUSH2 0x71 JUMP JUMPDEST SWAP3 SWAP2 POP POP JUMP JUMPDEST DUP2 SLOAD PUSH1 0x0 SWAP1 PUSH2 0x82 JUMPI POP PUSH1 0x0 PUSH2 0x6B JUMP JUMPDEST DUP3 SLOAD PUSH1 0x0 SWAP1 JUMPDEST DUP1 DUP3 LT ISZERO PUSH2 0xD1 JUMPI PUSH1 0x0 PUSH2 0x9C DUP4 DUP4 PUSH2 0x112 JUMP JUMPDEST SWAP1 POP DUP5 DUP7 DUP3 DUP2 SLOAD DUP2 LT PUSH2 0xAB JUMPI INVALID JUMPDEST SWAP1 PUSH1 0x0 MSTORE PUSH1 0x20 PUSH1 0x0 KECCAK256 ADD SLOAD GT ISZERO PUSH2 0xC4 JUMPI DUP1 SWAP2 POP PUSH2 0xCB JUMP JUMPDEST DUP1 PUSH1 0x1 ADD SWAP3 POP JUMPDEST POP PUSH2 0x88 JUMP JUMPDEST PUSH1 0x0 DUP3 GT DUP1 ISZERO PUSH2 0xF9 JUMPI POP DUP4 DUP6 PUSH1 0x1 DUP5 SUB DUP2 SLOAD DUP2 LT PUSH2 0xEC JUMPI INVALID JUMPDEST SWAP1 PUSH1 0x0 MSTORE PUSH1 0x20 PUSH1 0x0 KECCAK256 ADD SLOAD EQ JUMPDEST ISZERO PUSH2 0x10A JUMPI POP PUSH1 0x0 NOT ADD SWAP1 POP PUSH2 0x6B JUMP JUMPDEST POP SWAP4 SWAP3 POP POP POP JUMP JUMPDEST PUSH1 0x0 PUSH1 0x2 DUP1 DUP4 MOD PUSH1 0x2 DUP6 MOD ADD DUP2 PUSH2 0x125 JUMPI INVALID JUMPDEST DIV PUSH1 0x2 DUP4 DIV PUSH1 0x2 DUP6 DIV ADD ADD SWAP4 SWAP3 POP POP POP JUMP INVALID LOG2 PUSH5 0x6970667358 0x22 SLT KECCAK256 0x4C 0xE5 0xCA ADDRESS SLT SWAP6 PUSH9 0xD94DA93EB6E2E63B24 DUP9 0xAC SAR ADDRESS DUP15 PUSH9 0x4F80618C1481300C1C MOD PUSH5 0x736F6C6343 STOP MOD 0xC STOP CALLER ",
  "sha1": "780e903a9f46375427bd4be0158304a9d579aa3b",
  "source": "// SPDX-License-Identifier: MIT\n\npragma solidity >=0.6.0 <0.8.0;\n\nimport \"../utils/Arrays.sol\";\n\ncontract ArraysImpl {\n    using Arrays for uint256[];\n\n    uint256[] private _array;\n\n    constructor (uint256[] memory array) public {\n        _array = array;\n    }\n\n    function findUpperBound(uint256 element) external view returns (uint256) {\n        return _array.findUpperBound(element);\n    }\n}\n",
  "sourcePath": "contracts/openzeppelin/mocks/ArraysImpl.sol",
  "type": "contract"
}