{
  "abi": [
    {
      "inputs": [
        {
          "internalType": "contract IKeep3rV1Oracle",
          "name": "_kp3r",
          "type": "address"
        }
      ],
      "stateMutability": "nonpayable",
      "type": "constructor"
    },
    {
      "inputs": [],
      "name": "MAX_TWAP_TIME",
      "outputs": [
        {
          "internalType": "uint256",
          "name": "",
          "type": "uint256"
        }
      ],
      "stateMutability": "view",
      "type": "function"
    },
    {
      "inputs": [],
      "name": "MIN_TWAP_TIME",
      "outputs": [
        {
          "internalType": "uint256",
          "name": "",
          "type": "uint256"
        }
      ],
      "stateMutability": "view",
      "type": "function"
    },
    {
      "inputs": [],
      "name": "celo",
      "outputs": [
        {
          "internalType": "address",
          "name": "",
          "type": "address"
        }
      ],
      "stateMutability": "view",
      "type": "function"
    },
    {
      "inputs": [
        {
          "internalType": "address",
          "name": "pair",
          "type": "address"
        }
      ],
      "name": "currentPx0Cumu",
      "outputs": [
        {
          "internalType": "uint256",
          "name": "px0Cumu",
          "type": "uint256"
        }
      ],
      "stateMutability": "view",
      "type": "function"
    },
    {
      "inputs": [
        {
          "internalType": "address",
          "name": "pair",
          "type": "address"
        }
      ],
      "name": "currentPx1Cumu",
      "outputs": [
        {
          "internalType": "uint256",
          "name": "px1Cumu",
          "type": "uint256"
        }
      ],
      "stateMutability": "view",
      "type": "function"
    },
    {
      "inputs": [],
      "name": "factory",
      "outputs": [
        {
          "internalType": "address",
          "name": "",
          "type": "address"
        }
      ],
      "stateMutability": "view",
      "type": "function"
    },
    {
      "inputs": [],
      "name": "kp3r",
      "outputs": [
        {
          "internalType": "contract IKeep3rV1Oracle",
          "name": "",
          "type": "address"
        }
      ],
      "stateMutability": "view",
      "type": "function"
    },
    {
      "inputs": [],
      "name": "mcelo",
      "outputs": [
        {
          "internalType": "address",
          "name": "",
          "type": "address"
        }
      ],
      "stateMutability": "view",
      "type": "function"
    },
    {
      "inputs": [
        {
          "internalType": "address",
          "name": "pair",
          "type": "address"
        }
      ],
      "name": "price0TWAP",
      "outputs": [
        {
          "internalType": "uint256",
          "name": "",
          "type": "uint256"
        }
      ],
      "stateMutability": "view",
      "type": "function"
    },
    {
      "inputs": [
        {
          "internalType": "address",
          "name": "pair",
          "type": "address"
        }
      ],
      "name": "price1TWAP",
      "outputs": [
        {
          "internalType": "uint256",
          "name": "",
          "type": "uint256"
        }
      ],
      "stateMutability": "view",
      "type": "function"
    }
  ],
  "bytecode": "61010060405234801561001157600080fd5b50604051610d19380380610d198339818101604052602081101561003457600080fd5b50516001600160601b0319606082901b166080526040805163c45a015560e01b815290516001600160a01b0383169163c45a0155916004808301926020929190829003018186803b15801561008857600080fd5b505afa15801561009c573d6000803e3d6000fd5b505050506040513d60208110156100b257600080fd5b505160601b6001600160601b03191660a05260408051637b07339f60e11b815290516001600160a01b0383169163f60e673e916004808301926020929190829003018186803b15801561010457600080fd5b505afa158015610118573d6000803e3d6000fd5b505050506040513d602081101561012e57600080fd5b505160601b6001600160601b03191660c05260408051630b4b5b8b60e41b815290516001600160a01b0383169163b4b5b8b0916004808301926020929190829003018186803b15801561018057600080fd5b505afa158015610194573d6000803e3d6000fd5b505050506040513d60208110156101aa57600080fd5b50516001600160601b031960609190911b1660e0525060805160601c60a05160601c60c05160601c60e05160601c610afa61021f600039806104ee52508061019b52508061097b5250806101c852806102b252806103be528061051252806105395280610623528061072f5250610afa6000f3fe608060405234801561001057600080fd5b506004361061009e5760003560e01c8063990ae00f11610066578063990ae00f14610117578063a09c84041461013d578063af8a9ba514610163578063c45a01551461016b578063eb84b2f6146101735761009e565b8063051ed8ef146100a357806309cd510e146100c75780630bbfeedd146100e157806320b332e81461010757806359e25a941461010f575b600080fd5b6100ab610199565b604080516001600160a01b039092168252519081900360200190f35b6100cf6101bd565b60408051918252519081900360200190f35b6100cf600480360360208110156100f757600080fd5b50356001600160a01b03166101c3565b6100ab6104ec565b6100ab610510565b6100cf6004803603602081101561012d57600080fd5b50356001600160a01b0316610534565b6100cf6004803603602081101561015357600080fd5b50356001600160a01b031661083e565b6100cf610973565b6100ab610979565b6100cf6004803603602081101561018957600080fd5b50356001600160a01b031661099d565b7f000000000000000000000000000000000000000000000000000000000000000081565b610e1081565b6000807f00000000000000000000000000000000000000000000000000000000000000006001600160a01b03166381bfb885846040518263ffffffff1660e01b815260040180826001600160a01b0316815260200191505060206040518083038186803b15801561023357600080fd5b505afa158015610247573d6000803e3d6000fd5b505050506040513d602081101561025d57600080fd5b50519050806102ad576040805162461bcd60e51b81526020600482015260176024820152763737903632b733ba3416989037b139b2b93b30ba34b7b760491b604482015290519081900360640190fd5b6000807f00000000000000000000000000000000000000000000000000000000000000006001600160a01b0316630245996686600186036040518363ffffffff1660e01b815260040180836001600160a01b031681526020018281526020019250505060606040518083038186803b15801561032857600080fd5b505afa15801561033c573d6000803e3d6000fd5b505050506040513d606081101561035257600080fd5b508051604090910151909250905061038319420182111561046d57600183116103bc576040805162461bcd60e51b81526020600482015260176024820152763737903632b733ba3416991037b139b2b93b30ba34b7b760491b604482015290519081900360640190fd5b7f00000000000000000000000000000000000000000000000000000000000000006001600160a01b0316630245996686600286036040518363ffffffff1660e01b815260040180836001600160a01b031681526020018281526020019250505060606040518083038186803b15801561043457600080fd5b505afa158015610448573d6000803e3d6000fd5b505050506040513d606081101561045e57600080fd5b50805160409091015190925090505b4282900361038481108015906104855750610e108111155b6104c6576040805162461bcd60e51b815260206004820152600d60248201526c62616420545741502074696d6560981b604482015290519081900360640190fd5b60006104d18761099d565b9050834203838203816104e057fe5b04979650505050505050565b7f000000000000000000000000000000000000000000000000000000000000000081565b7f000000000000000000000000000000000000000000000000000000000000000081565b6000807f00000000000000000000000000000000000000000000000000000000000000006001600160a01b03166381bfb885846040518263ffffffff1660e01b815260040180826001600160a01b0316815260200191505060206040518083038186803b1580156105a457600080fd5b505afa1580156105b8573d6000803e3d6000fd5b505050506040513d60208110156105ce57600080fd5b505190508061061e576040805162461bcd60e51b81526020600482015260176024820152763737903632b733ba3416989037b139b2b93b30ba34b7b760491b604482015290519081900360640190fd5b6000807f00000000000000000000000000000000000000000000000000000000000000006001600160a01b0316630245996686600186036040518363ffffffff1660e01b815260040180836001600160a01b031681526020018281526020019250505060606040518083038186803b15801561069957600080fd5b505afa1580156106ad573d6000803e3d6000fd5b505050506040513d60608110156106c357600080fd5b50805160209091015190925090506103831942018211156107de576001831161072d576040805162461bcd60e51b81526020600482015260176024820152763737903632b733ba3416991037b139b2b93b30ba34b7b760491b604482015290519081900360640190fd5b7f00000000000000000000000000000000000000000000000000000000000000006001600160a01b0316630245996686600286036040518363ffffffff1660e01b815260040180836001600160a01b031681526020018281526020019250505060606040518083038186803b1580156107a557600080fd5b505afa1580156107b9573d6000803e3d6000fd5b505050506040513d60608110156107cf57600080fd5b50805160209091015190925090505b4282900361038481108015906107f65750610e108111155b610837576040805162461bcd60e51b815260206004820152600d60248201526c62616420545741502074696d6560981b604482015290519081900360640190fd5b60006104d1875b600080429050826001600160a01b0316635909c0d56040518163ffffffff1660e01b815260040160206040518083038186803b15801561087d57600080fd5b505afa158015610891573d6000803e3d6000fd5b505050506040513d60208110156108a757600080fd5b505160408051630240bc6b60e21b81529051919350600091829182916001600160a01b03881691630902f1ac916004808301926060929190829003018186803b1580156108f357600080fd5b505afa158015610907573d6000803e3d6000fd5b505050506040513d606081101561091d57600080fd5b50805160208201516040909201516001600160701b03918216955091169250905063ffffffff8116421461096a5780840363ffffffff811684607085901b8161096257fe5b040286019550505b50505050919050565b61038481565b7f000000000000000000000000000000000000000000000000000000000000000081565b600080429050826001600160a01b0316635a3d54936040518163ffffffff1660e01b815260040160206040518083038186803b1580156109dc57600080fd5b505afa1580156109f0573d6000803e3d6000fd5b505050506040513d6020811015610a0657600080fd5b505160408051630240bc6b60e21b81529051919350600091829182916001600160a01b03881691630902f1ac916004808301926060929190829003018186803b158015610a5257600080fd5b505afa158015610a66573d6000803e3d6000fd5b505050506040513d6060811015610a7c57600080fd5b50805160208201516040909201516001600160701b03918216955091169250905063ffffffff8082169085161461096a5780840363ffffffff811683607086901b8161096257fefea2646970667358221220b99c8f6033b91328f9ccfaedff0752aed87423c492084c92b95302db4f1f668364736f6c634300060c0033",
  "bytecodeSha1": "2c78c068388f1b77ab4eb4c58d269c63b0bfe40f",
  "compiler": {
    "evm_version": "istanbul",
    "optimizer": {
      "enabled": true,
      "runs": 200
    },
    "version": "0.6.12+commit.27d51765"
  },
  "contractName": "BaseKP3ROracle",
  "language": "Solidity",
  "natspec": {
    "kind": "dev",
    "methods": {
      "currentPx0Cumu(address)": {
        "details": "Return the current price0 cumulative value on uniswap.",
        "params": {
          "pair": "The uniswap pair to query for price0 cumulative value."
        }
      },
      "currentPx1Cumu(address)": {
        "details": "Return the current price1 cumulative value on uniswap.",
        "params": {
          "pair": "The uniswap pair to query for price1 cumulative value."
        }
      },
      "price0TWAP(address)": {
        "details": "Return the TWAP value price0. Revert if TWAP time range is not within the threshold.",
        "params": {
          "pair": "The pair to query for price0."
        }
      },
      "price1TWAP(address)": {
        "details": "Return the TWAP value price1. Revert if TWAP time range is not within the threshold.",
        "params": {
          "pair": "The pair to query for price1."
        }
      }
    },
    "version": 1
  },
  "opcodes": "PUSH1 0x80 PUSH1 0x40 MSTORE CALLVALUE DUP1 ISZERO PUSH2 0x10 JUMPI PUSH1 0x0 DUP1 REVERT JUMPDEST POP PUSH1 0x4 CALLDATASIZE LT PUSH2 0x9E JUMPI PUSH1 0x0 CALLDATALOAD PUSH1 0xE0 SHR DUP1 PUSH4 0x990AE00F GT PUSH2 0x66 JUMPI DUP1 PUSH4 0x990AE00F EQ PUSH2 0x117 JUMPI DUP1 PUSH4 0xA09C8404 EQ PUSH2 0x13D JUMPI DUP1 PUSH4 0xAF8A9BA5 EQ PUSH2 0x163 JUMPI DUP1 PUSH4 0xC45A0155 EQ PUSH2 0x16B JUMPI DUP1 PUSH4 0xEB84B2F6 EQ PUSH2 0x173 JUMPI PUSH2 0x9E JUMP JUMPDEST DUP1 PUSH4 0x51ED8EF EQ PUSH2 0xA3 JUMPI DUP1 PUSH4 0x9CD510E EQ PUSH2 0xC7 JUMPI DUP1 PUSH4 0xBBFEEDD EQ PUSH2 0xE1 JUMPI DUP1 PUSH4 0x20B332E8 EQ PUSH2 0x107 JUMPI DUP1 PUSH4 0x59E25A94 EQ PUSH2 0x10F JUMPI JUMPDEST PUSH1 0x0 DUP1 REVERT JUMPDEST PUSH2 0xAB PUSH2 0x199 JUMP JUMPDEST PUSH1 0x40 DUP1 MLOAD PUSH1 0x1 PUSH1 0x1 PUSH1 0xA0 SHL SUB SWAP1 SWAP3 AND DUP3 MSTORE MLOAD SWAP1 DUP2 SWAP1 SUB PUSH1 0x20 ADD SWAP1 RETURN JUMPDEST PUSH2 0xCF PUSH2 0x1BD JUMP JUMPDEST PUSH1 0x40 DUP1 MLOAD SWAP2 DUP3 MSTORE MLOAD SWAP1 DUP2 SWAP1 SUB PUSH1 0x20 ADD SWAP1 RETURN JUMPDEST PUSH2 0xCF PUSH1 0x4 DUP1 CALLDATASIZE SUB PUSH1 0x20 DUP2 LT ISZERO PUSH2 0xF7 JUMPI PUSH1 0x0 DUP1 REVERT JUMPDEST POP CALLDATALOAD PUSH1 0x1 PUSH1 0x1 PUSH1 0xA0 SHL SUB AND PUSH2 0x1C3 JUMP JUMPDEST PUSH2 0xAB PUSH2 0x4EC JUMP JUMPDEST PUSH2 0xAB PUSH2 0x510 JUMP JUMPDEST PUSH2 0xCF PUSH1 0x4 DUP1 CALLDATASIZE SUB PUSH1 0x20 DUP2 LT ISZERO PUSH2 0x12D JUMPI PUSH1 0x0 DUP1 REVERT JUMPDEST POP CALLDATALOAD PUSH1 0x1 PUSH1 0x1 PUSH1 0xA0 SHL SUB AND PUSH2 0x534 JUMP JUMPDEST PUSH2 0xCF PUSH1 0x4 DUP1 CALLDATASIZE SUB PUSH1 0x20 DUP2 LT ISZERO PUSH2 0x153 JUMPI PUSH1 0x0 DUP1 REVERT JUMPDEST POP CALLDATALOAD PUSH1 0x1 PUSH1 0x1 PUSH1 0xA0 SHL SUB AND PUSH2 0x83E JUMP JUMPDEST PUSH2 0xCF PUSH2 0x973 JUMP JUMPDEST PUSH2 0xAB PUSH2 0x979 JUMP JUMPDEST PUSH2 0xCF PUSH1 0x4 DUP1 CALLDATASIZE SUB PUSH1 0x20 DUP2 LT ISZERO PUSH2 0x189 JUMPI PUSH1 0x0 DUP1 REVERT JUMPDEST POP CALLDATALOAD PUSH1 0x1 PUSH1 0x1 PUSH1 0xA0 SHL SUB AND PUSH2 0x99D JUMP JUMPDEST PUSH32 0x0 DUP2 JUMP JUMPDEST PUSH2 0xE10 DUP2 JUMP JUMPDEST PUSH1 0x0 DUP1 PUSH32 0x0 PUSH1 0x1 PUSH1 0x1 PUSH1 0xA0 SHL SUB AND PUSH4 0x81BFB885 DUP5 PUSH1 0x40 MLOAD DUP3 PUSH4 0xFFFFFFFF AND PUSH1 0xE0 SHL DUP2 MSTORE PUSH1 0x4 ADD DUP1 DUP3 PUSH1 0x1 PUSH1 0x1 PUSH1 0xA0 SHL SUB AND DUP2 MSTORE PUSH1 0x20 ADD SWAP2 POP POP PUSH1 0x20 PUSH1 0x40 MLOAD DUP1 DUP4 SUB DUP2 DUP7 DUP1 EXTCODESIZE ISZERO DUP1 ISZERO PUSH2 0x233 JUMPI PUSH1 0x0 DUP1 REVERT JUMPDEST POP GAS STATICCALL ISZERO DUP1 ISZERO PUSH2 0x247 JUMPI RETURNDATASIZE PUSH1 0x0 DUP1 RETURNDATACOPY RETURNDATASIZE PUSH1 0x0 REVERT JUMPDEST POP POP POP POP PUSH1 0x40 MLOAD RETURNDATASIZE PUSH1 0x20 DUP2 LT ISZERO PUSH2 0x25D JUMPI PUSH1 0x0 DUP1 REVERT JUMPDEST POP MLOAD SWAP1 POP DUP1 PUSH2 0x2AD JUMPI PUSH1 0x40 DUP1 MLOAD PUSH3 0x461BCD PUSH1 0xE5 SHL DUP2 MSTORE PUSH1 0x20 PUSH1 0x4 DUP3 ADD MSTORE PUSH1 0x17 PUSH1 0x24 DUP3 ADD MSTORE PUSH23 0x3737903632B733BA3416989037B139B2B93B30BA34B7B7 PUSH1 0x49 SHL PUSH1 0x44 DUP3 ADD MSTORE SWAP1 MLOAD SWAP1 DUP2 SWAP1 SUB PUSH1 0x64 ADD SWAP1 REVERT JUMPDEST PUSH1 0x0 DUP1 PUSH32 0x0 PUSH1 0x1 PUSH1 0x1 PUSH1 0xA0 SHL SUB AND PUSH4 0x2459966 DUP7 PUSH1 0x1 DUP7 SUB PUSH1 0x40 MLOAD DUP4 PUSH4 0xFFFFFFFF AND PUSH1 0xE0 SHL DUP2 MSTORE PUSH1 0x4 ADD DUP1 DUP4 PUSH1 0x1 PUSH1 0x1 PUSH1 0xA0 SHL SUB AND DUP2 MSTORE PUSH1 0x20 ADD DUP3 DUP2 MSTORE PUSH1 0x20 ADD SWAP3 POP POP POP PUSH1 0x60 PUSH1 0x40 MLOAD DUP1 DUP4 SUB DUP2 DUP7 DUP1 EXTCODESIZE ISZERO DUP1 ISZERO PUSH2 0x328 JUMPI PUSH1 0x0 DUP1 REVERT JUMPDEST POP GAS STATICCALL ISZERO DUP1 ISZERO PUSH2 0x33C JUMPI RETURNDATASIZE PUSH1 0x0 DUP1 RETURNDATACOPY RETURNDATASIZE PUSH1 0x0 REVERT JUMPDEST POP POP POP POP PUSH1 0x40 MLOAD RETURNDATASIZE PUSH1 0x60 DUP2 LT ISZERO PUSH2 0x352 JUMPI PUSH1 0x0 DUP1 REVERT JUMPDEST POP DUP1 MLOAD PUSH1 0x40 SWAP1 SWAP2 ADD MLOAD SWAP1 SWAP3 POP SWAP1 POP PUSH2 0x383 NOT TIMESTAMP ADD DUP3 GT ISZERO PUSH2 0x46D JUMPI PUSH1 0x1 DUP4 GT PUSH2 0x3BC JUMPI PUSH1 0x40 DUP1 MLOAD PUSH3 0x461BCD PUSH1 0xE5 SHL DUP2 MSTORE PUSH1 0x20 PUSH1 0x4 DUP3 ADD MSTORE PUSH1 0x17 PUSH1 0x24 DUP3 ADD MSTORE PUSH23 0x3737903632B733BA3416991037B139B2B93B30BA34B7B7 PUSH1 0x49 SHL PUSH1 0x44 DUP3 ADD MSTORE SWAP1 MLOAD SWAP1 DUP2 SWAP1 SUB PUSH1 0x64 ADD SWAP1 REVERT JUMPDEST PUSH32 0x0 PUSH1 0x1 PUSH1 0x1 PUSH1 0xA0 SHL SUB AND PUSH4 0x2459966 DUP7 PUSH1 0x2 DUP7 SUB PUSH1 0x40 MLOAD DUP4 PUSH4 0xFFFFFFFF AND PUSH1 0xE0 SHL DUP2 MSTORE PUSH1 0x4 ADD DUP1 DUP4 PUSH1 0x1 PUSH1 0x1 PUSH1 0xA0 SHL SUB AND DUP2 MSTORE PUSH1 0x20 ADD DUP3 DUP2 MSTORE PUSH1 0x20 ADD SWAP3 POP POP POP PUSH1 0x60 PUSH1 0x40 MLOAD DUP1 DUP4 SUB DUP2 DUP7 DUP1 EXTCODESIZE ISZERO DUP1 ISZERO PUSH2 0x434 JUMPI PUSH1 0x0 DUP1 REVERT JUMPDEST POP GAS STATICCALL ISZERO DUP1 ISZERO PUSH2 0x448 JUMPI RETURNDATASIZE PUSH1 0x0 DUP1 RETURNDATACOPY RETURNDATASIZE PUSH1 0x0 REVERT JUMPDEST POP POP POP POP PUSH1 0x40 MLOAD RETURNDATASIZE PUSH1 0x60 DUP2 LT ISZERO PUSH2 0x45E JUMPI PUSH1 0x0 DUP1 REVERT JUMPDEST POP DUP1 MLOAD PUSH1 0x40 SWAP1 SWAP2 ADD MLOAD SWAP1 SWAP3 POP SWAP1 POP JUMPDEST TIMESTAMP DUP3 SWAP1 SUB PUSH2 0x384 DUP2 LT DUP1 ISZERO SWAP1 PUSH2 0x485 JUMPI POP PUSH2 0xE10 DUP2 GT ISZERO JUMPDEST PUSH2 0x4C6 JUMPI PUSH1 0x40 DUP1 MLOAD PUSH3 0x461BCD PUSH1 0xE5 SHL DUP2 MSTORE PUSH1 0x20 PUSH1 0x4 DUP3 ADD MSTORE PUSH1 0xD PUSH1 0x24 DUP3 ADD MSTORE PUSH13 0x62616420545741502074696D65 PUSH1 0x98 SHL PUSH1 0x44 DUP3 ADD MSTORE SWAP1 MLOAD SWAP1 DUP2 SWAP1 SUB PUSH1 0x64 ADD SWAP1 REVERT JUMPDEST PUSH1 0x0 PUSH2 0x4D1 DUP8 PUSH2 0x99D JUMP JUMPDEST SWAP1 POP DUP4 TIMESTAMP SUB DUP4 DUP3 SUB DUP2 PUSH2 0x4E0 JUMPI INVALID JUMPDEST DIV SWAP8 SWAP7 POP POP POP POP POP POP POP JUMP JUMPDEST PUSH32 0x0 DUP2 JUMP JUMPDEST PUSH32 0x0 DUP2 JUMP JUMPDEST PUSH1 0x0 DUP1 PUSH32 0x0 PUSH1 0x1 PUSH1 0x1 PUSH1 0xA0 SHL SUB AND PUSH4 0x81BFB885 DUP5 PUSH1 0x40 MLOAD DUP3 PUSH4 0xFFFFFFFF AND PUSH1 0xE0 SHL DUP2 MSTORE PUSH1 0x4 ADD DUP1 DUP3 PUSH1 0x1 PUSH1 0x1 PUSH1 0xA0 SHL SUB AND DUP2 MSTORE PUSH1 0x20 ADD SWAP2 POP POP PUSH1 0x20 PUSH1 0x40 MLOAD DUP1 DUP4 SUB DUP2 DUP7 DUP1 EXTCODESIZE ISZERO DUP1 ISZERO PUSH2 0x5A4 JUMPI PUSH1 0x0 DUP1 REVERT JUMPDEST POP GAS STATICCALL ISZERO DUP1 ISZERO PUSH2 0x5B8 JUMPI RETURNDATASIZE PUSH1 0x0 DUP1 RETURNDATACOPY RETURNDATASIZE PUSH1 0x0 REVERT JUMPDEST POP POP POP POP PUSH1 0x40 MLOAD RETURNDATASIZE PUSH1 0x20 DUP2 LT ISZERO PUSH2 0x5CE JUMPI PUSH1 0x0 DUP1 REVERT JUMPDEST POP MLOAD SWAP1 POP DUP1 PUSH2 0x61E JUMPI PUSH1 0x40 DUP1 MLOAD PUSH3 0x461BCD PUSH1 0xE5 SHL DUP2 MSTORE PUSH1 0x20 PUSH1 0x4 DUP3 ADD MSTORE PUSH1 0x17 PUSH1 0x24 DUP3 ADD MSTORE PUSH23 0x3737903632B733BA3416989037B139B2B93B30BA34B7B7 PUSH1 0x49 SHL PUSH1 0x44 DUP3 ADD MSTORE SWAP1 MLOAD SWAP1 DUP2 SWAP1 SUB PUSH1 0x64 ADD SWAP1 REVERT JUMPDEST PUSH1 0x0 DUP1 PUSH32 0x0 PUSH1 0x1 PUSH1 0x1 PUSH1 0xA0 SHL SUB AND PUSH4 0x2459966 DUP7 PUSH1 0x1 DUP7 SUB PUSH1 0x40 MLOAD DUP4 PUSH4 0xFFFFFFFF AND PUSH1 0xE0 SHL DUP2 MSTORE PUSH1 0x4 ADD DUP1 DUP4 PUSH1 0x1 PUSH1 0x1 PUSH1 0xA0 SHL SUB AND DUP2 MSTORE PUSH1 0x20 ADD DUP3 DUP2 MSTORE PUSH1 0x20 ADD SWAP3 POP POP POP PUSH1 0x60 PUSH1 0x40 MLOAD DUP1 DUP4 SUB DUP2 DUP7 DUP1 EXTCODESIZE ISZERO DUP1 ISZERO PUSH2 0x699 JUMPI PUSH1 0x0 DUP1 REVERT JUMPDEST POP GAS STATICCALL ISZERO DUP1 ISZERO PUSH2 0x6AD JUMPI RETURNDATASIZE PUSH1 0x0 DUP1 RETURNDATACOPY RETURNDATASIZE PUSH1 0x0 REVERT JUMPDEST POP POP POP POP PUSH1 0x40 MLOAD RETURNDATASIZE PUSH1 0x60 DUP2 LT ISZERO PUSH2 0x6C3 JUMPI PUSH1 0x0 DUP1 REVERT JUMPDEST POP DUP1 MLOAD PUSH1 0x20 SWAP1 SWAP2 ADD MLOAD SWAP1 SWAP3 POP SWAP1 POP PUSH2 0x383 NOT TIMESTAMP ADD DUP3 GT ISZERO PUSH2 0x7DE JUMPI PUSH1 0x1 DUP4 GT PUSH2 0x72D JUMPI PUSH1 0x40 DUP1 MLOAD PUSH3 0x461BCD PUSH1 0xE5 SHL DUP2 MSTORE PUSH1 0x20 PUSH1 0x4 DUP3 ADD MSTORE PUSH1 0x17 PUSH1 0x24 DUP3 ADD MSTORE PUSH23 0x3737903632B733BA3416991037B139B2B93B30BA34B7B7 PUSH1 0x49 SHL PUSH1 0x44 DUP3 ADD MSTORE SWAP1 MLOAD SWAP1 DUP2 SWAP1 SUB PUSH1 0x64 ADD SWAP1 REVERT JUMPDEST PUSH32 0x0 PUSH1 0x1 PUSH1 0x1 PUSH1 0xA0 SHL SUB AND PUSH4 0x2459966 DUP7 PUSH1 0x2 DUP7 SUB PUSH1 0x40 MLOAD DUP4 PUSH4 0xFFFFFFFF AND PUSH1 0xE0 SHL DUP2 MSTORE PUSH1 0x4 ADD DUP1 DUP4 PUSH1 0x1 PUSH1 0x1 PUSH1 0xA0 SHL SUB AND DUP2 MSTORE PUSH1 0x20 ADD DUP3 DUP2 MSTORE PUSH1 0x20 ADD SWAP3 POP POP POP PUSH1 0x60 PUSH1 0x40 MLOAD DUP1 DUP4 SUB DUP2 DUP7 DUP1 EXTCODESIZE ISZERO DUP1 ISZERO PUSH2 0x7A5 JUMPI PUSH1 0x0 DUP1 REVERT JUMPDEST POP GAS STATICCALL ISZERO DUP1 ISZERO PUSH2 0x7B9 JUMPI RETURNDATASIZE PUSH1 0x0 DUP1 RETURNDATACOPY RETURNDATASIZE PUSH1 0x0 REVERT JUMPDEST POP POP POP POP PUSH1 0x40 MLOAD RETURNDATASIZE PUSH1 0x60 DUP2 LT ISZERO PUSH2 0x7CF JUMPI PUSH1 0x0 DUP1 REVERT JUMPDEST POP DUP1 MLOAD PUSH1 0x20 SWAP1 SWAP2 ADD MLOAD SWAP1 SWAP3 POP SWAP1 POP JUMPDEST TIMESTAMP DUP3 SWAP1 SUB PUSH2 0x384 DUP2 LT DUP1 ISZERO SWAP1 PUSH2 0x7F6 JUMPI POP PUSH2 0xE10 DUP2 GT ISZERO JUMPDEST PUSH2 0x837 JUMPI PUSH1 0x40 DUP1 MLOAD PUSH3 0x461BCD PUSH1 0xE5 SHL DUP2 MSTORE PUSH1 0x20 PUSH1 0x4 DUP3 ADD MSTORE PUSH1 0xD PUSH1 0x24 DUP3 ADD MSTORE PUSH13 0x62616420545741502074696D65 PUSH1 0x98 SHL PUSH1 0x44 DUP3 ADD MSTORE SWAP1 MLOAD SWAP1 DUP2 SWAP1 SUB PUSH1 0x64 ADD SWAP1 REVERT JUMPDEST PUSH1 0x0 PUSH2 0x4D1 DUP8 JUMPDEST PUSH1 0x0 DUP1 TIMESTAMP SWAP1 POP DUP3 PUSH1 0x1 PUSH1 0x1 PUSH1 0xA0 SHL SUB AND PUSH4 0x5909C0D5 PUSH1 0x40 MLOAD DUP2 PUSH4 0xFFFFFFFF AND PUSH1 0xE0 SHL DUP2 MSTORE PUSH1 0x4 ADD PUSH1 0x20 PUSH1 0x40 MLOAD DUP1 DUP4 SUB DUP2 DUP7 DUP1 EXTCODESIZE ISZERO DUP1 ISZERO PUSH2 0x87D JUMPI PUSH1 0x0 DUP1 REVERT JUMPDEST POP GAS STATICCALL ISZERO DUP1 ISZERO PUSH2 0x891 JUMPI RETURNDATASIZE PUSH1 0x0 DUP1 RETURNDATACOPY RETURNDATASIZE PUSH1 0x0 REVERT JUMPDEST POP POP POP POP PUSH1 0x40 MLOAD RETURNDATASIZE PUSH1 0x20 DUP2 LT ISZERO PUSH2 0x8A7 JUMPI PUSH1 0x0 DUP1 REVERT JUMPDEST POP MLOAD PUSH1 0x40 DUP1 MLOAD PUSH4 0x240BC6B PUSH1 0xE2 SHL DUP2 MSTORE SWAP1 MLOAD SWAP2 SWAP4 POP PUSH1 0x0 SWAP2 DUP3 SWAP2 DUP3 SWAP2 PUSH1 0x1 PUSH1 0x1 PUSH1 0xA0 SHL SUB DUP9 AND SWAP2 PUSH4 0x902F1AC SWAP2 PUSH1 0x4 DUP1 DUP4 ADD SWAP3 PUSH1 0x60 SWAP3 SWAP2 SWAP1 DUP3 SWAP1 SUB ADD DUP2 DUP7 DUP1 EXTCODESIZE ISZERO DUP1 ISZERO PUSH2 0x8F3 JUMPI PUSH1 0x0 DUP1 REVERT JUMPDEST POP GAS STATICCALL ISZERO DUP1 ISZERO PUSH2 0x907 JUMPI RETURNDATASIZE PUSH1 0x0 DUP1 RETURNDATACOPY RETURNDATASIZE PUSH1 0x0 REVERT JUMPDEST POP POP POP POP PUSH1 0x40 MLOAD RETURNDATASIZE PUSH1 0x60 DUP2 LT ISZERO PUSH2 0x91D JUMPI PUSH1 0x0 DUP1 REVERT JUMPDEST POP DUP1 MLOAD PUSH1 0x20 DUP3 ADD MLOAD PUSH1 0x40 SWAP1 SWAP3 ADD MLOAD PUSH1 0x1 PUSH1 0x1 PUSH1 0x70 SHL SUB SWAP2 DUP3 AND SWAP6 POP SWAP2 AND SWAP3 POP SWAP1 POP PUSH4 0xFFFFFFFF DUP2 AND TIMESTAMP EQ PUSH2 0x96A JUMPI DUP1 DUP5 SUB PUSH4 0xFFFFFFFF DUP2 AND DUP5 PUSH1 0x70 DUP6 SWAP1 SHL DUP2 PUSH2 0x962 JUMPI INVALID JUMPDEST DIV MUL DUP7 ADD SWAP6 POP POP JUMPDEST POP POP POP POP SWAP2 SWAP1 POP JUMP JUMPDEST PUSH2 0x384 DUP2 JUMP JUMPDEST PUSH32 0x0 DUP2 JUMP JUMPDEST PUSH1 0x0 DUP1 TIMESTAMP SWAP1 POP DUP3 PUSH1 0x1 PUSH1 0x1 PUSH1 0xA0 SHL SUB AND PUSH4 0x5A3D5493 PUSH1 0x40 MLOAD DUP2 PUSH4 0xFFFFFFFF AND PUSH1 0xE0 SHL DUP2 MSTORE PUSH1 0x4 ADD PUSH1 0x20 PUSH1 0x40 MLOAD DUP1 DUP4 SUB DUP2 DUP7 DUP1 EXTCODESIZE ISZERO DUP1 ISZERO PUSH2 0x9DC JUMPI PUSH1 0x0 DUP1 REVERT JUMPDEST POP GAS STATICCALL ISZERO DUP1 ISZERO PUSH2 0x9F0 JUMPI RETURNDATASIZE PUSH1 0x0 DUP1 RETURNDATACOPY RETURNDATASIZE PUSH1 0x0 REVERT JUMPDEST POP POP POP POP PUSH1 0x40 MLOAD RETURNDATASIZE PUSH1 0x20 DUP2 LT ISZERO PUSH2 0xA06 JUMPI PUSH1 0x0 DUP1 REVERT JUMPDEST POP MLOAD PUSH1 0x40 DUP1 MLOAD PUSH4 0x240BC6B PUSH1 0xE2 SHL DUP2 MSTORE SWAP1 MLOAD SWAP2 SWAP4 POP PUSH1 0x0 SWAP2 DUP3 SWAP2 DUP3 SWAP2 PUSH1 0x1 PUSH1 0x1 PUSH1 0xA0 SHL SUB DUP9 AND SWAP2 PUSH4 0x902F1AC SWAP2 PUSH1 0x4 DUP1 DUP4 ADD SWAP3 PUSH1 0x60 SWAP3 SWAP2 SWAP1 DUP3 SWAP1 SUB ADD DUP2 DUP7 DUP1 EXTCODESIZE ISZERO DUP1 ISZERO PUSH2 0xA52 JUMPI PUSH1 0x0 DUP1 REVERT JUMPDEST POP GAS STATICCALL ISZERO DUP1 ISZERO PUSH2 0xA66 JUMPI RETURNDATASIZE PUSH1 0x0 DUP1 RETURNDATACOPY RETURNDATASIZE PUSH1 0x0 REVERT JUMPDEST POP POP POP POP PUSH1 0x40 MLOAD RETURNDATASIZE PUSH1 0x60 DUP2 LT ISZERO PUSH2 0xA7C JUMPI PUSH1 0x0 DUP1 REVERT JUMPDEST POP DUP1 MLOAD PUSH1 0x20 DUP3 ADD MLOAD PUSH1 0x40 SWAP1 SWAP3 ADD MLOAD PUSH1 0x1 PUSH1 0x1 PUSH1 0x70 SHL SUB SWAP2 DUP3 AND SWAP6 POP SWAP2 AND SWAP3 POP SWAP1 POP PUSH4 0xFFFFFFFF DUP1 DUP3 AND SWAP1 DUP6 AND EQ PUSH2 0x96A JUMPI DUP1 DUP5 SUB PUSH4 0xFFFFFFFF DUP2 AND DUP4 PUSH1 0x70 DUP7 SWAP1 SHL DUP2 PUSH2 0x962 JUMPI INVALID INVALID LOG2 PUSH5 0x6970667358 0x22 SLT KECCAK256 0xB9 SWAP13 DUP16 PUSH1 0x33 0xB9 SGT 0x28 0xF9 0xCC STATICCALL 0xED SELFDESTRUCT SMOD MSTORE 0xAE 0xD8 PUSH21 0x23C492084C92B95302DB4F1F668364736F6C634300 MOD 0xC STOP CALLER ",
  "sha1": "79b69c6d761f77169b1e6f5e3dec15ab0ef9e1e4",
  "source": "// SPDX-License-Identifier: MIT\n\npragma solidity 0.6.12;\n\nimport 'OpenZeppelin/openzeppelin-contracts@3.4.0/contracts/proxy/Initializable.sol';\n\nimport '../../interfaces/IKeep3rV1Oracle.sol';\nimport '../../interfaces/IUniswapV2Pair.sol';\n\ncontract BaseKP3ROracle is Initializable {\n  uint public constant MIN_TWAP_TIME = 15 minutes;\n  uint public constant MAX_TWAP_TIME = 60 minutes;\n\n  IKeep3rV1Oracle public immutable kp3r;\n  address public immutable factory;\n  address public immutable celo;\n  address public immutable mcelo; \n\n  constructor(IKeep3rV1Oracle _kp3r) public {\n    kp3r = _kp3r;\n    factory = _kp3r.factory();\n    celo = _kp3r.CELO();\n    mcelo = _kp3r.MCELO();\n  }\n\n  /// @dev Return the TWAP value price0. Revert if TWAP time range is not within the threshold.\n  /// @param pair The pair to query for price0.\n  function price0TWAP(address pair) public view returns (uint) {\n    uint length = kp3r.observationLength(pair);\n    require(length > 0, 'no length-1 observation');\n    (uint lastTime, uint lastPx0Cumu, ) = kp3r.observations(pair, length - 1);\n    if (lastTime > block.timestamp - MIN_TWAP_TIME) {\n      require(length > 1, 'no length-2 observation');\n      (lastTime, lastPx0Cumu, ) = kp3r.observations(pair, length - 2);\n    }\n    uint elapsedTime = block.timestamp - lastTime;\n    require(elapsedTime >= MIN_TWAP_TIME && elapsedTime <= MAX_TWAP_TIME, 'bad TWAP time');\n    uint currPx0Cumu = currentPx0Cumu(pair);\n    return (currPx0Cumu - lastPx0Cumu) / (block.timestamp - lastTime); // overflow is desired\n  }\n\n  /// @dev Return the TWAP value price1. Revert if TWAP time range is not within the threshold.\n  /// @param pair The pair to query for price1.\n  function price1TWAP(address pair) public view returns (uint) {\n    uint length = kp3r.observationLength(pair);\n    require(length > 0, 'no length-1 observation');\n    (uint lastTime, , uint lastPx1Cumu) = kp3r.observations(pair, length - 1);\n    if (lastTime > block.timestamp - MIN_TWAP_TIME) {\n      require(length > 1, 'no length-2 observation');\n      (lastTime, , lastPx1Cumu) = kp3r.observations(pair, length - 2);\n    }\n    uint elapsedTime = block.timestamp - lastTime;\n    require(elapsedTime >= MIN_TWAP_TIME && elapsedTime <= MAX_TWAP_TIME, 'bad TWAP time');\n    uint currPx1Cumu = currentPx1Cumu(pair);\n    return (currPx1Cumu - lastPx1Cumu) / (block.timestamp - lastTime); // overflow is desired\n  }\n\n  /// @dev Return the current price0 cumulative value on uniswap.\n  /// @param pair The uniswap pair to query for price0 cumulative value.\n  function currentPx0Cumu(address pair) public view returns (uint px0Cumu) {\n    uint32 currTime = uint32(block.timestamp);\n    px0Cumu = IUniswapV2Pair(pair).price0CumulativeLast();\n    (uint reserve0, uint reserve1, uint32 lastTime) = IUniswapV2Pair(pair).getReserves();\n    if (lastTime != block.timestamp) {\n      uint32 timeElapsed = currTime - lastTime; // overflow is desired\n      px0Cumu += uint((reserve1 << 112) / reserve0) * timeElapsed; // overflow is desired\n    }\n  }\n\n  /// @dev Return the current price1 cumulative value on uniswap.\n  /// @param pair The uniswap pair to query for price1 cumulative value.\n  function currentPx1Cumu(address pair) public view returns (uint px1Cumu) {\n    uint32 currTime = uint32(block.timestamp);\n    px1Cumu = IUniswapV2Pair(pair).price1CumulativeLast();\n    (uint reserve0, uint reserve1, uint32 lastTime) = IUniswapV2Pair(pair).getReserves();\n    if (lastTime != currTime) {\n      uint32 timeElapsed = currTime - lastTime; // overflow is desired\n      px1Cumu += uint((reserve0 << 112) / reserve1) * timeElapsed; // overflow is desired\n    }\n  }\n}\n",
  "sourcePath": "contracts/oracle/BaseKP3ROracle.sol",
  "type": "contract"
}