{
  "abi": [
    {
      "constant": true,
      "inputs": [
        {
          "internalType": "address",
          "name": "_asset",
          "type": "address"
        }
      ],
      "name": "getAssetPrice",
      "outputs": [
        {
          "internalType": "uint256",
          "name": "",
          "type": "uint256"
        }
      ],
      "payable": false,
      "stateMutability": "view",
      "type": "function"
    },
    {
      "constant": true,
      "inputs": [
        {
          "internalType": "address",
          "name": "token",
          "type": "address"
        }
      ],
      "name": "getCELOPx",
      "outputs": [
        {
          "internalType": "uint256",
          "name": "",
          "type": "uint256"
        }
      ],
      "payable": false,
      "stateMutability": "view",
      "type": "function"
    },
    {
      "constant": true,
      "inputs": [],
      "name": "registry",
      "outputs": [
        {
          "internalType": "contract IRegistry",
          "name": "",
          "type": "address"
        }
      ],
      "payable": false,
      "stateMutability": "view",
      "type": "function"
    }
  ],
  "bytecode": "608060405234801561001057600080fd5b506105f9806100206000396000f3fe608060405234801561001057600080fd5b50600436106100415760003560e01c806311e56aff146100465780637b1039991461007e578063b3596f07146100a2575b600080fd5b61006c6004803603602081101561005c57600080fd5b50356001600160a01b03166100c8565b60408051918252519081900360200190f35b61008661012a565b604080516001600160a01b039092168252519081900360200190f35b61006c600480360360208110156100b857600080fd5b50356001600160a01b0316610130565b6000806100d483610130565b9050670de0b6b3a7640000600160701b82020480610121576040805162461bcd60e51b81526020600482015260056024820152640dcde40e0f60db1b604482015290519081900360640190fd5b9150505b919050565b61ce1081565b600061013a61033f565b6001600160a01b0316826001600160a01b031614156101625750670de0b6b3a7640000610125565b600080600061016f6103de565b60408051630ef90e1b60e41b81526001600160a01b038881166004830152825193945084169263ef90e1b092602480840193919291829003018186803b1580156101b857600080fd5b505afa1580156101cc573d6000803e3d6000fd5b505050506040513d60408110156101e257600080fd5b508051602090910151909350915082610238576040805162461bcd60e51b815260206004820152601360248201527205265706f72746564207072696365206973203606c1b604482015290519081900360640190fd5b6000816001600160a01b031663071b48fc876040518263ffffffff1660e01b815260040180826001600160a01b03166001600160a01b0316815260200191505060206040518083038186803b15801561029057600080fd5b505afa1580156102a4573d6000803e3d6000fd5b505050506040513d60208110156102ba57600080fd5b505190506102586102d1428363ffffffff61045016565b1061030d5760405162461bcd60e51b815260040180806020018281038252602781526020018061057d6027913960400191505060405180910390fd5b6103358461032985670de0b6b3a764000063ffffffff6104b216565b9063ffffffff61051216565b9695505050505050565b604080516823b7b6322a37b5b2b760b91b602080830191909152825180830360090181526029830180855281519183019190912063dcf0aaed60e01b909152602d830152915160009261ce109263dcf0aaed92604d8083019392829003018186803b1580156103ad57600080fd5b505afa1580156103c1573d6000803e3d6000fd5b505050506040513d60208110156103d757600080fd5b5051905090565b604080516c536f727465644f7261636c657360981b6020808301919091528251808303600d018152602d830180855281519183019190912063dcf0aaed60e01b9091526031830152915160009261ce109263dcf0aaed9260518083019392829003018186803b1580156103ad57600080fd5b6000828211156104a7576040805162461bcd60e51b815260206004820152601e60248201527f536166654d6174683a207375627472616374696f6e206f766572666c6f770000604482015290519081900360640190fd5b508082035b92915050565b6000826104c1575060006104ac565b828202828482816104ce57fe5b041461050b5760405162461bcd60e51b81526004018080602001828103825260218152602001806105a46021913960400191505060405180910390fd5b9392505050565b6000808211610568576040805162461bcd60e51b815260206004820152601a60248201527f536166654d6174683a206469766973696f6e206279207a65726f000000000000604482015290519081900360640190fd5b600082848161057357fe5b0494935050505056fe5265706f72746564207072696365206973206f6c646572207468616e203130206d696e75746573536166654d6174683a206d756c7469706c69636174696f6e206f766572666c6f77a265627a7a72315820d0e16e9ab7bb86303eec80719c37a14d015c992627890b2f8f4ba78cd90cb7f464736f6c63430005110032",
  "bytecodeSha1": "2d0b9b082678595bd6ca8a069464b69b6656e07b",
  "compiler": {
    "evm_version": "istanbul",
    "optimizer": {
      "enabled": true,
      "runs": 200
    },
    "version": "0.5.17+commit.d19bba13"
  },
  "contractName": "CeloProxyPriceProvider",
  "language": "Solidity",
  "natspec": {
    "author": "Moola",
    "methods": {
      "getAssetPrice(address)": {
        "notice": "Gets an asset price by address",
        "params": {
          "_asset": "The asset address"
        }
      },
      "getCELOPx(address)": {
        "details": "Return the value of the given input as CELO per unit, multiplied by 2**112.",
        "params": {
          "token": "The ERC-20 token to check the value."
        }
      }
    },
    "notice": "Proxy smart contract to get the price of an asset from a price source, with Celo SortedOracles         smart contracts as the only option",
    "title": "CeloProxyPriceProvider"
  },
  "opcodes": "PUSH1 0x80 PUSH1 0x40 MSTORE CALLVALUE DUP1 ISZERO PUSH2 0x10 JUMPI PUSH1 0x0 DUP1 REVERT JUMPDEST POP PUSH1 0x4 CALLDATASIZE LT PUSH2 0x41 JUMPI PUSH1 0x0 CALLDATALOAD PUSH1 0xE0 SHR DUP1 PUSH4 0x11E56AFF EQ PUSH2 0x46 JUMPI DUP1 PUSH4 0x7B103999 EQ PUSH2 0x7E JUMPI DUP1 PUSH4 0xB3596F07 EQ PUSH2 0xA2 JUMPI JUMPDEST PUSH1 0x0 DUP1 REVERT JUMPDEST PUSH2 0x6C PUSH1 0x4 DUP1 CALLDATASIZE SUB PUSH1 0x20 DUP2 LT ISZERO PUSH2 0x5C JUMPI PUSH1 0x0 DUP1 REVERT JUMPDEST POP CALLDATALOAD PUSH1 0x1 PUSH1 0x1 PUSH1 0xA0 SHL SUB AND PUSH2 0xC8 JUMP JUMPDEST PUSH1 0x40 DUP1 MLOAD SWAP2 DUP3 MSTORE MLOAD SWAP1 DUP2 SWAP1 SUB PUSH1 0x20 ADD SWAP1 RETURN JUMPDEST PUSH2 0x86 PUSH2 0x12A JUMP JUMPDEST PUSH1 0x40 DUP1 MLOAD PUSH1 0x1 PUSH1 0x1 PUSH1 0xA0 SHL SUB SWAP1 SWAP3 AND DUP3 MSTORE MLOAD SWAP1 DUP2 SWAP1 SUB PUSH1 0x20 ADD SWAP1 RETURN JUMPDEST PUSH2 0x6C PUSH1 0x4 DUP1 CALLDATASIZE SUB PUSH1 0x20 DUP2 LT ISZERO PUSH2 0xB8 JUMPI PUSH1 0x0 DUP1 REVERT JUMPDEST POP CALLDATALOAD PUSH1 0x1 PUSH1 0x1 PUSH1 0xA0 SHL SUB AND PUSH2 0x130 JUMP JUMPDEST PUSH1 0x0 DUP1 PUSH2 0xD4 DUP4 PUSH2 0x130 JUMP JUMPDEST SWAP1 POP PUSH8 0xDE0B6B3A7640000 PUSH1 0x1 PUSH1 0x70 SHL DUP3 MUL DIV DUP1 PUSH2 0x121 JUMPI PUSH1 0x40 DUP1 MLOAD PUSH3 0x461BCD PUSH1 0xE5 SHL DUP2 MSTORE PUSH1 0x20 PUSH1 0x4 DUP3 ADD MSTORE PUSH1 0x5 PUSH1 0x24 DUP3 ADD MSTORE PUSH5 0xDCDE40E0F PUSH1 0xDB SHL PUSH1 0x44 DUP3 ADD MSTORE SWAP1 MLOAD SWAP1 DUP2 SWAP1 SUB PUSH1 0x64 ADD SWAP1 REVERT JUMPDEST SWAP2 POP POP JUMPDEST SWAP2 SWAP1 POP JUMP JUMPDEST PUSH2 0xCE10 DUP2 JUMP JUMPDEST PUSH1 0x0 PUSH2 0x13A PUSH2 0x33F JUMP JUMPDEST PUSH1 0x1 PUSH1 0x1 PUSH1 0xA0 SHL SUB AND DUP3 PUSH1 0x1 PUSH1 0x1 PUSH1 0xA0 SHL SUB AND EQ ISZERO PUSH2 0x162 JUMPI POP PUSH8 0xDE0B6B3A7640000 PUSH2 0x125 JUMP JUMPDEST PUSH1 0x0 DUP1 PUSH1 0x0 PUSH2 0x16F PUSH2 0x3DE JUMP JUMPDEST PUSH1 0x40 DUP1 MLOAD PUSH4 0xEF90E1B PUSH1 0xE4 SHL DUP2 MSTORE PUSH1 0x1 PUSH1 0x1 PUSH1 0xA0 SHL SUB DUP9 DUP2 AND PUSH1 0x4 DUP4 ADD MSTORE DUP3 MLOAD SWAP4 SWAP5 POP DUP5 AND SWAP3 PUSH4 0xEF90E1B0 SWAP3 PUSH1 0x24 DUP1 DUP5 ADD SWAP4 SWAP2 SWAP3 SWAP2 DUP3 SWAP1 SUB ADD DUP2 DUP7 DUP1 EXTCODESIZE ISZERO DUP1 ISZERO PUSH2 0x1B8 JUMPI PUSH1 0x0 DUP1 REVERT JUMPDEST POP GAS STATICCALL ISZERO DUP1 ISZERO PUSH2 0x1CC JUMPI RETURNDATASIZE PUSH1 0x0 DUP1 RETURNDATACOPY RETURNDATASIZE PUSH1 0x0 REVERT JUMPDEST POP POP POP POP PUSH1 0x40 MLOAD RETURNDATASIZE PUSH1 0x40 DUP2 LT ISZERO PUSH2 0x1E2 JUMPI PUSH1 0x0 DUP1 REVERT JUMPDEST POP DUP1 MLOAD PUSH1 0x20 SWAP1 SWAP2 ADD MLOAD SWAP1 SWAP4 POP SWAP2 POP DUP3 PUSH2 0x238 JUMPI PUSH1 0x40 DUP1 MLOAD PUSH3 0x461BCD PUSH1 0xE5 SHL DUP2 MSTORE PUSH1 0x20 PUSH1 0x4 DUP3 ADD MSTORE PUSH1 0x13 PUSH1 0x24 DUP3 ADD MSTORE PUSH19 0x5265706F72746564207072696365206973203 PUSH1 0x6C SHL PUSH1 0x44 DUP3 ADD MSTORE SWAP1 MLOAD SWAP1 DUP2 SWAP1 SUB PUSH1 0x64 ADD SWAP1 REVERT JUMPDEST PUSH1 0x0 DUP2 PUSH1 0x1 PUSH1 0x1 PUSH1 0xA0 SHL SUB AND PUSH4 0x71B48FC DUP8 PUSH1 0x40 MLOAD DUP3 PUSH4 0xFFFFFFFF AND PUSH1 0xE0 SHL DUP2 MSTORE PUSH1 0x4 ADD DUP1 DUP3 PUSH1 0x1 PUSH1 0x1 PUSH1 0xA0 SHL SUB AND PUSH1 0x1 PUSH1 0x1 PUSH1 0xA0 SHL SUB AND DUP2 MSTORE PUSH1 0x20 ADD SWAP2 POP POP PUSH1 0x20 PUSH1 0x40 MLOAD DUP1 DUP4 SUB DUP2 DUP7 DUP1 EXTCODESIZE ISZERO DUP1 ISZERO PUSH2 0x290 JUMPI PUSH1 0x0 DUP1 REVERT JUMPDEST POP GAS STATICCALL ISZERO DUP1 ISZERO PUSH2 0x2A4 JUMPI RETURNDATASIZE PUSH1 0x0 DUP1 RETURNDATACOPY RETURNDATASIZE PUSH1 0x0 REVERT JUMPDEST POP POP POP POP PUSH1 0x40 MLOAD RETURNDATASIZE PUSH1 0x20 DUP2 LT ISZERO PUSH2 0x2BA JUMPI PUSH1 0x0 DUP1 REVERT JUMPDEST POP MLOAD SWAP1 POP PUSH2 0x258 PUSH2 0x2D1 TIMESTAMP DUP4 PUSH4 0xFFFFFFFF PUSH2 0x450 AND JUMP JUMPDEST LT PUSH2 0x30D JUMPI PUSH1 0x40 MLOAD PUSH3 0x461BCD PUSH1 0xE5 SHL DUP2 MSTORE PUSH1 0x4 ADD DUP1 DUP1 PUSH1 0x20 ADD DUP3 DUP2 SUB DUP3 MSTORE PUSH1 0x27 DUP2 MSTORE PUSH1 0x20 ADD DUP1 PUSH2 0x57D PUSH1 0x27 SWAP2 CODECOPY PUSH1 0x40 ADD SWAP2 POP POP PUSH1 0x40 MLOAD DUP1 SWAP2 SUB SWAP1 REVERT JUMPDEST PUSH2 0x335 DUP5 PUSH2 0x329 DUP6 PUSH8 0xDE0B6B3A7640000 PUSH4 0xFFFFFFFF PUSH2 0x4B2 AND JUMP JUMPDEST SWAP1 PUSH4 0xFFFFFFFF PUSH2 0x512 AND JUMP JUMPDEST SWAP7 SWAP6 POP POP POP POP POP POP JUMP JUMPDEST PUSH1 0x40 DUP1 MLOAD PUSH9 0x23B7B6322A37B5B2B7 PUSH1 0xB9 SHL PUSH1 0x20 DUP1 DUP4 ADD SWAP2 SWAP1 SWAP2 MSTORE DUP3 MLOAD DUP1 DUP4 SUB PUSH1 0x9 ADD DUP2 MSTORE PUSH1 0x29 DUP4 ADD DUP1 DUP6 MSTORE DUP2 MLOAD SWAP2 DUP4 ADD SWAP2 SWAP1 SWAP2 KECCAK256 PUSH4 0xDCF0AAED PUSH1 0xE0 SHL SWAP1 SWAP2 MSTORE PUSH1 0x2D DUP4 ADD MSTORE SWAP2 MLOAD PUSH1 0x0 SWAP3 PUSH2 0xCE10 SWAP3 PUSH4 0xDCF0AAED SWAP3 PUSH1 0x4D DUP1 DUP4 ADD SWAP4 SWAP3 DUP3 SWAP1 SUB ADD DUP2 DUP7 DUP1 EXTCODESIZE ISZERO DUP1 ISZERO PUSH2 0x3AD JUMPI PUSH1 0x0 DUP1 REVERT JUMPDEST POP GAS STATICCALL ISZERO DUP1 ISZERO PUSH2 0x3C1 JUMPI RETURNDATASIZE PUSH1 0x0 DUP1 RETURNDATACOPY RETURNDATASIZE PUSH1 0x0 REVERT JUMPDEST POP POP POP POP PUSH1 0x40 MLOAD RETURNDATASIZE PUSH1 0x20 DUP2 LT ISZERO PUSH2 0x3D7 JUMPI PUSH1 0x0 DUP1 REVERT JUMPDEST POP MLOAD SWAP1 POP SWAP1 JUMP JUMPDEST PUSH1 0x40 DUP1 MLOAD PUSH13 0x536F727465644F7261636C6573 PUSH1 0x98 SHL PUSH1 0x20 DUP1 DUP4 ADD SWAP2 SWAP1 SWAP2 MSTORE DUP3 MLOAD DUP1 DUP4 SUB PUSH1 0xD ADD DUP2 MSTORE PUSH1 0x2D DUP4 ADD DUP1 DUP6 MSTORE DUP2 MLOAD SWAP2 DUP4 ADD SWAP2 SWAP1 SWAP2 KECCAK256 PUSH4 0xDCF0AAED PUSH1 0xE0 SHL SWAP1 SWAP2 MSTORE PUSH1 0x31 DUP4 ADD MSTORE SWAP2 MLOAD PUSH1 0x0 SWAP3 PUSH2 0xCE10 SWAP3 PUSH4 0xDCF0AAED SWAP3 PUSH1 0x51 DUP1 DUP4 ADD SWAP4 SWAP3 DUP3 SWAP1 SUB ADD DUP2 DUP7 DUP1 EXTCODESIZE ISZERO DUP1 ISZERO PUSH2 0x3AD JUMPI PUSH1 0x0 DUP1 REVERT JUMPDEST PUSH1 0x0 DUP3 DUP3 GT ISZERO PUSH2 0x4A7 JUMPI PUSH1 0x40 DUP1 MLOAD PUSH3 0x461BCD PUSH1 0xE5 SHL DUP2 MSTORE PUSH1 0x20 PUSH1 0x4 DUP3 ADD MSTORE PUSH1 0x1E PUSH1 0x24 DUP3 ADD MSTORE PUSH32 0x536166654D6174683A207375627472616374696F6E206F766572666C6F770000 PUSH1 0x44 DUP3 ADD MSTORE SWAP1 MLOAD SWAP1 DUP2 SWAP1 SUB PUSH1 0x64 ADD SWAP1 REVERT JUMPDEST POP DUP1 DUP3 SUB JUMPDEST SWAP3 SWAP2 POP POP JUMP JUMPDEST PUSH1 0x0 DUP3 PUSH2 0x4C1 JUMPI POP PUSH1 0x0 PUSH2 0x4AC JUMP JUMPDEST DUP3 DUP3 MUL DUP3 DUP5 DUP3 DUP2 PUSH2 0x4CE JUMPI INVALID JUMPDEST DIV EQ PUSH2 0x50B JUMPI PUSH1 0x40 MLOAD PUSH3 0x461BCD PUSH1 0xE5 SHL DUP2 MSTORE PUSH1 0x4 ADD DUP1 DUP1 PUSH1 0x20 ADD DUP3 DUP2 SUB DUP3 MSTORE PUSH1 0x21 DUP2 MSTORE PUSH1 0x20 ADD DUP1 PUSH2 0x5A4 PUSH1 0x21 SWAP2 CODECOPY PUSH1 0x40 ADD SWAP2 POP POP PUSH1 0x40 MLOAD DUP1 SWAP2 SUB SWAP1 REVERT JUMPDEST SWAP4 SWAP3 POP POP POP JUMP JUMPDEST PUSH1 0x0 DUP1 DUP3 GT PUSH2 0x568 JUMPI PUSH1 0x40 DUP1 MLOAD PUSH3 0x461BCD PUSH1 0xE5 SHL DUP2 MSTORE PUSH1 0x20 PUSH1 0x4 DUP3 ADD MSTORE PUSH1 0x1A PUSH1 0x24 DUP3 ADD MSTORE PUSH32 0x536166654D6174683A206469766973696F6E206279207A65726F000000000000 PUSH1 0x44 DUP3 ADD MSTORE SWAP1 MLOAD SWAP1 DUP2 SWAP1 SUB PUSH1 0x64 ADD SWAP1 REVERT JUMPDEST PUSH1 0x0 DUP3 DUP5 DUP2 PUSH2 0x573 JUMPI INVALID JUMPDEST DIV SWAP5 SWAP4 POP POP POP POP JUMP INVALID MSTORE PUSH6 0x706F72746564 KECCAK256 PUSH17 0x72696365206973206F6C64657220746861 PUSH15 0x203130206D696E7574657353616665 0x4D PUSH2 0x7468 GASPRICE KECCAK256 PUSH14 0x756C7469706C69636174696F6E20 PUSH16 0x766572666C6F77A265627A7A72315820 0xD0 0xE1 PUSH15 0x9AB7BB86303EEC80719C37A14D015C SWAP10 0x26 0x27 DUP10 SIGNEXTEND 0x2F DUP16 0x4B 0xA7 DUP13 0xD9 0xC 0xB7 DELEGATECALL PUSH5 0x736F6C6343 STOP SDIV GT STOP ORIGIN ",
  "sha1": "72fa90262250c2e03aa45eb7725fd5f3f29feef8",
  "source": "pragma solidity ^0.5.0;\n\nimport 'OpenZeppelin/openzeppelin-contracts@2.3.0/contracts/math/SafeMath.sol';\nimport \"../../interfaces/IPriceOracleGetter.sol\";\n\ninterface ISortedOracles {\n    function medianRate(address) external view returns (uint256, uint256);\n    function medianTimestamp(address) external view returns (uint256);\n}\n\ninterface IRegistry {\n    function getAddressForOrDie(bytes32) external view returns (address);\n}\n\ncontract UsingRegistry {\n    bytes32 constant GOLD_TOKEN_REGISTRY_ID = keccak256(abi.encodePacked(\"GoldToken\"));\n    bytes32 constant SORTED_ORACLES_REGISTRY_ID = keccak256(abi.encodePacked(\"SortedOracles\"));\n\n    IRegistry constant public registry = IRegistry(0x000000000000000000000000000000000000ce10);\n\n    function getGoldToken() internal view returns (address) {\n        return registry.getAddressForOrDie(GOLD_TOKEN_REGISTRY_ID);\n    }\n\n    function getSortedOracles() internal view returns (ISortedOracles) {\n        return ISortedOracles(registry.getAddressForOrDie(SORTED_ORACLES_REGISTRY_ID));\n    }\n}\n\n/// @title CeloProxyPriceProvider\n/// @author Moola\n/// @notice Proxy smart contract to get the price of an asset from a price source, with Celo SortedOracles\n///         smart contracts as the only option\ncontract CeloProxyPriceProvider is IPriceOracleGetter, UsingRegistry {\n    using SafeMath for uint256;\n\n    /// @notice Gets an asset price by address\n    /// @param _asset The asset address\n    function getAssetPrice(address _asset) public view returns(uint256) {\n        if (_asset == getGoldToken()) {\n            return 1 ether;\n        }\n        uint256 _price;\n        uint256 _divisor;\n        ISortedOracles _oracles = getSortedOracles();\n        (_price, _divisor) = _oracles.medianRate(_asset);\n        require(_price > 0, \"Reported price is 0\");\n        uint _reportTime = _oracles.medianTimestamp(_asset);\n        require(block.timestamp.sub(_reportTime) < 10 minutes, \"Reported price is older than 10 minutes\");\n        return _divisor.mul(1 ether).div(_price);\n    }\n\n    /// @dev Return the value of the given input as CELO per unit, multiplied by 2**112.\n    /// @param token The ERC-20 token to check the value.\n    function getCELOPx(address token) external view returns (uint) {\n        uint unscaledPrice = getAssetPrice(token);\n        uint px = (unscaledPrice * 2**112) / 10**18;\n        require(px != 0, 'no px');\n        return px;\n    }\n}\n",
  "sourcePath": "contracts/oracle/SortedOracleProxy.sol",
  "type": "contract"
}