{
  "abi": [
    {
      "inputs": [],
      "name": "fail",
      "outputs": [],
      "stateMutability": "pure",
      "type": "function"
    },
    {
      "inputs": [],
      "name": "initialize",
      "outputs": [],
      "stateMutability": "nonpayable",
      "type": "function"
    },
    {
      "inputs": [],
      "name": "initializeNested",
      "outputs": [],
      "stateMutability": "nonpayable",
      "type": "function"
    },
    {
      "inputs": [
        {
          "internalType": "uint256",
          "name": "_x",
          "type": "uint256"
        }
      ],
      "name": "initializeWithX",
      "outputs": [],
      "stateMutability": "payable",
      "type": "function"
    },
    {
      "inputs": [],
      "name": "initializerRan",
      "outputs": [
        {
          "internalType": "bool",
          "name": "",
          "type": "bool"
        }
      ],
      "stateMutability": "view",
      "type": "function"
    },
    {
      "inputs": [
        {
          "internalType": "uint256",
          "name": "_x",
          "type": "uint256"
        }
      ],
      "name": "nonInitializable",
      "outputs": [],
      "stateMutability": "payable",
      "type": "function"
    },
    {
      "inputs": [],
      "name": "x",
      "outputs": [
        {
          "internalType": "uint256",
          "name": "",
          "type": "uint256"
        }
      ],
      "stateMutability": "view",
      "type": "function"
    }
  ],
  "bytecode": "608060405234801561001057600080fd5b50610425806100206000396000f3fe60806040526004361061006f5760003560e01c8063a9cc47181161004e578063a9cc4718146100cf578063c3b8ef2a146100e4578063cb3a528d1461010d578063e955c9ec146101225761006f565b806218eaa8146100745780630c55699c146100935780638129fc1c146100ba575b600080fd5b6100916004803603602081101561008a57600080fd5b503561013f565b005b34801561009f57600080fd5b506100a86101e7565b60408051918252519081900360200190f35b3480156100c657600080fd5b506100916101ed565b3480156100db57600080fd5b506100916102a0565b3480156100f057600080fd5b506100f96102ed565b604080519115158252519081900360200190f35b34801561011957600080fd5b506100916102fc565b6100916004803603602081101561013857600080fd5b50356103a5565b600054610100900460ff168061015857506101586103aa565b80610166575060005460ff16155b6101a15760405162461bcd60e51b815260040180806020018281038252602e8152602001806103c2602e913960400191505060405180910390fd5b600054610100900460ff161580156101cc576000805460ff1961ff0019909116610100171660011790555b600182905580156101e3576000805461ff00191690555b5050565b60015481565b600054610100900460ff168061020657506102066103aa565b80610214575060005460ff16155b61024f5760405162461bcd60e51b815260040180806020018281038252602e8152602001806103c2602e913960400191505060405180910390fd5b600054610100900460ff1615801561027a576000805460ff1961ff0019909116610100171660011790555b6000805462ff0000191662010000179055801561029d576000805461ff00191690555b50565b6040805162461bcd60e51b815260206004820181905260248201527f496e697469616c697a61626c654d6f636b20666f72636564206661696c757265604482015290519081900360640190fd5b60005462010000900460ff1681565b600054610100900460ff168061031557506103156103aa565b80610323575060005460ff16155b61035e5760405162461bcd60e51b815260040180806020018281038252602e8152602001806103c2602e913960400191505060405180910390fd5b600054610100900460ff16158015610389576000805460ff1961ff0019909116610100171660011790555b6103916101ed565b801561029d576000805461ff001916905550565b600155565b60006103b5306103bb565b15905090565b3b15159056fe496e697469616c697a61626c653a20636f6e747261637420697320616c726561647920696e697469616c697a6564a26469706673582212207d93f1e34fb65d4ccf04baf89a0cb9974a0ad09a3c21ff1d5670bd8eb0f1c9f964736f6c634300060c0033",
  "bytecodeSha1": "96ebbf155d663610a9887342260fcee0c427521f",
  "compiler": {
    "evm_version": "istanbul",
    "optimizer": {
      "enabled": true,
      "runs": 200
    },
    "version": "0.6.12+commit.27d51765"
  },
  "contractName": "InitializableMock",
  "language": "Solidity",
  "natspec": {
    "details": "This contract is a mock to test initializable functionality",
    "kind": "dev",
    "methods": {},
    "title": "InitializableMock",
    "version": 1
  },
  "opcodes": "PUSH1 0x80 PUSH1 0x40 MSTORE PUSH1 0x4 CALLDATASIZE LT PUSH2 0x6F JUMPI PUSH1 0x0 CALLDATALOAD PUSH1 0xE0 SHR DUP1 PUSH4 0xA9CC4718 GT PUSH2 0x4E JUMPI DUP1 PUSH4 0xA9CC4718 EQ PUSH2 0xCF JUMPI DUP1 PUSH4 0xC3B8EF2A EQ PUSH2 0xE4 JUMPI DUP1 PUSH4 0xCB3A528D EQ PUSH2 0x10D JUMPI DUP1 PUSH4 0xE955C9EC EQ PUSH2 0x122 JUMPI PUSH2 0x6F JUMP JUMPDEST DUP1 PUSH3 0x18EAA8 EQ PUSH2 0x74 JUMPI DUP1 PUSH4 0xC55699C EQ PUSH2 0x93 JUMPI DUP1 PUSH4 0x8129FC1C EQ PUSH2 0xBA JUMPI JUMPDEST PUSH1 0x0 DUP1 REVERT JUMPDEST PUSH2 0x91 PUSH1 0x4 DUP1 CALLDATASIZE SUB PUSH1 0x20 DUP2 LT ISZERO PUSH2 0x8A JUMPI PUSH1 0x0 DUP1 REVERT JUMPDEST POP CALLDATALOAD PUSH2 0x13F JUMP JUMPDEST STOP JUMPDEST CALLVALUE DUP1 ISZERO PUSH2 0x9F JUMPI PUSH1 0x0 DUP1 REVERT JUMPDEST POP PUSH2 0xA8 PUSH2 0x1E7 JUMP JUMPDEST PUSH1 0x40 DUP1 MLOAD SWAP2 DUP3 MSTORE MLOAD SWAP1 DUP2 SWAP1 SUB PUSH1 0x20 ADD SWAP1 RETURN JUMPDEST CALLVALUE DUP1 ISZERO PUSH2 0xC6 JUMPI PUSH1 0x0 DUP1 REVERT JUMPDEST POP PUSH2 0x91 PUSH2 0x1ED JUMP JUMPDEST CALLVALUE DUP1 ISZERO PUSH2 0xDB JUMPI PUSH1 0x0 DUP1 REVERT JUMPDEST POP PUSH2 0x91 PUSH2 0x2A0 JUMP JUMPDEST CALLVALUE DUP1 ISZERO PUSH2 0xF0 JUMPI PUSH1 0x0 DUP1 REVERT JUMPDEST POP PUSH2 0xF9 PUSH2 0x2ED JUMP JUMPDEST PUSH1 0x40 DUP1 MLOAD SWAP2 ISZERO ISZERO DUP3 MSTORE MLOAD SWAP1 DUP2 SWAP1 SUB PUSH1 0x20 ADD SWAP1 RETURN JUMPDEST CALLVALUE DUP1 ISZERO PUSH2 0x119 JUMPI PUSH1 0x0 DUP1 REVERT JUMPDEST POP PUSH2 0x91 PUSH2 0x2FC JUMP JUMPDEST PUSH2 0x91 PUSH1 0x4 DUP1 CALLDATASIZE SUB PUSH1 0x20 DUP2 LT ISZERO PUSH2 0x138 JUMPI PUSH1 0x0 DUP1 REVERT JUMPDEST POP CALLDATALOAD PUSH2 0x3A5 JUMP JUMPDEST PUSH1 0x0 SLOAD PUSH2 0x100 SWAP1 DIV PUSH1 0xFF AND DUP1 PUSH2 0x158 JUMPI POP PUSH2 0x158 PUSH2 0x3AA JUMP JUMPDEST DUP1 PUSH2 0x166 JUMPI POP PUSH1 0x0 SLOAD PUSH1 0xFF AND ISZERO JUMPDEST PUSH2 0x1A1 JUMPI PUSH1 0x40 MLOAD PUSH3 0x461BCD PUSH1 0xE5 SHL DUP2 MSTORE PUSH1 0x4 ADD DUP1 DUP1 PUSH1 0x20 ADD DUP3 DUP2 SUB DUP3 MSTORE PUSH1 0x2E DUP2 MSTORE PUSH1 0x20 ADD DUP1 PUSH2 0x3C2 PUSH1 0x2E SWAP2 CODECOPY PUSH1 0x40 ADD SWAP2 POP POP PUSH1 0x40 MLOAD DUP1 SWAP2 SUB SWAP1 REVERT JUMPDEST PUSH1 0x0 SLOAD PUSH2 0x100 SWAP1 DIV PUSH1 0xFF AND ISZERO DUP1 ISZERO PUSH2 0x1CC JUMPI PUSH1 0x0 DUP1 SLOAD PUSH1 0xFF NOT PUSH2 0xFF00 NOT SWAP1 SWAP2 AND PUSH2 0x100 OR AND PUSH1 0x1 OR SWAP1 SSTORE JUMPDEST PUSH1 0x1 DUP3 SWAP1 SSTORE DUP1 ISZERO PUSH2 0x1E3 JUMPI PUSH1 0x0 DUP1 SLOAD PUSH2 0xFF00 NOT AND SWAP1 SSTORE JUMPDEST POP POP JUMP JUMPDEST PUSH1 0x1 SLOAD DUP2 JUMP JUMPDEST PUSH1 0x0 SLOAD PUSH2 0x100 SWAP1 DIV PUSH1 0xFF AND DUP1 PUSH2 0x206 JUMPI POP PUSH2 0x206 PUSH2 0x3AA JUMP JUMPDEST DUP1 PUSH2 0x214 JUMPI POP PUSH1 0x0 SLOAD PUSH1 0xFF AND ISZERO JUMPDEST PUSH2 0x24F JUMPI PUSH1 0x40 MLOAD PUSH3 0x461BCD PUSH1 0xE5 SHL DUP2 MSTORE PUSH1 0x4 ADD DUP1 DUP1 PUSH1 0x20 ADD DUP3 DUP2 SUB DUP3 MSTORE PUSH1 0x2E DUP2 MSTORE PUSH1 0x20 ADD DUP1 PUSH2 0x3C2 PUSH1 0x2E SWAP2 CODECOPY PUSH1 0x40 ADD SWAP2 POP POP PUSH1 0x40 MLOAD DUP1 SWAP2 SUB SWAP1 REVERT JUMPDEST PUSH1 0x0 SLOAD PUSH2 0x100 SWAP1 DIV PUSH1 0xFF AND ISZERO DUP1 ISZERO PUSH2 0x27A JUMPI PUSH1 0x0 DUP1 SLOAD PUSH1 0xFF NOT PUSH2 0xFF00 NOT SWAP1 SWAP2 AND PUSH2 0x100 OR AND PUSH1 0x1 OR SWAP1 SSTORE JUMPDEST PUSH1 0x0 DUP1 SLOAD PUSH3 0xFF0000 NOT AND PUSH3 0x10000 OR SWAP1 SSTORE DUP1 ISZERO PUSH2 0x29D JUMPI PUSH1 0x0 DUP1 SLOAD PUSH2 0xFF00 NOT AND SWAP1 SSTORE JUMPDEST POP JUMP JUMPDEST PUSH1 0x40 DUP1 MLOAD PUSH3 0x461BCD PUSH1 0xE5 SHL DUP2 MSTORE PUSH1 0x20 PUSH1 0x4 DUP3 ADD DUP2 SWAP1 MSTORE PUSH1 0x24 DUP3 ADD MSTORE PUSH32 0x496E697469616C697A61626C654D6F636B20666F72636564206661696C757265 PUSH1 0x44 DUP3 ADD MSTORE SWAP1 MLOAD SWAP1 DUP2 SWAP1 SUB PUSH1 0x64 ADD SWAP1 REVERT JUMPDEST PUSH1 0x0 SLOAD PUSH3 0x10000 SWAP1 DIV PUSH1 0xFF AND DUP2 JUMP JUMPDEST PUSH1 0x0 SLOAD PUSH2 0x100 SWAP1 DIV PUSH1 0xFF AND DUP1 PUSH2 0x315 JUMPI POP PUSH2 0x315 PUSH2 0x3AA JUMP JUMPDEST DUP1 PUSH2 0x323 JUMPI POP PUSH1 0x0 SLOAD PUSH1 0xFF AND ISZERO JUMPDEST PUSH2 0x35E JUMPI PUSH1 0x40 MLOAD PUSH3 0x461BCD PUSH1 0xE5 SHL DUP2 MSTORE PUSH1 0x4 ADD DUP1 DUP1 PUSH1 0x20 ADD DUP3 DUP2 SUB DUP3 MSTORE PUSH1 0x2E DUP2 MSTORE PUSH1 0x20 ADD DUP1 PUSH2 0x3C2 PUSH1 0x2E SWAP2 CODECOPY PUSH1 0x40 ADD SWAP2 POP POP PUSH1 0x40 MLOAD DUP1 SWAP2 SUB SWAP1 REVERT JUMPDEST PUSH1 0x0 SLOAD PUSH2 0x100 SWAP1 DIV PUSH1 0xFF AND ISZERO DUP1 ISZERO PUSH2 0x389 JUMPI PUSH1 0x0 DUP1 SLOAD PUSH1 0xFF NOT PUSH2 0xFF00 NOT SWAP1 SWAP2 AND PUSH2 0x100 OR AND PUSH1 0x1 OR SWAP1 SSTORE JUMPDEST PUSH2 0x391 PUSH2 0x1ED JUMP JUMPDEST DUP1 ISZERO PUSH2 0x29D JUMPI PUSH1 0x0 DUP1 SLOAD PUSH2 0xFF00 NOT AND SWAP1 SSTORE POP JUMP JUMPDEST PUSH1 0x1 SSTORE JUMP JUMPDEST PUSH1 0x0 PUSH2 0x3B5 ADDRESS PUSH2 0x3BB JUMP JUMPDEST ISZERO SWAP1 POP SWAP1 JUMP JUMPDEST EXTCODESIZE ISZERO ISZERO SWAP1 JUMP INVALID 0x49 PUSH15 0x697469616C697A61626C653A20636F PUSH15 0x747261637420697320616C72656164 PUSH26 0x20696E697469616C697A6564A26469706673582212207D93F1E3 0x4F 0xB6 0x5D 0x4C 0xCF DIV 0xBA 0xF8 SWAP11 0xC 0xB9 SWAP8 0x4A EXP 0xD0 SWAP11 EXTCODECOPY 0x21 SELFDESTRUCT SAR JUMP PUSH17 0xBD8EB0F1C9F964736F6C634300060C0033 ",
  "sha1": "eefd00245617ef5cf2f9dcaf390ff707dad91bf6",
  "source": "// SPDX-License-Identifier: MIT\n\npragma solidity >=0.6.0 <0.8.0;\n\nimport \"../proxy/Initializable.sol\";\n\n/**\n * @title InitializableMock\n * @dev This contract is a mock to test initializable functionality\n */\ncontract InitializableMock is Initializable {\n\n  bool public initializerRan;\n  uint256 public x;\n\n  function initialize() public initializer {\n    initializerRan = true;\n  }\n\n  function initializeNested() public initializer {\n    initialize();\n  }\n\n  function initializeWithX(uint256 _x) public payable initializer {\n    x = _x;\n  }\n\n  function nonInitializable(uint256 _x) public payable {\n    x = _x;\n  }\n\n  function fail() public pure {\n    require(false, \"InitializableMock forced failure\");\n  }\n\n}\n",
  "sourcePath": "contracts/openzeppelin/mocks/InitializableMock.sol",
  "type": "contract"
}