{
  "abi": [
    {
      "inputs": [
        {
          "internalType": "address",
          "name": "_owner",
          "type": "address"
        },
        {
          "internalType": "address",
          "name": "_rewardsDistribution",
          "type": "address"
        },
        {
          "internalType": "address",
          "name": "_rewardsToken",
          "type": "address"
        },
        {
          "internalType": "address",
          "name": "_stakingToken",
          "type": "address"
        }
      ],
      "stateMutability": "nonpayable",
      "type": "constructor"
    },
    {
      "anonymous": false,
      "inputs": [
        {
          "indexed": false,
          "internalType": "address",
          "name": "oldOwner",
          "type": "address"
        },
        {
          "indexed": false,
          "internalType": "address",
          "name": "newOwner",
          "type": "address"
        }
      ],
      "name": "OwnerChanged",
      "type": "event"
    },
    {
      "anonymous": false,
      "inputs": [
        {
          "indexed": false,
          "internalType": "address",
          "name": "newOwner",
          "type": "address"
        }
      ],
      "name": "OwnerNominated",
      "type": "event"
    },
    {
      "anonymous": false,
      "inputs": [
        {
          "indexed": false,
          "internalType": "address",
          "name": "token",
          "type": "address"
        },
        {
          "indexed": false,
          "internalType": "uint256",
          "name": "amount",
          "type": "uint256"
        }
      ],
      "name": "Recovered",
      "type": "event"
    },
    {
      "anonymous": false,
      "inputs": [
        {
          "indexed": false,
          "internalType": "uint256",
          "name": "reward",
          "type": "uint256"
        }
      ],
      "name": "RewardAdded",
      "type": "event"
    },
    {
      "anonymous": false,
      "inputs": [
        {
          "indexed": true,
          "internalType": "address",
          "name": "user",
          "type": "address"
        },
        {
          "indexed": false,
          "internalType": "uint256",
          "name": "reward",
          "type": "uint256"
        }
      ],
      "name": "RewardPaid",
      "type": "event"
    },
    {
      "anonymous": false,
      "inputs": [
        {
          "indexed": false,
          "internalType": "uint256",
          "name": "newDuration",
          "type": "uint256"
        }
      ],
      "name": "RewardsDurationUpdated",
      "type": "event"
    },
    {
      "anonymous": false,
      "inputs": [
        {
          "indexed": true,
          "internalType": "address",
          "name": "user",
          "type": "address"
        },
        {
          "indexed": false,
          "internalType": "uint256",
          "name": "amount",
          "type": "uint256"
        }
      ],
      "name": "Staked",
      "type": "event"
    },
    {
      "anonymous": false,
      "inputs": [
        {
          "indexed": true,
          "internalType": "address",
          "name": "user",
          "type": "address"
        },
        {
          "indexed": false,
          "internalType": "uint256",
          "name": "amount",
          "type": "uint256"
        }
      ],
      "name": "Withdrawn",
      "type": "event"
    },
    {
      "inputs": [],
      "name": "acceptOwnership",
      "outputs": [],
      "stateMutability": "nonpayable",
      "type": "function"
    },
    {
      "inputs": [
        {
          "internalType": "address",
          "name": "account",
          "type": "address"
        }
      ],
      "name": "balanceOf",
      "outputs": [
        {
          "internalType": "uint256",
          "name": "",
          "type": "uint256"
        }
      ],
      "stateMutability": "view",
      "type": "function"
    },
    {
      "inputs": [
        {
          "internalType": "address",
          "name": "account",
          "type": "address"
        }
      ],
      "name": "earned",
      "outputs": [
        {
          "internalType": "uint256",
          "name": "",
          "type": "uint256"
        }
      ],
      "stateMutability": "view",
      "type": "function"
    },
    {
      "inputs": [],
      "name": "exit",
      "outputs": [],
      "stateMutability": "nonpayable",
      "type": "function"
    },
    {
      "inputs": [],
      "name": "getReward",
      "outputs": [],
      "stateMutability": "nonpayable",
      "type": "function"
    },
    {
      "inputs": [],
      "name": "getRewardForDuration",
      "outputs": [
        {
          "internalType": "uint256",
          "name": "",
          "type": "uint256"
        }
      ],
      "stateMutability": "view",
      "type": "function"
    },
    {
      "inputs": [],
      "name": "lastTimeRewardApplicable",
      "outputs": [
        {
          "internalType": "uint256",
          "name": "",
          "type": "uint256"
        }
      ],
      "stateMutability": "view",
      "type": "function"
    },
    {
      "inputs": [],
      "name": "lastUpdateTime",
      "outputs": [
        {
          "internalType": "uint256",
          "name": "",
          "type": "uint256"
        }
      ],
      "stateMutability": "view",
      "type": "function"
    },
    {
      "inputs": [
        {
          "internalType": "address",
          "name": "_owner",
          "type": "address"
        }
      ],
      "name": "nominateNewOwner",
      "outputs": [],
      "stateMutability": "nonpayable",
      "type": "function"
    },
    {
      "inputs": [],
      "name": "nominatedOwner",
      "outputs": [
        {
          "internalType": "address",
          "name": "",
          "type": "address"
        }
      ],
      "stateMutability": "view",
      "type": "function"
    },
    {
      "inputs": [
        {
          "internalType": "uint256",
          "name": "reward",
          "type": "uint256"
        }
      ],
      "name": "notifyRewardAmount",
      "outputs": [],
      "stateMutability": "nonpayable",
      "type": "function"
    },
    {
      "inputs": [],
      "name": "owner",
      "outputs": [
        {
          "internalType": "address",
          "name": "",
          "type": "address"
        }
      ],
      "stateMutability": "view",
      "type": "function"
    },
    {
      "inputs": [],
      "name": "periodFinish",
      "outputs": [
        {
          "internalType": "uint256",
          "name": "",
          "type": "uint256"
        }
      ],
      "stateMutability": "view",
      "type": "function"
    },
    {
      "inputs": [
        {
          "internalType": "address",
          "name": "tokenAddress",
          "type": "address"
        },
        {
          "internalType": "uint256",
          "name": "tokenAmount",
          "type": "uint256"
        }
      ],
      "name": "recoverERC20",
      "outputs": [],
      "stateMutability": "nonpayable",
      "type": "function"
    },
    {
      "inputs": [],
      "name": "rewardPerToken",
      "outputs": [
        {
          "internalType": "uint256",
          "name": "",
          "type": "uint256"
        }
      ],
      "stateMutability": "view",
      "type": "function"
    },
    {
      "inputs": [],
      "name": "rewardPerTokenStored",
      "outputs": [
        {
          "internalType": "uint256",
          "name": "",
          "type": "uint256"
        }
      ],
      "stateMutability": "view",
      "type": "function"
    },
    {
      "inputs": [],
      "name": "rewardRate",
      "outputs": [
        {
          "internalType": "uint256",
          "name": "",
          "type": "uint256"
        }
      ],
      "stateMutability": "view",
      "type": "function"
    },
    {
      "inputs": [
        {
          "internalType": "address",
          "name": "",
          "type": "address"
        }
      ],
      "name": "rewards",
      "outputs": [
        {
          "internalType": "uint256",
          "name": "",
          "type": "uint256"
        }
      ],
      "stateMutability": "view",
      "type": "function"
    },
    {
      "inputs": [],
      "name": "rewardsDistribution",
      "outputs": [
        {
          "internalType": "address",
          "name": "",
          "type": "address"
        }
      ],
      "stateMutability": "view",
      "type": "function"
    },
    {
      "inputs": [],
      "name": "rewardsDuration",
      "outputs": [
        {
          "internalType": "uint256",
          "name": "",
          "type": "uint256"
        }
      ],
      "stateMutability": "view",
      "type": "function"
    },
    {
      "inputs": [],
      "name": "rewardsToken",
      "outputs": [
        {
          "internalType": "contract IERC20",
          "name": "",
          "type": "address"
        }
      ],
      "stateMutability": "view",
      "type": "function"
    },
    {
      "inputs": [
        {
          "internalType": "address",
          "name": "_rewardsDistribution",
          "type": "address"
        }
      ],
      "name": "setRewardsDistribution",
      "outputs": [],
      "stateMutability": "nonpayable",
      "type": "function"
    },
    {
      "inputs": [
        {
          "internalType": "uint256",
          "name": "_rewardsDuration",
          "type": "uint256"
        }
      ],
      "name": "setRewardsDuration",
      "outputs": [],
      "stateMutability": "nonpayable",
      "type": "function"
    },
    {
      "inputs": [
        {
          "internalType": "uint256",
          "name": "amount",
          "type": "uint256"
        }
      ],
      "name": "stake",
      "outputs": [],
      "stateMutability": "nonpayable",
      "type": "function"
    },
    {
      "inputs": [],
      "name": "stakingToken",
      "outputs": [
        {
          "internalType": "contract IERC20",
          "name": "",
          "type": "address"
        }
      ],
      "stateMutability": "view",
      "type": "function"
    },
    {
      "inputs": [],
      "name": "totalSupply",
      "outputs": [
        {
          "internalType": "uint256",
          "name": "",
          "type": "uint256"
        }
      ],
      "stateMutability": "view",
      "type": "function"
    },
    {
      "inputs": [
        {
          "internalType": "uint256",
          "name": "timestamp",
          "type": "uint256"
        }
      ],
      "name": "updatePeriodFinish",
      "outputs": [],
      "stateMutability": "nonpayable",
      "type": "function"
    },
    {
      "inputs": [
        {
          "internalType": "address",
          "name": "",
          "type": "address"
        }
      ],
      "name": "userRewardPerTokenPaid",
      "outputs": [
        {
          "internalType": "uint256",
          "name": "",
          "type": "uint256"
        }
      ],
      "stateMutability": "view",
      "type": "function"
    },
    {
      "inputs": [
        {
          "internalType": "uint256",
          "name": "amount",
          "type": "uint256"
        }
      ],
      "name": "withdraw",
      "outputs": [],
      "stateMutability": "nonpayable",
      "type": "function"
    }
  ],
  "bytecode": "60806040526000600655600060075562093a806008553480156200002257600080fd5b506040516200162838038062001628833981016040819052620000459162000162565b836001600160a01b038116620000a15760405162461bcd60e51b815260206004820152601960248201527f4f776e657220616464726573732063616e6e6f74206265203000000000000000604482015260640160405180910390fd5b600080546001600160a01b0319166001600160a01b03831690811782556040805192835260208301919091527fb532073b38c83145e3e5135377a08bf9aab55bc0fd7c1179cd4fb995d2a5159c910160405180910390a1506001600355600480546001600160a01b039384166001600160a01b03199182161790915560058054928416928216929092179091556002805493909216921691909117905550620001bf565b80516001600160a01b03811681146200015d57600080fd5b919050565b600080600080608085870312156200017957600080fd5b620001848562000145565b9350620001946020860162000145565b9250620001a46040860162000145565b9150620001b46060860162000145565b905092959194509250565b61145980620001cf6000396000f3fe608060405234801561001057600080fd5b50600436106101ce5760003560e01c806372f702f311610104578063a694fc3a116100a2578063d1af0c7d11610071578063d1af0c7d146103ab578063df136d65146103be578063e9fad8ee146103c7578063ebe2b12b146103cf57600080fd5b8063a694fc3a14610374578063c8f33c9114610387578063cc1a378f14610390578063cd3daf9d146103a357600080fd5b806380faa57d116100de57806380faa57d146103265780638980f11f1461032e5780638b876347146103415780638da5cb5b1461036157600080fd5b806372f702f31461030257806379ba5097146103155780637b0a47ee1461031d57600080fd5b8063386a9525116101715780633fc6df6e1161014b5780633fc6df6e1461028857806353a47bb7146102b3578063556f6e6b146102c657806370a08231146102d957600080fd5b8063386a9525146102645780633c6b16ab1461026d5780633d18b9121461028057600080fd5b806318160ddd116101ad57806318160ddd1461022e57806319762143146102365780631c1f78eb146102495780632e1a7d4d1461025157600080fd5b80628cc262146101d35780630700037d146101f95780631627540c14610219575b600080fd5b6101e66101e1366004611252565b6103d8565b6040519081526020015b60405180910390f35b6101e6610207366004611252565b600c6020526000908152604090205481565b61022c610227366004611252565b610456565b005b600d546101e6565b61022c610244366004611252565b6104b3565b6101e66104dd565b61022c61025f3660046112b9565b6104fb565b6101e660085481565b61022c61027b3660046112b9565b610660565b61022c6108c2565b60025461029b906001600160a01b031681565b6040516001600160a01b0390911681526020016101f0565b60015461029b906001600160a01b031681565b61022c6102d43660046112b9565b6109bf565b6101e66102e7366004611252565b6001600160a01b03166000908152600e602052604090205490565b60055461029b906001600160a01b031681565b61022c610a29565b6101e660075481565b6101e6610b13565b61022c61033c36600461126d565b610b21565b6101e661034f366004611252565b600b6020526000908152604090205481565b60005461029b906001600160a01b031681565b61022c6103823660046112b9565b610bf1565b6101e660095481565b61022c61039e3660046112b9565b610d3e565b6101e6610e18565b60045461029b906001600160a01b031681565b6101e6600a5481565b61022c610e64565b6101e660065481565b6001600160a01b0381166000908152600c6020908152604080832054600b909252822054610450919061044a90670de0b6b3a764000090610444906104259061041f610e18565b90610e87565b6001600160a01b0388166000908152600e602052604090205490610e9a565b90610ea6565b90610eb2565b92915050565b61045e610ebe565b600180546001600160a01b0319166001600160a01b0383169081179091556040519081527f906a1c6bd7e3091ea86693dd029a831c19049ce77f1dce2ce0bab1cacbabce22906020015b60405180910390a150565b6104bb610ebe565b600280546001600160a01b0319166001600160a01b0392909216919091179055565b60006104f6600854600754610e9a90919063ffffffff16565b905090565b600260035414156105275760405162461bcd60e51b815260040161051e9061133a565b60405180910390fd5b600260035533610535610e18565b600a55610540610b13565b6009556001600160a01b038116156105875761055b816103d8565b6001600160a01b0382166000908152600c6020908152604080832093909355600a54600b909152919020555b600082116105cb5760405162461bcd60e51b8152602060048201526011602482015270043616e6e6f74207769746864726177203607c1b604482015260640161051e565b600d546105d89083610e87565b600d55336000908152600e60205260409020546105f59083610e87565b336000818152600e6020526040902091909155600554610621916001600160a01b039091169084610f30565b60405182815233907f7084f5476618d8e60b11ef0d7d3f06914655adb8793e28ff7f018d4c76d505d5906020015b60405180910390a250506001600355565b6002546001600160a01b031633146106cd5760405162461bcd60e51b815260206004820152602a60248201527f43616c6c6572206973206e6f742052657761726473446973747269627574696f6044820152691b8818dbdb9d1c9858dd60b21b606482015260840161051e565b60006106d7610e18565b600a556106e2610b13565b6009556001600160a01b03811615610729576106fd816103d8565b6001600160a01b0382166000908152600c6020908152604080832093909355600a54600b909152919020555b600654421061074857600854610740908390610ea6565b60075561078b565b6006546000906107589042610e87565b9050600061077160075483610e9a90919063ffffffff16565b600854909150610785906104448684610eb2565b60075550505b600480546040516370a0823160e01b815230928101929092526000916001600160a01b03909116906370a082319060240160206040518083038186803b1580156107d457600080fd5b505afa1580156107e8573d6000803e3d6000fd5b505050506040513d601f19601f8201168201806040525081019061080c91906112d2565b905061082360085482610ea690919063ffffffff16565b60075411156108745760405162461bcd60e51b815260206004820152601860248201527f50726f76696465642072657761726420746f6f20686967680000000000000000604482015260640161051e565b4260098190556008546108879190610eb2565b6006556040518381527fde88a922e0d3b88b24e9623efeb464919c6bf9f66857a65e2bfcf2ce87a9433d9060200160405180910390a1505050565b600260035414156108e55760405162461bcd60e51b815260040161051e9061133a565b6002600355336108f3610e18565b600a556108fe610b13565b6009556001600160a01b0381161561094557610919816103d8565b6001600160a01b0382166000908152600c6020908152604080832093909355600a54600b909152919020555b336000908152600c602052604090205480156109b657336000818152600c6020526040812055600454610984916001600160a01b039091169083610f30565b60405181815233907fe2403640ba68fed3a2f88b7557551d1993f84b99bb10ff833f0cf8db0c5e04869060200161064f565b50506001600355565b6109c7610ebe565b60006109d1610e18565b600a556109dc610b13565b6009556001600160a01b03811615610a23576109f7816103d8565b6001600160a01b0382166000908152600c6020908152604080832093909355600a54600b909152919020555b50600655565b6001546001600160a01b03163314610aa15760405162461bcd60e51b815260206004820152603560248201527f596f75206d757374206265206e6f6d696e61746564206265666f726520796f7560448201527402063616e20616363657074206f776e65727368697605c1b606482015260840161051e565b600054600154604080516001600160a01b0393841681529290911660208301527fb532073b38c83145e3e5135377a08bf9aab55bc0fd7c1179cd4fb995d2a5159c910160405180910390a160018054600080546001600160a01b03199081166001600160a01b03841617909155169055565b60006104f642600654610f98565b610b29610ebe565b6005546001600160a01b0383811691161415610b915760405162461bcd60e51b815260206004820152602160248201527f43616e6e6f7420776974686472617720746865207374616b696e6720746f6b656044820152603760f91b606482015260840161051e565b600054610bab906001600160a01b03848116911683610f30565b604080516001600160a01b0384168152602081018390527f8c1256b8896378cd5044f80c202f9772b9d77dc85c8a6eb51967210b09bfaa28910160405180910390a15050565b60026003541415610c145760405162461bcd60e51b815260040161051e9061133a565b600260035533610c22610e18565b600a55610c2d610b13565b6009556001600160a01b03811615610c7457610c48816103d8565b6001600160a01b0382166000908152600c6020908152604080832093909355600a54600b909152919020555b60008211610cb55760405162461bcd60e51b815260206004820152600e60248201526d043616e6e6f74207374616b6520360941b604482015260640161051e565b600d54610cc29083610eb2565b600d55336000908152600e6020526040902054610cdf9083610eb2565b336000818152600e6020526040902091909155600554610d0c916001600160a01b03909116903085610fae565b60405182815233907f9e71bc8eea02a63969f509818f2dafb9254532904319f9dbda79b67bd34a5f3d9060200161064f565b610d46610ebe565b6006544211610de35760405162461bcd60e51b815260206004820152605860248201527f50726576696f7573207265776172647320706572696f64206d7573742062652060448201527f636f6d706c657465206265666f7265206368616e67696e67207468652064757260648201527f6174696f6e20666f7220746865206e657720706572696f640000000000000000608482015260a40161051e565b60088190556040518181527ffb46ca5a5e06d4540d6387b930a7c978bce0db5f449ec6b3f5d07c6e1d44f2d3906020016104a8565b6000600d5460001415610e2c5750600a5490565b6104f6610e5b600d54610444670de0b6b3a7640000610e55600754610e5560095461041f610b13565b90610e9a565b600a5490610eb2565b336000908152600e6020526040902054610e7d906104fb565b610e856108c2565b565b6000610e9382846113ca565b9392505050565b6000610e9382846113ab565b6000610e938284611389565b6000610e938284611371565b6000546001600160a01b03163314610e855760405162461bcd60e51b815260206004820152602f60248201527f4f6e6c792074686520636f6e7472616374206f776e6572206d6179207065726660448201526e37b936903a3434b99030b1ba34b7b760891b606482015260840161051e565b6040516001600160a01b038316602482015260448101829052610f9390849063a9059cbb60e01b906064015b60408051601f198184030181529190526020810180516001600160e01b03166001600160e01b031990931692909217909152610fec565b505050565b6000818310610fa75781610e93565b5090919050565b6040516001600160a01b0380851660248301528316604482015260648101829052610fe69085906323b872dd60e01b90608401610f5c565b50505050565b6000611041826040518060400160405280602081526020017f5361666545524332303a206c6f772d6c6576656c2063616c6c206661696c6564815250856001600160a01b03166110be9092919063ffffffff16565b805190915015610f93578080602001905181019061105f9190611297565b610f935760405162461bcd60e51b815260206004820152602a60248201527f5361666545524332303a204552433230206f7065726174696f6e20646964206e6044820152691bdd081cdd58d8d9595960b21b606482015260840161051e565b60606110cd84846000856110d5565b949350505050565b6060824710156111365760405162461bcd60e51b815260206004820152602660248201527f416464726573733a20696e73756666696369656e742062616c616e636520666f6044820152651c8818d85b1b60d21b606482015260840161051e565b843b6111845760405162461bcd60e51b815260206004820152601d60248201527f416464726573733a2063616c6c20746f206e6f6e2d636f6e7472616374000000604482015260640161051e565b600080866001600160a01b031685876040516111a091906112eb565b60006040518083038185875af1925050503d80600081146111dd576040519150601f19603f3d011682016040523d82523d6000602084013e6111e2565b606091505b50915091506111f28282866111fd565b979650505050505050565b6060831561120c575081610e93565b82511561121c5782518084602001fd5b8160405162461bcd60e51b815260040161051e9190611307565b80356001600160a01b038116811461124d57600080fd5b919050565b60006020828403121561126457600080fd5b610e9382611236565b6000806040838503121561128057600080fd5b61128983611236565b946020939093013593505050565b6000602082840312156112a957600080fd5b81518015158114610e9357600080fd5b6000602082840312156112cb57600080fd5b5035919050565b6000602082840312156112e457600080fd5b5051919050565b600082516112fd8184602087016113e1565b9190910192915050565b60208152600082518060208401526113268160408501602087016113e1565b601f01601f19169190910160400192915050565b6020808252601f908201527f5265656e7472616e637947756172643a207265656e7472616e742063616c6c00604082015260600190565b600082198211156113845761138461140d565b500190565b6000826113a657634e487b7160e01b600052601260045260246000fd5b500490565b60008160001904831182151516156113c5576113c561140d565b500290565b6000828210156113dc576113dc61140d565b500390565b60005b838110156113fc5781810151838201526020016113e4565b83811115610fe65750506000910152565b634e487b7160e01b600052601160045260246000fdfea2646970667358221220a1818fc91228097791e9b9831b838762345d631be721e4d05625dc731d20c96c64736f6c63430008070033",
  "bytecodeSha1": "280d0378552dd68ee603479d54478f32db68c16d",
  "compiler": {
    "evm_version": "istanbul",
    "optimizer": {
      "enabled": true,
      "runs": 200
    },
    "version": "0.8.7+commit.e28d00a7"
  },
  "contractName": "MockStakingRewards",
  "language": "Solidity",
  "natspec": {
    "kind": "dev",
    "methods": {},
    "version": 1
  },
  "opcodes": "PUSH1 0x80 PUSH1 0x40 MSTORE CALLVALUE DUP1 ISZERO PUSH2 0x10 JUMPI PUSH1 0x0 DUP1 REVERT JUMPDEST POP PUSH1 0x4 CALLDATASIZE LT PUSH2 0x1CE JUMPI PUSH1 0x0 CALLDATALOAD PUSH1 0xE0 SHR DUP1 PUSH4 0x72F702F3 GT PUSH2 0x104 JUMPI DUP1 PUSH4 0xA694FC3A GT PUSH2 0xA2 JUMPI DUP1 PUSH4 0xD1AF0C7D GT PUSH2 0x71 JUMPI DUP1 PUSH4 0xD1AF0C7D EQ PUSH2 0x3AB JUMPI DUP1 PUSH4 0xDF136D65 EQ PUSH2 0x3BE JUMPI DUP1 PUSH4 0xE9FAD8EE EQ PUSH2 0x3C7 JUMPI DUP1 PUSH4 0xEBE2B12B EQ PUSH2 0x3CF JUMPI PUSH1 0x0 DUP1 REVERT JUMPDEST DUP1 PUSH4 0xA694FC3A EQ PUSH2 0x374 JUMPI DUP1 PUSH4 0xC8F33C91 EQ PUSH2 0x387 JUMPI DUP1 PUSH4 0xCC1A378F EQ PUSH2 0x390 JUMPI DUP1 PUSH4 0xCD3DAF9D EQ PUSH2 0x3A3 JUMPI PUSH1 0x0 DUP1 REVERT JUMPDEST DUP1 PUSH4 0x80FAA57D GT PUSH2 0xDE JUMPI DUP1 PUSH4 0x80FAA57D EQ PUSH2 0x326 JUMPI DUP1 PUSH4 0x8980F11F EQ PUSH2 0x32E JUMPI DUP1 PUSH4 0x8B876347 EQ PUSH2 0x341 JUMPI DUP1 PUSH4 0x8DA5CB5B EQ PUSH2 0x361 JUMPI PUSH1 0x0 DUP1 REVERT JUMPDEST DUP1 PUSH4 0x72F702F3 EQ PUSH2 0x302 JUMPI DUP1 PUSH4 0x79BA5097 EQ PUSH2 0x315 JUMPI DUP1 PUSH4 0x7B0A47EE EQ PUSH2 0x31D JUMPI PUSH1 0x0 DUP1 REVERT JUMPDEST DUP1 PUSH4 0x386A9525 GT PUSH2 0x171 JUMPI DUP1 PUSH4 0x3FC6DF6E GT PUSH2 0x14B JUMPI DUP1 PUSH4 0x3FC6DF6E EQ PUSH2 0x288 JUMPI DUP1 PUSH4 0x53A47BB7 EQ PUSH2 0x2B3 JUMPI DUP1 PUSH4 0x556F6E6B EQ PUSH2 0x2C6 JUMPI DUP1 PUSH4 0x70A08231 EQ PUSH2 0x2D9 JUMPI PUSH1 0x0 DUP1 REVERT JUMPDEST DUP1 PUSH4 0x386A9525 EQ PUSH2 0x264 JUMPI DUP1 PUSH4 0x3C6B16AB EQ PUSH2 0x26D JUMPI DUP1 PUSH4 0x3D18B912 EQ PUSH2 0x280 JUMPI PUSH1 0x0 DUP1 REVERT JUMPDEST DUP1 PUSH4 0x18160DDD GT PUSH2 0x1AD JUMPI DUP1 PUSH4 0x18160DDD EQ PUSH2 0x22E JUMPI DUP1 PUSH4 0x19762143 EQ PUSH2 0x236 JUMPI DUP1 PUSH4 0x1C1F78EB EQ PUSH2 0x249 JUMPI DUP1 PUSH4 0x2E1A7D4D EQ PUSH2 0x251 JUMPI PUSH1 0x0 DUP1 REVERT JUMPDEST DUP1 PUSH3 0x8CC262 EQ PUSH2 0x1D3 JUMPI DUP1 PUSH4 0x700037D EQ PUSH2 0x1F9 JUMPI DUP1 PUSH4 0x1627540C EQ PUSH2 0x219 JUMPI JUMPDEST PUSH1 0x0 DUP1 REVERT JUMPDEST PUSH2 0x1E6 PUSH2 0x1E1 CALLDATASIZE PUSH1 0x4 PUSH2 0x1252 JUMP JUMPDEST PUSH2 0x3D8 JUMP JUMPDEST PUSH1 0x40 MLOAD SWAP1 DUP2 MSTORE PUSH1 0x20 ADD JUMPDEST PUSH1 0x40 MLOAD DUP1 SWAP2 SUB SWAP1 RETURN JUMPDEST PUSH2 0x1E6 PUSH2 0x207 CALLDATASIZE PUSH1 0x4 PUSH2 0x1252 JUMP JUMPDEST PUSH1 0xC PUSH1 0x20 MSTORE PUSH1 0x0 SWAP1 DUP2 MSTORE PUSH1 0x40 SWAP1 KECCAK256 SLOAD DUP2 JUMP JUMPDEST PUSH2 0x22C PUSH2 0x227 CALLDATASIZE PUSH1 0x4 PUSH2 0x1252 JUMP JUMPDEST PUSH2 0x456 JUMP JUMPDEST STOP JUMPDEST PUSH1 0xD SLOAD PUSH2 0x1E6 JUMP JUMPDEST PUSH2 0x22C PUSH2 0x244 CALLDATASIZE PUSH1 0x4 PUSH2 0x1252 JUMP JUMPDEST PUSH2 0x4B3 JUMP JUMPDEST PUSH2 0x1E6 PUSH2 0x4DD JUMP JUMPDEST PUSH2 0x22C PUSH2 0x25F CALLDATASIZE PUSH1 0x4 PUSH2 0x12B9 JUMP JUMPDEST PUSH2 0x4FB JUMP JUMPDEST PUSH2 0x1E6 PUSH1 0x8 SLOAD DUP2 JUMP JUMPDEST PUSH2 0x22C PUSH2 0x27B CALLDATASIZE PUSH1 0x4 PUSH2 0x12B9 JUMP JUMPDEST PUSH2 0x660 JUMP JUMPDEST PUSH2 0x22C PUSH2 0x8C2 JUMP JUMPDEST PUSH1 0x2 SLOAD PUSH2 0x29B SWAP1 PUSH1 0x1 PUSH1 0x1 PUSH1 0xA0 SHL SUB AND DUP2 JUMP JUMPDEST PUSH1 0x40 MLOAD PUSH1 0x1 PUSH1 0x1 PUSH1 0xA0 SHL SUB SWAP1 SWAP2 AND DUP2 MSTORE PUSH1 0x20 ADD PUSH2 0x1F0 JUMP JUMPDEST PUSH1 0x1 SLOAD PUSH2 0x29B SWAP1 PUSH1 0x1 PUSH1 0x1 PUSH1 0xA0 SHL SUB AND DUP2 JUMP JUMPDEST PUSH2 0x22C PUSH2 0x2D4 CALLDATASIZE PUSH1 0x4 PUSH2 0x12B9 JUMP JUMPDEST PUSH2 0x9BF JUMP JUMPDEST PUSH2 0x1E6 PUSH2 0x2E7 CALLDATASIZE PUSH1 0x4 PUSH2 0x1252 JUMP JUMPDEST PUSH1 0x1 PUSH1 0x1 PUSH1 0xA0 SHL SUB AND PUSH1 0x0 SWAP1 DUP2 MSTORE PUSH1 0xE PUSH1 0x20 MSTORE PUSH1 0x40 SWAP1 KECCAK256 SLOAD SWAP1 JUMP JUMPDEST PUSH1 0x5 SLOAD PUSH2 0x29B SWAP1 PUSH1 0x1 PUSH1 0x1 PUSH1 0xA0 SHL SUB AND DUP2 JUMP JUMPDEST PUSH2 0x22C PUSH2 0xA29 JUMP JUMPDEST PUSH2 0x1E6 PUSH1 0x7 SLOAD DUP2 JUMP JUMPDEST PUSH2 0x1E6 PUSH2 0xB13 JUMP JUMPDEST PUSH2 0x22C PUSH2 0x33C CALLDATASIZE PUSH1 0x4 PUSH2 0x126D JUMP JUMPDEST PUSH2 0xB21 JUMP JUMPDEST PUSH2 0x1E6 PUSH2 0x34F CALLDATASIZE PUSH1 0x4 PUSH2 0x1252 JUMP JUMPDEST PUSH1 0xB PUSH1 0x20 MSTORE PUSH1 0x0 SWAP1 DUP2 MSTORE PUSH1 0x40 SWAP1 KECCAK256 SLOAD DUP2 JUMP JUMPDEST PUSH1 0x0 SLOAD PUSH2 0x29B SWAP1 PUSH1 0x1 PUSH1 0x1 PUSH1 0xA0 SHL SUB AND DUP2 JUMP JUMPDEST PUSH2 0x22C PUSH2 0x382 CALLDATASIZE PUSH1 0x4 PUSH2 0x12B9 JUMP JUMPDEST PUSH2 0xBF1 JUMP JUMPDEST PUSH2 0x1E6 PUSH1 0x9 SLOAD DUP2 JUMP JUMPDEST PUSH2 0x22C PUSH2 0x39E CALLDATASIZE PUSH1 0x4 PUSH2 0x12B9 JUMP JUMPDEST PUSH2 0xD3E JUMP JUMPDEST PUSH2 0x1E6 PUSH2 0xE18 JUMP JUMPDEST PUSH1 0x4 SLOAD PUSH2 0x29B SWAP1 PUSH1 0x1 PUSH1 0x1 PUSH1 0xA0 SHL SUB AND DUP2 JUMP JUMPDEST PUSH2 0x1E6 PUSH1 0xA SLOAD DUP2 JUMP JUMPDEST PUSH2 0x22C PUSH2 0xE64 JUMP JUMPDEST PUSH2 0x1E6 PUSH1 0x6 SLOAD DUP2 JUMP JUMPDEST PUSH1 0x1 PUSH1 0x1 PUSH1 0xA0 SHL SUB DUP2 AND PUSH1 0x0 SWAP1 DUP2 MSTORE PUSH1 0xC PUSH1 0x20 SWAP1 DUP2 MSTORE PUSH1 0x40 DUP1 DUP4 KECCAK256 SLOAD PUSH1 0xB SWAP1 SWAP3 MSTORE DUP3 KECCAK256 SLOAD PUSH2 0x450 SWAP2 SWAP1 PUSH2 0x44A SWAP1 PUSH8 0xDE0B6B3A7640000 SWAP1 PUSH2 0x444 SWAP1 PUSH2 0x425 SWAP1 PUSH2 0x41F PUSH2 0xE18 JUMP JUMPDEST SWAP1 PUSH2 0xE87 JUMP JUMPDEST PUSH1 0x1 PUSH1 0x1 PUSH1 0xA0 SHL SUB DUP9 AND PUSH1 0x0 SWAP1 DUP2 MSTORE PUSH1 0xE PUSH1 0x20 MSTORE PUSH1 0x40 SWAP1 KECCAK256 SLOAD SWAP1 PUSH2 0xE9A JUMP JUMPDEST SWAP1 PUSH2 0xEA6 JUMP JUMPDEST SWAP1 PUSH2 0xEB2 JUMP JUMPDEST SWAP3 SWAP2 POP POP JUMP JUMPDEST PUSH2 0x45E PUSH2 0xEBE JUMP JUMPDEST PUSH1 0x1 DUP1 SLOAD PUSH1 0x1 PUSH1 0x1 PUSH1 0xA0 SHL SUB NOT AND PUSH1 0x1 PUSH1 0x1 PUSH1 0xA0 SHL SUB DUP4 AND SWAP1 DUP2 OR SWAP1 SWAP2 SSTORE PUSH1 0x40 MLOAD SWAP1 DUP2 MSTORE PUSH32 0x906A1C6BD7E3091EA86693DD029A831C19049CE77F1DCE2CE0BAB1CACBABCE22 SWAP1 PUSH1 0x20 ADD JUMPDEST PUSH1 0x40 MLOAD DUP1 SWAP2 SUB SWAP1 LOG1 POP JUMP JUMPDEST PUSH2 0x4BB PUSH2 0xEBE JUMP JUMPDEST PUSH1 0x2 DUP1 SLOAD PUSH1 0x1 PUSH1 0x1 PUSH1 0xA0 SHL SUB NOT AND PUSH1 0x1 PUSH1 0x1 PUSH1 0xA0 SHL SUB SWAP3 SWAP1 SWAP3 AND SWAP2 SWAP1 SWAP2 OR SWAP1 SSTORE JUMP JUMPDEST PUSH1 0x0 PUSH2 0x4F6 PUSH1 0x8 SLOAD PUSH1 0x7 SLOAD PUSH2 0xE9A SWAP1 SWAP2 SWAP1 PUSH4 0xFFFFFFFF AND JUMP JUMPDEST SWAP1 POP SWAP1 JUMP JUMPDEST PUSH1 0x2 PUSH1 0x3 SLOAD EQ ISZERO PUSH2 0x527 JUMPI PUSH1 0x40 MLOAD PUSH3 0x461BCD PUSH1 0xE5 SHL DUP2 MSTORE PUSH1 0x4 ADD PUSH2 0x51E SWAP1 PUSH2 0x133A JUMP JUMPDEST PUSH1 0x40 MLOAD DUP1 SWAP2 SUB SWAP1 REVERT JUMPDEST PUSH1 0x2 PUSH1 0x3 SSTORE CALLER PUSH2 0x535 PUSH2 0xE18 JUMP JUMPDEST PUSH1 0xA SSTORE PUSH2 0x540 PUSH2 0xB13 JUMP JUMPDEST PUSH1 0x9 SSTORE PUSH1 0x1 PUSH1 0x1 PUSH1 0xA0 SHL SUB DUP2 AND ISZERO PUSH2 0x587 JUMPI PUSH2 0x55B DUP2 PUSH2 0x3D8 JUMP JUMPDEST PUSH1 0x1 PUSH1 0x1 PUSH1 0xA0 SHL SUB DUP3 AND PUSH1 0x0 SWAP1 DUP2 MSTORE PUSH1 0xC PUSH1 0x20 SWAP1 DUP2 MSTORE PUSH1 0x40 DUP1 DUP4 KECCAK256 SWAP4 SWAP1 SWAP4 SSTORE PUSH1 0xA SLOAD PUSH1 0xB SWAP1 SWAP2 MSTORE SWAP2 SWAP1 KECCAK256 SSTORE JUMPDEST PUSH1 0x0 DUP3 GT PUSH2 0x5CB JUMPI PUSH1 0x40 MLOAD PUSH3 0x461BCD PUSH1 0xE5 SHL DUP2 MSTORE PUSH1 0x20 PUSH1 0x4 DUP3 ADD MSTORE PUSH1 0x11 PUSH1 0x24 DUP3 ADD MSTORE PUSH17 0x43616E6E6F74207769746864726177203 PUSH1 0x7C SHL PUSH1 0x44 DUP3 ADD MSTORE PUSH1 0x64 ADD PUSH2 0x51E JUMP JUMPDEST PUSH1 0xD SLOAD PUSH2 0x5D8 SWAP1 DUP4 PUSH2 0xE87 JUMP JUMPDEST PUSH1 0xD SSTORE CALLER PUSH1 0x0 SWAP1 DUP2 MSTORE PUSH1 0xE PUSH1 0x20 MSTORE PUSH1 0x40 SWAP1 KECCAK256 SLOAD PUSH2 0x5F5 SWAP1 DUP4 PUSH2 0xE87 JUMP JUMPDEST CALLER PUSH1 0x0 DUP2 DUP2 MSTORE PUSH1 0xE PUSH1 0x20 MSTORE PUSH1 0x40 SWAP1 KECCAK256 SWAP2 SWAP1 SWAP2 SSTORE PUSH1 0x5 SLOAD PUSH2 0x621 SWAP2 PUSH1 0x1 PUSH1 0x1 PUSH1 0xA0 SHL SUB SWAP1 SWAP2 AND SWAP1 DUP5 PUSH2 0xF30 JUMP JUMPDEST PUSH1 0x40 MLOAD DUP3 DUP2 MSTORE CALLER SWAP1 PUSH32 0x7084F5476618D8E60B11EF0D7D3F06914655ADB8793E28FF7F018D4C76D505D5 SWAP1 PUSH1 0x20 ADD JUMPDEST PUSH1 0x40 MLOAD DUP1 SWAP2 SUB SWAP1 LOG2 POP POP PUSH1 0x1 PUSH1 0x3 SSTORE JUMP JUMPDEST PUSH1 0x2 SLOAD PUSH1 0x1 PUSH1 0x1 PUSH1 0xA0 SHL SUB AND CALLER EQ PUSH2 0x6CD JUMPI PUSH1 0x40 MLOAD PUSH3 0x461BCD PUSH1 0xE5 SHL DUP2 MSTORE PUSH1 0x20 PUSH1 0x4 DUP3 ADD MSTORE PUSH1 0x2A PUSH1 0x24 DUP3 ADD MSTORE PUSH32 0x43616C6C6572206973206E6F742052657761726473446973747269627574696F PUSH1 0x44 DUP3 ADD MSTORE PUSH10 0x1B8818DBDB9D1C9858DD PUSH1 0xB2 SHL PUSH1 0x64 DUP3 ADD MSTORE PUSH1 0x84 ADD PUSH2 0x51E JUMP JUMPDEST PUSH1 0x0 PUSH2 0x6D7 PUSH2 0xE18 JUMP JUMPDEST PUSH1 0xA SSTORE PUSH2 0x6E2 PUSH2 0xB13 JUMP JUMPDEST PUSH1 0x9 SSTORE PUSH1 0x1 PUSH1 0x1 PUSH1 0xA0 SHL SUB DUP2 AND ISZERO PUSH2 0x729 JUMPI PUSH2 0x6FD DUP2 PUSH2 0x3D8 JUMP JUMPDEST PUSH1 0x1 PUSH1 0x1 PUSH1 0xA0 SHL SUB DUP3 AND PUSH1 0x0 SWAP1 DUP2 MSTORE PUSH1 0xC PUSH1 0x20 SWAP1 DUP2 MSTORE PUSH1 0x40 DUP1 DUP4 KECCAK256 SWAP4 SWAP1 SWAP4 SSTORE PUSH1 0xA SLOAD PUSH1 0xB SWAP1 SWAP2 MSTORE SWAP2 SWAP1 KECCAK256 SSTORE JUMPDEST PUSH1 0x6 SLOAD TIMESTAMP LT PUSH2 0x748 JUMPI PUSH1 0x8 SLOAD PUSH2 0x740 SWAP1 DUP4 SWAP1 PUSH2 0xEA6 JUMP JUMPDEST PUSH1 0x7 SSTORE PUSH2 0x78B JUMP JUMPDEST PUSH1 0x6 SLOAD PUSH1 0x0 SWAP1 PUSH2 0x758 SWAP1 TIMESTAMP PUSH2 0xE87 JUMP JUMPDEST SWAP1 POP PUSH1 0x0 PUSH2 0x771 PUSH1 0x7 SLOAD DUP4 PUSH2 0xE9A SWAP1 SWAP2 SWAP1 PUSH4 0xFFFFFFFF AND JUMP JUMPDEST PUSH1 0x8 SLOAD SWAP1 SWAP2 POP PUSH2 0x785 SWAP1 PUSH2 0x444 DUP7 DUP5 PUSH2 0xEB2 JUMP JUMPDEST PUSH1 0x7 SSTORE POP POP JUMPDEST PUSH1 0x4 DUP1 SLOAD PUSH1 0x40 MLOAD PUSH4 0x70A08231 PUSH1 0xE0 SHL DUP2 MSTORE ADDRESS SWAP3 DUP2 ADD SWAP3 SWAP1 SWAP3 MSTORE PUSH1 0x0 SWAP2 PUSH1 0x1 PUSH1 0x1 PUSH1 0xA0 SHL SUB SWAP1 SWAP2 AND SWAP1 PUSH4 0x70A08231 SWAP1 PUSH1 0x24 ADD PUSH1 0x20 PUSH1 0x40 MLOAD DUP1 DUP4 SUB DUP2 DUP7 DUP1 EXTCODESIZE ISZERO DUP1 ISZERO PUSH2 0x7D4 JUMPI PUSH1 0x0 DUP1 REVERT JUMPDEST POP GAS STATICCALL ISZERO DUP1 ISZERO PUSH2 0x7E8 JUMPI RETURNDATASIZE PUSH1 0x0 DUP1 RETURNDATACOPY RETURNDATASIZE PUSH1 0x0 REVERT JUMPDEST POP POP POP POP PUSH1 0x40 MLOAD RETURNDATASIZE PUSH1 0x1F NOT PUSH1 0x1F DUP3 ADD AND DUP3 ADD DUP1 PUSH1 0x40 MSTORE POP DUP2 ADD SWAP1 PUSH2 0x80C SWAP2 SWAP1 PUSH2 0x12D2 JUMP JUMPDEST SWAP1 POP PUSH2 0x823 PUSH1 0x8 SLOAD DUP3 PUSH2 0xEA6 SWAP1 SWAP2 SWAP1 PUSH4 0xFFFFFFFF AND JUMP JUMPDEST PUSH1 0x7 SLOAD GT ISZERO PUSH2 0x874 JUMPI PUSH1 0x40 MLOAD PUSH3 0x461BCD PUSH1 0xE5 SHL DUP2 MSTORE PUSH1 0x20 PUSH1 0x4 DUP3 ADD MSTORE PUSH1 0x18 PUSH1 0x24 DUP3 ADD MSTORE PUSH32 0x50726F76696465642072657761726420746F6F20686967680000000000000000 PUSH1 0x44 DUP3 ADD MSTORE PUSH1 0x64 ADD PUSH2 0x51E JUMP JUMPDEST TIMESTAMP PUSH1 0x9 DUP2 SWAP1 SSTORE PUSH1 0x8 SLOAD PUSH2 0x887 SWAP2 SWAP1 PUSH2 0xEB2 JUMP JUMPDEST PUSH1 0x6 SSTORE PUSH1 0x40 MLOAD DUP4 DUP2 MSTORE PUSH32 0xDE88A922E0D3B88B24E9623EFEB464919C6BF9F66857A65E2BFCF2CE87A9433D SWAP1 PUSH1 0x20 ADD PUSH1 0x40 MLOAD DUP1 SWAP2 SUB SWAP1 LOG1 POP POP POP JUMP JUMPDEST PUSH1 0x2 PUSH1 0x3 SLOAD EQ ISZERO PUSH2 0x8E5 JUMPI PUSH1 0x40 MLOAD PUSH3 0x461BCD PUSH1 0xE5 SHL DUP2 MSTORE PUSH1 0x4 ADD PUSH2 0x51E SWAP1 PUSH2 0x133A JUMP JUMPDEST PUSH1 0x2 PUSH1 0x3 SSTORE CALLER PUSH2 0x8F3 PUSH2 0xE18 JUMP JUMPDEST PUSH1 0xA SSTORE PUSH2 0x8FE PUSH2 0xB13 JUMP JUMPDEST PUSH1 0x9 SSTORE PUSH1 0x1 PUSH1 0x1 PUSH1 0xA0 SHL SUB DUP2 AND ISZERO PUSH2 0x945 JUMPI PUSH2 0x919 DUP2 PUSH2 0x3D8 JUMP JUMPDEST PUSH1 0x1 PUSH1 0x1 PUSH1 0xA0 SHL SUB DUP3 AND PUSH1 0x0 SWAP1 DUP2 MSTORE PUSH1 0xC PUSH1 0x20 SWAP1 DUP2 MSTORE PUSH1 0x40 DUP1 DUP4 KECCAK256 SWAP4 SWAP1 SWAP4 SSTORE PUSH1 0xA SLOAD PUSH1 0xB SWAP1 SWAP2 MSTORE SWAP2 SWAP1 KECCAK256 SSTORE JUMPDEST CALLER PUSH1 0x0 SWAP1 DUP2 MSTORE PUSH1 0xC PUSH1 0x20 MSTORE PUSH1 0x40 SWAP1 KECCAK256 SLOAD DUP1 ISZERO PUSH2 0x9B6 JUMPI CALLER PUSH1 0x0 DUP2 DUP2 MSTORE PUSH1 0xC PUSH1 0x20 MSTORE PUSH1 0x40 DUP2 KECCAK256 SSTORE PUSH1 0x4 SLOAD PUSH2 0x984 SWAP2 PUSH1 0x1 PUSH1 0x1 PUSH1 0xA0 SHL SUB SWAP1 SWAP2 AND SWAP1 DUP4 PUSH2 0xF30 JUMP JUMPDEST PUSH1 0x40 MLOAD DUP2 DUP2 MSTORE CALLER SWAP1 PUSH32 0xE2403640BA68FED3A2F88B7557551D1993F84B99BB10FF833F0CF8DB0C5E0486 SWAP1 PUSH1 0x20 ADD PUSH2 0x64F JUMP JUMPDEST POP POP PUSH1 0x1 PUSH1 0x3 SSTORE JUMP JUMPDEST PUSH2 0x9C7 PUSH2 0xEBE JUMP JUMPDEST PUSH1 0x0 PUSH2 0x9D1 PUSH2 0xE18 JUMP JUMPDEST PUSH1 0xA SSTORE PUSH2 0x9DC PUSH2 0xB13 JUMP JUMPDEST PUSH1 0x9 SSTORE PUSH1 0x1 PUSH1 0x1 PUSH1 0xA0 SHL SUB DUP2 AND ISZERO PUSH2 0xA23 JUMPI PUSH2 0x9F7 DUP2 PUSH2 0x3D8 JUMP JUMPDEST PUSH1 0x1 PUSH1 0x1 PUSH1 0xA0 SHL SUB DUP3 AND PUSH1 0x0 SWAP1 DUP2 MSTORE PUSH1 0xC PUSH1 0x20 SWAP1 DUP2 MSTORE PUSH1 0x40 DUP1 DUP4 KECCAK256 SWAP4 SWAP1 SWAP4 SSTORE PUSH1 0xA SLOAD PUSH1 0xB SWAP1 SWAP2 MSTORE SWAP2 SWAP1 KECCAK256 SSTORE JUMPDEST POP PUSH1 0x6 SSTORE JUMP JUMPDEST PUSH1 0x1 SLOAD PUSH1 0x1 PUSH1 0x1 PUSH1 0xA0 SHL SUB AND CALLER EQ PUSH2 0xAA1 JUMPI PUSH1 0x40 MLOAD PUSH3 0x461BCD PUSH1 0xE5 SHL DUP2 MSTORE PUSH1 0x20 PUSH1 0x4 DUP3 ADD MSTORE PUSH1 0x35 PUSH1 0x24 DUP3 ADD MSTORE PUSH32 0x596F75206D757374206265206E6F6D696E61746564206265666F726520796F75 PUSH1 0x44 DUP3 ADD MSTORE PUSH21 0x2063616E20616363657074206F776E65727368697 PUSH1 0x5C SHL PUSH1 0x64 DUP3 ADD MSTORE PUSH1 0x84 ADD PUSH2 0x51E JUMP JUMPDEST PUSH1 0x0 SLOAD PUSH1 0x1 SLOAD PUSH1 0x40 DUP1 MLOAD PUSH1 0x1 PUSH1 0x1 PUSH1 0xA0 SHL SUB SWAP4 DUP5 AND DUP2 MSTORE SWAP3 SWAP1 SWAP2 AND PUSH1 0x20 DUP4 ADD MSTORE PUSH32 0xB532073B38C83145E3E5135377A08BF9AAB55BC0FD7C1179CD4FB995D2A5159C SWAP2 ADD PUSH1 0x40 MLOAD DUP1 SWAP2 SUB SWAP1 LOG1 PUSH1 0x1 DUP1 SLOAD PUSH1 0x0 DUP1 SLOAD PUSH1 0x1 PUSH1 0x1 PUSH1 0xA0 SHL SUB NOT SWAP1 DUP2 AND PUSH1 0x1 PUSH1 0x1 PUSH1 0xA0 SHL SUB DUP5 AND OR SWAP1 SWAP2 SSTORE AND SWAP1 SSTORE JUMP JUMPDEST PUSH1 0x0 PUSH2 0x4F6 TIMESTAMP PUSH1 0x6 SLOAD PUSH2 0xF98 JUMP JUMPDEST PUSH2 0xB29 PUSH2 0xEBE JUMP JUMPDEST PUSH1 0x5 SLOAD PUSH1 0x1 PUSH1 0x1 PUSH1 0xA0 SHL SUB DUP4 DUP2 AND SWAP2 AND EQ ISZERO PUSH2 0xB91 JUMPI PUSH1 0x40 MLOAD PUSH3 0x461BCD PUSH1 0xE5 SHL DUP2 MSTORE PUSH1 0x20 PUSH1 0x4 DUP3 ADD MSTORE PUSH1 0x21 PUSH1 0x24 DUP3 ADD MSTORE PUSH32 0x43616E6E6F7420776974686472617720746865207374616B696E6720746F6B65 PUSH1 0x44 DUP3 ADD MSTORE PUSH1 0x37 PUSH1 0xF9 SHL PUSH1 0x64 DUP3 ADD MSTORE PUSH1 0x84 ADD PUSH2 0x51E JUMP JUMPDEST PUSH1 0x0 SLOAD PUSH2 0xBAB SWAP1 PUSH1 0x1 PUSH1 0x1 PUSH1 0xA0 SHL SUB DUP5 DUP2 AND SWAP2 AND DUP4 PUSH2 0xF30 JUMP JUMPDEST PUSH1 0x40 DUP1 MLOAD PUSH1 0x1 PUSH1 0x1 PUSH1 0xA0 SHL SUB DUP5 AND DUP2 MSTORE PUSH1 0x20 DUP2 ADD DUP4 SWAP1 MSTORE PUSH32 0x8C1256B8896378CD5044F80C202F9772B9D77DC85C8A6EB51967210B09BFAA28 SWAP2 ADD PUSH1 0x40 MLOAD DUP1 SWAP2 SUB SWAP1 LOG1 POP POP JUMP JUMPDEST PUSH1 0x2 PUSH1 0x3 SLOAD EQ ISZERO PUSH2 0xC14 JUMPI PUSH1 0x40 MLOAD PUSH3 0x461BCD PUSH1 0xE5 SHL DUP2 MSTORE PUSH1 0x4 ADD PUSH2 0x51E SWAP1 PUSH2 0x133A JUMP JUMPDEST PUSH1 0x2 PUSH1 0x3 SSTORE CALLER PUSH2 0xC22 PUSH2 0xE18 JUMP JUMPDEST PUSH1 0xA SSTORE PUSH2 0xC2D PUSH2 0xB13 JUMP JUMPDEST PUSH1 0x9 SSTORE PUSH1 0x1 PUSH1 0x1 PUSH1 0xA0 SHL SUB DUP2 AND ISZERO PUSH2 0xC74 JUMPI PUSH2 0xC48 DUP2 PUSH2 0x3D8 JUMP JUMPDEST PUSH1 0x1 PUSH1 0x1 PUSH1 0xA0 SHL SUB DUP3 AND PUSH1 0x0 SWAP1 DUP2 MSTORE PUSH1 0xC PUSH1 0x20 SWAP1 DUP2 MSTORE PUSH1 0x40 DUP1 DUP4 KECCAK256 SWAP4 SWAP1 SWAP4 SSTORE PUSH1 0xA SLOAD PUSH1 0xB SWAP1 SWAP2 MSTORE SWAP2 SWAP1 KECCAK256 SSTORE JUMPDEST PUSH1 0x0 DUP3 GT PUSH2 0xCB5 JUMPI PUSH1 0x40 MLOAD PUSH3 0x461BCD PUSH1 0xE5 SHL DUP2 MSTORE PUSH1 0x20 PUSH1 0x4 DUP3 ADD MSTORE PUSH1 0xE PUSH1 0x24 DUP3 ADD MSTORE PUSH14 0x43616E6E6F74207374616B65203 PUSH1 0x94 SHL PUSH1 0x44 DUP3 ADD MSTORE PUSH1 0x64 ADD PUSH2 0x51E JUMP JUMPDEST PUSH1 0xD SLOAD PUSH2 0xCC2 SWAP1 DUP4 PUSH2 0xEB2 JUMP JUMPDEST PUSH1 0xD SSTORE CALLER PUSH1 0x0 SWAP1 DUP2 MSTORE PUSH1 0xE PUSH1 0x20 MSTORE PUSH1 0x40 SWAP1 KECCAK256 SLOAD PUSH2 0xCDF SWAP1 DUP4 PUSH2 0xEB2 JUMP JUMPDEST CALLER PUSH1 0x0 DUP2 DUP2 MSTORE PUSH1 0xE PUSH1 0x20 MSTORE PUSH1 0x40 SWAP1 KECCAK256 SWAP2 SWAP1 SWAP2 SSTORE PUSH1 0x5 SLOAD PUSH2 0xD0C SWAP2 PUSH1 0x1 PUSH1 0x1 PUSH1 0xA0 SHL SUB SWAP1 SWAP2 AND SWAP1 ADDRESS DUP6 PUSH2 0xFAE JUMP JUMPDEST PUSH1 0x40 MLOAD DUP3 DUP2 MSTORE CALLER SWAP1 PUSH32 0x9E71BC8EEA02A63969F509818F2DAFB9254532904319F9DBDA79B67BD34A5F3D SWAP1 PUSH1 0x20 ADD PUSH2 0x64F JUMP JUMPDEST PUSH2 0xD46 PUSH2 0xEBE JUMP JUMPDEST PUSH1 0x6 SLOAD TIMESTAMP GT PUSH2 0xDE3 JUMPI PUSH1 0x40 MLOAD PUSH3 0x461BCD PUSH1 0xE5 SHL DUP2 MSTORE PUSH1 0x20 PUSH1 0x4 DUP3 ADD MSTORE PUSH1 0x58 PUSH1 0x24 DUP3 ADD MSTORE PUSH32 0x50726576696F7573207265776172647320706572696F64206D75737420626520 PUSH1 0x44 DUP3 ADD MSTORE PUSH32 0x636F6D706C657465206265666F7265206368616E67696E672074686520647572 PUSH1 0x64 DUP3 ADD MSTORE PUSH32 0x6174696F6E20666F7220746865206E657720706572696F640000000000000000 PUSH1 0x84 DUP3 ADD MSTORE PUSH1 0xA4 ADD PUSH2 0x51E JUMP JUMPDEST PUSH1 0x8 DUP2 SWAP1 SSTORE PUSH1 0x40 MLOAD DUP2 DUP2 MSTORE PUSH32 0xFB46CA5A5E06D4540D6387B930A7C978BCE0DB5F449EC6B3F5D07C6E1D44F2D3 SWAP1 PUSH1 0x20 ADD PUSH2 0x4A8 JUMP JUMPDEST PUSH1 0x0 PUSH1 0xD SLOAD PUSH1 0x0 EQ ISZERO PUSH2 0xE2C JUMPI POP PUSH1 0xA SLOAD SWAP1 JUMP JUMPDEST PUSH2 0x4F6 PUSH2 0xE5B PUSH1 0xD SLOAD PUSH2 0x444 PUSH8 0xDE0B6B3A7640000 PUSH2 0xE55 PUSH1 0x7 SLOAD PUSH2 0xE55 PUSH1 0x9 SLOAD PUSH2 0x41F PUSH2 0xB13 JUMP JUMPDEST SWAP1 PUSH2 0xE9A JUMP JUMPDEST PUSH1 0xA SLOAD SWAP1 PUSH2 0xEB2 JUMP JUMPDEST CALLER PUSH1 0x0 SWAP1 DUP2 MSTORE PUSH1 0xE PUSH1 0x20 MSTORE PUSH1 0x40 SWAP1 KECCAK256 SLOAD PUSH2 0xE7D SWAP1 PUSH2 0x4FB JUMP JUMPDEST PUSH2 0xE85 PUSH2 0x8C2 JUMP JUMPDEST JUMP JUMPDEST PUSH1 0x0 PUSH2 0xE93 DUP3 DUP5 PUSH2 0x13CA JUMP JUMPDEST SWAP4 SWAP3 POP POP POP JUMP JUMPDEST PUSH1 0x0 PUSH2 0xE93 DUP3 DUP5 PUSH2 0x13AB JUMP JUMPDEST PUSH1 0x0 PUSH2 0xE93 DUP3 DUP5 PUSH2 0x1389 JUMP JUMPDEST PUSH1 0x0 PUSH2 0xE93 DUP3 DUP5 PUSH2 0x1371 JUMP JUMPDEST PUSH1 0x0 SLOAD PUSH1 0x1 PUSH1 0x1 PUSH1 0xA0 SHL SUB AND CALLER EQ PUSH2 0xE85 JUMPI PUSH1 0x40 MLOAD PUSH3 0x461BCD PUSH1 0xE5 SHL DUP2 MSTORE PUSH1 0x20 PUSH1 0x4 DUP3 ADD MSTORE PUSH1 0x2F PUSH1 0x24 DUP3 ADD MSTORE PUSH32 0x4F6E6C792074686520636F6E7472616374206F776E6572206D61792070657266 PUSH1 0x44 DUP3 ADD MSTORE PUSH15 0x37B936903A3434B99030B1BA34B7B7 PUSH1 0x89 SHL PUSH1 0x64 DUP3 ADD MSTORE PUSH1 0x84 ADD PUSH2 0x51E JUMP JUMPDEST PUSH1 0x40 MLOAD PUSH1 0x1 PUSH1 0x1 PUSH1 0xA0 SHL SUB DUP4 AND PUSH1 0x24 DUP3 ADD MSTORE PUSH1 0x44 DUP2 ADD DUP3 SWAP1 MSTORE PUSH2 0xF93 SWAP1 DUP5 SWAP1 PUSH4 0xA9059CBB PUSH1 0xE0 SHL SWAP1 PUSH1 0x64 ADD JUMPDEST PUSH1 0x40 DUP1 MLOAD PUSH1 0x1F NOT DUP2 DUP5 SUB ADD DUP2 MSTORE SWAP2 SWAP1 MSTORE PUSH1 0x20 DUP2 ADD DUP1 MLOAD PUSH1 0x1 PUSH1 0x1 PUSH1 0xE0 SHL SUB AND PUSH1 0x1 PUSH1 0x1 PUSH1 0xE0 SHL SUB NOT SWAP1 SWAP4 AND SWAP3 SWAP1 SWAP3 OR SWAP1 SWAP2 MSTORE PUSH2 0xFEC JUMP JUMPDEST POP POP POP JUMP JUMPDEST PUSH1 0x0 DUP2 DUP4 LT PUSH2 0xFA7 JUMPI DUP2 PUSH2 0xE93 JUMP JUMPDEST POP SWAP1 SWAP2 SWAP1 POP JUMP JUMPDEST PUSH1 0x40 MLOAD PUSH1 0x1 PUSH1 0x1 PUSH1 0xA0 SHL SUB DUP1 DUP6 AND PUSH1 0x24 DUP4 ADD MSTORE DUP4 AND PUSH1 0x44 DUP3 ADD MSTORE PUSH1 0x64 DUP2 ADD DUP3 SWAP1 MSTORE PUSH2 0xFE6 SWAP1 DUP6 SWAP1 PUSH4 0x23B872DD PUSH1 0xE0 SHL SWAP1 PUSH1 0x84 ADD PUSH2 0xF5C JUMP JUMPDEST POP POP POP POP JUMP JUMPDEST PUSH1 0x0 PUSH2 0x1041 DUP3 PUSH1 0x40 MLOAD DUP1 PUSH1 0x40 ADD PUSH1 0x40 MSTORE DUP1 PUSH1 0x20 DUP2 MSTORE PUSH1 0x20 ADD PUSH32 0x5361666545524332303A206C6F772D6C6576656C2063616C6C206661696C6564 DUP2 MSTORE POP DUP6 PUSH1 0x1 PUSH1 0x1 PUSH1 0xA0 SHL SUB AND PUSH2 0x10BE SWAP1 SWAP3 SWAP2 SWAP1 PUSH4 0xFFFFFFFF AND JUMP JUMPDEST DUP1 MLOAD SWAP1 SWAP2 POP ISZERO PUSH2 0xF93 JUMPI DUP1 DUP1 PUSH1 0x20 ADD SWAP1 MLOAD DUP2 ADD SWAP1 PUSH2 0x105F SWAP2 SWAP1 PUSH2 0x1297 JUMP JUMPDEST PUSH2 0xF93 JUMPI PUSH1 0x40 MLOAD PUSH3 0x461BCD PUSH1 0xE5 SHL DUP2 MSTORE PUSH1 0x20 PUSH1 0x4 DUP3 ADD MSTORE PUSH1 0x2A PUSH1 0x24 DUP3 ADD MSTORE PUSH32 0x5361666545524332303A204552433230206F7065726174696F6E20646964206E PUSH1 0x44 DUP3 ADD MSTORE PUSH10 0x1BDD081CDD58D8D95959 PUSH1 0xB2 SHL PUSH1 0x64 DUP3 ADD MSTORE PUSH1 0x84 ADD PUSH2 0x51E JUMP JUMPDEST PUSH1 0x60 PUSH2 0x10CD DUP5 DUP5 PUSH1 0x0 DUP6 PUSH2 0x10D5 JUMP JUMPDEST SWAP5 SWAP4 POP POP POP POP JUMP JUMPDEST PUSH1 0x60 DUP3 SELFBALANCE LT ISZERO PUSH2 0x1136 JUMPI PUSH1 0x40 MLOAD PUSH3 0x461BCD PUSH1 0xE5 SHL DUP2 MSTORE PUSH1 0x20 PUSH1 0x4 DUP3 ADD MSTORE PUSH1 0x26 PUSH1 0x24 DUP3 ADD MSTORE PUSH32 0x416464726573733A20696E73756666696369656E742062616C616E636520666F PUSH1 0x44 DUP3 ADD MSTORE PUSH6 0x1C8818D85B1B PUSH1 0xD2 SHL PUSH1 0x64 DUP3 ADD MSTORE PUSH1 0x84 ADD PUSH2 0x51E JUMP JUMPDEST DUP5 EXTCODESIZE PUSH2 0x1184 JUMPI PUSH1 0x40 MLOAD PUSH3 0x461BCD PUSH1 0xE5 SHL DUP2 MSTORE PUSH1 0x20 PUSH1 0x4 DUP3 ADD MSTORE PUSH1 0x1D PUSH1 0x24 DUP3 ADD MSTORE PUSH32 0x416464726573733A2063616C6C20746F206E6F6E2D636F6E7472616374000000 PUSH1 0x44 DUP3 ADD MSTORE PUSH1 0x64 ADD PUSH2 0x51E JUMP JUMPDEST PUSH1 0x0 DUP1 DUP7 PUSH1 0x1 PUSH1 0x1 PUSH1 0xA0 SHL SUB AND DUP6 DUP8 PUSH1 0x40 MLOAD PUSH2 0x11A0 SWAP2 SWAP1 PUSH2 0x12EB JUMP JUMPDEST PUSH1 0x0 PUSH1 0x40 MLOAD DUP1 DUP4 SUB DUP2 DUP6 DUP8 GAS CALL SWAP3 POP POP POP RETURNDATASIZE DUP1 PUSH1 0x0 DUP2 EQ PUSH2 0x11DD JUMPI PUSH1 0x40 MLOAD SWAP2 POP PUSH1 0x1F NOT PUSH1 0x3F RETURNDATASIZE ADD AND DUP3 ADD PUSH1 0x40 MSTORE RETURNDATASIZE DUP3 MSTORE RETURNDATASIZE PUSH1 0x0 PUSH1 0x20 DUP5 ADD RETURNDATACOPY PUSH2 0x11E2 JUMP JUMPDEST PUSH1 0x60 SWAP2 POP JUMPDEST POP SWAP2 POP SWAP2 POP PUSH2 0x11F2 DUP3 DUP3 DUP7 PUSH2 0x11FD JUMP JUMPDEST SWAP8 SWAP7 POP POP POP POP POP POP POP JUMP JUMPDEST PUSH1 0x60 DUP4 ISZERO PUSH2 0x120C JUMPI POP DUP2 PUSH2 0xE93 JUMP JUMPDEST DUP3 MLOAD ISZERO PUSH2 0x121C JUMPI DUP3 MLOAD DUP1 DUP5 PUSH1 0x20 ADD REVERT JUMPDEST DUP2 PUSH1 0x40 MLOAD PUSH3 0x461BCD PUSH1 0xE5 SHL DUP2 MSTORE PUSH1 0x4 ADD PUSH2 0x51E SWAP2 SWAP1 PUSH2 0x1307 JUMP JUMPDEST DUP1 CALLDATALOAD PUSH1 0x1 PUSH1 0x1 PUSH1 0xA0 SHL SUB DUP2 AND DUP2 EQ PUSH2 0x124D JUMPI PUSH1 0x0 DUP1 REVERT JUMPDEST SWAP2 SWAP1 POP JUMP JUMPDEST PUSH1 0x0 PUSH1 0x20 DUP3 DUP5 SUB SLT ISZERO PUSH2 0x1264 JUMPI PUSH1 0x0 DUP1 REVERT JUMPDEST PUSH2 0xE93 DUP3 PUSH2 0x1236 JUMP JUMPDEST PUSH1 0x0 DUP1 PUSH1 0x40 DUP4 DUP6 SUB SLT ISZERO PUSH2 0x1280 JUMPI PUSH1 0x0 DUP1 REVERT JUMPDEST PUSH2 0x1289 DUP4 PUSH2 0x1236 JUMP JUMPDEST SWAP5 PUSH1 0x20 SWAP4 SWAP1 SWAP4 ADD CALLDATALOAD SWAP4 POP POP POP JUMP JUMPDEST PUSH1 0x0 PUSH1 0x20 DUP3 DUP5 SUB SLT ISZERO PUSH2 0x12A9 JUMPI PUSH1 0x0 DUP1 REVERT JUMPDEST DUP2 MLOAD DUP1 ISZERO ISZERO DUP2 EQ PUSH2 0xE93 JUMPI PUSH1 0x0 DUP1 REVERT JUMPDEST PUSH1 0x0 PUSH1 0x20 DUP3 DUP5 SUB SLT ISZERO PUSH2 0x12CB JUMPI PUSH1 0x0 DUP1 REVERT JUMPDEST POP CALLDATALOAD SWAP2 SWAP1 POP JUMP JUMPDEST PUSH1 0x0 PUSH1 0x20 DUP3 DUP5 SUB SLT ISZERO PUSH2 0x12E4 JUMPI PUSH1 0x0 DUP1 REVERT JUMPDEST POP MLOAD SWAP2 SWAP1 POP JUMP JUMPDEST PUSH1 0x0 DUP3 MLOAD PUSH2 0x12FD DUP2 DUP5 PUSH1 0x20 DUP8 ADD PUSH2 0x13E1 JUMP JUMPDEST SWAP2 SWAP1 SWAP2 ADD SWAP3 SWAP2 POP POP JUMP JUMPDEST PUSH1 0x20 DUP2 MSTORE PUSH1 0x0 DUP3 MLOAD DUP1 PUSH1 0x20 DUP5 ADD MSTORE PUSH2 0x1326 DUP2 PUSH1 0x40 DUP6 ADD PUSH1 0x20 DUP8 ADD PUSH2 0x13E1 JUMP JUMPDEST PUSH1 0x1F ADD PUSH1 0x1F NOT AND SWAP2 SWAP1 SWAP2 ADD PUSH1 0x40 ADD SWAP3 SWAP2 POP POP JUMP JUMPDEST PUSH1 0x20 DUP1 DUP3 MSTORE PUSH1 0x1F SWAP1 DUP3 ADD MSTORE PUSH32 0x5265656E7472616E637947756172643A207265656E7472616E742063616C6C00 PUSH1 0x40 DUP3 ADD MSTORE PUSH1 0x60 ADD SWAP1 JUMP JUMPDEST PUSH1 0x0 DUP3 NOT DUP3 GT ISZERO PUSH2 0x1384 JUMPI PUSH2 0x1384 PUSH2 0x140D JUMP JUMPDEST POP ADD SWAP1 JUMP JUMPDEST PUSH1 0x0 DUP3 PUSH2 0x13A6 JUMPI PUSH4 0x4E487B71 PUSH1 0xE0 SHL PUSH1 0x0 MSTORE PUSH1 0x12 PUSH1 0x4 MSTORE PUSH1 0x24 PUSH1 0x0 REVERT JUMPDEST POP DIV SWAP1 JUMP JUMPDEST PUSH1 0x0 DUP2 PUSH1 0x0 NOT DIV DUP4 GT DUP3 ISZERO ISZERO AND ISZERO PUSH2 0x13C5 JUMPI PUSH2 0x13C5 PUSH2 0x140D JUMP JUMPDEST POP MUL SWAP1 JUMP JUMPDEST PUSH1 0x0 DUP3 DUP3 LT ISZERO PUSH2 0x13DC JUMPI PUSH2 0x13DC PUSH2 0x140D JUMP JUMPDEST POP SUB SWAP1 JUMP JUMPDEST PUSH1 0x0 JUMPDEST DUP4 DUP2 LT ISZERO PUSH2 0x13FC JUMPI DUP2 DUP2 ADD MLOAD DUP4 DUP3 ADD MSTORE PUSH1 0x20 ADD PUSH2 0x13E4 JUMP JUMPDEST DUP4 DUP2 GT ISZERO PUSH2 0xFE6 JUMPI POP POP PUSH1 0x0 SWAP2 ADD MSTORE JUMP JUMPDEST PUSH4 0x4E487B71 PUSH1 0xE0 SHL PUSH1 0x0 MSTORE PUSH1 0x11 PUSH1 0x4 MSTORE PUSH1 0x24 PUSH1 0x0 REVERT INVALID LOG2 PUSH5 0x6970667358 0x22 SLT KECCAK256 LOG1 DUP2 DUP16 0xC9 SLT 0x28 MULMOD PUSH24 0x91E9B9831B838762345D631BE721E4D05625DC731D20C96C PUSH5 0x736F6C6343 STOP ADDMOD SMOD STOP CALLER ",
  "sha1": "93fdd006618ee7b9b11373624df435e7b0aed914",
  "source": "pragma solidity ^0.8.3;\n\nimport 'OpenZeppelin/openzeppelin-contracts@4.0.0/contracts/utils/math/SafeMath.sol';\nimport 'OpenZeppelin/openzeppelin-contracts@4.0.0/contracts/utils/math/Math.sol';\nimport 'OpenZeppelin/openzeppelin-contracts@4.0.0/contracts/token/ERC20/utils/SafeERC20.sol';\nimport 'OpenZeppelin/openzeppelin-contracts@4.0.0/contracts/security/ReentrancyGuard.sol';\n\n// Inheritance\nimport \"../../interfaces/IStakingRewards.sol\";\n\npragma solidity ^0.8.3;\n\n\n// https://docs.synthetix.io/contracts/source/contracts/owned\ncontract Owned {\n    address public owner;\n    address public nominatedOwner;\n\n    constructor(address _owner) {\n        require(_owner != address(0), \"Owner address cannot be 0\");\n        owner = _owner;\n        emit OwnerChanged(address(0), _owner);\n    }\n\n    function nominateNewOwner(address _owner) external onlyOwner {\n        nominatedOwner = _owner;\n        emit OwnerNominated(_owner);\n    }\n\n    function acceptOwnership() external {\n        require(msg.sender == nominatedOwner, \"You must be nominated before you can accept ownership\");\n        emit OwnerChanged(owner, nominatedOwner);\n        owner = nominatedOwner;\n        nominatedOwner = address(0);\n    }\n\n    modifier onlyOwner {\n        _onlyOwner();\n        _;\n    }\n\n    function _onlyOwner() private view {\n        require(msg.sender == owner, \"Only the contract owner may perform this action\");\n    }\n\n    event OwnerNominated(address newOwner);\n    event OwnerChanged(address oldOwner, address newOwner);\n}\n\n\n// https://docs.synthetix.io/contracts/source/contracts/rewardsdistributionrecipient\nabstract contract RewardsDistributionRecipient is Owned {\n    address public rewardsDistribution;\n\n    function notifyRewardAmount(uint256 reward) external virtual;\n\n    modifier onlyRewardsDistribution() {\n        require(msg.sender == rewardsDistribution, \"Caller is not RewardsDistribution contract\");\n        _;\n    }\n\n    function setRewardsDistribution(address _rewardsDistribution) external onlyOwner {\n        rewardsDistribution = _rewardsDistribution;\n    }\n}\n\n// https://docs.synthetix.io/contracts/source/contracts/stakingrewards\n// XXX: removed Pausable\ncontract MockStakingRewards is IStakingRewards, RewardsDistributionRecipient, ReentrancyGuard {\n    using SafeMath for uint256;\n    using SafeERC20 for IERC20;\n\n    /* ========== STATE VARIABLES ========== */\n\n    IERC20 public rewardsToken;\n    IERC20 public stakingToken;\n    uint256 public periodFinish = 0;\n    uint256 public rewardRate = 0;\n    uint256 public rewardsDuration = 7 days;\n    uint256 public lastUpdateTime;\n    uint256 public rewardPerTokenStored;\n\n    mapping(address => uint256) public userRewardPerTokenPaid;\n    mapping(address => uint256) public rewards;\n\n    uint256 private _totalSupply;\n    mapping(address => uint256) private _balances;\n\n    /* ========== CONSTRUCTOR ========== */\n\n    constructor(\n        address _owner,\n        address _rewardsDistribution,\n        address _rewardsToken,\n        address _stakingToken\n    ) Owned(_owner) {\n        rewardsToken = IERC20(_rewardsToken);\n        stakingToken = IERC20(_stakingToken);\n        rewardsDistribution = _rewardsDistribution;\n    }\n\n    /* ========== VIEWS ========== */\n\n    function totalSupply() external view override returns (uint256) {\n        return _totalSupply;\n    }\n\n    function balanceOf(address account) external view override returns (uint256) {\n        return _balances[account];\n    }\n\n    function lastTimeRewardApplicable() public view override returns (uint256) {\n        return Math.min(block.timestamp, periodFinish);\n    }\n\n    function rewardPerToken() public view override returns (uint256) {\n        if (_totalSupply == 0) {\n            return rewardPerTokenStored;\n        }\n        return\n            rewardPerTokenStored.add(\n                lastTimeRewardApplicable().sub(lastUpdateTime).mul(rewardRate).mul(1e18).div(_totalSupply)\n            );\n    }\n\n    function earned(address account) public view override returns (uint256) {\n        return _balances[account].mul(rewardPerToken().sub(userRewardPerTokenPaid[account])).div(1e18).add(rewards[account]);\n    }\n\n    function getRewardForDuration() external view override returns (uint256) {\n        return rewardRate.mul(rewardsDuration);\n    }\n\n    /* ========== MUTATIVE FUNCTIONS ========== */\n\n    // XXX: removed notPaused\n    function stake(uint256 amount) external override nonReentrant updateReward(msg.sender) {\n        require(amount > 0, \"Cannot stake 0\");\n        _totalSupply = _totalSupply.add(amount);\n        _balances[msg.sender] = _balances[msg.sender].add(amount);\n        stakingToken.safeTransferFrom(msg.sender, address(this), amount);\n        emit Staked(msg.sender, amount);\n    }\n\n    function withdraw(uint256 amount) public override nonReentrant updateReward(msg.sender) {\n        require(amount > 0, \"Cannot withdraw 0\");\n        _totalSupply = _totalSupply.sub(amount);\n        _balances[msg.sender] = _balances[msg.sender].sub(amount);\n        stakingToken.safeTransfer(msg.sender, amount);\n        emit Withdrawn(msg.sender, amount);\n    }\n\n    function getReward() public override nonReentrant updateReward(msg.sender) {\n        uint256 reward = rewards[msg.sender];\n        if (reward > 0) {\n            rewards[msg.sender] = 0;\n            rewardsToken.safeTransfer(msg.sender, reward);\n            emit RewardPaid(msg.sender, reward);\n        }\n    }\n\n    function exit() external override {\n        withdraw(_balances[msg.sender]);\n        getReward();\n    }\n\n    /* ========== RESTRICTED FUNCTIONS ========== */\n\n    function notifyRewardAmount(uint256 reward) external override onlyRewardsDistribution updateReward(address(0)) {\n        if (block.timestamp >= periodFinish) {\n            rewardRate = reward.div(rewardsDuration);\n        } else {\n            uint256 remaining = periodFinish.sub(block.timestamp);\n            uint256 leftover = remaining.mul(rewardRate);\n            rewardRate = reward.add(leftover).div(rewardsDuration);\n        }\n\n        // Ensure the provided reward amount is not more than the balance in the contract.\n        // This keeps the reward rate in the right range, preventing overflows due to\n        // very high values of rewardRate in the earned and rewardsPerToken functions;\n        // Reward + leftover must be less than 2^256 / 10^18 to avoid overflow.\n        uint balance = rewardsToken.balanceOf(address(this));\n        require(rewardRate <= balance.div(rewardsDuration), \"Provided reward too high\");\n\n        lastUpdateTime = block.timestamp;\n        periodFinish = block.timestamp.add(rewardsDuration);\n        emit RewardAdded(reward);\n    }\n\n    // End rewards emission earlier\n    function updatePeriodFinish(uint timestamp) external onlyOwner updateReward(address(0)) {\n        periodFinish = timestamp;\n    }\n\n    // Added to support recovering LP Rewards from other systems such as BAL to be distributed to holders\n    function recoverERC20(address tokenAddress, uint256 tokenAmount) external onlyOwner {\n        require(tokenAddress != address(stakingToken), \"Cannot withdraw the staking token\");\n        IERC20(tokenAddress).safeTransfer(owner, tokenAmount);\n        emit Recovered(tokenAddress, tokenAmount);\n    }\n\n    function setRewardsDuration(uint256 _rewardsDuration) external onlyOwner {\n        require(\n            block.timestamp > periodFinish,\n            \"Previous rewards period must be complete before changing the duration for the new period\"\n        );\n        rewardsDuration = _rewardsDuration;\n        emit RewardsDurationUpdated(rewardsDuration);\n    }\n\n    /* ========== MODIFIERS ========== */\n\n    modifier updateReward(address account) {\n        rewardPerTokenStored = rewardPerToken();\n        lastUpdateTime = lastTimeRewardApplicable();\n        if (account != address(0)) {\n            rewards[account] = earned(account);\n            userRewardPerTokenPaid[account] = rewardPerTokenStored;\n        }\n        _;\n    }\n\n    /* ========== EVENTS ========== */\n\n    event RewardAdded(uint256 reward);\n    event Staked(address indexed user, uint256 amount);\n    event Withdrawn(address indexed user, uint256 amount);\n    event RewardPaid(address indexed user, uint256 reward);\n    event RewardsDurationUpdated(uint256 newDuration);\n    event Recovered(address token, uint256 amount);\n}",
  "sourcePath": "contracts/mock/MockStaking.sol",
  "type": "contract"
}