{
  "abi": [
    {
      "inputs": [
        {
          "internalType": "contract IBaseOracle",
          "name": "_source",
          "type": "address"
        }
      ],
      "stateMutability": "nonpayable",
      "type": "constructor"
    },
    {
      "inputs": [
        {
          "internalType": "address",
          "name": "token",
          "type": "address"
        }
      ],
      "name": "getCELOPx",
      "outputs": [
        {
          "internalType": "uint256",
          "name": "",
          "type": "uint256"
        }
      ],
      "stateMutability": "view",
      "type": "function"
    },
    {
      "inputs": [
        {
          "internalType": "address",
          "name": "",
          "type": "address"
        }
      ],
      "name": "moolaToUnderlying",
      "outputs": [
        {
          "internalType": "address",
          "name": "",
          "type": "address"
        }
      ],
      "stateMutability": "view",
      "type": "function"
    },
    {
      "inputs": [],
      "name": "source",
      "outputs": [
        {
          "internalType": "contract IBaseOracle",
          "name": "",
          "type": "address"
        }
      ],
      "stateMutability": "view",
      "type": "function"
    }
  ],
  "bytecode": "60a060405234801561001057600080fd5b5060405161033a38038061033a8339818101604052602081101561003357600080fd5b50516001600160601b031960609190911b16608052600060208190527fa60e911b8576f451751ae86ba9800215c20f7720c4ace6b02520680a645117b680546001600160a01b031990811673765de816845861e75a25fca122bb6898b8b1282a1790915573e273ad7ee11dcfaa87383ad5977ee1504ac075689091527f06fabd53a22d3ad5c95ea354802fdb37613df5bbd836395ad2b22ac1eb2dd918805490911673d8763cba276a3738e6de85b4b3bf5fded6d6ca7317905560805160601c61022b61010f6000398061010352806101d3525061022b6000f3fe608060405234801561001057600080fd5b50600436106100415760003560e01c806311e56aff146100465780631298f04b1461007e57806367e828bf146100c0575b600080fd5b61006c6004803603602081101561005c57600080fd5b50356001600160a01b03166100c8565b60408051918252519081900360200190f35b6100a46004803603602081101561009457600080fd5b50356001600160a01b03166101b6565b604080516001600160a01b039092168252519081900360200190f35b6100a46101d1565b6001600160a01b038082166000908152602081815260408083205481516311e56aff60e01b81529085166004820181905291519394919385937f0000000000000000000000000000000000000000000000000000000000000000909316926311e56aff9260248082019391829003018186803b15801561014757600080fd5b505afa15801561015b573d6000803e3d6000fd5b505050506040513d602081101561017157600080fd5b50519050806101af576040805162461bcd60e51b81526020600482015260056024820152640dcde40e0f60db1b604482015290519081900360640190fd5b9392505050565b6000602081905290815260409020546001600160a01b031681565b7f00000000000000000000000000000000000000000000000000000000000000008156fea2646970667358221220732cd1b517938a32b6dc6289b9be20b655f7131353d0e031cb752fee9697743a64736f6c634300060c0033",
  "bytecodeSha1": "23d123ecfbeac2b3f96d5d30135ccb28b61958d1",
  "compiler": {
    "evm_version": "istanbul",
    "optimizer": {
      "enabled": true,
      "runs": 200
    },
    "version": "0.6.12+commit.27d51765"
  },
  "contractName": "MoolaProxyOracle",
  "language": "Solidity",
  "natspec": {
    "kind": "dev",
    "methods": {
      "getCELOPx(address)": {
        "details": "Return the value of the given input as CELO per unit, multiplied by 2**112.",
        "params": {
          "token": "The ERC-20 token to check the value."
        }
      }
    },
    "version": 1
  },
  "opcodes": "PUSH1 0x80 PUSH1 0x40 MSTORE CALLVALUE DUP1 ISZERO PUSH2 0x10 JUMPI PUSH1 0x0 DUP1 REVERT JUMPDEST POP PUSH1 0x4 CALLDATASIZE LT PUSH2 0x41 JUMPI PUSH1 0x0 CALLDATALOAD PUSH1 0xE0 SHR DUP1 PUSH4 0x11E56AFF EQ PUSH2 0x46 JUMPI DUP1 PUSH4 0x1298F04B EQ PUSH2 0x7E JUMPI DUP1 PUSH4 0x67E828BF EQ PUSH2 0xC0 JUMPI JUMPDEST PUSH1 0x0 DUP1 REVERT JUMPDEST PUSH2 0x6C PUSH1 0x4 DUP1 CALLDATASIZE SUB PUSH1 0x20 DUP2 LT ISZERO PUSH2 0x5C JUMPI PUSH1 0x0 DUP1 REVERT JUMPDEST POP CALLDATALOAD PUSH1 0x1 PUSH1 0x1 PUSH1 0xA0 SHL SUB AND PUSH2 0xC8 JUMP JUMPDEST PUSH1 0x40 DUP1 MLOAD SWAP2 DUP3 MSTORE MLOAD SWAP1 DUP2 SWAP1 SUB PUSH1 0x20 ADD SWAP1 RETURN JUMPDEST PUSH2 0xA4 PUSH1 0x4 DUP1 CALLDATASIZE SUB PUSH1 0x20 DUP2 LT ISZERO PUSH2 0x94 JUMPI PUSH1 0x0 DUP1 REVERT JUMPDEST POP CALLDATALOAD PUSH1 0x1 PUSH1 0x1 PUSH1 0xA0 SHL SUB AND PUSH2 0x1B6 JUMP JUMPDEST PUSH1 0x40 DUP1 MLOAD PUSH1 0x1 PUSH1 0x1 PUSH1 0xA0 SHL SUB SWAP1 SWAP3 AND DUP3 MSTORE MLOAD SWAP1 DUP2 SWAP1 SUB PUSH1 0x20 ADD SWAP1 RETURN JUMPDEST PUSH2 0xA4 PUSH2 0x1D1 JUMP JUMPDEST PUSH1 0x1 PUSH1 0x1 PUSH1 0xA0 SHL SUB DUP1 DUP3 AND PUSH1 0x0 SWAP1 DUP2 MSTORE PUSH1 0x20 DUP2 DUP2 MSTORE PUSH1 0x40 DUP1 DUP4 KECCAK256 SLOAD DUP2 MLOAD PUSH4 0x11E56AFF PUSH1 0xE0 SHL DUP2 MSTORE SWAP1 DUP6 AND PUSH1 0x4 DUP3 ADD DUP2 SWAP1 MSTORE SWAP2 MLOAD SWAP4 SWAP5 SWAP2 SWAP4 DUP6 SWAP4 PUSH32 0x0 SWAP1 SWAP4 AND SWAP3 PUSH4 0x11E56AFF SWAP3 PUSH1 0x24 DUP1 DUP3 ADD SWAP4 SWAP2 DUP3 SWAP1 SUB ADD DUP2 DUP7 DUP1 EXTCODESIZE ISZERO DUP1 ISZERO PUSH2 0x147 JUMPI PUSH1 0x0 DUP1 REVERT JUMPDEST POP GAS STATICCALL ISZERO DUP1 ISZERO PUSH2 0x15B JUMPI RETURNDATASIZE PUSH1 0x0 DUP1 RETURNDATACOPY RETURNDATASIZE PUSH1 0x0 REVERT JUMPDEST POP POP POP POP PUSH1 0x40 MLOAD RETURNDATASIZE PUSH1 0x20 DUP2 LT ISZERO PUSH2 0x171 JUMPI PUSH1 0x0 DUP1 REVERT JUMPDEST POP MLOAD SWAP1 POP DUP1 PUSH2 0x1AF JUMPI PUSH1 0x40 DUP1 MLOAD PUSH3 0x461BCD PUSH1 0xE5 SHL DUP2 MSTORE PUSH1 0x20 PUSH1 0x4 DUP3 ADD MSTORE PUSH1 0x5 PUSH1 0x24 DUP3 ADD MSTORE PUSH5 0xDCDE40E0F PUSH1 0xDB SHL PUSH1 0x44 DUP3 ADD MSTORE SWAP1 MLOAD SWAP1 DUP2 SWAP1 SUB PUSH1 0x64 ADD SWAP1 REVERT JUMPDEST SWAP4 SWAP3 POP POP POP JUMP JUMPDEST PUSH1 0x0 PUSH1 0x20 DUP2 SWAP1 MSTORE SWAP1 DUP2 MSTORE PUSH1 0x40 SWAP1 KECCAK256 SLOAD PUSH1 0x1 PUSH1 0x1 PUSH1 0xA0 SHL SUB AND DUP2 JUMP JUMPDEST PUSH32 0x0 DUP2 JUMP INVALID LOG2 PUSH5 0x6970667358 0x22 SLT KECCAK256 PUSH20 0x2CD1B517938A32B6DC6289B9BE20B655F7131353 0xD0 0xE0 BALANCE 0xCB PUSH22 0x2FEE9697743A64736F6C634300060C00330000000000 ",
  "sha1": "438be76597453b5bbcfdab86dba5d0ec5bb9db72",
  "source": "// SPDX-License-Identifier: MIT\n\npragma solidity 0.6.12;\n\nimport '../../interfaces/IBaseOracle.sol';\n\ncontract MoolaProxyOracle is IBaseOracle {\n  IBaseOracle public immutable source; // Main oracle source\n  mapping(address => address) public moolaToUnderlying;\n\n  constructor(IBaseOracle _source) public {\n    source = _source;\n    moolaToUnderlying[0x918146359264C492BD6934071c6Bd31C854EDBc3] = 0x765DE816845861e75A25fCA122bb6898B8B1282a;\n    moolaToUnderlying[0xE273Ad7ee11dCfAA87383aD5977EE1504aC07568] = 0xD8763CBa276a3738E6DE85b4b3bF5FDed6D6cA73;\n  }\n\n  /// @dev Return the value of the given input as CELO per unit, multiplied by 2**112.\n  /// @param token The ERC-20 token to check the value.\n  function getCELOPx(address token) external view override returns (uint) {\n    address underlying = moolaToUnderlying[token];\n    uint px = IBaseOracle(source).getCELOPx(underlying);\n    require(px != 0, 'no px');\n    return px;\n  }\n\n}",
  "sourcePath": "contracts/oracle/MoolaProxyOracle.sol",
  "type": "contract"
}