{
  "abi": [
    {
      "inputs": [],
      "name": "father",
      "outputs": [
        {
          "internalType": "uint256",
          "name": "",
          "type": "uint256"
        }
      ],
      "stateMutability": "view",
      "type": "function"
    },
    {
      "inputs": [],
      "name": "gramps",
      "outputs": [
        {
          "internalType": "string",
          "name": "",
          "type": "string"
        }
      ],
      "stateMutability": "view",
      "type": "function"
    },
    {
      "inputs": [],
      "name": "initialize",
      "outputs": [],
      "stateMutability": "nonpayable",
      "type": "function"
    },
    {
      "inputs": [
        {
          "internalType": "string",
          "name": "_gramps",
          "type": "string"
        },
        {
          "internalType": "uint256",
          "name": "_father",
          "type": "uint256"
        }
      ],
      "name": "initialize",
      "outputs": [],
      "stateMutability": "nonpayable",
      "type": "function"
    },
    {
      "inputs": [
        {
          "internalType": "string",
          "name": "value",
          "type": "string"
        }
      ],
      "name": "initialize",
      "outputs": [],
      "stateMutability": "nonpayable",
      "type": "function"
    },
    {
      "inputs": [],
      "name": "isHuman",
      "outputs": [
        {
          "internalType": "bool",
          "name": "",
          "type": "bool"
        }
      ],
      "stateMutability": "view",
      "type": "function"
    }
  ],
  "bytecode": "608060405234801561001057600080fd5b50610646806100206000396000f3fe608060405234801561001057600080fd5b50600436106100625760003560e01c80631c8aca3b146100675780634a6c9db6146100815780638129fc1c1461009d5780638beaf7d7146100a7578063f62d18881461014f578063fa39851f146101f5575b600080fd5b61006f610272565b60408051918252519081900360200190f35b610089610278565b604080519115158252519081900360200190f35b6100a5610287565b005b6100a5600480360360408110156100bd57600080fd5b8101906020810181356401000000008111156100d857600080fd5b8201836020820111156100ea57600080fd5b8035906020019184600183028401116401000000008311171561010c57600080fd5b91908080601f016020809104026020016040519081016040528093929190818152602001838380828437600092019190915250929550509135925061033a915050565b6100a56004803603602081101561016557600080fd5b81019060208101813564010000000081111561018057600080fd5b82018360208201111561019257600080fd5b803590602001918460018302840111640100000000831117156101b457600080fd5b91908080601f0160208091040260200160405190810160405280939291908181526020018383808284376000920191909152509295506103ec945050505050565b6101fd6104ab565b6040805160208082528351818301528351919283929083019185019080838360005b8381101561023757818101518382015260200161021f565b50505050905090810190601f1680156102645780820380516001836020036101000a031916815260200191505b509250505060405180910390f35b60025481565b60005462010000900460ff1681565b600054610100900460ff16806102a057506102a0610538565b806102ae575060005460ff16155b6102e95760405162461bcd60e51b815260040180806020018281038252602e8152602001806105e3602e913960400191505060405180910390fd5b600054610100900460ff16158015610314576000805460ff1961ff0019909116610100171660011790555b6000805462ff00001916620100001790558015610337576000805461ff00191690555b50565b600054610100900460ff16806103535750610353610538565b80610361575060005460ff16155b61039c5760405162461bcd60e51b815260040180806020018281038252602e8152602001806105e3602e913960400191505060405180910390fd5b600054610100900460ff161580156103c7576000805460ff1961ff0019909116610100171660011790555b6103d0836103ec565b600282905580156103e7576000805461ff00191690555b505050565b600054610100900460ff16806104055750610405610538565b80610413575060005460ff16155b61044e5760405162461bcd60e51b815260040180806020018281038252602e8152602001806105e3602e913960400191505060405180910390fd5b600054610100900460ff16158015610479576000805460ff1961ff0019909116610100171660011790555b610481610287565b815161049490600190602085019061054f565b5080156104a7576000805461ff00191690555b5050565b60018054604080516020600284861615610100026000190190941693909304601f810184900484028201840190925281815292918301828280156105305780601f1061050557610100808354040283529160200191610530565b820191906000526020600020905b81548152906001019060200180831161051357829003601f168201915b505050505081565b600061054330610549565b15905090565b3b151590565b828054600181600116156101000203166002900490600052602060002090601f016020900481019282601f1061059057805160ff19168380011785556105bd565b828001600101855582156105bd579182015b828111156105bd5782518255916020019190600101906105a2565b506105c99291506105cd565b5090565b5b808211156105c957600081556001016105ce56fe496e697469616c697a61626c653a20636f6e747261637420697320616c726561647920696e697469616c697a6564a26469706673582212206712e24fd4c3b977b64b8997778e931dae5955d804c83214399c01cc175f237064736f6c634300060c0033",
  "bytecodeSha1": "3997eeba420fd205e62d382a9340589aaae58968",
  "compiler": {
    "evm_version": "istanbul",
    "optimizer": {
      "enabled": true,
      "runs": 200
    },
    "version": "0.6.12+commit.27d51765"
  },
  "contractName": "SampleFather",
  "language": "Solidity",
  "natspec": {
    "kind": "dev",
    "methods": {},
    "notice": "Sample base intializable contract that defines a field father and extends from gramps",
    "version": 1
  },
  "opcodes": "PUSH1 0x80 PUSH1 0x40 MSTORE CALLVALUE DUP1 ISZERO PUSH2 0x10 JUMPI PUSH1 0x0 DUP1 REVERT JUMPDEST POP PUSH1 0x4 CALLDATASIZE LT PUSH2 0x62 JUMPI PUSH1 0x0 CALLDATALOAD PUSH1 0xE0 SHR DUP1 PUSH4 0x1C8ACA3B EQ PUSH2 0x67 JUMPI DUP1 PUSH4 0x4A6C9DB6 EQ PUSH2 0x81 JUMPI DUP1 PUSH4 0x8129FC1C EQ PUSH2 0x9D JUMPI DUP1 PUSH4 0x8BEAF7D7 EQ PUSH2 0xA7 JUMPI DUP1 PUSH4 0xF62D1888 EQ PUSH2 0x14F JUMPI DUP1 PUSH4 0xFA39851F EQ PUSH2 0x1F5 JUMPI JUMPDEST PUSH1 0x0 DUP1 REVERT JUMPDEST PUSH2 0x6F PUSH2 0x272 JUMP JUMPDEST PUSH1 0x40 DUP1 MLOAD SWAP2 DUP3 MSTORE MLOAD SWAP1 DUP2 SWAP1 SUB PUSH1 0x20 ADD SWAP1 RETURN JUMPDEST PUSH2 0x89 PUSH2 0x278 JUMP JUMPDEST PUSH1 0x40 DUP1 MLOAD SWAP2 ISZERO ISZERO DUP3 MSTORE MLOAD SWAP1 DUP2 SWAP1 SUB PUSH1 0x20 ADD SWAP1 RETURN JUMPDEST PUSH2 0xA5 PUSH2 0x287 JUMP JUMPDEST STOP JUMPDEST PUSH2 0xA5 PUSH1 0x4 DUP1 CALLDATASIZE SUB PUSH1 0x40 DUP2 LT ISZERO PUSH2 0xBD JUMPI PUSH1 0x0 DUP1 REVERT JUMPDEST DUP2 ADD SWAP1 PUSH1 0x20 DUP2 ADD DUP2 CALLDATALOAD PUSH5 0x100000000 DUP2 GT ISZERO PUSH2 0xD8 JUMPI PUSH1 0x0 DUP1 REVERT JUMPDEST DUP3 ADD DUP4 PUSH1 0x20 DUP3 ADD GT ISZERO PUSH2 0xEA JUMPI PUSH1 0x0 DUP1 REVERT JUMPDEST DUP1 CALLDATALOAD SWAP1 PUSH1 0x20 ADD SWAP2 DUP5 PUSH1 0x1 DUP4 MUL DUP5 ADD GT PUSH5 0x100000000 DUP4 GT OR ISZERO PUSH2 0x10C JUMPI PUSH1 0x0 DUP1 REVERT JUMPDEST SWAP2 SWAP1 DUP1 DUP1 PUSH1 0x1F ADD PUSH1 0x20 DUP1 SWAP2 DIV MUL PUSH1 0x20 ADD PUSH1 0x40 MLOAD SWAP1 DUP2 ADD PUSH1 0x40 MSTORE DUP1 SWAP4 SWAP3 SWAP2 SWAP1 DUP2 DUP2 MSTORE PUSH1 0x20 ADD DUP4 DUP4 DUP1 DUP3 DUP5 CALLDATACOPY PUSH1 0x0 SWAP3 ADD SWAP2 SWAP1 SWAP2 MSTORE POP SWAP3 SWAP6 POP POP SWAP2 CALLDATALOAD SWAP3 POP PUSH2 0x33A SWAP2 POP POP JUMP JUMPDEST PUSH2 0xA5 PUSH1 0x4 DUP1 CALLDATASIZE SUB PUSH1 0x20 DUP2 LT ISZERO PUSH2 0x165 JUMPI PUSH1 0x0 DUP1 REVERT JUMPDEST DUP2 ADD SWAP1 PUSH1 0x20 DUP2 ADD DUP2 CALLDATALOAD PUSH5 0x100000000 DUP2 GT ISZERO PUSH2 0x180 JUMPI PUSH1 0x0 DUP1 REVERT JUMPDEST DUP3 ADD DUP4 PUSH1 0x20 DUP3 ADD GT ISZERO PUSH2 0x192 JUMPI PUSH1 0x0 DUP1 REVERT JUMPDEST DUP1 CALLDATALOAD SWAP1 PUSH1 0x20 ADD SWAP2 DUP5 PUSH1 0x1 DUP4 MUL DUP5 ADD GT PUSH5 0x100000000 DUP4 GT OR ISZERO PUSH2 0x1B4 JUMPI PUSH1 0x0 DUP1 REVERT JUMPDEST SWAP2 SWAP1 DUP1 DUP1 PUSH1 0x1F ADD PUSH1 0x20 DUP1 SWAP2 DIV MUL PUSH1 0x20 ADD PUSH1 0x40 MLOAD SWAP1 DUP2 ADD PUSH1 0x40 MSTORE DUP1 SWAP4 SWAP3 SWAP2 SWAP1 DUP2 DUP2 MSTORE PUSH1 0x20 ADD DUP4 DUP4 DUP1 DUP3 DUP5 CALLDATACOPY PUSH1 0x0 SWAP3 ADD SWAP2 SWAP1 SWAP2 MSTORE POP SWAP3 SWAP6 POP PUSH2 0x3EC SWAP5 POP POP POP POP POP JUMP JUMPDEST PUSH2 0x1FD PUSH2 0x4AB JUMP JUMPDEST PUSH1 0x40 DUP1 MLOAD PUSH1 0x20 DUP1 DUP3 MSTORE DUP4 MLOAD DUP2 DUP4 ADD MSTORE DUP4 MLOAD SWAP2 SWAP3 DUP4 SWAP3 SWAP1 DUP4 ADD SWAP2 DUP6 ADD SWAP1 DUP1 DUP4 DUP4 PUSH1 0x0 JUMPDEST DUP4 DUP2 LT ISZERO PUSH2 0x237 JUMPI DUP2 DUP2 ADD MLOAD DUP4 DUP3 ADD MSTORE PUSH1 0x20 ADD PUSH2 0x21F JUMP JUMPDEST POP POP POP POP SWAP1 POP SWAP1 DUP2 ADD SWAP1 PUSH1 0x1F AND DUP1 ISZERO PUSH2 0x264 JUMPI DUP1 DUP3 SUB DUP1 MLOAD PUSH1 0x1 DUP4 PUSH1 0x20 SUB PUSH2 0x100 EXP SUB NOT AND DUP2 MSTORE PUSH1 0x20 ADD SWAP2 POP JUMPDEST POP SWAP3 POP POP POP PUSH1 0x40 MLOAD DUP1 SWAP2 SUB SWAP1 RETURN JUMPDEST PUSH1 0x2 SLOAD DUP2 JUMP JUMPDEST PUSH1 0x0 SLOAD PUSH3 0x10000 SWAP1 DIV PUSH1 0xFF AND DUP2 JUMP JUMPDEST PUSH1 0x0 SLOAD PUSH2 0x100 SWAP1 DIV PUSH1 0xFF AND DUP1 PUSH2 0x2A0 JUMPI POP PUSH2 0x2A0 PUSH2 0x538 JUMP JUMPDEST DUP1 PUSH2 0x2AE JUMPI POP PUSH1 0x0 SLOAD PUSH1 0xFF AND ISZERO JUMPDEST PUSH2 0x2E9 JUMPI PUSH1 0x40 MLOAD PUSH3 0x461BCD PUSH1 0xE5 SHL DUP2 MSTORE PUSH1 0x4 ADD DUP1 DUP1 PUSH1 0x20 ADD DUP3 DUP2 SUB DUP3 MSTORE PUSH1 0x2E DUP2 MSTORE PUSH1 0x20 ADD DUP1 PUSH2 0x5E3 PUSH1 0x2E SWAP2 CODECOPY PUSH1 0x40 ADD SWAP2 POP POP PUSH1 0x40 MLOAD DUP1 SWAP2 SUB SWAP1 REVERT JUMPDEST PUSH1 0x0 SLOAD PUSH2 0x100 SWAP1 DIV PUSH1 0xFF AND ISZERO DUP1 ISZERO PUSH2 0x314 JUMPI PUSH1 0x0 DUP1 SLOAD PUSH1 0xFF NOT PUSH2 0xFF00 NOT SWAP1 SWAP2 AND PUSH2 0x100 OR AND PUSH1 0x1 OR SWAP1 SSTORE JUMPDEST PUSH1 0x0 DUP1 SLOAD PUSH3 0xFF0000 NOT AND PUSH3 0x10000 OR SWAP1 SSTORE DUP1 ISZERO PUSH2 0x337 JUMPI PUSH1 0x0 DUP1 SLOAD PUSH2 0xFF00 NOT AND SWAP1 SSTORE JUMPDEST POP JUMP JUMPDEST PUSH1 0x0 SLOAD PUSH2 0x100 SWAP1 DIV PUSH1 0xFF AND DUP1 PUSH2 0x353 JUMPI POP PUSH2 0x353 PUSH2 0x538 JUMP JUMPDEST DUP1 PUSH2 0x361 JUMPI POP PUSH1 0x0 SLOAD PUSH1 0xFF AND ISZERO JUMPDEST PUSH2 0x39C JUMPI PUSH1 0x40 MLOAD PUSH3 0x461BCD PUSH1 0xE5 SHL DUP2 MSTORE PUSH1 0x4 ADD DUP1 DUP1 PUSH1 0x20 ADD DUP3 DUP2 SUB DUP3 MSTORE PUSH1 0x2E DUP2 MSTORE PUSH1 0x20 ADD DUP1 PUSH2 0x5E3 PUSH1 0x2E SWAP2 CODECOPY PUSH1 0x40 ADD SWAP2 POP POP PUSH1 0x40 MLOAD DUP1 SWAP2 SUB SWAP1 REVERT JUMPDEST PUSH1 0x0 SLOAD PUSH2 0x100 SWAP1 DIV PUSH1 0xFF AND ISZERO DUP1 ISZERO PUSH2 0x3C7 JUMPI PUSH1 0x0 DUP1 SLOAD PUSH1 0xFF NOT PUSH2 0xFF00 NOT SWAP1 SWAP2 AND PUSH2 0x100 OR AND PUSH1 0x1 OR SWAP1 SSTORE JUMPDEST PUSH2 0x3D0 DUP4 PUSH2 0x3EC JUMP JUMPDEST PUSH1 0x2 DUP3 SWAP1 SSTORE DUP1 ISZERO PUSH2 0x3E7 JUMPI PUSH1 0x0 DUP1 SLOAD PUSH2 0xFF00 NOT AND SWAP1 SSTORE JUMPDEST POP POP POP JUMP JUMPDEST PUSH1 0x0 SLOAD PUSH2 0x100 SWAP1 DIV PUSH1 0xFF AND DUP1 PUSH2 0x405 JUMPI POP PUSH2 0x405 PUSH2 0x538 JUMP JUMPDEST DUP1 PUSH2 0x413 JUMPI POP PUSH1 0x0 SLOAD PUSH1 0xFF AND ISZERO JUMPDEST PUSH2 0x44E JUMPI PUSH1 0x40 MLOAD PUSH3 0x461BCD PUSH1 0xE5 SHL DUP2 MSTORE PUSH1 0x4 ADD DUP1 DUP1 PUSH1 0x20 ADD DUP3 DUP2 SUB DUP3 MSTORE PUSH1 0x2E DUP2 MSTORE PUSH1 0x20 ADD DUP1 PUSH2 0x5E3 PUSH1 0x2E SWAP2 CODECOPY PUSH1 0x40 ADD SWAP2 POP POP PUSH1 0x40 MLOAD DUP1 SWAP2 SUB SWAP1 REVERT JUMPDEST PUSH1 0x0 SLOAD PUSH2 0x100 SWAP1 DIV PUSH1 0xFF AND ISZERO DUP1 ISZERO PUSH2 0x479 JUMPI PUSH1 0x0 DUP1 SLOAD PUSH1 0xFF NOT PUSH2 0xFF00 NOT SWAP1 SWAP2 AND PUSH2 0x100 OR AND PUSH1 0x1 OR SWAP1 SSTORE JUMPDEST PUSH2 0x481 PUSH2 0x287 JUMP JUMPDEST DUP2 MLOAD PUSH2 0x494 SWAP1 PUSH1 0x1 SWAP1 PUSH1 0x20 DUP6 ADD SWAP1 PUSH2 0x54F JUMP JUMPDEST POP DUP1 ISZERO PUSH2 0x4A7 JUMPI PUSH1 0x0 DUP1 SLOAD PUSH2 0xFF00 NOT AND SWAP1 SSTORE JUMPDEST POP POP JUMP JUMPDEST PUSH1 0x1 DUP1 SLOAD PUSH1 0x40 DUP1 MLOAD PUSH1 0x20 PUSH1 0x2 DUP5 DUP7 AND ISZERO PUSH2 0x100 MUL PUSH1 0x0 NOT ADD SWAP1 SWAP5 AND SWAP4 SWAP1 SWAP4 DIV PUSH1 0x1F DUP2 ADD DUP5 SWAP1 DIV DUP5 MUL DUP3 ADD DUP5 ADD SWAP1 SWAP3 MSTORE DUP2 DUP2 MSTORE SWAP3 SWAP2 DUP4 ADD DUP3 DUP3 DUP1 ISZERO PUSH2 0x530 JUMPI DUP1 PUSH1 0x1F LT PUSH2 0x505 JUMPI PUSH2 0x100 DUP1 DUP4 SLOAD DIV MUL DUP4 MSTORE SWAP2 PUSH1 0x20 ADD SWAP2 PUSH2 0x530 JUMP JUMPDEST DUP3 ADD SWAP2 SWAP1 PUSH1 0x0 MSTORE PUSH1 0x20 PUSH1 0x0 KECCAK256 SWAP1 JUMPDEST DUP2 SLOAD DUP2 MSTORE SWAP1 PUSH1 0x1 ADD SWAP1 PUSH1 0x20 ADD DUP1 DUP4 GT PUSH2 0x513 JUMPI DUP3 SWAP1 SUB PUSH1 0x1F AND DUP3 ADD SWAP2 JUMPDEST POP POP POP POP POP DUP2 JUMP JUMPDEST PUSH1 0x0 PUSH2 0x543 ADDRESS PUSH2 0x549 JUMP JUMPDEST ISZERO SWAP1 POP SWAP1 JUMP JUMPDEST EXTCODESIZE ISZERO ISZERO SWAP1 JUMP JUMPDEST DUP3 DUP1 SLOAD PUSH1 0x1 DUP2 PUSH1 0x1 AND ISZERO PUSH2 0x100 MUL SUB AND PUSH1 0x2 SWAP1 DIV SWAP1 PUSH1 0x0 MSTORE PUSH1 0x20 PUSH1 0x0 KECCAK256 SWAP1 PUSH1 0x1F ADD PUSH1 0x20 SWAP1 DIV DUP2 ADD SWAP3 DUP3 PUSH1 0x1F LT PUSH2 0x590 JUMPI DUP1 MLOAD PUSH1 0xFF NOT AND DUP4 DUP1 ADD OR DUP6 SSTORE PUSH2 0x5BD JUMP JUMPDEST DUP3 DUP1 ADD PUSH1 0x1 ADD DUP6 SSTORE DUP3 ISZERO PUSH2 0x5BD JUMPI SWAP2 DUP3 ADD JUMPDEST DUP3 DUP2 GT ISZERO PUSH2 0x5BD JUMPI DUP3 MLOAD DUP3 SSTORE SWAP2 PUSH1 0x20 ADD SWAP2 SWAP1 PUSH1 0x1 ADD SWAP1 PUSH2 0x5A2 JUMP JUMPDEST POP PUSH2 0x5C9 SWAP3 SWAP2 POP PUSH2 0x5CD JUMP JUMPDEST POP SWAP1 JUMP JUMPDEST JUMPDEST DUP1 DUP3 GT ISZERO PUSH2 0x5C9 JUMPI PUSH1 0x0 DUP2 SSTORE PUSH1 0x1 ADD PUSH2 0x5CE JUMP INVALID 0x49 PUSH15 0x697469616C697A61626C653A20636F PUSH15 0x747261637420697320616C72656164 PUSH26 0x20696E697469616C697A6564A26469706673582212206712E24F 0xD4 0xC3 0xB9 PUSH24 0xB64B8997778E931DAE5955D804C83214399C01CC175F2370 PUSH5 0x736F6C6343 STOP MOD 0xC STOP CALLER ",
  "sha1": "62e490cb446d96da2061844ebe98946d1582d89a",
  "source": "// SPDX-License-Identifier: MIT\n\npragma solidity >=0.6.0 <0.8.0;\n\nimport \"../proxy/Initializable.sol\";\n\n// Sample contracts showing upgradeability with multiple inheritance.\n// Child contract inherits from Father and Mother contracts, and Father extends from Gramps.\n// \n//         Human\n//       /       \\\n//      |       Gramps\n//      |         |\n//    Mother    Father\n//      |         |\n//      -- Child --\n\n/**\n * Sample base intializable contract that is a human\n */\ncontract SampleHuman is Initializable {\n  bool public isHuman;\n\n  function initialize() public initializer {\n    isHuman = true;\n  }\n}\n\n/**\n * Sample base intializable contract that defines a field mother\n */\ncontract SampleMother is Initializable, SampleHuman {\n  uint256 public mother;\n\n  function initialize(uint256 value) public initializer virtual {\n    SampleHuman.initialize();\n    mother = value;\n  }\n}\n\n/**\n * Sample base intializable contract that defines a field gramps\n */\ncontract SampleGramps is Initializable, SampleHuman {\n  string public gramps;\n\n  function initialize(string memory value) public initializer virtual {\n    SampleHuman.initialize();\n    gramps = value;\n  }\n}\n\n/**\n * Sample base intializable contract that defines a field father and extends from gramps\n */\ncontract SampleFather is Initializable, SampleGramps {\n  uint256 public father;\n\n  function initialize(string memory _gramps, uint256 _father) public initializer {\n    SampleGramps.initialize(_gramps);\n    father = _father;\n  }\n}\n\n/**\n * Child extends from mother, father (gramps)\n */\ncontract SampleChild is Initializable, SampleMother, SampleFather {\n  uint256 public child;\n\n  function initialize(uint256 _mother, string memory _gramps, uint256 _father, uint256 _child) public initializer {\n    SampleMother.initialize(_mother);\n    SampleFather.initialize(_gramps, _father);\n    child = _child;\n  }\n}\n",
  "sourcePath": "contracts/openzeppelin/mocks/MultipleInheritanceInitializableMocks.sol",
  "type": "contract"
}