{
  "abi": [
    {
      "inputs": [
        {
          "internalType": "contract IBank",
          "name": "_bank",
          "type": "address"
        },
        {
          "internalType": "address",
          "name": "_werc20",
          "type": "address"
        },
        {
          "internalType": "contract IUniswapV2Router02",
          "name": "_router",
          "type": "address"
        },
        {
          "internalType": "address",
          "name": "_wminichef",
          "type": "address"
        },
        {
          "internalType": "address",
          "name": "_celo",
          "type": "address"
        },
        {
          "internalType": "address",
          "name": "_rewardToken",
          "type": "address"
        }
      ],
      "stateMutability": "nonpayable",
      "type": "constructor"
    },
    {
      "anonymous": false,
      "inputs": [
        {
          "indexed": false,
          "internalType": "address",
          "name": "governor",
          "type": "address"
        }
      ],
      "name": "AcceptGovernor",
      "type": "event"
    },
    {
      "anonymous": false,
      "inputs": [
        {
          "indexed": false,
          "internalType": "address",
          "name": "governor",
          "type": "address"
        }
      ],
      "name": "SetGovernor",
      "type": "event"
    },
    {
      "anonymous": false,
      "inputs": [
        {
          "indexed": false,
          "internalType": "address",
          "name": "pendingGovernor",
          "type": "address"
        }
      ],
      "name": "SetPendingGovernor",
      "type": "event"
    },
    {
      "inputs": [],
      "name": "acceptGovernor",
      "outputs": [],
      "stateMutability": "nonpayable",
      "type": "function"
    },
    {
      "inputs": [
        {
          "internalType": "address",
          "name": "tokenA",
          "type": "address"
        },
        {
          "internalType": "address",
          "name": "tokenB",
          "type": "address"
        },
        {
          "components": [
            {
              "internalType": "uint256",
              "name": "amtAUser",
              "type": "uint256"
            },
            {
              "internalType": "uint256",
              "name": "amtBUser",
              "type": "uint256"
            },
            {
              "internalType": "uint256",
              "name": "amtLPUser",
              "type": "uint256"
            },
            {
              "internalType": "uint256",
              "name": "amtABorrow",
              "type": "uint256"
            },
            {
              "internalType": "uint256",
              "name": "amtBBorrow",
              "type": "uint256"
            },
            {
              "internalType": "uint256",
              "name": "amtLPBorrow",
              "type": "uint256"
            },
            {
              "internalType": "uint256",
              "name": "amtAMin",
              "type": "uint256"
            },
            {
              "internalType": "uint256",
              "name": "amtBMin",
              "type": "uint256"
            }
          ],
          "internalType": "struct SushiswapSpellV1.Amounts",
          "name": "amt",
          "type": "tuple"
        }
      ],
      "name": "addLiquidityWERC20",
      "outputs": [],
      "stateMutability": "payable",
      "type": "function"
    },
    {
      "inputs": [
        {
          "internalType": "address",
          "name": "tokenA",
          "type": "address"
        },
        {
          "internalType": "address",
          "name": "tokenB",
          "type": "address"
        },
        {
          "components": [
            {
              "internalType": "uint256",
              "name": "amtAUser",
              "type": "uint256"
            },
            {
              "internalType": "uint256",
              "name": "amtBUser",
              "type": "uint256"
            },
            {
              "internalType": "uint256",
              "name": "amtLPUser",
              "type": "uint256"
            },
            {
              "internalType": "uint256",
              "name": "amtABorrow",
              "type": "uint256"
            },
            {
              "internalType": "uint256",
              "name": "amtBBorrow",
              "type": "uint256"
            },
            {
              "internalType": "uint256",
              "name": "amtLPBorrow",
              "type": "uint256"
            },
            {
              "internalType": "uint256",
              "name": "amtAMin",
              "type": "uint256"
            },
            {
              "internalType": "uint256",
              "name": "amtBMin",
              "type": "uint256"
            }
          ],
          "internalType": "struct SushiswapSpellV1.Amounts",
          "name": "amt",
          "type": "tuple"
        },
        {
          "internalType": "uint256",
          "name": "pid",
          "type": "uint256"
        }
      ],
      "name": "addLiquidityWMiniChef",
      "outputs": [],
      "stateMutability": "payable",
      "type": "function"
    },
    {
      "inputs": [
        {
          "internalType": "address",
          "name": "",
          "type": "address"
        },
        {
          "internalType": "address",
          "name": "",
          "type": "address"
        }
      ],
      "name": "approved",
      "outputs": [
        {
          "internalType": "bool",
          "name": "",
          "type": "bool"
        }
      ],
      "stateMutability": "view",
      "type": "function"
    },
    {
      "inputs": [],
      "name": "bank",
      "outputs": [
        {
          "internalType": "contract IBank",
          "name": "",
          "type": "address"
        }
      ],
      "stateMutability": "view",
      "type": "function"
    },
    {
      "inputs": [],
      "name": "factory",
      "outputs": [
        {
          "internalType": "contract IUniswapV2Factory",
          "name": "",
          "type": "address"
        }
      ],
      "stateMutability": "view",
      "type": "function"
    },
    {
      "inputs": [
        {
          "internalType": "address",
          "name": "tokenA",
          "type": "address"
        },
        {
          "internalType": "address",
          "name": "tokenB",
          "type": "address"
        }
      ],
      "name": "getAndApprovePair",
      "outputs": [
        {
          "internalType": "address",
          "name": "",
          "type": "address"
        }
      ],
      "stateMutability": "nonpayable",
      "type": "function"
    },
    {
      "inputs": [],
      "name": "governor",
      "outputs": [
        {
          "internalType": "address",
          "name": "",
          "type": "address"
        }
      ],
      "stateMutability": "view",
      "type": "function"
    },
    {
      "inputs": [],
      "name": "harvestWMiniChef",
      "outputs": [],
      "stateMutability": "nonpayable",
      "type": "function"
    },
    {
      "inputs": [
        {
          "internalType": "address",
          "name": "",
          "type": "address"
        },
        {
          "internalType": "address",
          "name": "",
          "type": "address"
        },
        {
          "internalType": "uint256[]",
          "name": "",
          "type": "uint256[]"
        },
        {
          "internalType": "uint256[]",
          "name": "",
          "type": "uint256[]"
        },
        {
          "internalType": "bytes",
          "name": "",
          "type": "bytes"
        }
      ],
      "name": "onERC1155BatchReceived",
      "outputs": [
        {
          "internalType": "bytes4",
          "name": "",
          "type": "bytes4"
        }
      ],
      "stateMutability": "nonpayable",
      "type": "function"
    },
    {
      "inputs": [
        {
          "internalType": "address",
          "name": "",
          "type": "address"
        },
        {
          "internalType": "address",
          "name": "",
          "type": "address"
        },
        {
          "internalType": "uint256",
          "name": "",
          "type": "uint256"
        },
        {
          "internalType": "uint256",
          "name": "",
          "type": "uint256"
        },
        {
          "internalType": "bytes",
          "name": "",
          "type": "bytes"
        }
      ],
      "name": "onERC1155Received",
      "outputs": [
        {
          "internalType": "bytes4",
          "name": "",
          "type": "bytes4"
        }
      ],
      "stateMutability": "nonpayable",
      "type": "function"
    },
    {
      "inputs": [
        {
          "internalType": "address",
          "name": "",
          "type": "address"
        },
        {
          "internalType": "address",
          "name": "",
          "type": "address"
        }
      ],
      "name": "pairs",
      "outputs": [
        {
          "internalType": "address",
          "name": "",
          "type": "address"
        }
      ],
      "stateMutability": "view",
      "type": "function"
    },
    {
      "inputs": [],
      "name": "pendingGovernor",
      "outputs": [
        {
          "internalType": "address",
          "name": "",
          "type": "address"
        }
      ],
      "stateMutability": "view",
      "type": "function"
    },
    {
      "inputs": [
        {
          "internalType": "address",
          "name": "tokenA",
          "type": "address"
        },
        {
          "internalType": "address",
          "name": "tokenB",
          "type": "address"
        },
        {
          "components": [
            {
              "internalType": "uint256",
              "name": "amtLPTake",
              "type": "uint256"
            },
            {
              "internalType": "uint256",
              "name": "amtLPWithdraw",
              "type": "uint256"
            },
            {
              "internalType": "uint256",
              "name": "amtARepay",
              "type": "uint256"
            },
            {
              "internalType": "uint256",
              "name": "amtBRepay",
              "type": "uint256"
            },
            {
              "internalType": "uint256",
              "name": "amtLPRepay",
              "type": "uint256"
            },
            {
              "internalType": "uint256",
              "name": "amtAMin",
              "type": "uint256"
            },
            {
              "internalType": "uint256",
              "name": "amtBMin",
              "type": "uint256"
            }
          ],
          "internalType": "struct SushiswapSpellV1.RepayAmounts",
          "name": "amt",
          "type": "tuple"
        }
      ],
      "name": "removeLiquidityWERC20",
      "outputs": [],
      "stateMutability": "nonpayable",
      "type": "function"
    },
    {
      "inputs": [
        {
          "internalType": "address",
          "name": "tokenA",
          "type": "address"
        },
        {
          "internalType": "address",
          "name": "tokenB",
          "type": "address"
        },
        {
          "components": [
            {
              "internalType": "uint256",
              "name": "amtLPTake",
              "type": "uint256"
            },
            {
              "internalType": "uint256",
              "name": "amtLPWithdraw",
              "type": "uint256"
            },
            {
              "internalType": "uint256",
              "name": "amtARepay",
              "type": "uint256"
            },
            {
              "internalType": "uint256",
              "name": "amtBRepay",
              "type": "uint256"
            },
            {
              "internalType": "uint256",
              "name": "amtLPRepay",
              "type": "uint256"
            },
            {
              "internalType": "uint256",
              "name": "amtAMin",
              "type": "uint256"
            },
            {
              "internalType": "uint256",
              "name": "amtBMin",
              "type": "uint256"
            }
          ],
          "internalType": "struct SushiswapSpellV1.RepayAmounts",
          "name": "amt",
          "type": "tuple"
        }
      ],
      "name": "removeLiquidityWMiniChef",
      "outputs": [],
      "stateMutability": "nonpayable",
      "type": "function"
    },
    {
      "inputs": [],
      "name": "rewardToken",
      "outputs": [
        {
          "internalType": "address",
          "name": "",
          "type": "address"
        }
      ],
      "stateMutability": "view",
      "type": "function"
    },
    {
      "inputs": [],
      "name": "router",
      "outputs": [
        {
          "internalType": "contract IUniswapV2Router02",
          "name": "",
          "type": "address"
        }
      ],
      "stateMutability": "view",
      "type": "function"
    },
    {
      "inputs": [
        {
          "internalType": "address",
          "name": "_pendingGovernor",
          "type": "address"
        }
      ],
      "name": "setPendingGovernor",
      "outputs": [],
      "stateMutability": "nonpayable",
      "type": "function"
    },
    {
      "inputs": [
        {
          "internalType": "address[]",
          "name": "lpTokens",
          "type": "address[]"
        },
        {
          "internalType": "bool[]",
          "name": "statuses",
          "type": "bool[]"
        }
      ],
      "name": "setWhitelistLPTokens",
      "outputs": [],
      "stateMutability": "nonpayable",
      "type": "function"
    },
    {
      "inputs": [
        {
          "internalType": "bytes4",
          "name": "interfaceId",
          "type": "bytes4"
        }
      ],
      "name": "supportsInterface",
      "outputs": [
        {
          "internalType": "bool",
          "name": "",
          "type": "bool"
        }
      ],
      "stateMutability": "view",
      "type": "function"
    },
    {
      "inputs": [],
      "name": "sushi",
      "outputs": [
        {
          "internalType": "address",
          "name": "",
          "type": "address"
        }
      ],
      "stateMutability": "view",
      "type": "function"
    },
    {
      "inputs": [],
      "name": "werc20",
      "outputs": [
        {
          "internalType": "contract IWERC20",
          "name": "",
          "type": "address"
        }
      ],
      "stateMutability": "view",
      "type": "function"
    },
    {
      "inputs": [
        {
          "internalType": "address",
          "name": "",
          "type": "address"
        }
      ],
      "name": "whitelistedLpTokens",
      "outputs": [
        {
          "internalType": "bool",
          "name": "",
          "type": "bool"
        }
      ],
      "stateMutability": "view",
      "type": "function"
    },
    {
      "inputs": [],
      "name": "wminichef",
      "outputs": [
        {
          "internalType": "contract IWMiniChefV2",
          "name": "",
          "type": "address"
        }
      ],
      "stateMutability": "view",
      "type": "function"
    }
  ],
  "bytecode": "6101606040523480156200001257600080fd5b5060405162004f3438038062004f348339810160408190526200003591620007c1565b8585838282826200004d6301ffc9a760e01b620002b2565b6200005f630271189760e51b620002b2565b6001600160601b0319606084811b821660805283901b1660a0526200008581846200030d565b60405163a22cb46560e01b81526001600160a01b0383169063a22cb46590620000b6908690600190600401620008b9565b600060405180830381600087803b158015620000d157600080fd5b505af1158015620000e6573d6000803e3d6000fd5b50505050505050620000fd6200039760201b60201c565b505050836001600160a01b031660e0816001600160a01b031660601b81525050836001600160a01b031663c45a01556040518163ffffffff1660e01b815260040160206040518083038186803b1580156200015757600080fd5b505afa1580156200016c573d6000803e3d6000fd5b505050506040513d601f19601f8201168201806040525081019062000192919062000780565b6001600160601b0319606091821b811660c0529084901b166101005260405163a22cb46560e01b81526001600160a01b0384169063a22cb46590620001df908990600190600401620008b9565b600060405180830381600087803b158015620001fa57600080fd5b505af11580156200020f573d6000803e3d6000fd5b50505050826001600160a01b0316630a0879036040518163ffffffff1660e01b8152600401602060405180830381600087803b1580156200024f57600080fd5b505af115801562000264573d6000803e3d6000fd5b505050506040513d601f19601f820116820180604052508101906200028a919062000780565b6001600160601b0319606091821b81166101205291901b16610140525062000b149350505050565b6001600160e01b03198082161415620002e85760405162461bcd60e51b8152600401620002df9062000922565b60405180910390fd5b6001600160e01b0319166000908152602081905260409020805460ff19166001179055565b6001600160a01b0380831660009081526041602090815260408083209385168352929052205460ff1662000393576200036281600019846001600160a01b03166200048960201b62001b22179092919060201c565b6001600160a01b038083166000908152604160209081526040808320938516835292905220805460ff191660011790555b5050565b604254610100900460ff1680620003b35750620003b362000597565b80620003c2575060425460ff16155b620003e15760405162461bcd60e51b8152600401620002df906200099f565b604254610100900460ff161580156200040d576042805460ff1961ff0019909116610100171660011790555b6042805462010000600160b01b0319163362010000810291909117909155604380546001600160a01b03191690556040517fbce074c8369e26e70e1ae2f14fc944da352cfe6f52e2de9572f0c9942a24b7fc916200046b916200088b565b60405180910390a1801562000486576042805461ff00191690555b50565b801580620005185750604051636eb1769f60e11b81526001600160a01b0384169063dd62ed3e90620004c290309086906004016200089f565b60206040518083038186803b158015620004db57600080fd5b505afa158015620004f0573d6000803e3d6000fd5b505050506040513d601f19601f8201168201806040525081019062000516919062000854565b155b620005375760405162461bcd60e51b8152600401620002df9062000a6e565b620005928363095ea7b360e01b848460405160240162000559929190620008d4565b60408051808303601f190181529190526020810180516001600160e01b0319939093166001600160e01b0393841617905290620005b516565b505050565b6000620005af306200065160201b62001c211760201c565b15905090565b606062000611826040518060400160405280602081526020017f5361666545524332303a206c6f772d6c6576656c2063616c6c206661696c6564815250856001600160a01b03166200065760201b62001c27179092919060201c565b8051909150156200059257808060200190518101906200063291906200079f565b620005925760405162461bcd60e51b8152600401620002df9062000a24565b3b151590565b606062000668848460008562000672565b90505b9392505050565b606082471015620006975760405162461bcd60e51b8152600401620002df9062000959565b620006a28562000651565b620006c15760405162461bcd60e51b8152600401620002df90620009ed565b60006060866001600160a01b03168587604051620006e091906200086d565b60006040518083038185875af1925050503d80600081146200071f576040519150601f19603f3d011682016040523d82523d6000602084013e62000724565b606091505b5090925090506200073782828662000742565b979650505050505050565b60608315620007535750816200066b565b825115620007645782518084602001fd5b8160405162461bcd60e51b8152600401620002df9190620008ed565b60006020828403121562000792578081fd5b81516200066b8162000afe565b600060208284031215620007b1578081fd5b815180151581146200066b578182fd5b60008060008060008060c08789031215620007da578182fd5b8651620007e78162000afe565b6020880151909650620007fa8162000afe565b60408801519095506200080d8162000afe565b6060880151909450620008208162000afe565b6080880151909350620008338162000afe565b60a0880151909250620008468162000afe565b809150509295509295509295565b60006020828403121562000866578081fd5b5051919050565b600082516200088181846020870162000acb565b9190910192915050565b6001600160a01b0391909116815260200190565b6001600160a01b0392831681529116602082015260400190565b6001600160a01b039290921682521515602082015260400190565b6001600160a01b03929092168252602082015260400190565b60006020825282518060208401526200090e81604085016020870162000acb565b601f01601f19169190910160400192915050565b6020808252601c908201527f4552433136353a20696e76616c696420696e7465726661636520696400000000604082015260600190565b60208082526026908201527f416464726573733a20696e73756666696369656e742062616c616e636520666f6040820152651c8818d85b1b60d21b606082015260800190565b6020808252602e908201527f496e697469616c697a61626c653a20636f6e747261637420697320616c72656160408201526d191e481a5b9a5d1a585b1a5e995960921b606082015260800190565b6020808252601d908201527f416464726573733a2063616c6c20746f206e6f6e2d636f6e7472616374000000604082015260600190565b6020808252602a908201527f5361666545524332303a204552433230206f7065726174696f6e20646964206e6040820152691bdd081cdd58d8d9595960b21b606082015260800190565b60208082526036908201527f5361666545524332303a20617070726f76652066726f6d206e6f6e2d7a65726f60408201527f20746f206e6f6e2d7a65726f20616c6c6f77616e636500000000000000000000606082015260800190565b60005b8381101562000ae857818101518382015260200162000ace565b8381111562000af8576000848401525b50505050565b6001600160a01b03811681146200048657600080fd5b60805160601c60a05160601c60c05160601c60e05160601c6101005160601c6101205160601c6101405160601c61429062000ca460003980610cd652806112d35280611adc5250806104145280610cad52806112aa528061178a5250806106615280610868528061091052806109a35280610a165280610aaa5280610b535280610c385280610da55280610e455280610f1c5280610faf5280611024528061113952806111775280611247528061146d52806115e5528061167852806116ec52508061057a52806105a452806105ce5280611b00528061219c52806122cd52806123fa5280612ad05280612c945250806104bc52806113985250806113165280611d2c5280611da05280612e735280612eae5280612f5c5250806107b152806109765280610c0b5280610d0c5280610f82528061121a528061136052806114a2528061164b52806118cf5280611c525280611cfe5280611e475280611f085280611fb552806120625280612dc75280612f2c5280613132528061316d52806131c1528061321552506142906000f3fe60806040526004361061014b5760003560e01c8063c45a0155116100b6578063ee42c6f41161006f578063ee42c6f414610345578063f235757f14610365578063f23a6e6114610385578063f4b16045146103a5578063f7c618c1146103c5578063f887ea40146103da5761014b565b8063c45a0155146102be578063cc9b1880146102d3578063cf69e804146102e6578063de1ecfce146102fb578063e3056a341461031b578063e58bb639146103305761014b565b806338705b1e1161010857806338705b1e146102125780634bab09f6146102275780635741229c1461024757806369454b861461025c57806376cdb03b1461027c578063bc197c81146102915761014b565b806301ffc9a7146101505780630a087903146101865780630c340a24146101a85780631387d96d146101bd5780632185059f146101df5780632951434c146101ff575b600080fd5b34801561015c57600080fd5b5061017061016b366004613a4d565b6103ef565b60405161017d9190613c81565b60405180910390f35b34801561019257600080fd5b5061019b610412565b60405161017d9190613b90565b3480156101b457600080fd5b5061019b610436565b3480156101c957600080fd5b506101dd6101d8366004613804565b61044b565b005b3480156101eb57600080fd5b5061019b6101fa366004613678565b610476565b6101dd61020d3660046137b3565b61064f565b34801561021e57600080fd5b506101dd610d07565b34801561023357600080fd5b50610170610242366004613640565b6112ff565b34801561025357600080fd5b5061019b611314565b34801561026857600080fd5b5061019b610277366004613678565b611338565b34801561028857600080fd5b5061019b61135e565b34801561029d57600080fd5b506102b16102ac3660046136b0565b611382565b60405161017d9190613c8c565b3480156102ca57600080fd5b5061019b611396565b6101dd6102e136600461376b565b6113ba565b3480156102f257600080fd5b5061019b61146b565b34801561030757600080fd5b506101dd610316366004613804565b61148f565b34801561032757600080fd5b5061019b6117ae565b34801561033c57600080fd5b506101dd6117bd565b34801561035157600080fd5b506101dd610360366004613917565b61184d565b34801561037157600080fd5b506101dd610380366004613640565b611a22565b34801561039157600080fd5b506102b16103a036600461389d565b611aa8565b3480156103b157600080fd5b506101706103c0366004613678565b611aba565b3480156103d157600080fd5b5061019b611ada565b3480156103e657600080fd5b5061019b611afe565b6001600160e01b0319811660009081526020819052604090205460ff165b919050565b7f000000000000000000000000000000000000000000000000000000000000000081565b6042546201000090046001600160a01b031681565b60006104578484610476565b9050610464818335611c40565b61047084848484611e0b565b50505050565b6001600160a01b0380831660009081526085602090815260408083208585168452909152812054909116806106465760405163e6a4390560e01b81526001600160a01b037f0000000000000000000000000000000000000000000000000000000000000000169063e6a43905906104f39087908790600401613ba4565b60206040518083038186803b15801561050b57600080fd5b505afa15801561051f573d6000803e3d6000fd5b505050506040513d601f19601f82011682018060405250810190610543919061365c565b90506001600160a01b0381166105745760405162461bcd60e51b815260040161056b90613e9c565b60405180910390fd5b61059e847f000000000000000000000000000000000000000000000000000000000000000061269e565b6105c8837f000000000000000000000000000000000000000000000000000000000000000061269e565b6105f2817f000000000000000000000000000000000000000000000000000000000000000061269e565b6001600160a01b0380851660008181526085602081815260408084208987168552825280842080549688166001600160a01b0319978816811790915592825280842094845293905291902080549092161790555b90505b92915050565b600061065b8585610476565b905060007f00000000000000000000000000000000000000000000000000000000000000006001600160a01b0316631fc8bc5d6040518163ffffffff1660e01b815260040160206040518083038186803b1580156106b857600080fd5b505afa1580156106cc573d6000803e3d6000fd5b505050506040513d601f19601f820116820180604052508101906106f0919061365c565b6001600160a01b03166378ed5d1f846040518263ffffffff1660e01b815260040161071b9190614142565b60206040518083038186803b15801561073357600080fd5b505afa158015610747573d6000803e3d6000fd5b505050506040513d601f19601f8201168201806040525081019061076b919061365c565b9050816001600160a01b0316816001600160a01b03161461079e5760405162461bcd60e51b815260040161056b90613ec1565b6107aa86868685612715565b60008060007f00000000000000000000000000000000000000000000000000000000000000006001600160a01b031663f70aedd96040518163ffffffff1660e01b815260040160806040518083038186803b15801561080857600080fd5b505afa15801561081c573d6000803e3d6000fd5b505050506040513d601f19601f820116820180604052508101906108409190613856565b91955093509150508015610aa457604051636e10637d60e11b81526000906001600160a01b037f0000000000000000000000000000000000000000000000000000000000000000169063dc20c6fa9061089d908690600401614142565b604080518083038186803b1580156108b457600080fd5b505afa1580156108c8573d6000803e3d6000fd5b505050506040513d601f19601f820116820180604052508101906108ec9190613ae1565b50905080871461090e5760405162461bcd60e51b815260040161056b90613fcf565b7f00000000000000000000000000000000000000000000000000000000000000006001600160a01b0316846001600160a01b03161461095f5760405162461bcd60e51b815260040161056b90613f87565b604051630d1d697560e31b81526001600160a01b037f000000000000000000000000000000000000000000000000000000000000000016906368eb4ba8906109cf907f00000000000000000000000000000000000000000000000000000000000000009087908790600401613c60565b600060405180830381600087803b1580156109e957600080fd5b505af11580156109fd573d6000803e3d6000fd5b505060405163b390c0ab60e01b81526001600160a01b037f000000000000000000000000000000000000000000000000000000000000000016925063b390c0ab9150610a4f908690869060040161419e565b602060405180830381600087803b158015610a6957600080fd5b505af1158015610a7d573d6000803e3d6000fd5b505050506040513d601f19601f82011682018060405250810190610aa19190613ac9565b50505b610ace857f000000000000000000000000000000000000000000000000000000000000000061269e565b6040516370a0823160e01b81526000906001600160a01b038716906370a0823190610afd903090600401613b90565b60206040518083038186803b158015610b1557600080fd5b505afa158015610b29573d6000803e3d6000fd5b505050506040513d601f19601f82011682018060405250810190610b4d9190613ac9565b905060007f00000000000000000000000000000000000000000000000000000000000000006001600160a01b0316631b2ef1ca89846040518363ffffffff1660e01b8152600401610b9f92919061419e565b602060405180830381600087803b158015610bb957600080fd5b505af1158015610bcd573d6000803e3d6000fd5b505050506040513d601f19601f82011682018060405250810190610bf19190613ac9565b60405163314568d960e01b81529091506001600160a01b037f0000000000000000000000000000000000000000000000000000000000000000169063314568d990610c64907f00000000000000000000000000000000000000000000000000000000000000009085908790600401613c60565b600060405180830381600087803b158015610c7e57600080fd5b505af1158015610c92573d6000803e3d6000fd5b50505050610c9f8b612d3b565b610ca88a612d3b565b610cd17f0000000000000000000000000000000000000000000000000000000000000000612d3b565b610cfa7f0000000000000000000000000000000000000000000000000000000000000000612d3b565b5050505050505050505050565b6000807f00000000000000000000000000000000000000000000000000000000000000006001600160a01b031663f70aedd96040518163ffffffff1660e01b815260040160806040518083038186803b158015610d6357600080fd5b505afa158015610d77573d6000803e3d6000fd5b505050506040513d601f19601f82011682018060405250810190610d9b9190613856565b50925092505060007f00000000000000000000000000000000000000000000000000000000000000006001600160a01b031663dc20c6fa836040518263ffffffff1660e01b8152600401610def9190614142565b604080518083038186803b158015610e0657600080fd5b505afa158015610e1a573d6000803e3d6000fd5b505050506040513d601f19601f82011682018060405250810190610e3e9190613ae1565b50905060007f00000000000000000000000000000000000000000000000000000000000000006001600160a01b031663a4775772846040518263ffffffff1660e01b8152600401610e8f9190614142565b60206040518083038186803b158015610ea757600080fd5b505afa158015610ebb573d6000803e3d6000fd5b505050506040513d601f19601f82011682018060405250810190610edf919061365c565b6001600160a01b03811660009081526084602052604090205490915060ff16610f1a5760405162461bcd60e51b815260040161056b90613eed565b7f00000000000000000000000000000000000000000000000000000000000000006001600160a01b0316846001600160a01b031614610f6b5760405162461bcd60e51b815260040161056b9061405b565b604051630d1d697560e31b81526001600160a01b037f000000000000000000000000000000000000000000000000000000000000000016906368eb4ba890610fdd907f000000000000000000000000000000000000000000000000000000000000000090879060001990600401613c60565b600060405180830381600087803b158015610ff757600080fd5b505af115801561100b573d6000803e3d6000fd5b505060405163b390c0ab60e01b81526001600160a01b037f000000000000000000000000000000000000000000000000000000000000000016925063b390c0ab915061105f9086906000199060040161419e565b602060405180830381600087803b15801561107957600080fd5b505af115801561108d573d6000803e3d6000fd5b505050506040513d601f19601f820116820180604052508101906110b19190613ac9565b506040516370a0823160e01b81526000906001600160a01b038316906370a08231906110e1903090600401613b90565b60206040518083038186803b1580156110f957600080fd5b505afa15801561110d573d6000803e3d6000fd5b505050506040513d601f19601f820116820180604052508101906111319190613ac9565b905061115d827f000000000000000000000000000000000000000000000000000000000000000061269e565b604051630d9778e560e11b81526000906001600160a01b037f00000000000000000000000000000000000000000000000000000000000000001690631b2ef1ca906111ae908790869060040161419e565b602060405180830381600087803b1580156111c857600080fd5b505af11580156111dc573d6000803e3d6000fd5b505050506040513d601f19601f820116820180604052508101906112009190613ac9565b60405163314568d960e01b81529091506001600160a01b037f0000000000000000000000000000000000000000000000000000000000000000169063314568d990611273907f00000000000000000000000000000000000000000000000000000000000000009085908790600401613c60565b600060405180830381600087803b15801561128d57600080fd5b505af11580156112a1573d6000803e3d6000fd5b505050506112ce7f0000000000000000000000000000000000000000000000000000000000000000612d3b565b6112f77f0000000000000000000000000000000000000000000000000000000000000000612d3b565b505050505050565b60846020526000908152604090205460ff1681565b7f000000000000000000000000000000000000000000000000000000000000000081565b60856020908152600092835260408084209091529082529020546001600160a01b031681565b7f000000000000000000000000000000000000000000000000000000000000000081565b63bc197c8160e01b98975050505050505050565b7f000000000000000000000000000000000000000000000000000000000000000081565b60006113c68484610476565b90506113d484848484612715565b61145981826001600160a01b03166370a08231306040518263ffffffff1660e01b81526004016114049190613b90565b60206040518083038186803b15801561141c57600080fd5b505afa158015611430573d6000803e3d6000fd5b505050506040513d601f19601f820116820180604052508101906114549190613ac9565b612e67565b61146284612d3b565b61047083612d3b565b7f000000000000000000000000000000000000000000000000000000000000000081565b600061149b8484610476565b90506000807f00000000000000000000000000000000000000000000000000000000000000006001600160a01b031663f70aedd96040518163ffffffff1660e01b815260040160806040518083038186803b1580156114f957600080fd5b505afa15801561150d573d6000803e3d6000fd5b505050506040513d601f19601f820116820180604052508101906115319190613856565b509250925050826001600160a01b0316826001600160a01b031663a4775772836040518263ffffffff1660e01b815260040161156d9190614142565b60206040518083038186803b15801561158557600080fd5b505afa158015611599573d6000803e3d6000fd5b505050506040513d601f19601f820116820180604052508101906115bd919061365c565b6001600160a01b0316146115e35760405162461bcd60e51b815260040161056b9061402d565b7f00000000000000000000000000000000000000000000000000000000000000006001600160a01b0316826001600160a01b0316146116345760405162461bcd60e51b815260040161056b9061405b565b604051630d1d697560e31b81526001600160a01b037f000000000000000000000000000000000000000000000000000000000000000016906368eb4ba8906116a5907f0000000000000000000000000000000000000000000000000000000000000000908590893590600401613c60565b600060405180830381600087803b1580156116bf57600080fd5b505af11580156116d3573d6000803e3d6000fd5b505060405163b390c0ab60e01b81526001600160a01b037f000000000000000000000000000000000000000000000000000000000000000016925063b390c0ab915061172690849088359060040161419e565b602060405180830381600087803b15801561174057600080fd5b505af1158015611754573d6000803e3d6000fd5b505050506040513d601f19601f820116820180604052508101906117789190613ac9565b5061178586868686611e0b565b6112ce7f0000000000000000000000000000000000000000000000000000000000000000612d3b565b6043546001600160a01b031681565b6043546001600160a01b031633146117e75760405162461bcd60e51b815260040161056b90613cd4565b604380546001600160a01b03191690556042805462010000600160b01b03191633620100008102919091179091556040517fd345d81ce68c70b119a17eee79dc1421700bd9cb21ca148a62dc90983964e82f9161184391613b90565b60405180910390a1565b6042546201000090046001600160a01b0316331461187d5760405162461bcd60e51b815260040161056b90613e2d565b82811461189c5760405162461bcd60e51b815260040161056b90613e57565b60005b83811015611a1b578282828181106118b357fe5b90506020020160208101906118c89190613a15565b156119a5577f00000000000000000000000000000000000000000000000000000000000000006001600160a01b031663e660cc0886868481811061190857fe5b905060200201602081019061191d9190613640565b6040518263ffffffff1660e01b81526004016119399190613b90565b60206040518083038186803b15801561195157600080fd5b505afa158015611965573d6000803e3d6000fd5b505050506040513d601f19601f820116820180604052508101906119899190613a31565b6119a55760405162461bcd60e51b815260040161056b90613d42565b8282828181106119b157fe5b90506020020160208101906119c69190613a15565b608460008787858181106119d657fe5b90506020020160208101906119eb9190613640565b6001600160a01b031681526020810191909152604001600020805460ff191691151591909117905560010161189f565b5050505050565b6042546201000090046001600160a01b03163314611a525760405162461bcd60e51b815260040161056b90613e2d565b604380546001600160a01b0319166001600160a01b0383161790556040517f964dea888b00b2ab53f13dfe7ca334b46e99338c222ae232d98547a1da019f6090611a9d908390613b90565b60405180910390a150565b63f23a6e6160e01b9695505050505050565b604160209081526000928352604080842090915290825290205460ff1681565b7f000000000000000000000000000000000000000000000000000000000000000081565b7f000000000000000000000000000000000000000000000000000000000000000081565b801580611baa5750604051636eb1769f60e11b81526001600160a01b0384169063dd62ed3e90611b589030908690600401613ba4565b60206040518083038186803b158015611b7057600080fd5b505afa158015611b84573d6000803e3d6000fd5b505050506040513d601f19601f82011682018060405250810190611ba89190613ac9565b155b611bc65760405162461bcd60e51b815260040161056b906140ec565b611c1c8363095ea7b360e01b8484604051602401611be5929190613c47565b60408051601f198184030181529190526020810180516001600160e01b03166001600160e01b031990931692909217909152612f89565b505050565b3b151590565b6060611c368484600085613018565b90505b9392505050565b8015611e0757600019811415611ce7577f00000000000000000000000000000000000000000000000000000000000000006001600160a01b031663f70aedd96040518163ffffffff1660e01b815260040160806040518083038186803b158015611ca957600080fd5b505afa158015611cbd573d6000803e3d6000fd5b505050506040513d601f19601f82011682018060405250810190611ce19190613856565b93505050505b604051630d1d697560e31b81526001600160a01b037f00000000000000000000000000000000000000000000000000000000000000008116916368eb4ba891611d59917f0000000000000000000000000000000000000000000000000000000000000000918716908690600401613c60565b600060405180830381600087803b158015611d7357600080fd5b505af1158015611d87573d6000803e3d6000fd5b5050604051632770a7eb60e21b81526001600160a01b037f0000000000000000000000000000000000000000000000000000000000000000169250639dc29fac9150611dd99085908590600401613c47565b600060405180830381600087803b158015611df357600080fd5b505af11580156112f7573d6000803e3d6000fd5b5050565b6001600160a01b03811660009081526084602052604090205460ff16611e435760405162461bcd60e51b815260040161056b90613eed565b60007f00000000000000000000000000000000000000000000000000000000000000006001600160a01b031663d7ac71ff6040518163ffffffff1660e01b815260040160206040518083038186803b158015611e9e57600080fd5b505afa158015611eb2573d6000803e3d6000fd5b505050506040513d601f19601f82011682018060405250810190611ed69190613ac9565b9050604083013560608401356080850135600019831415611f94576040516320a8bee760e21b81526001600160a01b037f000000000000000000000000000000000000000000000000000000000000000016906382a2fb9c90611f3f9087908c9060040161414b565b602060405180830381600087803b158015611f5957600080fd5b505af1158015611f6d573d6000803e3d6000fd5b505050506040513d601f19601f82011682018060405250810190611f919190613ac9565b92505b600019821415612041576040516320a8bee760e21b81526001600160a01b037f000000000000000000000000000000000000000000000000000000000000000016906382a2fb9c90611fec9087908b9060040161414b565b602060405180830381600087803b15801561200657600080fd5b505af115801561201a573d6000803e3d6000fd5b505050506040513d601f19601f8201168201806040525081019061203e9190613ac9565b91505b6000198114156120ee576040516320a8bee760e21b81526001600160a01b037f000000000000000000000000000000000000000000000000000000000000000016906382a2fb9c90612099908790899060040161414b565b602060405180830381600087803b1580156120b357600080fd5b505af11580156120c7573d6000803e3d6000fd5b505050506040513d601f19601f820116820180604052508101906120eb9190613ac9565b90505b600061217a8760200135876001600160a01b03166370a08231306040518263ffffffff1660e01b81526004016121249190613b90565b60206040518083038186803b15801561213c57600080fd5b505afa158015612150573d6000803e3d6000fd5b505050506040513d601f19601f820116820180604052508101906121749190613ac9565b906130d9565b9050600080821561223557604051635d5155ef60e11b81526001600160a01b037f0000000000000000000000000000000000000000000000000000000000000000169063baa2abde906121de908e908e908890600090819030904290600401613bbe565b6040805180830381600087803b1580156121f757600080fd5b505af115801561220b573d6000803e3d6000fd5b505050506040513d601f19601f8201168201806040525081019061222f9190613ae1565b90925090505b60006122458760a08c0135613101565b905060006122578760c08d0135613101565b9050818410801561226757508083115b156123865760408051600280825260608083018452926020830190803683370190505090508c8e8260008151811061229b57fe5b60200260200101836001815181106122af57fe5b6001600160a01b0393841660209182029290920101529181169091527f000000000000000000000000000000000000000000000000000000000000000016638803dbee6122fc85886130d9565b61230687866130d9565b8430426040518663ffffffff1660e01b8152600401612329959493929190614162565b600060405180830381600087803b15801561234357600080fd5b505af1158015612357573d6000803e3d6000fd5b505050506040513d6000823e601f3d908101601f1916820160405261237f9190810190613980565b50506124af565b818411801561239457508083105b156124af5760408051600280825260608083018452926020830190803683370190505090508d8d826000815181106123c857fe5b60200260200101836001815181106123dc57fe5b6001600160a01b0393841660209182029290920101529181169091527f000000000000000000000000000000000000000000000000000000000000000016638803dbee61242984876130d9565b61243388876130d9565b8430426040518663ffffffff1660e01b8152600401612456959493929190614162565b600060405180830381600087803b15801561247057600080fd5b505af1158015612484573d6000803e3d6000fd5b505050506040513d6000823e601f3d908101601f191682016040526124ac9190810190613980565b50505b6124b98d89613126565b6124c38c88613126565b6124cd8a87613126565b6040516370a0823160e01b815260a08c0135906001600160a01b038f16906370a08231906124ff903090600401613b90565b60206040518083038186803b15801561251757600080fd5b505afa15801561252b573d6000803e3d6000fd5b505050506040513d601f19601f8201168201806040525081019061254f9190613ac9565b101561255a57600080fd5b6040516370a0823160e01b815260c08c0135906001600160a01b038e16906370a082319061258c903090600401613b90565b60206040518083038186803b1580156125a457600080fd5b505afa1580156125b8573d6000803e3d6000fd5b505050506040513d601f19601f820116820180604052508101906125dc9190613ac9565b10156125e757600080fd5b6040516370a0823160e01b815260208c0135906001600160a01b038c16906370a0823190612619903090600401613b90565b60206040518083038186803b15801561263157600080fd5b505afa158015612645573d6000803e3d6000fd5b505050506040513d601f19601f820116820180604052508101906126699190613ac9565b101561267457600080fd5b61267d8d612d3b565b6126868c612d3b565b61268f8a612d3b565b50505050505050505050505050565b6001600160a01b0380831660009081526041602090815260408083209385168352929052205460ff16611e07576126e16001600160a01b03831682600019611b22565b6001600160a01b038083166000908152604160209081526040808320938516835292905220805460ff191660011790555050565b6001600160a01b03811660009081526084602052604090205460ff1661274d5760405162461bcd60e51b815260040161056b90613eed565b6127588483356131a4565b6127668383602001356131a4565b6127748183604001356131a4565b6127828483606001356131f8565b6127908383608001356131f8565b61279e818360a001356131f8565b6000806000866001600160a01b03166370a08231306040518263ffffffff1660e01b81526004016127cf9190613b90565b60206040518083038186803b1580156127e757600080fd5b505afa1580156127fb573d6000803e3d6000fd5b505050506040513d601f19601f8201168201806040525081019061281f9190613ac9565b90506000866001600160a01b03166370a08231306040518263ffffffff1660e01b815260040161284f9190613b90565b60206040518083038186803b15801561286757600080fd5b505afa15801561287b573d6000803e3d6000fd5b505050506040513d601f19601f8201168201806040525081019061289f9190613ac9565b9050600080896001600160a01b0316876001600160a01b0316630dfe16816040518163ffffffff1660e01b815260040160206040518083038186803b1580156128e757600080fd5b505afa1580156128fb573d6000803e3d6000fd5b505050506040513d601f19601f8201168201806040525081019061291f919061365c565b6001600160a01b031614156129b557866001600160a01b0316630902f1ac6040518163ffffffff1660e01b815260040160606040518083038186803b15801561296757600080fd5b505afa15801561297b573d6000803e3d6000fd5b505050506040513d601f19601f8201168201806040525081019061299f9190613a75565b506001600160701b039182169350169050612a38565b866001600160a01b0316630902f1ac6040518163ffffffff1660e01b815260040160606040518083038186803b1580156129ee57600080fd5b505afa158015612a02573d6000803e3d6000fd5b505050506040513d601f19601f82011682018060405250810190612a269190613a75565b506001600160701b0390811693501690505b612a448484848461324c565b90965094505084159250612b6991505057604080516002808252606080830184529260208301908036833701905050905081612a81578686612a84565b85875b82600081518110612a9157fe5b6020026020010183600181518110612aa557fe5b6001600160a01b0393841660209182029290920101529181169091526040516338ed173960e01b81527f0000000000000000000000000000000000000000000000000000000000000000909116906338ed173990612b10908690600090869030904290600401614162565b600060405180830381600087803b158015612b2a57600080fd5b505af1158015612b3e573d6000803e3d6000fd5b505050506040513d6000823e601f3d908101601f19168201604052612b669190810190613980565b50505b6040516370a0823160e01b81526000906001600160a01b038816906370a0823190612b98903090600401613b90565b60206040518083038186803b158015612bb057600080fd5b505afa158015612bc4573d6000803e3d6000fd5b505050506040513d601f19601f82011682018060405250810190612be89190613ac9565b90506000866001600160a01b03166370a08231306040518263ffffffff1660e01b8152600401612c189190613b90565b60206040518083038186803b158015612c3057600080fd5b505afa158015612c44573d6000803e3d6000fd5b505050506040513d601f19601f82011682018060405250810190612c689190613ac9565b90506000821180612c795750600081115b15612d315760405162e8e33760e81b81526001600160a01b037f0000000000000000000000000000000000000000000000000000000000000000169063e8e3370090612cdf908b908b908790879060c08e01359060e08f01359030904290600401613bfe565b606060405180830381600087803b158015612cf957600080fd5b505af1158015612d0d573d6000803e3d6000fd5b505050506040513d601f19601f82011682018060405250810190610cfa9190613b04565b5050505050505050565b6040516370a0823160e01b81526000906001600160a01b038316906370a0823190612d6a903090600401613b90565b60206040518083038186803b158015612d8257600080fd5b505afa158015612d96573d6000803e3d6000fd5b505050506040513d601f19601f82011682018060405250810190612dba9190613ac9565b90508015611e0757611e077f00000000000000000000000000000000000000000000000000000000000000006001600160a01b031663630dc7cb6040518163ffffffff1660e01b815260040160206040518083038186803b158015612e1e57600080fd5b505afa158015612e32573d6000803e3d6000fd5b505050506040513d601f19601f82011682018060405250810190612e56919061365c565b6001600160a01b038416908361329b565b8015611e0757612e97827f000000000000000000000000000000000000000000000000000000000000000061269e565b6040516340c10f1960e01b81526001600160a01b037f000000000000000000000000000000000000000000000000000000000000000016906340c10f1990612ee59085908590600401613c47565b600060405180830381600087803b158015612eff57600080fd5b505af1158015612f13573d6000803e3d6000fd5b505060405163314568d960e01b81526001600160a01b037f00000000000000000000000000000000000000000000000000000000000000008116935063314568d99250611dd9917f0000000000000000000000000000000000000000000000000000000000000000918716908690600401613c60565b6060612fde826040518060400160405280602081526020017f5361666545524332303a206c6f772d6c6576656c2063616c6c206661696c6564815250856001600160a01b0316611c279092919063ffffffff16565b805190915015611c1c5780806020019051810190612ffc9190613a31565b611c1c5760405162461bcd60e51b815260040161056b906140a2565b60608247101561303a5760405162461bcd60e51b815260040161056b90613db0565b61304385611c21565b61305f5760405162461bcd60e51b815260040161056b90613ff6565b60006060866001600160a01b0316858760405161307c9190613b74565b60006040518083038185875af1925050503d80600081146130b9576040519150601f19603f3d011682016040523d82523d6000602084013e6130be565b606091505b50915091506130ce8282866132ba565b979650505050505050565b6000828211156130fb5760405162461bcd60e51b815260040161056b90613d79565b50900390565b6000828201838110156106465760405162461bcd60e51b815260040161056b90613d0b565b8015611e0757613156827f000000000000000000000000000000000000000000000000000000000000000061269e565b604051630450cfaf60e31b81526001600160a01b037f000000000000000000000000000000000000000000000000000000000000000016906322867d7890611dd99085908590600401613c47565b8015611e075760405163246b5de160e11b81526001600160a01b037f000000000000000000000000000000000000000000000000000000000000000016906348d6bbc290611dd99085908590600401613c47565b8015611e0757604051634b8a352960e01b81526001600160a01b037f00000000000000000000000000000000000000000000000000000000000000001690634b8a352990611dd99085908590600401613c47565b60008061325985856132f3565b61326387856132f3565b1061327f576132748686868661332d565b915060009050613292565b61328b8587858761332d565b9150600190505b94509492505050565b611c1c8363a9059cbb60e01b8484604051602401611be5929190613c47565b606083156132c9575081611c39565b8251156132d95782518084602001fd5b8160405162461bcd60e51b815260040161056b9190613ca1565b60008261330257506000610649565b8282028284828161330f57fe5b04146106465760405162461bcd60e51b815260040161056b90613f24565b600061333984846132f3565b61334386846132f3565b10156133615760405162461bcd60e51b815260040161056b90613f65565b6103e560006133726107cd866132f3565b9050600061338d61338388886132f3565b6121748a886132f3565b905060006133ba876133b46133a28b8a613101565b6133ae866103e86132f3565b90613427565b906132f3565b905060006133cd60046133b487856132f3565b905060006133ed6133e8836133e288806132f3565b90613101565b613459565b905060006133fb82876130d9565b9050600061340a8860026132f3565b90506134168282613427565b9d9c50505050505050505050505050565b60008082116134485760405162461bcd60e51b815260040161056b90613df6565b81838161345157fe5b049392505050565b6000816134685750600061040d565b816001600160801b82106134815760809190911c9060401b5b68010000000000000000821061349c5760409190911c9060201b5b64010000000082106134b35760209190911c9060101b5b6201000082106134c85760109190911c9060081b5b61010082106134dc5760089190911c9060041b5b601082106134ef5760049190911c9060021b5b600882106134fb5760011b5b600181858161350657fe5b048201901c9050600181858161351857fe5b048201901c9050600181858161352a57fe5b048201901c9050600181858161353c57fe5b048201901c9050600181858161354e57fe5b048201901c9050600181858161356057fe5b048201901c9050600181858161357257fe5b048201901c9050600081858161358457fe5b0490508082106135945780613596565b815b95945050505050565b60008083601f8401126135b0578182fd5b50813567ffffffffffffffff8111156135c7578182fd5b60208301915083602080830285010111156135e157600080fd5b9250929050565b60008083601f8401126135f9578182fd5b50813567ffffffffffffffff811115613610578182fd5b6020830191508360208285010111156135e157600080fd5b6000610100828403121561363a578081fd5b50919050565b600060208284031215613651578081fd5b81356106468161421f565b60006020828403121561366d578081fd5b81516106468161421f565b6000806040838503121561368a578081fd5b82356136958161421f565b915060208301356136a58161421f565b809150509250929050565b60008060008060008060008060a0898b0312156136cb578384fd5b88356136d68161421f565b975060208901356136e68161421f565b9650604089013567ffffffffffffffff80821115613702578586fd5b61370e8c838d0161359f565b909850965060608b0135915080821115613726578586fd5b6137328c838d0161359f565b909650945060808b013591508082111561374a578384fd5b506137578b828c016135e8565b999c989b5096995094979396929594505050565b60008060006101408486031215613780578283fd5b833561378b8161421f565b9250602084013561379b8161421f565b91506137aa8560408601613628565b90509250925092565b60008060008061016085870312156137c9578384fd5b84356137d48161421f565b935060208501356137e48161421f565b92506137f38660408701613628565b939692955092936101400135925050565b600080600083850361012081121561381a578384fd5b84356138258161421f565b935060208501356138358161421f565b925060e0603f1982011215613848578182fd5b506040840190509250925092565b6000806000806080858703121561386b578182fd5b84516138768161421f565b60208601519094506138878161421f565b6040860151606090960151949790965092505050565b60008060008060008060a087890312156138b5578384fd5b86356138c08161421f565b955060208701356138d08161421f565b94506040870135935060608701359250608087013567ffffffffffffffff8111156138f9578283fd5b61390589828a016135e8565b979a9699509497509295939492505050565b6000806000806040858703121561392c578182fd5b843567ffffffffffffffff80821115613943578384fd5b61394f8883890161359f565b90965094506020870135915080821115613967578384fd5b506139748782880161359f565b95989497509550505050565b60006020808385031215613992578182fd5b825167ffffffffffffffff8111156139a8578283fd5b8301601f810185136139b8578283fd5b80516139cb6139c6826141d3565b6141ac565b81815283810190838501858402850186018910156139e7578687fd5b8694505b83851015613a095780518352600194909401939185019185016139eb565b50979650505050505050565b600060208284031215613a26578081fd5b813561064681614237565b600060208284031215613a42578081fd5b815161064681614237565b600060208284031215613a5e578081fd5b81356001600160e01b031981168114610646578182fd5b600080600060608486031215613a89578081fd5b8351613a9481614245565b6020850151909350613aa581614245565b604085015190925063ffffffff81168114613abe578182fd5b809150509250925092565b600060208284031215613ada578081fd5b5051919050565b60008060408385031215613af3578182fd5b505080516020909101519092909150565b600080600060608486031215613b18578081fd5b8351925060208401519150604084015190509250925092565b6000815180845260208085019450808401835b83811015613b695781516001600160a01b031687529582019590820190600101613b44565b509495945050505050565b60008251613b868184602087016141f3565b9190910192915050565b6001600160a01b0391909116815260200190565b6001600160a01b0392831681529116602082015260400190565b6001600160a01b039788168152958716602087015260408601949094526060850192909252608084015290921660a082015260c081019190915260e00190565b6001600160a01b039889168152968816602088015260408701959095526060860193909352608085019190915260a084015290921660c082015260e08101919091526101000190565b6001600160a01b03929092168252602082015260400190565b6001600160a01b039390931683526020830191909152604082015260600190565b901515815260200190565b6001600160e01b031991909116815260200190565b6000602082528251806020840152613cc08160408501602087016141f3565b601f01601f19169190910160400192915050565b60208082526018908201527f6e6f74207468652070656e64696e6720676f7665726e6f720000000000000000604082015260600190565b6020808252601b908201527f536166654d6174683a206164646974696f6e206f766572666c6f770000000000604082015260600190565b6020808252601b908201527f6f7261636c65206e6f7420737570706f7274206c7020746f6b656e0000000000604082015260600190565b6020808252601e908201527f536166654d6174683a207375627472616374696f6e206f766572666c6f770000604082015260600190565b60208082526026908201527f416464726573733a20696e73756666696369656e742062616c616e636520666f6040820152651c8818d85b1b60d21b606082015260800190565b6020808252601a908201527f536166654d6174683a206469766973696f6e206279207a65726f000000000000604082015260600190565b60208082526010908201526f3737ba103a34329033b7bb32b93737b960811b604082015260600190565b60208082526025908201527f6c70546f6b656e732026207374617475736573206c656e677468206d69736d616040820152641d18da195960da1b606082015260800190565b6020808252600b908201526a3737903638103a37b5b2b760a91b604082015260600190565b60208082526012908201527134b731b7b93932b1ba103638103a37b5b2b760711b604082015260600190565b60208082526018908201527f6c7020746f6b656e206e6f742077686974656c69737465640000000000000000604082015260600190565b60208082526021908201527f536166654d6174683a206d756c7469706c69636174696f6e206f766572666c6f6040820152607760f81b606082015260800190565b60208082526008908201526714995d995c9cd95960c21b604082015260600190565b60208082526028908201527f636f6c6c61746572616c20746f6b656e202620776d696e697263686566206d696040820152671cdb585d18da195960c21b606082015260800190565b6020808252600d908201526c1a5b98dbdc9c9958dd081c1a59609a1b604082015260600190565b6020808252601d908201527f416464726573733a2063616c6c20746f206e6f6e2d636f6e7472616374000000604082015260600190565b602080825260149082015273696e636f727265637420756e6465726c79696e6760601b604082015260600190565b60208082526027908201527f636f6c6c61746572616c20746f6b656e202620776d696e6963686566206d69736040820152661b585d18da195960ca1b606082015260800190565b6020808252602a908201527f5361666545524332303a204552433230206f7065726174696f6e20646964206e6040820152691bdd081cdd58d8d9595960b21b606082015260800190565b60208082526036908201527f5361666545524332303a20617070726f76652066726f6d206e6f6e2d7a65726f60408201527520746f206e6f6e2d7a65726f20616c6c6f77616e636560501b606082015260800190565b90815260200190565b9182526001600160a01b0316602082015260400190565b600086825285602083015260a0604083015261418160a0830186613b31565b6001600160a01b0394909416606083015250608001529392505050565b918252602082015260400190565b60405181810167ffffffffffffffff811182821017156141cb57600080fd5b604052919050565b600067ffffffffffffffff8211156141e9578081fd5b5060209081020190565b60005b8381101561420e5781810151838201526020016141f6565b838111156104705750506000910152565b6001600160a01b038116811461423457600080fd5b50565b801515811461423457600080fd5b6001600160701b038116811461423457600080fdfea26469706673582212207e47e1be2dc2bae73312709257988f3bb6f99a5a51d3adf8f46118b81dab9c1f64736f6c634300060c0033",
  "bytecodeSha1": "e239939a83bba9bc30a2cf9916690aa36beead4f",
  "compiler": {
    "evm_version": "istanbul",
    "optimizer": {
      "enabled": true,
      "runs": 200
    },
    "version": "0.6.12+commit.27d51765"
  },
  "contractName": "SushiswapSpellV1",
  "language": "Solidity",
  "natspec": {
    "kind": "dev",
    "methods": {
      "acceptGovernor()": {
        "details": "Accept to become the new governor. Must be called by the pending governor."
      },
      "addLiquidityWERC20(address,address,(uint256,uint256,uint256,uint256,uint256,uint256,uint256,uint256))": {
        "details": "Add liquidity to Sushiswap pool, with no staking rewards (use WERC20 wrapper)",
        "params": {
          "amt": "Amounts of tokens to supply, borrow, and get.",
          "tokenA": "Token A for the pair",
          "tokenB": "Token B for the pair"
        }
      },
      "addLiquidityWMiniChef(address,address,(uint256,uint256,uint256,uint256,uint256,uint256,uint256,uint256),uint256)": {
        "details": "Add liquidity to Sushiswap pool, with staking to miniChef",
        "params": {
          "amt": "Amounts of tokens to supply, borrow, and get.",
          "pid": "Pool id",
          "tokenA": "Token A for the pair",
          "tokenB": "Token B for the pair"
        }
      },
      "getAndApprovePair(address,address)": {
        "details": "Return the LP token for the token pairs (can be in any order)",
        "params": {
          "tokenA": "Token A to get LP token",
          "tokenB": "Token B to get LP token"
        }
      },
      "harvestWMiniChef()": {
        "details": "Harvest SUSHI reward tokens to in-exec position's owner"
      },
      "removeLiquidityWERC20(address,address,(uint256,uint256,uint256,uint256,uint256,uint256,uint256))": {
        "details": "Remove liquidity from Sushiswap pool, with no staking rewards (use WERC20 wrapper)",
        "params": {
          "amt": "Amounts of tokens to take out, withdraw, repay, and get.",
          "tokenA": "Token A for the pair",
          "tokenB": "Token B for the pair"
        }
      },
      "removeLiquidityWMiniChef(address,address,(uint256,uint256,uint256,uint256,uint256,uint256,uint256))": {
        "details": "Remove liquidity from Sushiswap pool, from miniChef staking",
        "params": {
          "amt": "Amounts of tokens to take out, withdraw, repay, and get.",
          "tokenA": "Token A for the pair",
          "tokenB": "Token B for the pair"
        }
      },
      "setPendingGovernor(address)": {
        "details": "Set the pending governor, which will be the governor once accepted.",
        "params": {
          "_pendingGovernor": "The address to become the pending governor."
        }
      },
      "setWhitelistLPTokens(address[],bool[])": {
        "details": "Set whitelist LP token statuses for spell",
        "params": {
          "lpTokens": "LP tokens to set whitelist statuses",
          "statuses": "Whitelist statuses"
        }
      },
      "supportsInterface(bytes4)": {
        "details": "See {IERC165-supportsInterface}. Time complexity O(1), guaranteed to always use less than 30 000 gas."
      }
    },
    "version": 1
  },
  "opcodes": "PUSH1 0x80 PUSH1 0x40 MSTORE PUSH1 0x4 CALLDATASIZE LT PUSH2 0x14B JUMPI PUSH1 0x0 CALLDATALOAD PUSH1 0xE0 SHR DUP1 PUSH4 0xC45A0155 GT PUSH2 0xB6 JUMPI DUP1 PUSH4 0xEE42C6F4 GT PUSH2 0x6F JUMPI DUP1 PUSH4 0xEE42C6F4 EQ PUSH2 0x345 JUMPI DUP1 PUSH4 0xF235757F EQ PUSH2 0x365 JUMPI DUP1 PUSH4 0xF23A6E61 EQ PUSH2 0x385 JUMPI DUP1 PUSH4 0xF4B16045 EQ PUSH2 0x3A5 JUMPI DUP1 PUSH4 0xF7C618C1 EQ PUSH2 0x3C5 JUMPI DUP1 PUSH4 0xF887EA40 EQ PUSH2 0x3DA JUMPI PUSH2 0x14B JUMP JUMPDEST DUP1 PUSH4 0xC45A0155 EQ PUSH2 0x2BE JUMPI DUP1 PUSH4 0xCC9B1880 EQ PUSH2 0x2D3 JUMPI DUP1 PUSH4 0xCF69E804 EQ PUSH2 0x2E6 JUMPI DUP1 PUSH4 0xDE1ECFCE EQ PUSH2 0x2FB JUMPI DUP1 PUSH4 0xE3056A34 EQ PUSH2 0x31B JUMPI DUP1 PUSH4 0xE58BB639 EQ PUSH2 0x330 JUMPI PUSH2 0x14B JUMP JUMPDEST DUP1 PUSH4 0x38705B1E GT PUSH2 0x108 JUMPI DUP1 PUSH4 0x38705B1E EQ PUSH2 0x212 JUMPI DUP1 PUSH4 0x4BAB09F6 EQ PUSH2 0x227 JUMPI DUP1 PUSH4 0x5741229C EQ PUSH2 0x247 JUMPI DUP1 PUSH4 0x69454B86 EQ PUSH2 0x25C JUMPI DUP1 PUSH4 0x76CDB03B EQ PUSH2 0x27C JUMPI DUP1 PUSH4 0xBC197C81 EQ PUSH2 0x291 JUMPI PUSH2 0x14B JUMP JUMPDEST DUP1 PUSH4 0x1FFC9A7 EQ PUSH2 0x150 JUMPI DUP1 PUSH4 0xA087903 EQ PUSH2 0x186 JUMPI DUP1 PUSH4 0xC340A24 EQ PUSH2 0x1A8 JUMPI DUP1 PUSH4 0x1387D96D EQ PUSH2 0x1BD JUMPI DUP1 PUSH4 0x2185059F EQ PUSH2 0x1DF JUMPI DUP1 PUSH4 0x2951434C EQ PUSH2 0x1FF JUMPI JUMPDEST PUSH1 0x0 DUP1 REVERT JUMPDEST CALLVALUE DUP1 ISZERO PUSH2 0x15C JUMPI PUSH1 0x0 DUP1 REVERT JUMPDEST POP PUSH2 0x170 PUSH2 0x16B CALLDATASIZE PUSH1 0x4 PUSH2 0x3A4D JUMP JUMPDEST PUSH2 0x3EF JUMP JUMPDEST PUSH1 0x40 MLOAD PUSH2 0x17D SWAP2 SWAP1 PUSH2 0x3C81 JUMP JUMPDEST PUSH1 0x40 MLOAD DUP1 SWAP2 SUB SWAP1 RETURN JUMPDEST CALLVALUE DUP1 ISZERO PUSH2 0x192 JUMPI PUSH1 0x0 DUP1 REVERT JUMPDEST POP PUSH2 0x19B PUSH2 0x412 JUMP JUMPDEST PUSH1 0x40 MLOAD PUSH2 0x17D SWAP2 SWAP1 PUSH2 0x3B90 JUMP JUMPDEST CALLVALUE DUP1 ISZERO PUSH2 0x1B4 JUMPI PUSH1 0x0 DUP1 REVERT JUMPDEST POP PUSH2 0x19B PUSH2 0x436 JUMP JUMPDEST CALLVALUE DUP1 ISZERO PUSH2 0x1C9 JUMPI PUSH1 0x0 DUP1 REVERT JUMPDEST POP PUSH2 0x1DD PUSH2 0x1D8 CALLDATASIZE PUSH1 0x4 PUSH2 0x3804 JUMP JUMPDEST PUSH2 0x44B JUMP JUMPDEST STOP JUMPDEST CALLVALUE DUP1 ISZERO PUSH2 0x1EB JUMPI PUSH1 0x0 DUP1 REVERT JUMPDEST POP PUSH2 0x19B PUSH2 0x1FA CALLDATASIZE PUSH1 0x4 PUSH2 0x3678 JUMP JUMPDEST PUSH2 0x476 JUMP JUMPDEST PUSH2 0x1DD PUSH2 0x20D CALLDATASIZE PUSH1 0x4 PUSH2 0x37B3 JUMP JUMPDEST PUSH2 0x64F JUMP JUMPDEST CALLVALUE DUP1 ISZERO PUSH2 0x21E JUMPI PUSH1 0x0 DUP1 REVERT JUMPDEST POP PUSH2 0x1DD PUSH2 0xD07 JUMP JUMPDEST CALLVALUE DUP1 ISZERO PUSH2 0x233 JUMPI PUSH1 0x0 DUP1 REVERT JUMPDEST POP PUSH2 0x170 PUSH2 0x242 CALLDATASIZE PUSH1 0x4 PUSH2 0x3640 JUMP JUMPDEST PUSH2 0x12FF JUMP JUMPDEST CALLVALUE DUP1 ISZERO PUSH2 0x253 JUMPI PUSH1 0x0 DUP1 REVERT JUMPDEST POP PUSH2 0x19B PUSH2 0x1314 JUMP JUMPDEST CALLVALUE DUP1 ISZERO PUSH2 0x268 JUMPI PUSH1 0x0 DUP1 REVERT JUMPDEST POP PUSH2 0x19B PUSH2 0x277 CALLDATASIZE PUSH1 0x4 PUSH2 0x3678 JUMP JUMPDEST PUSH2 0x1338 JUMP JUMPDEST CALLVALUE DUP1 ISZERO PUSH2 0x288 JUMPI PUSH1 0x0 DUP1 REVERT JUMPDEST POP PUSH2 0x19B PUSH2 0x135E JUMP JUMPDEST CALLVALUE DUP1 ISZERO PUSH2 0x29D JUMPI PUSH1 0x0 DUP1 REVERT JUMPDEST POP PUSH2 0x2B1 PUSH2 0x2AC CALLDATASIZE PUSH1 0x4 PUSH2 0x36B0 JUMP JUMPDEST PUSH2 0x1382 JUMP JUMPDEST PUSH1 0x40 MLOAD PUSH2 0x17D SWAP2 SWAP1 PUSH2 0x3C8C JUMP JUMPDEST CALLVALUE DUP1 ISZERO PUSH2 0x2CA JUMPI PUSH1 0x0 DUP1 REVERT JUMPDEST POP PUSH2 0x19B PUSH2 0x1396 JUMP JUMPDEST PUSH2 0x1DD PUSH2 0x2E1 CALLDATASIZE PUSH1 0x4 PUSH2 0x376B JUMP JUMPDEST PUSH2 0x13BA JUMP JUMPDEST CALLVALUE DUP1 ISZERO PUSH2 0x2F2 JUMPI PUSH1 0x0 DUP1 REVERT JUMPDEST POP PUSH2 0x19B PUSH2 0x146B JUMP JUMPDEST CALLVALUE DUP1 ISZERO PUSH2 0x307 JUMPI PUSH1 0x0 DUP1 REVERT JUMPDEST POP PUSH2 0x1DD PUSH2 0x316 CALLDATASIZE PUSH1 0x4 PUSH2 0x3804 JUMP JUMPDEST PUSH2 0x148F JUMP JUMPDEST CALLVALUE DUP1 ISZERO PUSH2 0x327 JUMPI PUSH1 0x0 DUP1 REVERT JUMPDEST POP PUSH2 0x19B PUSH2 0x17AE JUMP JUMPDEST CALLVALUE DUP1 ISZERO PUSH2 0x33C JUMPI PUSH1 0x0 DUP1 REVERT JUMPDEST POP PUSH2 0x1DD PUSH2 0x17BD JUMP JUMPDEST CALLVALUE DUP1 ISZERO PUSH2 0x351 JUMPI PUSH1 0x0 DUP1 REVERT JUMPDEST POP PUSH2 0x1DD PUSH2 0x360 CALLDATASIZE PUSH1 0x4 PUSH2 0x3917 JUMP JUMPDEST PUSH2 0x184D JUMP JUMPDEST CALLVALUE DUP1 ISZERO PUSH2 0x371 JUMPI PUSH1 0x0 DUP1 REVERT JUMPDEST POP PUSH2 0x1DD PUSH2 0x380 CALLDATASIZE PUSH1 0x4 PUSH2 0x3640 JUMP JUMPDEST PUSH2 0x1A22 JUMP JUMPDEST CALLVALUE DUP1 ISZERO PUSH2 0x391 JUMPI PUSH1 0x0 DUP1 REVERT JUMPDEST POP PUSH2 0x2B1 PUSH2 0x3A0 CALLDATASIZE PUSH1 0x4 PUSH2 0x389D JUMP JUMPDEST PUSH2 0x1AA8 JUMP JUMPDEST CALLVALUE DUP1 ISZERO PUSH2 0x3B1 JUMPI PUSH1 0x0 DUP1 REVERT JUMPDEST POP PUSH2 0x170 PUSH2 0x3C0 CALLDATASIZE PUSH1 0x4 PUSH2 0x3678 JUMP JUMPDEST PUSH2 0x1ABA JUMP JUMPDEST CALLVALUE DUP1 ISZERO PUSH2 0x3D1 JUMPI PUSH1 0x0 DUP1 REVERT JUMPDEST POP PUSH2 0x19B PUSH2 0x1ADA JUMP JUMPDEST CALLVALUE DUP1 ISZERO PUSH2 0x3E6 JUMPI PUSH1 0x0 DUP1 REVERT JUMPDEST POP PUSH2 0x19B PUSH2 0x1AFE JUMP JUMPDEST PUSH1 0x1 PUSH1 0x1 PUSH1 0xE0 SHL SUB NOT DUP2 AND PUSH1 0x0 SWAP1 DUP2 MSTORE PUSH1 0x20 DUP2 SWAP1 MSTORE PUSH1 0x40 SWAP1 KECCAK256 SLOAD PUSH1 0xFF AND JUMPDEST SWAP2 SWAP1 POP JUMP JUMPDEST PUSH32 0x0 DUP2 JUMP JUMPDEST PUSH1 0x42 SLOAD PUSH3 0x10000 SWAP1 DIV PUSH1 0x1 PUSH1 0x1 PUSH1 0xA0 SHL SUB AND DUP2 JUMP JUMPDEST PUSH1 0x0 PUSH2 0x457 DUP5 DUP5 PUSH2 0x476 JUMP JUMPDEST SWAP1 POP PUSH2 0x464 DUP2 DUP4 CALLDATALOAD PUSH2 0x1C40 JUMP JUMPDEST PUSH2 0x470 DUP5 DUP5 DUP5 DUP5 PUSH2 0x1E0B JUMP JUMPDEST POP POP POP POP JUMP JUMPDEST PUSH1 0x1 PUSH1 0x1 PUSH1 0xA0 SHL SUB DUP1 DUP4 AND PUSH1 0x0 SWAP1 DUP2 MSTORE PUSH1 0x85 PUSH1 0x20 SWAP1 DUP2 MSTORE PUSH1 0x40 DUP1 DUP4 KECCAK256 DUP6 DUP6 AND DUP5 MSTORE SWAP1 SWAP2 MSTORE DUP2 KECCAK256 SLOAD SWAP1 SWAP2 AND DUP1 PUSH2 0x646 JUMPI PUSH1 0x40 MLOAD PUSH4 0xE6A43905 PUSH1 0xE0 SHL DUP2 MSTORE PUSH1 0x1 PUSH1 0x1 PUSH1 0xA0 SHL SUB PUSH32 0x0 AND SWAP1 PUSH4 0xE6A43905 SWAP1 PUSH2 0x4F3 SWAP1 DUP8 SWAP1 DUP8 SWAP1 PUSH1 0x4 ADD PUSH2 0x3BA4 JUMP JUMPDEST PUSH1 0x20 PUSH1 0x40 MLOAD DUP1 DUP4 SUB DUP2 DUP7 DUP1 EXTCODESIZE ISZERO DUP1 ISZERO PUSH2 0x50B JUMPI PUSH1 0x0 DUP1 REVERT JUMPDEST POP GAS STATICCALL ISZERO DUP1 ISZERO PUSH2 0x51F JUMPI RETURNDATASIZE PUSH1 0x0 DUP1 RETURNDATACOPY RETURNDATASIZE PUSH1 0x0 REVERT JUMPDEST POP POP POP POP PUSH1 0x40 MLOAD RETURNDATASIZE PUSH1 0x1F NOT PUSH1 0x1F DUP3 ADD AND DUP3 ADD DUP1 PUSH1 0x40 MSTORE POP DUP2 ADD SWAP1 PUSH2 0x543 SWAP2 SWAP1 PUSH2 0x365C JUMP JUMPDEST SWAP1 POP PUSH1 0x1 PUSH1 0x1 PUSH1 0xA0 SHL SUB DUP2 AND PUSH2 0x574 JUMPI PUSH1 0x40 MLOAD PUSH3 0x461BCD PUSH1 0xE5 SHL DUP2 MSTORE PUSH1 0x4 ADD PUSH2 0x56B SWAP1 PUSH2 0x3E9C JUMP JUMPDEST PUSH1 0x40 MLOAD DUP1 SWAP2 SUB SWAP1 REVERT JUMPDEST PUSH2 0x59E DUP5 PUSH32 0x0 PUSH2 0x269E JUMP JUMPDEST PUSH2 0x5C8 DUP4 PUSH32 0x0 PUSH2 0x269E JUMP JUMPDEST PUSH2 0x5F2 DUP2 PUSH32 0x0 PUSH2 0x269E JUMP JUMPDEST PUSH1 0x1 PUSH1 0x1 PUSH1 0xA0 SHL SUB DUP1 DUP6 AND PUSH1 0x0 DUP2 DUP2 MSTORE PUSH1 0x85 PUSH1 0x20 DUP2 DUP2 MSTORE PUSH1 0x40 DUP1 DUP5 KECCAK256 DUP10 DUP8 AND DUP6 MSTORE DUP3 MSTORE DUP1 DUP5 KECCAK256 DUP1 SLOAD SWAP7 DUP9 AND PUSH1 0x1 PUSH1 0x1 PUSH1 0xA0 SHL SUB NOT SWAP8 DUP9 AND DUP2 OR SWAP1 SWAP2 SSTORE SWAP3 DUP3 MSTORE DUP1 DUP5 KECCAK256 SWAP5 DUP5 MSTORE SWAP4 SWAP1 MSTORE SWAP2 SWAP1 KECCAK256 DUP1 SLOAD SWAP1 SWAP3 AND OR SWAP1 SSTORE JUMPDEST SWAP1 POP JUMPDEST SWAP3 SWAP2 POP POP JUMP JUMPDEST PUSH1 0x0 PUSH2 0x65B DUP6 DUP6 PUSH2 0x476 JUMP JUMPDEST SWAP1 POP PUSH1 0x0 PUSH32 0x0 PUSH1 0x1 PUSH1 0x1 PUSH1 0xA0 SHL SUB AND PUSH4 0x1FC8BC5D PUSH1 0x40 MLOAD DUP2 PUSH4 0xFFFFFFFF AND PUSH1 0xE0 SHL DUP2 MSTORE PUSH1 0x4 ADD PUSH1 0x20 PUSH1 0x40 MLOAD DUP1 DUP4 SUB DUP2 DUP7 DUP1 EXTCODESIZE ISZERO DUP1 ISZERO PUSH2 0x6B8 JUMPI PUSH1 0x0 DUP1 REVERT JUMPDEST POP GAS STATICCALL ISZERO DUP1 ISZERO PUSH2 0x6CC JUMPI RETURNDATASIZE PUSH1 0x0 DUP1 RETURNDATACOPY RETURNDATASIZE PUSH1 0x0 REVERT JUMPDEST POP POP POP POP PUSH1 0x40 MLOAD RETURNDATASIZE PUSH1 0x1F NOT PUSH1 0x1F DUP3 ADD AND DUP3 ADD DUP1 PUSH1 0x40 MSTORE POP DUP2 ADD SWAP1 PUSH2 0x6F0 SWAP2 SWAP1 PUSH2 0x365C JUMP JUMPDEST PUSH1 0x1 PUSH1 0x1 PUSH1 0xA0 SHL SUB AND PUSH4 0x78ED5D1F DUP5 PUSH1 0x40 MLOAD DUP3 PUSH4 0xFFFFFFFF AND PUSH1 0xE0 SHL DUP2 MSTORE PUSH1 0x4 ADD PUSH2 0x71B SWAP2 SWAP1 PUSH2 0x4142 JUMP JUMPDEST PUSH1 0x20 PUSH1 0x40 MLOAD DUP1 DUP4 SUB DUP2 DUP7 DUP1 EXTCODESIZE ISZERO DUP1 ISZERO PUSH2 0x733 JUMPI PUSH1 0x0 DUP1 REVERT JUMPDEST POP GAS STATICCALL ISZERO DUP1 ISZERO PUSH2 0x747 JUMPI RETURNDATASIZE PUSH1 0x0 DUP1 RETURNDATACOPY RETURNDATASIZE PUSH1 0x0 REVERT JUMPDEST POP POP POP POP PUSH1 0x40 MLOAD RETURNDATASIZE PUSH1 0x1F NOT PUSH1 0x1F DUP3 ADD AND DUP3 ADD DUP1 PUSH1 0x40 MSTORE POP DUP2 ADD SWAP1 PUSH2 0x76B SWAP2 SWAP1 PUSH2 0x365C JUMP JUMPDEST SWAP1 POP DUP2 PUSH1 0x1 PUSH1 0x1 PUSH1 0xA0 SHL SUB AND DUP2 PUSH1 0x1 PUSH1 0x1 PUSH1 0xA0 SHL SUB AND EQ PUSH2 0x79E JUMPI PUSH1 0x40 MLOAD PUSH3 0x461BCD PUSH1 0xE5 SHL DUP2 MSTORE PUSH1 0x4 ADD PUSH2 0x56B SWAP1 PUSH2 0x3EC1 JUMP JUMPDEST PUSH2 0x7AA DUP7 DUP7 DUP7 DUP6 PUSH2 0x2715 JUMP JUMPDEST PUSH1 0x0 DUP1 PUSH1 0x0 PUSH32 0x0 PUSH1 0x1 PUSH1 0x1 PUSH1 0xA0 SHL SUB AND PUSH4 0xF70AEDD9 PUSH1 0x40 MLOAD DUP2 PUSH4 0xFFFFFFFF AND PUSH1 0xE0 SHL DUP2 MSTORE PUSH1 0x4 ADD PUSH1 0x80 PUSH1 0x40 MLOAD DUP1 DUP4 SUB DUP2 DUP7 DUP1 EXTCODESIZE ISZERO DUP1 ISZERO PUSH2 0x808 JUMPI PUSH1 0x0 DUP1 REVERT JUMPDEST POP GAS STATICCALL ISZERO DUP1 ISZERO PUSH2 0x81C JUMPI RETURNDATASIZE PUSH1 0x0 DUP1 RETURNDATACOPY RETURNDATASIZE PUSH1 0x0 REVERT JUMPDEST POP POP POP POP PUSH1 0x40 MLOAD RETURNDATASIZE PUSH1 0x1F NOT PUSH1 0x1F DUP3 ADD AND DUP3 ADD DUP1 PUSH1 0x40 MSTORE POP DUP2 ADD SWAP1 PUSH2 0x840 SWAP2 SWAP1 PUSH2 0x3856 JUMP JUMPDEST SWAP2 SWAP6 POP SWAP4 POP SWAP2 POP POP DUP1 ISZERO PUSH2 0xAA4 JUMPI PUSH1 0x40 MLOAD PUSH4 0x6E10637D PUSH1 0xE1 SHL DUP2 MSTORE PUSH1 0x0 SWAP1 PUSH1 0x1 PUSH1 0x1 PUSH1 0xA0 SHL SUB PUSH32 0x0 AND SWAP1 PUSH4 0xDC20C6FA SWAP1 PUSH2 0x89D SWAP1 DUP7 SWAP1 PUSH1 0x4 ADD PUSH2 0x4142 JUMP JUMPDEST PUSH1 0x40 DUP1 MLOAD DUP1 DUP4 SUB DUP2 DUP7 DUP1 EXTCODESIZE ISZERO DUP1 ISZERO PUSH2 0x8B4 JUMPI PUSH1 0x0 DUP1 REVERT JUMPDEST POP GAS STATICCALL ISZERO DUP1 ISZERO PUSH2 0x8C8 JUMPI RETURNDATASIZE PUSH1 0x0 DUP1 RETURNDATACOPY RETURNDATASIZE PUSH1 0x0 REVERT JUMPDEST POP POP POP POP PUSH1 0x40 MLOAD RETURNDATASIZE PUSH1 0x1F NOT PUSH1 0x1F DUP3 ADD AND DUP3 ADD DUP1 PUSH1 0x40 MSTORE POP DUP2 ADD SWAP1 PUSH2 0x8EC SWAP2 SWAP1 PUSH2 0x3AE1 JUMP JUMPDEST POP SWAP1 POP DUP1 DUP8 EQ PUSH2 0x90E JUMPI PUSH1 0x40 MLOAD PUSH3 0x461BCD PUSH1 0xE5 SHL DUP2 MSTORE PUSH1 0x4 ADD PUSH2 0x56B SWAP1 PUSH2 0x3FCF JUMP JUMPDEST PUSH32 0x0 PUSH1 0x1 PUSH1 0x1 PUSH1 0xA0 SHL SUB AND DUP5 PUSH1 0x1 PUSH1 0x1 PUSH1 0xA0 SHL SUB AND EQ PUSH2 0x95F JUMPI PUSH1 0x40 MLOAD PUSH3 0x461BCD PUSH1 0xE5 SHL DUP2 MSTORE PUSH1 0x4 ADD PUSH2 0x56B SWAP1 PUSH2 0x3F87 JUMP JUMPDEST PUSH1 0x40 MLOAD PUSH4 0xD1D6975 PUSH1 0xE3 SHL DUP2 MSTORE PUSH1 0x1 PUSH1 0x1 PUSH1 0xA0 SHL SUB PUSH32 0x0 AND SWAP1 PUSH4 0x68EB4BA8 SWAP1 PUSH2 0x9CF SWAP1 PUSH32 0x0 SWAP1 DUP8 SWAP1 DUP8 SWAP1 PUSH1 0x4 ADD PUSH2 0x3C60 JUMP JUMPDEST PUSH1 0x0 PUSH1 0x40 MLOAD DUP1 DUP4 SUB DUP2 PUSH1 0x0 DUP8 DUP1 EXTCODESIZE ISZERO DUP1 ISZERO PUSH2 0x9E9 JUMPI PUSH1 0x0 DUP1 REVERT JUMPDEST POP GAS CALL ISZERO DUP1 ISZERO PUSH2 0x9FD JUMPI RETURNDATASIZE PUSH1 0x0 DUP1 RETURNDATACOPY RETURNDATASIZE PUSH1 0x0 REVERT JUMPDEST POP POP PUSH1 0x40 MLOAD PUSH4 0xB390C0AB PUSH1 0xE0 SHL DUP2 MSTORE PUSH1 0x1 PUSH1 0x1 PUSH1 0xA0 SHL SUB PUSH32 0x0 AND SWAP3 POP PUSH4 0xB390C0AB SWAP2 POP PUSH2 0xA4F SWAP1 DUP7 SWAP1 DUP7 SWAP1 PUSH1 0x4 ADD PUSH2 0x419E JUMP JUMPDEST PUSH1 0x20 PUSH1 0x40 MLOAD DUP1 DUP4 SUB DUP2 PUSH1 0x0 DUP8 DUP1 EXTCODESIZE ISZERO DUP1 ISZERO PUSH2 0xA69 JUMPI PUSH1 0x0 DUP1 REVERT JUMPDEST POP GAS CALL ISZERO DUP1 ISZERO PUSH2 0xA7D JUMPI RETURNDATASIZE PUSH1 0x0 DUP1 RETURNDATACOPY RETURNDATASIZE PUSH1 0x0 REVERT JUMPDEST POP POP POP POP PUSH1 0x40 MLOAD RETURNDATASIZE PUSH1 0x1F NOT PUSH1 0x1F DUP3 ADD AND DUP3 ADD DUP1 PUSH1 0x40 MSTORE POP DUP2 ADD SWAP1 PUSH2 0xAA1 SWAP2 SWAP1 PUSH2 0x3AC9 JUMP JUMPDEST POP POP JUMPDEST PUSH2 0xACE DUP6 PUSH32 0x0 PUSH2 0x269E JUMP JUMPDEST PUSH1 0x40 MLOAD PUSH4 0x70A08231 PUSH1 0xE0 SHL DUP2 MSTORE PUSH1 0x0 SWAP1 PUSH1 0x1 PUSH1 0x1 PUSH1 0xA0 SHL SUB DUP8 AND SWAP1 PUSH4 0x70A08231 SWAP1 PUSH2 0xAFD SWAP1 ADDRESS SWAP1 PUSH1 0x4 ADD PUSH2 0x3B90 JUMP JUMPDEST PUSH1 0x20 PUSH1 0x40 MLOAD DUP1 DUP4 SUB DUP2 DUP7 DUP1 EXTCODESIZE ISZERO DUP1 ISZERO PUSH2 0xB15 JUMPI PUSH1 0x0 DUP1 REVERT JUMPDEST POP GAS STATICCALL ISZERO DUP1 ISZERO PUSH2 0xB29 JUMPI RETURNDATASIZE PUSH1 0x0 DUP1 RETURNDATACOPY RETURNDATASIZE PUSH1 0x0 REVERT JUMPDEST POP POP POP POP PUSH1 0x40 MLOAD RETURNDATASIZE PUSH1 0x1F NOT PUSH1 0x1F DUP3 ADD AND DUP3 ADD DUP1 PUSH1 0x40 MSTORE POP DUP2 ADD SWAP1 PUSH2 0xB4D SWAP2 SWAP1 PUSH2 0x3AC9 JUMP JUMPDEST SWAP1 POP PUSH1 0x0 PUSH32 0x0 PUSH1 0x1 PUSH1 0x1 PUSH1 0xA0 SHL SUB AND PUSH4 0x1B2EF1CA DUP10 DUP5 PUSH1 0x40 MLOAD DUP4 PUSH4 0xFFFFFFFF AND PUSH1 0xE0 SHL DUP2 MSTORE PUSH1 0x4 ADD PUSH2 0xB9F SWAP3 SWAP2 SWAP1 PUSH2 0x419E JUMP JUMPDEST PUSH1 0x20 PUSH1 0x40 MLOAD DUP1 DUP4 SUB DUP2 PUSH1 0x0 DUP8 DUP1 EXTCODESIZE ISZERO DUP1 ISZERO PUSH2 0xBB9 JUMPI PUSH1 0x0 DUP1 REVERT JUMPDEST POP GAS CALL ISZERO DUP1 ISZERO PUSH2 0xBCD JUMPI RETURNDATASIZE PUSH1 0x0 DUP1 RETURNDATACOPY RETURNDATASIZE PUSH1 0x0 REVERT JUMPDEST POP POP POP POP PUSH1 0x40 MLOAD RETURNDATASIZE PUSH1 0x1F NOT PUSH1 0x1F DUP3 ADD AND DUP3 ADD DUP1 PUSH1 0x40 MSTORE POP DUP2 ADD SWAP1 PUSH2 0xBF1 SWAP2 SWAP1 PUSH2 0x3AC9 JUMP JUMPDEST PUSH1 0x40 MLOAD PUSH4 0x314568D9 PUSH1 0xE0 SHL DUP2 MSTORE SWAP1 SWAP2 POP PUSH1 0x1 PUSH1 0x1 PUSH1 0xA0 SHL SUB PUSH32 0x0 AND SWAP1 PUSH4 0x314568D9 SWAP1 PUSH2 0xC64 SWAP1 PUSH32 0x0 SWAP1 DUP6 SWAP1 DUP8 SWAP1 PUSH1 0x4 ADD PUSH2 0x3C60 JUMP JUMPDEST PUSH1 0x0 PUSH1 0x40 MLOAD DUP1 DUP4 SUB DUP2 PUSH1 0x0 DUP8 DUP1 EXTCODESIZE ISZERO DUP1 ISZERO PUSH2 0xC7E JUMPI PUSH1 0x0 DUP1 REVERT JUMPDEST POP GAS CALL ISZERO DUP1 ISZERO PUSH2 0xC92 JUMPI RETURNDATASIZE PUSH1 0x0 DUP1 RETURNDATACOPY RETURNDATASIZE PUSH1 0x0 REVERT JUMPDEST POP POP POP POP PUSH2 0xC9F DUP12 PUSH2 0x2D3B JUMP JUMPDEST PUSH2 0xCA8 DUP11 PUSH2 0x2D3B JUMP JUMPDEST PUSH2 0xCD1 PUSH32 0x0 PUSH2 0x2D3B JUMP JUMPDEST PUSH2 0xCFA PUSH32 0x0 PUSH2 0x2D3B JUMP JUMPDEST POP POP POP POP POP POP POP POP POP POP POP JUMP JUMPDEST PUSH1 0x0 DUP1 PUSH32 0x0 PUSH1 0x1 PUSH1 0x1 PUSH1 0xA0 SHL SUB AND PUSH4 0xF70AEDD9 PUSH1 0x40 MLOAD DUP2 PUSH4 0xFFFFFFFF AND PUSH1 0xE0 SHL DUP2 MSTORE PUSH1 0x4 ADD PUSH1 0x80 PUSH1 0x40 MLOAD DUP1 DUP4 SUB DUP2 DUP7 DUP1 EXTCODESIZE ISZERO DUP1 ISZERO PUSH2 0xD63 JUMPI PUSH1 0x0 DUP1 REVERT JUMPDEST POP GAS STATICCALL ISZERO DUP1 ISZERO PUSH2 0xD77 JUMPI RETURNDATASIZE PUSH1 0x0 DUP1 RETURNDATACOPY RETURNDATASIZE PUSH1 0x0 REVERT JUMPDEST POP POP POP POP PUSH1 0x40 MLOAD RETURNDATASIZE PUSH1 0x1F NOT PUSH1 0x1F DUP3 ADD AND DUP3 ADD DUP1 PUSH1 0x40 MSTORE POP DUP2 ADD SWAP1 PUSH2 0xD9B SWAP2 SWAP1 PUSH2 0x3856 JUMP JUMPDEST POP SWAP3 POP SWAP3 POP POP PUSH1 0x0 PUSH32 0x0 PUSH1 0x1 PUSH1 0x1 PUSH1 0xA0 SHL SUB AND PUSH4 0xDC20C6FA DUP4 PUSH1 0x40 MLOAD DUP3 PUSH4 0xFFFFFFFF AND PUSH1 0xE0 SHL DUP2 MSTORE PUSH1 0x4 ADD PUSH2 0xDEF SWAP2 SWAP1 PUSH2 0x4142 JUMP JUMPDEST PUSH1 0x40 DUP1 MLOAD DUP1 DUP4 SUB DUP2 DUP7 DUP1 EXTCODESIZE ISZERO DUP1 ISZERO PUSH2 0xE06 JUMPI PUSH1 0x0 DUP1 REVERT JUMPDEST POP GAS STATICCALL ISZERO DUP1 ISZERO PUSH2 0xE1A JUMPI RETURNDATASIZE PUSH1 0x0 DUP1 RETURNDATACOPY RETURNDATASIZE PUSH1 0x0 REVERT JUMPDEST POP POP POP POP PUSH1 0x40 MLOAD RETURNDATASIZE PUSH1 0x1F NOT PUSH1 0x1F DUP3 ADD AND DUP3 ADD DUP1 PUSH1 0x40 MSTORE POP DUP2 ADD SWAP1 PUSH2 0xE3E SWAP2 SWAP1 PUSH2 0x3AE1 JUMP JUMPDEST POP SWAP1 POP PUSH1 0x0 PUSH32 0x0 PUSH1 0x1 PUSH1 0x1 PUSH1 0xA0 SHL SUB AND PUSH4 0xA4775772 DUP5 PUSH1 0x40 MLOAD DUP3 PUSH4 0xFFFFFFFF AND PUSH1 0xE0 SHL DUP2 MSTORE PUSH1 0x4 ADD PUSH2 0xE8F SWAP2 SWAP1 PUSH2 0x4142 JUMP JUMPDEST PUSH1 0x20 PUSH1 0x40 MLOAD DUP1 DUP4 SUB DUP2 DUP7 DUP1 EXTCODESIZE ISZERO DUP1 ISZERO PUSH2 0xEA7 JUMPI PUSH1 0x0 DUP1 REVERT JUMPDEST POP GAS STATICCALL ISZERO DUP1 ISZERO PUSH2 0xEBB JUMPI RETURNDATASIZE PUSH1 0x0 DUP1 RETURNDATACOPY RETURNDATASIZE PUSH1 0x0 REVERT JUMPDEST POP POP POP POP PUSH1 0x40 MLOAD RETURNDATASIZE PUSH1 0x1F NOT PUSH1 0x1F DUP3 ADD AND DUP3 ADD DUP1 PUSH1 0x40 MSTORE POP DUP2 ADD SWAP1 PUSH2 0xEDF SWAP2 SWAP1 PUSH2 0x365C JUMP JUMPDEST PUSH1 0x1 PUSH1 0x1 PUSH1 0xA0 SHL SUB DUP2 AND PUSH1 0x0 SWAP1 DUP2 MSTORE PUSH1 0x84 PUSH1 0x20 MSTORE PUSH1 0x40 SWAP1 KECCAK256 SLOAD SWAP1 SWAP2 POP PUSH1 0xFF AND PUSH2 0xF1A JUMPI PUSH1 0x40 MLOAD PUSH3 0x461BCD PUSH1 0xE5 SHL DUP2 MSTORE PUSH1 0x4 ADD PUSH2 0x56B SWAP1 PUSH2 0x3EED JUMP JUMPDEST PUSH32 0x0 PUSH1 0x1 PUSH1 0x1 PUSH1 0xA0 SHL SUB AND DUP5 PUSH1 0x1 PUSH1 0x1 PUSH1 0xA0 SHL SUB AND EQ PUSH2 0xF6B JUMPI PUSH1 0x40 MLOAD PUSH3 0x461BCD PUSH1 0xE5 SHL DUP2 MSTORE PUSH1 0x4 ADD PUSH2 0x56B SWAP1 PUSH2 0x405B JUMP JUMPDEST PUSH1 0x40 MLOAD PUSH4 0xD1D6975 PUSH1 0xE3 SHL DUP2 MSTORE PUSH1 0x1 PUSH1 0x1 PUSH1 0xA0 SHL SUB PUSH32 0x0 AND SWAP1 PUSH4 0x68EB4BA8 SWAP1 PUSH2 0xFDD SWAP1 PUSH32 0x0 SWAP1 DUP8 SWAP1 PUSH1 0x0 NOT SWAP1 PUSH1 0x4 ADD PUSH2 0x3C60 JUMP JUMPDEST PUSH1 0x0 PUSH1 0x40 MLOAD DUP1 DUP4 SUB DUP2 PUSH1 0x0 DUP8 DUP1 EXTCODESIZE ISZERO DUP1 ISZERO PUSH2 0xFF7 JUMPI PUSH1 0x0 DUP1 REVERT JUMPDEST POP GAS CALL ISZERO DUP1 ISZERO PUSH2 0x100B JUMPI RETURNDATASIZE PUSH1 0x0 DUP1 RETURNDATACOPY RETURNDATASIZE PUSH1 0x0 REVERT JUMPDEST POP POP PUSH1 0x40 MLOAD PUSH4 0xB390C0AB PUSH1 0xE0 SHL DUP2 MSTORE PUSH1 0x1 PUSH1 0x1 PUSH1 0xA0 SHL SUB PUSH32 0x0 AND SWAP3 POP PUSH4 0xB390C0AB SWAP2 POP PUSH2 0x105F SWAP1 DUP7 SWAP1 PUSH1 0x0 NOT SWAP1 PUSH1 0x4 ADD PUSH2 0x419E JUMP JUMPDEST PUSH1 0x20 PUSH1 0x40 MLOAD DUP1 DUP4 SUB DUP2 PUSH1 0x0 DUP8 DUP1 EXTCODESIZE ISZERO DUP1 ISZERO PUSH2 0x1079 JUMPI PUSH1 0x0 DUP1 REVERT JUMPDEST POP GAS CALL ISZERO DUP1 ISZERO PUSH2 0x108D JUMPI RETURNDATASIZE PUSH1 0x0 DUP1 RETURNDATACOPY RETURNDATASIZE PUSH1 0x0 REVERT JUMPDEST POP POP POP POP PUSH1 0x40 MLOAD RETURNDATASIZE PUSH1 0x1F NOT PUSH1 0x1F DUP3 ADD AND DUP3 ADD DUP1 PUSH1 0x40 MSTORE POP DUP2 ADD SWAP1 PUSH2 0x10B1 SWAP2 SWAP1 PUSH2 0x3AC9 JUMP JUMPDEST POP PUSH1 0x40 MLOAD PUSH4 0x70A08231 PUSH1 0xE0 SHL DUP2 MSTORE PUSH1 0x0 SWAP1 PUSH1 0x1 PUSH1 0x1 PUSH1 0xA0 SHL SUB DUP4 AND SWAP1 PUSH4 0x70A08231 SWAP1 PUSH2 0x10E1 SWAP1 ADDRESS SWAP1 PUSH1 0x4 ADD PUSH2 0x3B90 JUMP JUMPDEST PUSH1 0x20 PUSH1 0x40 MLOAD DUP1 DUP4 SUB DUP2 DUP7 DUP1 EXTCODESIZE ISZERO DUP1 ISZERO PUSH2 0x10F9 JUMPI PUSH1 0x0 DUP1 REVERT JUMPDEST POP GAS STATICCALL ISZERO DUP1 ISZERO PUSH2 0x110D JUMPI RETURNDATASIZE PUSH1 0x0 DUP1 RETURNDATACOPY RETURNDATASIZE PUSH1 0x0 REVERT JUMPDEST POP POP POP POP PUSH1 0x40 MLOAD RETURNDATASIZE PUSH1 0x1F NOT PUSH1 0x1F DUP3 ADD AND DUP3 ADD DUP1 PUSH1 0x40 MSTORE POP DUP2 ADD SWAP1 PUSH2 0x1131 SWAP2 SWAP1 PUSH2 0x3AC9 JUMP JUMPDEST SWAP1 POP PUSH2 0x115D DUP3 PUSH32 0x0 PUSH2 0x269E JUMP JUMPDEST PUSH1 0x40 MLOAD PUSH4 0xD9778E5 PUSH1 0xE1 SHL DUP2 MSTORE PUSH1 0x0 SWAP1 PUSH1 0x1 PUSH1 0x1 PUSH1 0xA0 SHL SUB PUSH32 0x0 AND SWAP1 PUSH4 0x1B2EF1CA SWAP1 PUSH2 0x11AE SWAP1 DUP8 SWAP1 DUP7 SWAP1 PUSH1 0x4 ADD PUSH2 0x419E JUMP JUMPDEST PUSH1 0x20 PUSH1 0x40 MLOAD DUP1 DUP4 SUB DUP2 PUSH1 0x0 DUP8 DUP1 EXTCODESIZE ISZERO DUP1 ISZERO PUSH2 0x11C8 JUMPI PUSH1 0x0 DUP1 REVERT JUMPDEST POP GAS CALL ISZERO DUP1 ISZERO PUSH2 0x11DC JUMPI RETURNDATASIZE PUSH1 0x0 DUP1 RETURNDATACOPY RETURNDATASIZE PUSH1 0x0 REVERT JUMPDEST POP POP POP POP PUSH1 0x40 MLOAD RETURNDATASIZE PUSH1 0x1F NOT PUSH1 0x1F DUP3 ADD AND DUP3 ADD DUP1 PUSH1 0x40 MSTORE POP DUP2 ADD SWAP1 PUSH2 0x1200 SWAP2 SWAP1 PUSH2 0x3AC9 JUMP JUMPDEST PUSH1 0x40 MLOAD PUSH4 0x314568D9 PUSH1 0xE0 SHL DUP2 MSTORE SWAP1 SWAP2 POP PUSH1 0x1 PUSH1 0x1 PUSH1 0xA0 SHL SUB PUSH32 0x0 AND SWAP1 PUSH4 0x314568D9 SWAP1 PUSH2 0x1273 SWAP1 PUSH32 0x0 SWAP1 DUP6 SWAP1 DUP8 SWAP1 PUSH1 0x4 ADD PUSH2 0x3C60 JUMP JUMPDEST PUSH1 0x0 PUSH1 0x40 MLOAD DUP1 DUP4 SUB DUP2 PUSH1 0x0 DUP8 DUP1 EXTCODESIZE ISZERO DUP1 ISZERO PUSH2 0x128D JUMPI PUSH1 0x0 DUP1 REVERT JUMPDEST POP GAS CALL ISZERO DUP1 ISZERO PUSH2 0x12A1 JUMPI RETURNDATASIZE PUSH1 0x0 DUP1 RETURNDATACOPY RETURNDATASIZE PUSH1 0x0 REVERT JUMPDEST POP POP POP POP PUSH2 0x12CE PUSH32 0x0 PUSH2 0x2D3B JUMP JUMPDEST PUSH2 0x12F7 PUSH32 0x0 PUSH2 0x2D3B JUMP JUMPDEST POP POP POP POP POP POP JUMP JUMPDEST PUSH1 0x84 PUSH1 0x20 MSTORE PUSH1 0x0 SWAP1 DUP2 MSTORE PUSH1 0x40 SWAP1 KECCAK256 SLOAD PUSH1 0xFF AND DUP2 JUMP JUMPDEST PUSH32 0x0 DUP2 JUMP JUMPDEST PUSH1 0x85 PUSH1 0x20 SWAP1 DUP2 MSTORE PUSH1 0x0 SWAP3 DUP4 MSTORE PUSH1 0x40 DUP1 DUP5 KECCAK256 SWAP1 SWAP2 MSTORE SWAP1 DUP3 MSTORE SWAP1 KECCAK256 SLOAD PUSH1 0x1 PUSH1 0x1 PUSH1 0xA0 SHL SUB AND DUP2 JUMP JUMPDEST PUSH32 0x0 DUP2 JUMP JUMPDEST PUSH4 0xBC197C81 PUSH1 0xE0 SHL SWAP9 SWAP8 POP POP POP POP POP POP POP POP JUMP JUMPDEST PUSH32 0x0 DUP2 JUMP JUMPDEST PUSH1 0x0 PUSH2 0x13C6 DUP5 DUP5 PUSH2 0x476 JUMP JUMPDEST SWAP1 POP PUSH2 0x13D4 DUP5 DUP5 DUP5 DUP5 PUSH2 0x2715 JUMP JUMPDEST PUSH2 0x1459 DUP2 DUP3 PUSH1 0x1 PUSH1 0x1 PUSH1 0xA0 SHL SUB AND PUSH4 0x70A08231 ADDRESS PUSH1 0x40 MLOAD DUP3 PUSH4 0xFFFFFFFF AND PUSH1 0xE0 SHL DUP2 MSTORE PUSH1 0x4 ADD PUSH2 0x1404 SWAP2 SWAP1 PUSH2 0x3B90 JUMP JUMPDEST PUSH1 0x20 PUSH1 0x40 MLOAD DUP1 DUP4 SUB DUP2 DUP7 DUP1 EXTCODESIZE ISZERO DUP1 ISZERO PUSH2 0x141C JUMPI PUSH1 0x0 DUP1 REVERT JUMPDEST POP GAS STATICCALL ISZERO DUP1 ISZERO PUSH2 0x1430 JUMPI RETURNDATASIZE PUSH1 0x0 DUP1 RETURNDATACOPY RETURNDATASIZE PUSH1 0x0 REVERT JUMPDEST POP POP POP POP PUSH1 0x40 MLOAD RETURNDATASIZE PUSH1 0x1F NOT PUSH1 0x1F DUP3 ADD AND DUP3 ADD DUP1 PUSH1 0x40 MSTORE POP DUP2 ADD SWAP1 PUSH2 0x1454 SWAP2 SWAP1 PUSH2 0x3AC9 JUMP JUMPDEST PUSH2 0x2E67 JUMP JUMPDEST PUSH2 0x1462 DUP5 PUSH2 0x2D3B JUMP JUMPDEST PUSH2 0x470 DUP4 PUSH2 0x2D3B JUMP JUMPDEST PUSH32 0x0 DUP2 JUMP JUMPDEST PUSH1 0x0 PUSH2 0x149B DUP5 DUP5 PUSH2 0x476 JUMP JUMPDEST SWAP1 POP PUSH1 0x0 DUP1 PUSH32 0x0 PUSH1 0x1 PUSH1 0x1 PUSH1 0xA0 SHL SUB AND PUSH4 0xF70AEDD9 PUSH1 0x40 MLOAD DUP2 PUSH4 0xFFFFFFFF AND PUSH1 0xE0 SHL DUP2 MSTORE PUSH1 0x4 ADD PUSH1 0x80 PUSH1 0x40 MLOAD DUP1 DUP4 SUB DUP2 DUP7 DUP1 EXTCODESIZE ISZERO DUP1 ISZERO PUSH2 0x14F9 JUMPI PUSH1 0x0 DUP1 REVERT JUMPDEST POP GAS STATICCALL ISZERO DUP1 ISZERO PUSH2 0x150D JUMPI RETURNDATASIZE PUSH1 0x0 DUP1 RETURNDATACOPY RETURNDATASIZE PUSH1 0x0 REVERT JUMPDEST POP POP POP POP PUSH1 0x40 MLOAD RETURNDATASIZE PUSH1 0x1F NOT PUSH1 0x1F DUP3 ADD AND DUP3 ADD DUP1 PUSH1 0x40 MSTORE POP DUP2 ADD SWAP1 PUSH2 0x1531 SWAP2 SWAP1 PUSH2 0x3856 JUMP JUMPDEST POP SWAP3 POP SWAP3 POP POP DUP3 PUSH1 0x1 PUSH1 0x1 PUSH1 0xA0 SHL SUB AND DUP3 PUSH1 0x1 PUSH1 0x1 PUSH1 0xA0 SHL SUB AND PUSH4 0xA4775772 DUP4 PUSH1 0x40 MLOAD DUP3 PUSH4 0xFFFFFFFF AND PUSH1 0xE0 SHL DUP2 MSTORE PUSH1 0x4 ADD PUSH2 0x156D SWAP2 SWAP1 PUSH2 0x4142 JUMP JUMPDEST PUSH1 0x20 PUSH1 0x40 MLOAD DUP1 DUP4 SUB DUP2 DUP7 DUP1 EXTCODESIZE ISZERO DUP1 ISZERO PUSH2 0x1585 JUMPI PUSH1 0x0 DUP1 REVERT JUMPDEST POP GAS STATICCALL ISZERO DUP1 ISZERO PUSH2 0x1599 JUMPI RETURNDATASIZE PUSH1 0x0 DUP1 RETURNDATACOPY RETURNDATASIZE PUSH1 0x0 REVERT JUMPDEST POP POP POP POP PUSH1 0x40 MLOAD RETURNDATASIZE PUSH1 0x1F NOT PUSH1 0x1F DUP3 ADD AND DUP3 ADD DUP1 PUSH1 0x40 MSTORE POP DUP2 ADD SWAP1 PUSH2 0x15BD SWAP2 SWAP1 PUSH2 0x365C JUMP JUMPDEST PUSH1 0x1 PUSH1 0x1 PUSH1 0xA0 SHL SUB AND EQ PUSH2 0x15E3 JUMPI PUSH1 0x40 MLOAD PUSH3 0x461BCD PUSH1 0xE5 SHL DUP2 MSTORE PUSH1 0x4 ADD PUSH2 0x56B SWAP1 PUSH2 0x402D JUMP JUMPDEST PUSH32 0x0 PUSH1 0x1 PUSH1 0x1 PUSH1 0xA0 SHL SUB AND DUP3 PUSH1 0x1 PUSH1 0x1 PUSH1 0xA0 SHL SUB AND EQ PUSH2 0x1634 JUMPI PUSH1 0x40 MLOAD PUSH3 0x461BCD PUSH1 0xE5 SHL DUP2 MSTORE PUSH1 0x4 ADD PUSH2 0x56B SWAP1 PUSH2 0x405B JUMP JUMPDEST PUSH1 0x40 MLOAD PUSH4 0xD1D6975 PUSH1 0xE3 SHL DUP2 MSTORE PUSH1 0x1 PUSH1 0x1 PUSH1 0xA0 SHL SUB PUSH32 0x0 AND SWAP1 PUSH4 0x68EB4BA8 SWAP1 PUSH2 0x16A5 SWAP1 PUSH32 0x0 SWAP1 DUP6 SWAP1 DUP10 CALLDATALOAD SWAP1 PUSH1 0x4 ADD PUSH2 0x3C60 JUMP JUMPDEST PUSH1 0x0 PUSH1 0x40 MLOAD DUP1 DUP4 SUB DUP2 PUSH1 0x0 DUP8 DUP1 EXTCODESIZE ISZERO DUP1 ISZERO PUSH2 0x16BF JUMPI PUSH1 0x0 DUP1 REVERT JUMPDEST POP GAS CALL ISZERO DUP1 ISZERO PUSH2 0x16D3 JUMPI RETURNDATASIZE PUSH1 0x0 DUP1 RETURNDATACOPY RETURNDATASIZE PUSH1 0x0 REVERT JUMPDEST POP POP PUSH1 0x40 MLOAD PUSH4 0xB390C0AB PUSH1 0xE0 SHL DUP2 MSTORE PUSH1 0x1 PUSH1 0x1 PUSH1 0xA0 SHL SUB PUSH32 0x0 AND SWAP3 POP PUSH4 0xB390C0AB SWAP2 POP PUSH2 0x1726 SWAP1 DUP5 SWAP1 DUP9 CALLDATALOAD SWAP1 PUSH1 0x4 ADD PUSH2 0x419E JUMP JUMPDEST PUSH1 0x20 PUSH1 0x40 MLOAD DUP1 DUP4 SUB DUP2 PUSH1 0x0 DUP8 DUP1 EXTCODESIZE ISZERO DUP1 ISZERO PUSH2 0x1740 JUMPI PUSH1 0x0 DUP1 REVERT JUMPDEST POP GAS CALL ISZERO DUP1 ISZERO PUSH2 0x1754 JUMPI RETURNDATASIZE PUSH1 0x0 DUP1 RETURNDATACOPY RETURNDATASIZE PUSH1 0x0 REVERT JUMPDEST POP POP POP POP PUSH1 0x40 MLOAD RETURNDATASIZE PUSH1 0x1F NOT PUSH1 0x1F DUP3 ADD AND DUP3 ADD DUP1 PUSH1 0x40 MSTORE POP DUP2 ADD SWAP1 PUSH2 0x1778 SWAP2 SWAP1 PUSH2 0x3AC9 JUMP JUMPDEST POP PUSH2 0x1785 DUP7 DUP7 DUP7 DUP7 PUSH2 0x1E0B JUMP JUMPDEST PUSH2 0x12CE PUSH32 0x0 PUSH2 0x2D3B JUMP JUMPDEST PUSH1 0x43 SLOAD PUSH1 0x1 PUSH1 0x1 PUSH1 0xA0 SHL SUB AND DUP2 JUMP JUMPDEST PUSH1 0x43 SLOAD PUSH1 0x1 PUSH1 0x1 PUSH1 0xA0 SHL SUB AND CALLER EQ PUSH2 0x17E7 JUMPI PUSH1 0x40 MLOAD PUSH3 0x461BCD PUSH1 0xE5 SHL DUP2 MSTORE PUSH1 0x4 ADD PUSH2 0x56B SWAP1 PUSH2 0x3CD4 JUMP JUMPDEST PUSH1 0x43 DUP1 SLOAD PUSH1 0x1 PUSH1 0x1 PUSH1 0xA0 SHL SUB NOT AND SWAP1 SSTORE PUSH1 0x42 DUP1 SLOAD PUSH3 0x10000 PUSH1 0x1 PUSH1 0xB0 SHL SUB NOT AND CALLER PUSH3 0x10000 DUP2 MUL SWAP2 SWAP1 SWAP2 OR SWAP1 SWAP2 SSTORE PUSH1 0x40 MLOAD PUSH32 0xD345D81CE68C70B119A17EEE79DC1421700BD9CB21CA148A62DC90983964E82F SWAP2 PUSH2 0x1843 SWAP2 PUSH2 0x3B90 JUMP JUMPDEST PUSH1 0x40 MLOAD DUP1 SWAP2 SUB SWAP1 LOG1 JUMP JUMPDEST PUSH1 0x42 SLOAD PUSH3 0x10000 SWAP1 DIV PUSH1 0x1 PUSH1 0x1 PUSH1 0xA0 SHL SUB AND CALLER EQ PUSH2 0x187D JUMPI PUSH1 0x40 MLOAD PUSH3 0x461BCD PUSH1 0xE5 SHL DUP2 MSTORE PUSH1 0x4 ADD PUSH2 0x56B SWAP1 PUSH2 0x3E2D JUMP JUMPDEST DUP3 DUP2 EQ PUSH2 0x189C JUMPI PUSH1 0x40 MLOAD PUSH3 0x461BCD PUSH1 0xE5 SHL DUP2 MSTORE PUSH1 0x4 ADD PUSH2 0x56B SWAP1 PUSH2 0x3E57 JUMP JUMPDEST PUSH1 0x0 JUMPDEST DUP4 DUP2 LT ISZERO PUSH2 0x1A1B JUMPI DUP3 DUP3 DUP3 DUP2 DUP2 LT PUSH2 0x18B3 JUMPI INVALID JUMPDEST SWAP1 POP PUSH1 0x20 MUL ADD PUSH1 0x20 DUP2 ADD SWAP1 PUSH2 0x18C8 SWAP2 SWAP1 PUSH2 0x3A15 JUMP JUMPDEST ISZERO PUSH2 0x19A5 JUMPI PUSH32 0x0 PUSH1 0x1 PUSH1 0x1 PUSH1 0xA0 SHL SUB AND PUSH4 0xE660CC08 DUP7 DUP7 DUP5 DUP2 DUP2 LT PUSH2 0x1908 JUMPI INVALID JUMPDEST SWAP1 POP PUSH1 0x20 MUL ADD PUSH1 0x20 DUP2 ADD SWAP1 PUSH2 0x191D SWAP2 SWAP1 PUSH2 0x3640 JUMP JUMPDEST PUSH1 0x40 MLOAD DUP3 PUSH4 0xFFFFFFFF AND PUSH1 0xE0 SHL DUP2 MSTORE PUSH1 0x4 ADD PUSH2 0x1939 SWAP2 SWAP1 PUSH2 0x3B90 JUMP JUMPDEST PUSH1 0x20 PUSH1 0x40 MLOAD DUP1 DUP4 SUB DUP2 DUP7 DUP1 EXTCODESIZE ISZERO DUP1 ISZERO PUSH2 0x1951 JUMPI PUSH1 0x0 DUP1 REVERT JUMPDEST POP GAS STATICCALL ISZERO DUP1 ISZERO PUSH2 0x1965 JUMPI RETURNDATASIZE PUSH1 0x0 DUP1 RETURNDATACOPY RETURNDATASIZE PUSH1 0x0 REVERT JUMPDEST POP POP POP POP PUSH1 0x40 MLOAD RETURNDATASIZE PUSH1 0x1F NOT PUSH1 0x1F DUP3 ADD AND DUP3 ADD DUP1 PUSH1 0x40 MSTORE POP DUP2 ADD SWAP1 PUSH2 0x1989 SWAP2 SWAP1 PUSH2 0x3A31 JUMP JUMPDEST PUSH2 0x19A5 JUMPI PUSH1 0x40 MLOAD PUSH3 0x461BCD PUSH1 0xE5 SHL DUP2 MSTORE PUSH1 0x4 ADD PUSH2 0x56B SWAP1 PUSH2 0x3D42 JUMP JUMPDEST DUP3 DUP3 DUP3 DUP2 DUP2 LT PUSH2 0x19B1 JUMPI INVALID JUMPDEST SWAP1 POP PUSH1 0x20 MUL ADD PUSH1 0x20 DUP2 ADD SWAP1 PUSH2 0x19C6 SWAP2 SWAP1 PUSH2 0x3A15 JUMP JUMPDEST PUSH1 0x84 PUSH1 0x0 DUP8 DUP8 DUP6 DUP2 DUP2 LT PUSH2 0x19D6 JUMPI INVALID JUMPDEST SWAP1 POP PUSH1 0x20 MUL ADD PUSH1 0x20 DUP2 ADD SWAP1 PUSH2 0x19EB SWAP2 SWAP1 PUSH2 0x3640 JUMP JUMPDEST PUSH1 0x1 PUSH1 0x1 PUSH1 0xA0 SHL SUB AND DUP2 MSTORE PUSH1 0x20 DUP2 ADD SWAP2 SWAP1 SWAP2 MSTORE PUSH1 0x40 ADD PUSH1 0x0 KECCAK256 DUP1 SLOAD PUSH1 0xFF NOT AND SWAP2 ISZERO ISZERO SWAP2 SWAP1 SWAP2 OR SWAP1 SSTORE PUSH1 0x1 ADD PUSH2 0x189F JUMP JUMPDEST POP POP POP POP POP JUMP JUMPDEST PUSH1 0x42 SLOAD PUSH3 0x10000 SWAP1 DIV PUSH1 0x1 PUSH1 0x1 PUSH1 0xA0 SHL SUB AND CALLER EQ PUSH2 0x1A52 JUMPI PUSH1 0x40 MLOAD PUSH3 0x461BCD PUSH1 0xE5 SHL DUP2 MSTORE PUSH1 0x4 ADD PUSH2 0x56B SWAP1 PUSH2 0x3E2D JUMP JUMPDEST PUSH1 0x43 DUP1 SLOAD PUSH1 0x1 PUSH1 0x1 PUSH1 0xA0 SHL SUB NOT AND PUSH1 0x1 PUSH1 0x1 PUSH1 0xA0 SHL SUB DUP4 AND OR SWAP1 SSTORE PUSH1 0x40 MLOAD PUSH32 0x964DEA888B00B2AB53F13DFE7CA334B46E99338C222AE232D98547A1DA019F60 SWAP1 PUSH2 0x1A9D SWAP1 DUP4 SWAP1 PUSH2 0x3B90 JUMP JUMPDEST PUSH1 0x40 MLOAD DUP1 SWAP2 SUB SWAP1 LOG1 POP JUMP JUMPDEST PUSH4 0xF23A6E61 PUSH1 0xE0 SHL SWAP7 SWAP6 POP POP POP POP POP POP JUMP JUMPDEST PUSH1 0x41 PUSH1 0x20 SWAP1 DUP2 MSTORE PUSH1 0x0 SWAP3 DUP4 MSTORE PUSH1 0x40 DUP1 DUP5 KECCAK256 SWAP1 SWAP2 MSTORE SWAP1 DUP3 MSTORE SWAP1 KECCAK256 SLOAD PUSH1 0xFF AND DUP2 JUMP JUMPDEST PUSH32 0x0 DUP2 JUMP JUMPDEST PUSH32 0x0 DUP2 JUMP JUMPDEST DUP1 ISZERO DUP1 PUSH2 0x1BAA JUMPI POP PUSH1 0x40 MLOAD PUSH4 0x6EB1769F PUSH1 0xE1 SHL DUP2 MSTORE PUSH1 0x1 PUSH1 0x1 PUSH1 0xA0 SHL SUB DUP5 AND SWAP1 PUSH4 0xDD62ED3E SWAP1 PUSH2 0x1B58 SWAP1 ADDRESS SWAP1 DUP7 SWAP1 PUSH1 0x4 ADD PUSH2 0x3BA4 JUMP JUMPDEST PUSH1 0x20 PUSH1 0x40 MLOAD DUP1 DUP4 SUB DUP2 DUP7 DUP1 EXTCODESIZE ISZERO DUP1 ISZERO PUSH2 0x1B70 JUMPI PUSH1 0x0 DUP1 REVERT JUMPDEST POP GAS STATICCALL ISZERO DUP1 ISZERO PUSH2 0x1B84 JUMPI RETURNDATASIZE PUSH1 0x0 DUP1 RETURNDATACOPY RETURNDATASIZE PUSH1 0x0 REVERT JUMPDEST POP POP POP POP PUSH1 0x40 MLOAD RETURNDATASIZE PUSH1 0x1F NOT PUSH1 0x1F DUP3 ADD AND DUP3 ADD DUP1 PUSH1 0x40 MSTORE POP DUP2 ADD SWAP1 PUSH2 0x1BA8 SWAP2 SWAP1 PUSH2 0x3AC9 JUMP JUMPDEST ISZERO JUMPDEST PUSH2 0x1BC6 JUMPI PUSH1 0x40 MLOAD PUSH3 0x461BCD PUSH1 0xE5 SHL DUP2 MSTORE PUSH1 0x4 ADD PUSH2 0x56B SWAP1 PUSH2 0x40EC JUMP JUMPDEST PUSH2 0x1C1C DUP4 PUSH4 0x95EA7B3 PUSH1 0xE0 SHL DUP5 DUP5 PUSH1 0x40 MLOAD PUSH1 0x24 ADD PUSH2 0x1BE5 SWAP3 SWAP2 SWAP1 PUSH2 0x3C47 JUMP JUMPDEST PUSH1 0x40 DUP1 MLOAD PUSH1 0x1F NOT DUP2 DUP5 SUB ADD DUP2 MSTORE SWAP2 SWAP1 MSTORE PUSH1 0x20 DUP2 ADD DUP1 MLOAD PUSH1 0x1 PUSH1 0x1 PUSH1 0xE0 SHL SUB AND PUSH1 0x1 PUSH1 0x1 PUSH1 0xE0 SHL SUB NOT SWAP1 SWAP4 AND SWAP3 SWAP1 SWAP3 OR SWAP1 SWAP2 MSTORE PUSH2 0x2F89 JUMP JUMPDEST POP POP POP JUMP JUMPDEST EXTCODESIZE ISZERO ISZERO SWAP1 JUMP JUMPDEST PUSH1 0x60 PUSH2 0x1C36 DUP5 DUP5 PUSH1 0x0 DUP6 PUSH2 0x3018 JUMP JUMPDEST SWAP1 POP JUMPDEST SWAP4 SWAP3 POP POP POP JUMP JUMPDEST DUP1 ISZERO PUSH2 0x1E07 JUMPI PUSH1 0x0 NOT DUP2 EQ ISZERO PUSH2 0x1CE7 JUMPI PUSH32 0x0 PUSH1 0x1 PUSH1 0x1 PUSH1 0xA0 SHL SUB AND PUSH4 0xF70AEDD9 PUSH1 0x40 MLOAD DUP2 PUSH4 0xFFFFFFFF AND PUSH1 0xE0 SHL DUP2 MSTORE PUSH1 0x4 ADD PUSH1 0x80 PUSH1 0x40 MLOAD DUP1 DUP4 SUB DUP2 DUP7 DUP1 EXTCODESIZE ISZERO DUP1 ISZERO PUSH2 0x1CA9 JUMPI PUSH1 0x0 DUP1 REVERT JUMPDEST POP GAS STATICCALL ISZERO DUP1 ISZERO PUSH2 0x1CBD JUMPI RETURNDATASIZE PUSH1 0x0 DUP1 RETURNDATACOPY RETURNDATASIZE PUSH1 0x0 REVERT JUMPDEST POP POP POP POP PUSH1 0x40 MLOAD RETURNDATASIZE PUSH1 0x1F NOT PUSH1 0x1F DUP3 ADD AND DUP3 ADD DUP1 PUSH1 0x40 MSTORE POP DUP2 ADD SWAP1 PUSH2 0x1CE1 SWAP2 SWAP1 PUSH2 0x3856 JUMP JUMPDEST SWAP4 POP POP POP POP JUMPDEST PUSH1 0x40 MLOAD PUSH4 0xD1D6975 PUSH1 0xE3 SHL DUP2 MSTORE PUSH1 0x1 PUSH1 0x1 PUSH1 0xA0 SHL SUB PUSH32 0x0 DUP2 AND SWAP2 PUSH4 0x68EB4BA8 SWAP2 PUSH2 0x1D59 SWAP2 PUSH32 0x0 SWAP2 DUP8 AND SWAP1 DUP7 SWAP1 PUSH1 0x4 ADD PUSH2 0x3C60 JUMP JUMPDEST PUSH1 0x0 PUSH1 0x40 MLOAD DUP1 DUP4 SUB DUP2 PUSH1 0x0 DUP8 DUP1 EXTCODESIZE ISZERO DUP1 ISZERO PUSH2 0x1D73 JUMPI PUSH1 0x0 DUP1 REVERT JUMPDEST POP GAS CALL ISZERO DUP1 ISZERO PUSH2 0x1D87 JUMPI RETURNDATASIZE PUSH1 0x0 DUP1 RETURNDATACOPY RETURNDATASIZE PUSH1 0x0 REVERT JUMPDEST POP POP PUSH1 0x40 MLOAD PUSH4 0x2770A7EB PUSH1 0xE2 SHL DUP2 MSTORE PUSH1 0x1 PUSH1 0x1 PUSH1 0xA0 SHL SUB PUSH32 0x0 AND SWAP3 POP PUSH4 0x9DC29FAC SWAP2 POP PUSH2 0x1DD9 SWAP1 DUP6 SWAP1 DUP6 SWAP1 PUSH1 0x4 ADD PUSH2 0x3C47 JUMP JUMPDEST PUSH1 0x0 PUSH1 0x40 MLOAD DUP1 DUP4 SUB DUP2 PUSH1 0x0 DUP8 DUP1 EXTCODESIZE ISZERO DUP1 ISZERO PUSH2 0x1DF3 JUMPI PUSH1 0x0 DUP1 REVERT JUMPDEST POP GAS CALL ISZERO DUP1 ISZERO PUSH2 0x12F7 JUMPI RETURNDATASIZE PUSH1 0x0 DUP1 RETURNDATACOPY RETURNDATASIZE PUSH1 0x0 REVERT JUMPDEST POP POP JUMP JUMPDEST PUSH1 0x1 PUSH1 0x1 PUSH1 0xA0 SHL SUB DUP2 AND PUSH1 0x0 SWAP1 DUP2 MSTORE PUSH1 0x84 PUSH1 0x20 MSTORE PUSH1 0x40 SWAP1 KECCAK256 SLOAD PUSH1 0xFF AND PUSH2 0x1E43 JUMPI PUSH1 0x40 MLOAD PUSH3 0x461BCD PUSH1 0xE5 SHL DUP2 MSTORE PUSH1 0x4 ADD PUSH2 0x56B SWAP1 PUSH2 0x3EED JUMP JUMPDEST PUSH1 0x0 PUSH32 0x0 PUSH1 0x1 PUSH1 0x1 PUSH1 0xA0 SHL SUB AND PUSH4 0xD7AC71FF PUSH1 0x40 MLOAD DUP2 PUSH4 0xFFFFFFFF AND PUSH1 0xE0 SHL DUP2 MSTORE PUSH1 0x4 ADD PUSH1 0x20 PUSH1 0x40 MLOAD DUP1 DUP4 SUB DUP2 DUP7 DUP1 EXTCODESIZE ISZERO DUP1 ISZERO PUSH2 0x1E9E JUMPI PUSH1 0x0 DUP1 REVERT JUMPDEST POP GAS STATICCALL ISZERO DUP1 ISZERO PUSH2 0x1EB2 JUMPI RETURNDATASIZE PUSH1 0x0 DUP1 RETURNDATACOPY RETURNDATASIZE PUSH1 0x0 REVERT JUMPDEST POP POP POP POP PUSH1 0x40 MLOAD RETURNDATASIZE PUSH1 0x1F NOT PUSH1 0x1F DUP3 ADD AND DUP3 ADD DUP1 PUSH1 0x40 MSTORE POP DUP2 ADD SWAP1 PUSH2 0x1ED6 SWAP2 SWAP1 PUSH2 0x3AC9 JUMP JUMPDEST SWAP1 POP PUSH1 0x40 DUP4 ADD CALLDATALOAD PUSH1 0x60 DUP5 ADD CALLDATALOAD PUSH1 0x80 DUP6 ADD CALLDATALOAD PUSH1 0x0 NOT DUP4 EQ ISZERO PUSH2 0x1F94 JUMPI PUSH1 0x40 MLOAD PUSH4 0x20A8BEE7 PUSH1 0xE2 SHL DUP2 MSTORE PUSH1 0x1 PUSH1 0x1 PUSH1 0xA0 SHL SUB PUSH32 0x0 AND SWAP1 PUSH4 0x82A2FB9C SWAP1 PUSH2 0x1F3F SWAP1 DUP8 SWAP1 DUP13 SWAP1 PUSH1 0x4 ADD PUSH2 0x414B JUMP JUMPDEST PUSH1 0x20 PUSH1 0x40 MLOAD DUP1 DUP4 SUB DUP2 PUSH1 0x0 DUP8 DUP1 EXTCODESIZE ISZERO DUP1 ISZERO PUSH2 0x1F59 JUMPI PUSH1 0x0 DUP1 REVERT JUMPDEST POP GAS CALL ISZERO DUP1 ISZERO PUSH2 0x1F6D JUMPI RETURNDATASIZE PUSH1 0x0 DUP1 RETURNDATACOPY RETURNDATASIZE PUSH1 0x0 REVERT JUMPDEST POP POP POP POP PUSH1 0x40 MLOAD RETURNDATASIZE PUSH1 0x1F NOT PUSH1 0x1F DUP3 ADD AND DUP3 ADD DUP1 PUSH1 0x40 MSTORE POP DUP2 ADD SWAP1 PUSH2 0x1F91 SWAP2 SWAP1 PUSH2 0x3AC9 JUMP JUMPDEST SWAP3 POP JUMPDEST PUSH1 0x0 NOT DUP3 EQ ISZERO PUSH2 0x2041 JUMPI PUSH1 0x40 MLOAD PUSH4 0x20A8BEE7 PUSH1 0xE2 SHL DUP2 MSTORE PUSH1 0x1 PUSH1 0x1 PUSH1 0xA0 SHL SUB PUSH32 0x0 AND SWAP1 PUSH4 0x82A2FB9C SWAP1 PUSH2 0x1FEC SWAP1 DUP8 SWAP1 DUP12 SWAP1 PUSH1 0x4 ADD PUSH2 0x414B JUMP JUMPDEST PUSH1 0x20 PUSH1 0x40 MLOAD DUP1 DUP4 SUB DUP2 PUSH1 0x0 DUP8 DUP1 EXTCODESIZE ISZERO DUP1 ISZERO PUSH2 0x2006 JUMPI PUSH1 0x0 DUP1 REVERT JUMPDEST POP GAS CALL ISZERO DUP1 ISZERO PUSH2 0x201A JUMPI RETURNDATASIZE PUSH1 0x0 DUP1 RETURNDATACOPY RETURNDATASIZE PUSH1 0x0 REVERT JUMPDEST POP POP POP POP PUSH1 0x40 MLOAD RETURNDATASIZE PUSH1 0x1F NOT PUSH1 0x1F DUP3 ADD AND DUP3 ADD DUP1 PUSH1 0x40 MSTORE POP DUP2 ADD SWAP1 PUSH2 0x203E SWAP2 SWAP1 PUSH2 0x3AC9 JUMP JUMPDEST SWAP2 POP JUMPDEST PUSH1 0x0 NOT DUP2 EQ ISZERO PUSH2 0x20EE JUMPI PUSH1 0x40 MLOAD PUSH4 0x20A8BEE7 PUSH1 0xE2 SHL DUP2 MSTORE PUSH1 0x1 PUSH1 0x1 PUSH1 0xA0 SHL SUB PUSH32 0x0 AND SWAP1 PUSH4 0x82A2FB9C SWAP1 PUSH2 0x2099 SWAP1 DUP8 SWAP1 DUP10 SWAP1 PUSH1 0x4 ADD PUSH2 0x414B JUMP JUMPDEST PUSH1 0x20 PUSH1 0x40 MLOAD DUP1 DUP4 SUB DUP2 PUSH1 0x0 DUP8 DUP1 EXTCODESIZE ISZERO DUP1 ISZERO PUSH2 0x20B3 JUMPI PUSH1 0x0 DUP1 REVERT JUMPDEST POP GAS CALL ISZERO DUP1 ISZERO PUSH2 0x20C7 JUMPI RETURNDATASIZE PUSH1 0x0 DUP1 RETURNDATACOPY RETURNDATASIZE PUSH1 0x0 REVERT JUMPDEST POP POP POP POP PUSH1 0x40 MLOAD RETURNDATASIZE PUSH1 0x1F NOT PUSH1 0x1F DUP3 ADD AND DUP3 ADD DUP1 PUSH1 0x40 MSTORE POP DUP2 ADD SWAP1 PUSH2 0x20EB SWAP2 SWAP1 PUSH2 0x3AC9 JUMP JUMPDEST SWAP1 POP JUMPDEST PUSH1 0x0 PUSH2 0x217A DUP8 PUSH1 0x20 ADD CALLDATALOAD DUP8 PUSH1 0x1 PUSH1 0x1 PUSH1 0xA0 SHL SUB AND PUSH4 0x70A08231 ADDRESS PUSH1 0x40 MLOAD DUP3 PUSH4 0xFFFFFFFF AND PUSH1 0xE0 SHL DUP2 MSTORE PUSH1 0x4 ADD PUSH2 0x2124 SWAP2 SWAP1 PUSH2 0x3B90 JUMP JUMPDEST PUSH1 0x20 PUSH1 0x40 MLOAD DUP1 DUP4 SUB DUP2 DUP7 DUP1 EXTCODESIZE ISZERO DUP1 ISZERO PUSH2 0x213C JUMPI PUSH1 0x0 DUP1 REVERT JUMPDEST POP GAS STATICCALL ISZERO DUP1 ISZERO PUSH2 0x2150 JUMPI RETURNDATASIZE PUSH1 0x0 DUP1 RETURNDATACOPY RETURNDATASIZE PUSH1 0x0 REVERT JUMPDEST POP POP POP POP PUSH1 0x40 MLOAD RETURNDATASIZE PUSH1 0x1F NOT PUSH1 0x1F DUP3 ADD AND DUP3 ADD DUP1 PUSH1 0x40 MSTORE POP DUP2 ADD SWAP1 PUSH2 0x2174 SWAP2 SWAP1 PUSH2 0x3AC9 JUMP JUMPDEST SWAP1 PUSH2 0x30D9 JUMP JUMPDEST SWAP1 POP PUSH1 0x0 DUP1 DUP3 ISZERO PUSH2 0x2235 JUMPI PUSH1 0x40 MLOAD PUSH4 0x5D5155EF PUSH1 0xE1 SHL DUP2 MSTORE PUSH1 0x1 PUSH1 0x1 PUSH1 0xA0 SHL SUB PUSH32 0x0 AND SWAP1 PUSH4 0xBAA2ABDE SWAP1 PUSH2 0x21DE SWAP1 DUP15 SWAP1 DUP15 SWAP1 DUP9 SWAP1 PUSH1 0x0 SWAP1 DUP2 SWAP1 ADDRESS SWAP1 TIMESTAMP SWAP1 PUSH1 0x4 ADD PUSH2 0x3BBE JUMP JUMPDEST PUSH1 0x40 DUP1 MLOAD DUP1 DUP4 SUB DUP2 PUSH1 0x0 DUP8 DUP1 EXTCODESIZE ISZERO DUP1 ISZERO PUSH2 0x21F7 JUMPI PUSH1 0x0 DUP1 REVERT JUMPDEST POP GAS CALL ISZERO DUP1 ISZERO PUSH2 0x220B JUMPI RETURNDATASIZE PUSH1 0x0 DUP1 RETURNDATACOPY RETURNDATASIZE PUSH1 0x0 REVERT JUMPDEST POP POP POP POP PUSH1 0x40 MLOAD RETURNDATASIZE PUSH1 0x1F NOT PUSH1 0x1F DUP3 ADD AND DUP3 ADD DUP1 PUSH1 0x40 MSTORE POP DUP2 ADD SWAP1 PUSH2 0x222F SWAP2 SWAP1 PUSH2 0x3AE1 JUMP JUMPDEST SWAP1 SWAP3 POP SWAP1 POP JUMPDEST PUSH1 0x0 PUSH2 0x2245 DUP8 PUSH1 0xA0 DUP13 ADD CALLDATALOAD PUSH2 0x3101 JUMP JUMPDEST SWAP1 POP PUSH1 0x0 PUSH2 0x2257 DUP8 PUSH1 0xC0 DUP14 ADD CALLDATALOAD PUSH2 0x3101 JUMP JUMPDEST SWAP1 POP DUP2 DUP5 LT DUP1 ISZERO PUSH2 0x2267 JUMPI POP DUP1 DUP4 GT JUMPDEST ISZERO PUSH2 0x2386 JUMPI PUSH1 0x40 DUP1 MLOAD PUSH1 0x2 DUP1 DUP3 MSTORE PUSH1 0x60 DUP1 DUP4 ADD DUP5 MSTORE SWAP3 PUSH1 0x20 DUP4 ADD SWAP1 DUP1 CALLDATASIZE DUP4 CALLDATACOPY ADD SWAP1 POP POP SWAP1 POP DUP13 DUP15 DUP3 PUSH1 0x0 DUP2 MLOAD DUP2 LT PUSH2 0x229B JUMPI INVALID JUMPDEST PUSH1 0x20 MUL PUSH1 0x20 ADD ADD DUP4 PUSH1 0x1 DUP2 MLOAD DUP2 LT PUSH2 0x22AF JUMPI INVALID JUMPDEST PUSH1 0x1 PUSH1 0x1 PUSH1 0xA0 SHL SUB SWAP4 DUP5 AND PUSH1 0x20 SWAP2 DUP3 MUL SWAP3 SWAP1 SWAP3 ADD ADD MSTORE SWAP2 DUP2 AND SWAP1 SWAP2 MSTORE PUSH32 0x0 AND PUSH4 0x8803DBEE PUSH2 0x22FC DUP6 DUP9 PUSH2 0x30D9 JUMP JUMPDEST PUSH2 0x2306 DUP8 DUP7 PUSH2 0x30D9 JUMP JUMPDEST DUP5 ADDRESS TIMESTAMP PUSH1 0x40 MLOAD DUP7 PUSH4 0xFFFFFFFF AND PUSH1 0xE0 SHL DUP2 MSTORE PUSH1 0x4 ADD PUSH2 0x2329 SWAP6 SWAP5 SWAP4 SWAP3 SWAP2 SWAP1 PUSH2 0x4162 JUMP JUMPDEST PUSH1 0x0 PUSH1 0x40 MLOAD DUP1 DUP4 SUB DUP2 PUSH1 0x0 DUP8 DUP1 EXTCODESIZE ISZERO DUP1 ISZERO PUSH2 0x2343 JUMPI PUSH1 0x0 DUP1 REVERT JUMPDEST POP GAS CALL ISZERO DUP1 ISZERO PUSH2 0x2357 JUMPI RETURNDATASIZE PUSH1 0x0 DUP1 RETURNDATACOPY RETURNDATASIZE PUSH1 0x0 REVERT JUMPDEST POP POP POP POP PUSH1 0x40 MLOAD RETURNDATASIZE PUSH1 0x0 DUP3 RETURNDATACOPY PUSH1 0x1F RETURNDATASIZE SWAP1 DUP2 ADD PUSH1 0x1F NOT AND DUP3 ADD PUSH1 0x40 MSTORE PUSH2 0x237F SWAP2 SWAP1 DUP2 ADD SWAP1 PUSH2 0x3980 JUMP JUMPDEST POP POP PUSH2 0x24AF JUMP JUMPDEST DUP2 DUP5 GT DUP1 ISZERO PUSH2 0x2394 JUMPI POP DUP1 DUP4 LT JUMPDEST ISZERO PUSH2 0x24AF JUMPI PUSH1 0x40 DUP1 MLOAD PUSH1 0x2 DUP1 DUP3 MSTORE PUSH1 0x60 DUP1 DUP4 ADD DUP5 MSTORE SWAP3 PUSH1 0x20 DUP4 ADD SWAP1 DUP1 CALLDATASIZE DUP4 CALLDATACOPY ADD SWAP1 POP POP SWAP1 POP DUP14 DUP14 DUP3 PUSH1 0x0 DUP2 MLOAD DUP2 LT PUSH2 0x23C8 JUMPI INVALID JUMPDEST PUSH1 0x20 MUL PUSH1 0x20 ADD ADD DUP4 PUSH1 0x1 DUP2 MLOAD DUP2 LT PUSH2 0x23DC JUMPI INVALID JUMPDEST PUSH1 0x1 PUSH1 0x1 PUSH1 0xA0 SHL SUB SWAP4 DUP5 AND PUSH1 0x20 SWAP2 DUP3 MUL SWAP3 SWAP1 SWAP3 ADD ADD MSTORE SWAP2 DUP2 AND SWAP1 SWAP2 MSTORE PUSH32 0x0 AND PUSH4 0x8803DBEE PUSH2 0x2429 DUP5 DUP8 PUSH2 0x30D9 JUMP JUMPDEST PUSH2 0x2433 DUP9 DUP8 PUSH2 0x30D9 JUMP JUMPDEST DUP5 ADDRESS TIMESTAMP PUSH1 0x40 MLOAD DUP7 PUSH4 0xFFFFFFFF AND PUSH1 0xE0 SHL DUP2 MSTORE PUSH1 0x4 ADD PUSH2 0x2456 SWAP6 SWAP5 SWAP4 SWAP3 SWAP2 SWAP1 PUSH2 0x4162 JUMP JUMPDEST PUSH1 0x0 PUSH1 0x40 MLOAD DUP1 DUP4 SUB DUP2 PUSH1 0x0 DUP8 DUP1 EXTCODESIZE ISZERO DUP1 ISZERO PUSH2 0x2470 JUMPI PUSH1 0x0 DUP1 REVERT JUMPDEST POP GAS CALL ISZERO DUP1 ISZERO PUSH2 0x2484 JUMPI RETURNDATASIZE PUSH1 0x0 DUP1 RETURNDATACOPY RETURNDATASIZE PUSH1 0x0 REVERT JUMPDEST POP POP POP POP PUSH1 0x40 MLOAD RETURNDATASIZE PUSH1 0x0 DUP3 RETURNDATACOPY PUSH1 0x1F RETURNDATASIZE SWAP1 DUP2 ADD PUSH1 0x1F NOT AND DUP3 ADD PUSH1 0x40 MSTORE PUSH2 0x24AC SWAP2 SWAP1 DUP2 ADD SWAP1 PUSH2 0x3980 JUMP JUMPDEST POP POP JUMPDEST PUSH2 0x24B9 DUP14 DUP10 PUSH2 0x3126 JUMP JUMPDEST PUSH2 0x24C3 DUP13 DUP9 PUSH2 0x3126 JUMP JUMPDEST PUSH2 0x24CD DUP11 DUP8 PUSH2 0x3126 JUMP JUMPDEST PUSH1 0x40 MLOAD PUSH4 0x70A08231 PUSH1 0xE0 SHL DUP2 MSTORE PUSH1 0xA0 DUP13 ADD CALLDATALOAD SWAP1 PUSH1 0x1 PUSH1 0x1 PUSH1 0xA0 SHL SUB DUP16 AND SWAP1 PUSH4 0x70A08231 SWAP1 PUSH2 0x24FF SWAP1 ADDRESS SWAP1 PUSH1 0x4 ADD PUSH2 0x3B90 JUMP JUMPDEST PUSH1 0x20 PUSH1 0x40 MLOAD DUP1 DUP4 SUB DUP2 DUP7 DUP1 EXTCODESIZE ISZERO DUP1 ISZERO PUSH2 0x2517 JUMPI PUSH1 0x0 DUP1 REVERT JUMPDEST POP GAS STATICCALL ISZERO DUP1 ISZERO PUSH2 0x252B JUMPI RETURNDATASIZE PUSH1 0x0 DUP1 RETURNDATACOPY RETURNDATASIZE PUSH1 0x0 REVERT JUMPDEST POP POP POP POP PUSH1 0x40 MLOAD RETURNDATASIZE PUSH1 0x1F NOT PUSH1 0x1F DUP3 ADD AND DUP3 ADD DUP1 PUSH1 0x40 MSTORE POP DUP2 ADD SWAP1 PUSH2 0x254F SWAP2 SWAP1 PUSH2 0x3AC9 JUMP JUMPDEST LT ISZERO PUSH2 0x255A JUMPI PUSH1 0x0 DUP1 REVERT JUMPDEST PUSH1 0x40 MLOAD PUSH4 0x70A08231 PUSH1 0xE0 SHL DUP2 MSTORE PUSH1 0xC0 DUP13 ADD CALLDATALOAD SWAP1 PUSH1 0x1 PUSH1 0x1 PUSH1 0xA0 SHL SUB DUP15 AND SWAP1 PUSH4 0x70A08231 SWAP1 PUSH2 0x258C SWAP1 ADDRESS SWAP1 PUSH1 0x4 ADD PUSH2 0x3B90 JUMP JUMPDEST PUSH1 0x20 PUSH1 0x40 MLOAD DUP1 DUP4 SUB DUP2 DUP7 DUP1 EXTCODESIZE ISZERO DUP1 ISZERO PUSH2 0x25A4 JUMPI PUSH1 0x0 DUP1 REVERT JUMPDEST POP GAS STATICCALL ISZERO DUP1 ISZERO PUSH2 0x25B8 JUMPI RETURNDATASIZE PUSH1 0x0 DUP1 RETURNDATACOPY RETURNDATASIZE PUSH1 0x0 REVERT JUMPDEST POP POP POP POP PUSH1 0x40 MLOAD RETURNDATASIZE PUSH1 0x1F NOT PUSH1 0x1F DUP3 ADD AND DUP3 ADD DUP1 PUSH1 0x40 MSTORE POP DUP2 ADD SWAP1 PUSH2 0x25DC SWAP2 SWAP1 PUSH2 0x3AC9 JUMP JUMPDEST LT ISZERO PUSH2 0x25E7 JUMPI PUSH1 0x0 DUP1 REVERT JUMPDEST PUSH1 0x40 MLOAD PUSH4 0x70A08231 PUSH1 0xE0 SHL DUP2 MSTORE PUSH1 0x20 DUP13 ADD CALLDATALOAD SWAP1 PUSH1 0x1 PUSH1 0x1 PUSH1 0xA0 SHL SUB DUP13 AND SWAP1 PUSH4 0x70A08231 SWAP1 PUSH2 0x2619 SWAP1 ADDRESS SWAP1 PUSH1 0x4 ADD PUSH2 0x3B90 JUMP JUMPDEST PUSH1 0x20 PUSH1 0x40 MLOAD DUP1 DUP4 SUB DUP2 DUP7 DUP1 EXTCODESIZE ISZERO DUP1 ISZERO PUSH2 0x2631 JUMPI PUSH1 0x0 DUP1 REVERT JUMPDEST POP GAS STATICCALL ISZERO DUP1 ISZERO PUSH2 0x2645 JUMPI RETURNDATASIZE PUSH1 0x0 DUP1 RETURNDATACOPY RETURNDATASIZE PUSH1 0x0 REVERT JUMPDEST POP POP POP POP PUSH1 0x40 MLOAD RETURNDATASIZE PUSH1 0x1F NOT PUSH1 0x1F DUP3 ADD AND DUP3 ADD DUP1 PUSH1 0x40 MSTORE POP DUP2 ADD SWAP1 PUSH2 0x2669 SWAP2 SWAP1 PUSH2 0x3AC9 JUMP JUMPDEST LT ISZERO PUSH2 0x2674 JUMPI PUSH1 0x0 DUP1 REVERT JUMPDEST PUSH2 0x267D DUP14 PUSH2 0x2D3B JUMP JUMPDEST PUSH2 0x2686 DUP13 PUSH2 0x2D3B JUMP JUMPDEST PUSH2 0x268F DUP11 PUSH2 0x2D3B JUMP JUMPDEST POP POP POP POP POP POP POP POP POP POP POP POP POP JUMP JUMPDEST PUSH1 0x1 PUSH1 0x1 PUSH1 0xA0 SHL SUB DUP1 DUP4 AND PUSH1 0x0 SWAP1 DUP2 MSTORE PUSH1 0x41 PUSH1 0x20 SWAP1 DUP2 MSTORE PUSH1 0x40 DUP1 DUP4 KECCAK256 SWAP4 DUP6 AND DUP4 MSTORE SWAP3 SWAP1 MSTORE KECCAK256 SLOAD PUSH1 0xFF AND PUSH2 0x1E07 JUMPI PUSH2 0x26E1 PUSH1 0x1 PUSH1 0x1 PUSH1 0xA0 SHL SUB DUP4 AND DUP3 PUSH1 0x0 NOT PUSH2 0x1B22 JUMP JUMPDEST PUSH1 0x1 PUSH1 0x1 PUSH1 0xA0 SHL SUB DUP1 DUP4 AND PUSH1 0x0 SWAP1 DUP2 MSTORE PUSH1 0x41 PUSH1 0x20 SWAP1 DUP2 MSTORE PUSH1 0x40 DUP1 DUP4 KECCAK256 SWAP4 DUP6 AND DUP4 MSTORE SWAP3 SWAP1 MSTORE KECCAK256 DUP1 SLOAD PUSH1 0xFF NOT AND PUSH1 0x1 OR SWAP1 SSTORE POP POP JUMP JUMPDEST PUSH1 0x1 PUSH1 0x1 PUSH1 0xA0 SHL SUB DUP2 AND PUSH1 0x0 SWAP1 DUP2 MSTORE PUSH1 0x84 PUSH1 0x20 MSTORE PUSH1 0x40 SWAP1 KECCAK256 SLOAD PUSH1 0xFF AND PUSH2 0x274D JUMPI PUSH1 0x40 MLOAD PUSH3 0x461BCD PUSH1 0xE5 SHL DUP2 MSTORE PUSH1 0x4 ADD PUSH2 0x56B SWAP1 PUSH2 0x3EED JUMP JUMPDEST PUSH2 0x2758 DUP5 DUP4 CALLDATALOAD PUSH2 0x31A4 JUMP JUMPDEST PUSH2 0x2766 DUP4 DUP4 PUSH1 0x20 ADD CALLDATALOAD PUSH2 0x31A4 JUMP JUMPDEST PUSH2 0x2774 DUP2 DUP4 PUSH1 0x40 ADD CALLDATALOAD PUSH2 0x31A4 JUMP JUMPDEST PUSH2 0x2782 DUP5 DUP4 PUSH1 0x60 ADD CALLDATALOAD PUSH2 0x31F8 JUMP JUMPDEST PUSH2 0x2790 DUP4 DUP4 PUSH1 0x80 ADD CALLDATALOAD PUSH2 0x31F8 JUMP JUMPDEST PUSH2 0x279E DUP2 DUP4 PUSH1 0xA0 ADD CALLDATALOAD PUSH2 0x31F8 JUMP JUMPDEST PUSH1 0x0 DUP1 PUSH1 0x0 DUP7 PUSH1 0x1 PUSH1 0x1 PUSH1 0xA0 SHL SUB AND PUSH4 0x70A08231 ADDRESS PUSH1 0x40 MLOAD DUP3 PUSH4 0xFFFFFFFF AND PUSH1 0xE0 SHL DUP2 MSTORE PUSH1 0x4 ADD PUSH2 0x27CF SWAP2 SWAP1 PUSH2 0x3B90 JUMP JUMPDEST PUSH1 0x20 PUSH1 0x40 MLOAD DUP1 DUP4 SUB DUP2 DUP7 DUP1 EXTCODESIZE ISZERO DUP1 ISZERO PUSH2 0x27E7 JUMPI PUSH1 0x0 DUP1 REVERT JUMPDEST POP GAS STATICCALL ISZERO DUP1 ISZERO PUSH2 0x27FB JUMPI RETURNDATASIZE PUSH1 0x0 DUP1 RETURNDATACOPY RETURNDATASIZE PUSH1 0x0 REVERT JUMPDEST POP POP POP POP PUSH1 0x40 MLOAD RETURNDATASIZE PUSH1 0x1F NOT PUSH1 0x1F DUP3 ADD AND DUP3 ADD DUP1 PUSH1 0x40 MSTORE POP DUP2 ADD SWAP1 PUSH2 0x281F SWAP2 SWAP1 PUSH2 0x3AC9 JUMP JUMPDEST SWAP1 POP PUSH1 0x0 DUP7 PUSH1 0x1 PUSH1 0x1 PUSH1 0xA0 SHL SUB AND PUSH4 0x70A08231 ADDRESS PUSH1 0x40 MLOAD DUP3 PUSH4 0xFFFFFFFF AND PUSH1 0xE0 SHL DUP2 MSTORE PUSH1 0x4 ADD PUSH2 0x284F SWAP2 SWAP1 PUSH2 0x3B90 JUMP JUMPDEST PUSH1 0x20 PUSH1 0x40 MLOAD DUP1 DUP4 SUB DUP2 DUP7 DUP1 EXTCODESIZE ISZERO DUP1 ISZERO PUSH2 0x2867 JUMPI PUSH1 0x0 DUP1 REVERT JUMPDEST POP GAS STATICCALL ISZERO DUP1 ISZERO PUSH2 0x287B JUMPI RETURNDATASIZE PUSH1 0x0 DUP1 RETURNDATACOPY RETURNDATASIZE PUSH1 0x0 REVERT JUMPDEST POP POP POP POP PUSH1 0x40 MLOAD RETURNDATASIZE PUSH1 0x1F NOT PUSH1 0x1F DUP3 ADD AND DUP3 ADD DUP1 PUSH1 0x40 MSTORE POP DUP2 ADD SWAP1 PUSH2 0x289F SWAP2 SWAP1 PUSH2 0x3AC9 JUMP JUMPDEST SWAP1 POP PUSH1 0x0 DUP1 DUP10 PUSH1 0x1 PUSH1 0x1 PUSH1 0xA0 SHL SUB AND DUP8 PUSH1 0x1 PUSH1 0x1 PUSH1 0xA0 SHL SUB AND PUSH4 0xDFE1681 PUSH1 0x40 MLOAD DUP2 PUSH4 0xFFFFFFFF AND PUSH1 0xE0 SHL DUP2 MSTORE PUSH1 0x4 ADD PUSH1 0x20 PUSH1 0x40 MLOAD DUP1 DUP4 SUB DUP2 DUP7 DUP1 EXTCODESIZE ISZERO DUP1 ISZERO PUSH2 0x28E7 JUMPI PUSH1 0x0 DUP1 REVERT JUMPDEST POP GAS STATICCALL ISZERO DUP1 ISZERO PUSH2 0x28FB JUMPI RETURNDATASIZE PUSH1 0x0 DUP1 RETURNDATACOPY RETURNDATASIZE PUSH1 0x0 REVERT JUMPDEST POP POP POP POP PUSH1 0x40 MLOAD RETURNDATASIZE PUSH1 0x1F NOT PUSH1 0x1F DUP3 ADD AND DUP3 ADD DUP1 PUSH1 0x40 MSTORE POP DUP2 ADD SWAP1 PUSH2 0x291F SWAP2 SWAP1 PUSH2 0x365C JUMP JUMPDEST PUSH1 0x1 PUSH1 0x1 PUSH1 0xA0 SHL SUB AND EQ ISZERO PUSH2 0x29B5 JUMPI DUP7 PUSH1 0x1 PUSH1 0x1 PUSH1 0xA0 SHL SUB AND PUSH4 0x902F1AC PUSH1 0x40 MLOAD DUP2 PUSH4 0xFFFFFFFF AND PUSH1 0xE0 SHL DUP2 MSTORE PUSH1 0x4 ADD PUSH1 0x60 PUSH1 0x40 MLOAD DUP1 DUP4 SUB DUP2 DUP7 DUP1 EXTCODESIZE ISZERO DUP1 ISZERO PUSH2 0x2967 JUMPI PUSH1 0x0 DUP1 REVERT JUMPDEST POP GAS STATICCALL ISZERO DUP1 ISZERO PUSH2 0x297B JUMPI RETURNDATASIZE PUSH1 0x0 DUP1 RETURNDATACOPY RETURNDATASIZE PUSH1 0x0 REVERT JUMPDEST POP POP POP POP PUSH1 0x40 MLOAD RETURNDATASIZE PUSH1 0x1F NOT PUSH1 0x1F DUP3 ADD AND DUP3 ADD DUP1 PUSH1 0x40 MSTORE POP DUP2 ADD SWAP1 PUSH2 0x299F SWAP2 SWAP1 PUSH2 0x3A75 JUMP JUMPDEST POP PUSH1 0x1 PUSH1 0x1 PUSH1 0x70 SHL SUB SWAP2 DUP3 AND SWAP4 POP AND SWAP1 POP PUSH2 0x2A38 JUMP JUMPDEST DUP7 PUSH1 0x1 PUSH1 0x1 PUSH1 0xA0 SHL SUB AND PUSH4 0x902F1AC PUSH1 0x40 MLOAD DUP2 PUSH4 0xFFFFFFFF AND PUSH1 0xE0 SHL DUP2 MSTORE PUSH1 0x4 ADD PUSH1 0x60 PUSH1 0x40 MLOAD DUP1 DUP4 SUB DUP2 DUP7 DUP1 EXTCODESIZE ISZERO DUP1 ISZERO PUSH2 0x29EE JUMPI PUSH1 0x0 DUP1 REVERT JUMPDEST POP GAS STATICCALL ISZERO DUP1 ISZERO PUSH2 0x2A02 JUMPI RETURNDATASIZE PUSH1 0x0 DUP1 RETURNDATACOPY RETURNDATASIZE PUSH1 0x0 REVERT JUMPDEST POP POP POP POP PUSH1 0x40 MLOAD RETURNDATASIZE PUSH1 0x1F NOT PUSH1 0x1F DUP3 ADD AND DUP3 ADD DUP1 PUSH1 0x40 MSTORE POP DUP2 ADD SWAP1 PUSH2 0x2A26 SWAP2 SWAP1 PUSH2 0x3A75 JUMP JUMPDEST POP PUSH1 0x1 PUSH1 0x1 PUSH1 0x70 SHL SUB SWAP1 DUP2 AND SWAP4 POP AND SWAP1 POP JUMPDEST PUSH2 0x2A44 DUP5 DUP5 DUP5 DUP5 PUSH2 0x324C JUMP JUMPDEST SWAP1 SWAP7 POP SWAP5 POP POP DUP5 ISZERO SWAP3 POP PUSH2 0x2B69 SWAP2 POP POP JUMPI PUSH1 0x40 DUP1 MLOAD PUSH1 0x2 DUP1 DUP3 MSTORE PUSH1 0x60 DUP1 DUP4 ADD DUP5 MSTORE SWAP3 PUSH1 0x20 DUP4 ADD SWAP1 DUP1 CALLDATASIZE DUP4 CALLDATACOPY ADD SWAP1 POP POP SWAP1 POP DUP2 PUSH2 0x2A81 JUMPI DUP7 DUP7 PUSH2 0x2A84 JUMP JUMPDEST DUP6 DUP8 JUMPDEST DUP3 PUSH1 0x0 DUP2 MLOAD DUP2 LT PUSH2 0x2A91 JUMPI INVALID JUMPDEST PUSH1 0x20 MUL PUSH1 0x20 ADD ADD DUP4 PUSH1 0x1 DUP2 MLOAD DUP2 LT PUSH2 0x2AA5 JUMPI INVALID JUMPDEST PUSH1 0x1 PUSH1 0x1 PUSH1 0xA0 SHL SUB SWAP4 DUP5 AND PUSH1 0x20 SWAP2 DUP3 MUL SWAP3 SWAP1 SWAP3 ADD ADD MSTORE SWAP2 DUP2 AND SWAP1 SWAP2 MSTORE PUSH1 0x40 MLOAD PUSH4 0x38ED1739 PUSH1 0xE0 SHL DUP2 MSTORE PUSH32 0x0 SWAP1 SWAP2 AND SWAP1 PUSH4 0x38ED1739 SWAP1 PUSH2 0x2B10 SWAP1 DUP7 SWAP1 PUSH1 0x0 SWAP1 DUP7 SWAP1 ADDRESS SWAP1 TIMESTAMP SWAP1 PUSH1 0x4 ADD PUSH2 0x4162 JUMP JUMPDEST PUSH1 0x0 PUSH1 0x40 MLOAD DUP1 DUP4 SUB DUP2 PUSH1 0x0 DUP8 DUP1 EXTCODESIZE ISZERO DUP1 ISZERO PUSH2 0x2B2A JUMPI PUSH1 0x0 DUP1 REVERT JUMPDEST POP GAS CALL ISZERO DUP1 ISZERO PUSH2 0x2B3E JUMPI RETURNDATASIZE PUSH1 0x0 DUP1 RETURNDATACOPY RETURNDATASIZE PUSH1 0x0 REVERT JUMPDEST POP POP POP POP PUSH1 0x40 MLOAD RETURNDATASIZE PUSH1 0x0 DUP3 RETURNDATACOPY PUSH1 0x1F RETURNDATASIZE SWAP1 DUP2 ADD PUSH1 0x1F NOT AND DUP3 ADD PUSH1 0x40 MSTORE PUSH2 0x2B66 SWAP2 SWAP1 DUP2 ADD SWAP1 PUSH2 0x3980 JUMP JUMPDEST POP POP JUMPDEST PUSH1 0x40 MLOAD PUSH4 0x70A08231 PUSH1 0xE0 SHL DUP2 MSTORE PUSH1 0x0 SWAP1 PUSH1 0x1 PUSH1 0x1 PUSH1 0xA0 SHL SUB DUP9 AND SWAP1 PUSH4 0x70A08231 SWAP1 PUSH2 0x2B98 SWAP1 ADDRESS SWAP1 PUSH1 0x4 ADD PUSH2 0x3B90 JUMP JUMPDEST PUSH1 0x20 PUSH1 0x40 MLOAD DUP1 DUP4 SUB DUP2 DUP7 DUP1 EXTCODESIZE ISZERO DUP1 ISZERO PUSH2 0x2BB0 JUMPI PUSH1 0x0 DUP1 REVERT JUMPDEST POP GAS STATICCALL ISZERO DUP1 ISZERO PUSH2 0x2BC4 JUMPI RETURNDATASIZE PUSH1 0x0 DUP1 RETURNDATACOPY RETURNDATASIZE PUSH1 0x0 REVERT JUMPDEST POP POP POP POP PUSH1 0x40 MLOAD RETURNDATASIZE PUSH1 0x1F NOT PUSH1 0x1F DUP3 ADD AND DUP3 ADD DUP1 PUSH1 0x40 MSTORE POP DUP2 ADD SWAP1 PUSH2 0x2BE8 SWAP2 SWAP1 PUSH2 0x3AC9 JUMP JUMPDEST SWAP1 POP PUSH1 0x0 DUP7 PUSH1 0x1 PUSH1 0x1 PUSH1 0xA0 SHL SUB AND PUSH4 0x70A08231 ADDRESS PUSH1 0x40 MLOAD DUP3 PUSH4 0xFFFFFFFF AND PUSH1 0xE0 SHL DUP2 MSTORE PUSH1 0x4 ADD PUSH2 0x2C18 SWAP2 SWAP1 PUSH2 0x3B90 JUMP JUMPDEST PUSH1 0x20 PUSH1 0x40 MLOAD DUP1 DUP4 SUB DUP2 DUP7 DUP1 EXTCODESIZE ISZERO DUP1 ISZERO PUSH2 0x2C30 JUMPI PUSH1 0x0 DUP1 REVERT JUMPDEST POP GAS STATICCALL ISZERO DUP1 ISZERO PUSH2 0x2C44 JUMPI RETURNDATASIZE PUSH1 0x0 DUP1 RETURNDATACOPY RETURNDATASIZE PUSH1 0x0 REVERT JUMPDEST POP POP POP POP PUSH1 0x40 MLOAD RETURNDATASIZE PUSH1 0x1F NOT PUSH1 0x1F DUP3 ADD AND DUP3 ADD DUP1 PUSH1 0x40 MSTORE POP DUP2 ADD SWAP1 PUSH2 0x2C68 SWAP2 SWAP1 PUSH2 0x3AC9 JUMP JUMPDEST SWAP1 POP PUSH1 0x0 DUP3 GT DUP1 PUSH2 0x2C79 JUMPI POP PUSH1 0x0 DUP2 GT JUMPDEST ISZERO PUSH2 0x2D31 JUMPI PUSH1 0x40 MLOAD PUSH3 0xE8E337 PUSH1 0xE8 SHL DUP2 MSTORE PUSH1 0x1 PUSH1 0x1 PUSH1 0xA0 SHL SUB PUSH32 0x0 AND SWAP1 PUSH4 0xE8E33700 SWAP1 PUSH2 0x2CDF SWAP1 DUP12 SWAP1 DUP12 SWAP1 DUP8 SWAP1 DUP8 SWAP1 PUSH1 0xC0 DUP15 ADD CALLDATALOAD SWAP1 PUSH1 0xE0 DUP16 ADD CALLDATALOAD SWAP1 ADDRESS SWAP1 TIMESTAMP SWAP1 PUSH1 0x4 ADD PUSH2 0x3BFE JUMP JUMPDEST PUSH1 0x60 PUSH1 0x40 MLOAD DUP1 DUP4 SUB DUP2 PUSH1 0x0 DUP8 DUP1 EXTCODESIZE ISZERO DUP1 ISZERO PUSH2 0x2CF9 JUMPI PUSH1 0x0 DUP1 REVERT JUMPDEST POP GAS CALL ISZERO DUP1 ISZERO PUSH2 0x2D0D JUMPI RETURNDATASIZE PUSH1 0x0 DUP1 RETURNDATACOPY RETURNDATASIZE PUSH1 0x0 REVERT JUMPDEST POP POP POP POP PUSH1 0x40 MLOAD RETURNDATASIZE PUSH1 0x1F NOT PUSH1 0x1F DUP3 ADD AND DUP3 ADD DUP1 PUSH1 0x40 MSTORE POP DUP2 ADD SWAP1 PUSH2 0xCFA SWAP2 SWAP1 PUSH2 0x3B04 JUMP JUMPDEST POP POP POP POP POP POP POP POP JUMP JUMPDEST PUSH1 0x40 MLOAD PUSH4 0x70A08231 PUSH1 0xE0 SHL DUP2 MSTORE PUSH1 0x0 SWAP1 PUSH1 0x1 PUSH1 0x1 PUSH1 0xA0 SHL SUB DUP4 AND SWAP1 PUSH4 0x70A08231 SWAP1 PUSH2 0x2D6A SWAP1 ADDRESS SWAP1 PUSH1 0x4 ADD PUSH2 0x3B90 JUMP JUMPDEST PUSH1 0x20 PUSH1 0x40 MLOAD DUP1 DUP4 SUB DUP2 DUP7 DUP1 EXTCODESIZE ISZERO DUP1 ISZERO PUSH2 0x2D82 JUMPI PUSH1 0x0 DUP1 REVERT JUMPDEST POP GAS STATICCALL ISZERO DUP1 ISZERO PUSH2 0x2D96 JUMPI RETURNDATASIZE PUSH1 0x0 DUP1 RETURNDATACOPY RETURNDATASIZE PUSH1 0x0 REVERT JUMPDEST POP POP POP POP PUSH1 0x40 MLOAD RETURNDATASIZE PUSH1 0x1F NOT PUSH1 0x1F DUP3 ADD AND DUP3 ADD DUP1 PUSH1 0x40 MSTORE POP DUP2 ADD SWAP1 PUSH2 0x2DBA SWAP2 SWAP1 PUSH2 0x3AC9 JUMP JUMPDEST SWAP1 POP DUP1 ISZERO PUSH2 0x1E07 JUMPI PUSH2 0x1E07 PUSH32 0x0 PUSH1 0x1 PUSH1 0x1 PUSH1 0xA0 SHL SUB AND PUSH4 0x630DC7CB PUSH1 0x40 MLOAD DUP2 PUSH4 0xFFFFFFFF AND PUSH1 0xE0 SHL DUP2 MSTORE PUSH1 0x4 ADD PUSH1 0x20 PUSH1 0x40 MLOAD DUP1 DUP4 SUB DUP2 DUP7 DUP1 EXTCODESIZE ISZERO DUP1 ISZERO PUSH2 0x2E1E JUMPI PUSH1 0x0 DUP1 REVERT JUMPDEST POP GAS STATICCALL ISZERO DUP1 ISZERO PUSH2 0x2E32 JUMPI RETURNDATASIZE PUSH1 0x0 DUP1 RETURNDATACOPY RETURNDATASIZE PUSH1 0x0 REVERT JUMPDEST POP POP POP POP PUSH1 0x40 MLOAD RETURNDATASIZE PUSH1 0x1F NOT PUSH1 0x1F DUP3 ADD AND DUP3 ADD DUP1 PUSH1 0x40 MSTORE POP DUP2 ADD SWAP1 PUSH2 0x2E56 SWAP2 SWAP1 PUSH2 0x365C JUMP JUMPDEST PUSH1 0x1 PUSH1 0x1 PUSH1 0xA0 SHL SUB DUP5 AND SWAP1 DUP4 PUSH2 0x329B JUMP JUMPDEST DUP1 ISZERO PUSH2 0x1E07 JUMPI PUSH2 0x2E97 DUP3 PUSH32 0x0 PUSH2 0x269E JUMP JUMPDEST PUSH1 0x40 MLOAD PUSH4 0x40C10F19 PUSH1 0xE0 SHL DUP2 MSTORE PUSH1 0x1 PUSH1 0x1 PUSH1 0xA0 SHL SUB PUSH32 0x0 AND SWAP1 PUSH4 0x40C10F19 SWAP1 PUSH2 0x2EE5 SWAP1 DUP6 SWAP1 DUP6 SWAP1 PUSH1 0x4 ADD PUSH2 0x3C47 JUMP JUMPDEST PUSH1 0x0 PUSH1 0x40 MLOAD DUP1 DUP4 SUB DUP2 PUSH1 0x0 DUP8 DUP1 EXTCODESIZE ISZERO DUP1 ISZERO PUSH2 0x2EFF JUMPI PUSH1 0x0 DUP1 REVERT JUMPDEST POP GAS CALL ISZERO DUP1 ISZERO PUSH2 0x2F13 JUMPI RETURNDATASIZE PUSH1 0x0 DUP1 RETURNDATACOPY RETURNDATASIZE PUSH1 0x0 REVERT JUMPDEST POP POP PUSH1 0x40 MLOAD PUSH4 0x314568D9 PUSH1 0xE0 SHL DUP2 MSTORE PUSH1 0x1 PUSH1 0x1 PUSH1 0xA0 SHL SUB PUSH32 0x0 DUP2 AND SWAP4 POP PUSH4 0x314568D9 SWAP3 POP PUSH2 0x1DD9 SWAP2 PUSH32 0x0 SWAP2 DUP8 AND SWAP1 DUP7 SWAP1 PUSH1 0x4 ADD PUSH2 0x3C60 JUMP JUMPDEST PUSH1 0x60 PUSH2 0x2FDE DUP3 PUSH1 0x40 MLOAD DUP1 PUSH1 0x40 ADD PUSH1 0x40 MSTORE DUP1 PUSH1 0x20 DUP2 MSTORE PUSH1 0x20 ADD PUSH32 0x5361666545524332303A206C6F772D6C6576656C2063616C6C206661696C6564 DUP2 MSTORE POP DUP6 PUSH1 0x1 PUSH1 0x1 PUSH1 0xA0 SHL SUB AND PUSH2 0x1C27 SWAP1 SWAP3 SWAP2 SWAP1 PUSH4 0xFFFFFFFF AND JUMP JUMPDEST DUP1 MLOAD SWAP1 SWAP2 POP ISZERO PUSH2 0x1C1C JUMPI DUP1 DUP1 PUSH1 0x20 ADD SWAP1 MLOAD DUP2 ADD SWAP1 PUSH2 0x2FFC SWAP2 SWAP1 PUSH2 0x3A31 JUMP JUMPDEST PUSH2 0x1C1C JUMPI PUSH1 0x40 MLOAD PUSH3 0x461BCD PUSH1 0xE5 SHL DUP2 MSTORE PUSH1 0x4 ADD PUSH2 0x56B SWAP1 PUSH2 0x40A2 JUMP JUMPDEST PUSH1 0x60 DUP3 SELFBALANCE LT ISZERO PUSH2 0x303A JUMPI PUSH1 0x40 MLOAD PUSH3 0x461BCD PUSH1 0xE5 SHL DUP2 MSTORE PUSH1 0x4 ADD PUSH2 0x56B SWAP1 PUSH2 0x3DB0 JUMP JUMPDEST PUSH2 0x3043 DUP6 PUSH2 0x1C21 JUMP JUMPDEST PUSH2 0x305F JUMPI PUSH1 0x40 MLOAD PUSH3 0x461BCD PUSH1 0xE5 SHL DUP2 MSTORE PUSH1 0x4 ADD PUSH2 0x56B SWAP1 PUSH2 0x3FF6 JUMP JUMPDEST PUSH1 0x0 PUSH1 0x60 DUP7 PUSH1 0x1 PUSH1 0x1 PUSH1 0xA0 SHL SUB AND DUP6 DUP8 PUSH1 0x40 MLOAD PUSH2 0x307C SWAP2 SWAP1 PUSH2 0x3B74 JUMP JUMPDEST PUSH1 0x0 PUSH1 0x40 MLOAD DUP1 DUP4 SUB DUP2 DUP6 DUP8 GAS CALL SWAP3 POP POP POP RETURNDATASIZE DUP1 PUSH1 0x0 DUP2 EQ PUSH2 0x30B9 JUMPI PUSH1 0x40 MLOAD SWAP2 POP PUSH1 0x1F NOT PUSH1 0x3F RETURNDATASIZE ADD AND DUP3 ADD PUSH1 0x40 MSTORE RETURNDATASIZE DUP3 MSTORE RETURNDATASIZE PUSH1 0x0 PUSH1 0x20 DUP5 ADD RETURNDATACOPY PUSH2 0x30BE JUMP JUMPDEST PUSH1 0x60 SWAP2 POP JUMPDEST POP SWAP2 POP SWAP2 POP PUSH2 0x30CE DUP3 DUP3 DUP7 PUSH2 0x32BA JUMP JUMPDEST SWAP8 SWAP7 POP POP POP POP POP POP POP JUMP JUMPDEST PUSH1 0x0 DUP3 DUP3 GT ISZERO PUSH2 0x30FB JUMPI PUSH1 0x40 MLOAD PUSH3 0x461BCD PUSH1 0xE5 SHL DUP2 MSTORE PUSH1 0x4 ADD PUSH2 0x56B SWAP1 PUSH2 0x3D79 JUMP JUMPDEST POP SWAP1 SUB SWAP1 JUMP JUMPDEST PUSH1 0x0 DUP3 DUP3 ADD DUP4 DUP2 LT ISZERO PUSH2 0x646 JUMPI PUSH1 0x40 MLOAD PUSH3 0x461BCD PUSH1 0xE5 SHL DUP2 MSTORE PUSH1 0x4 ADD PUSH2 0x56B SWAP1 PUSH2 0x3D0B JUMP JUMPDEST DUP1 ISZERO PUSH2 0x1E07 JUMPI PUSH2 0x3156 DUP3 PUSH32 0x0 PUSH2 0x269E JUMP JUMPDEST PUSH1 0x40 MLOAD PUSH4 0x450CFAF PUSH1 0xE3 SHL DUP2 MSTORE PUSH1 0x1 PUSH1 0x1 PUSH1 0xA0 SHL SUB PUSH32 0x0 AND SWAP1 PUSH4 0x22867D78 SWAP1 PUSH2 0x1DD9 SWAP1 DUP6 SWAP1 DUP6 SWAP1 PUSH1 0x4 ADD PUSH2 0x3C47 JUMP JUMPDEST DUP1 ISZERO PUSH2 0x1E07 JUMPI PUSH1 0x40 MLOAD PUSH4 0x246B5DE1 PUSH1 0xE1 SHL DUP2 MSTORE PUSH1 0x1 PUSH1 0x1 PUSH1 0xA0 SHL SUB PUSH32 0x0 AND SWAP1 PUSH4 0x48D6BBC2 SWAP1 PUSH2 0x1DD9 SWAP1 DUP6 SWAP1 DUP6 SWAP1 PUSH1 0x4 ADD PUSH2 0x3C47 JUMP JUMPDEST DUP1 ISZERO PUSH2 0x1E07 JUMPI PUSH1 0x40 MLOAD PUSH4 0x4B8A3529 PUSH1 0xE0 SHL DUP2 MSTORE PUSH1 0x1 PUSH1 0x1 PUSH1 0xA0 SHL SUB PUSH32 0x0 AND SWAP1 PUSH4 0x4B8A3529 SWAP1 PUSH2 0x1DD9 SWAP1 DUP6 SWAP1 DUP6 SWAP1 PUSH1 0x4 ADD PUSH2 0x3C47 JUMP JUMPDEST PUSH1 0x0 DUP1 PUSH2 0x3259 DUP6 DUP6 PUSH2 0x32F3 JUMP JUMPDEST PUSH2 0x3263 DUP8 DUP6 PUSH2 0x32F3 JUMP JUMPDEST LT PUSH2 0x327F JUMPI PUSH2 0x3274 DUP7 DUP7 DUP7 DUP7 PUSH2 0x332D JUMP JUMPDEST SWAP2 POP PUSH1 0x0 SWAP1 POP PUSH2 0x3292 JUMP JUMPDEST PUSH2 0x328B DUP6 DUP8 DUP6 DUP8 PUSH2 0x332D JUMP JUMPDEST SWAP2 POP PUSH1 0x1 SWAP1 POP JUMPDEST SWAP5 POP SWAP5 SWAP3 POP POP POP JUMP JUMPDEST PUSH2 0x1C1C DUP4 PUSH4 0xA9059CBB PUSH1 0xE0 SHL DUP5 DUP5 PUSH1 0x40 MLOAD PUSH1 0x24 ADD PUSH2 0x1BE5 SWAP3 SWAP2 SWAP1 PUSH2 0x3C47 JUMP JUMPDEST PUSH1 0x60 DUP4 ISZERO PUSH2 0x32C9 JUMPI POP DUP2 PUSH2 0x1C39 JUMP JUMPDEST DUP3 MLOAD ISZERO PUSH2 0x32D9 JUMPI DUP3 MLOAD DUP1 DUP5 PUSH1 0x20 ADD REVERT JUMPDEST DUP2 PUSH1 0x40 MLOAD PUSH3 0x461BCD PUSH1 0xE5 SHL DUP2 MSTORE PUSH1 0x4 ADD PUSH2 0x56B SWAP2 SWAP1 PUSH2 0x3CA1 JUMP JUMPDEST PUSH1 0x0 DUP3 PUSH2 0x3302 JUMPI POP PUSH1 0x0 PUSH2 0x649 JUMP JUMPDEST DUP3 DUP3 MUL DUP3 DUP5 DUP3 DUP2 PUSH2 0x330F JUMPI INVALID JUMPDEST DIV EQ PUSH2 0x646 JUMPI PUSH1 0x40 MLOAD PUSH3 0x461BCD PUSH1 0xE5 SHL DUP2 MSTORE PUSH1 0x4 ADD PUSH2 0x56B SWAP1 PUSH2 0x3F24 JUMP JUMPDEST PUSH1 0x0 PUSH2 0x3339 DUP5 DUP5 PUSH2 0x32F3 JUMP JUMPDEST PUSH2 0x3343 DUP7 DUP5 PUSH2 0x32F3 JUMP JUMPDEST LT ISZERO PUSH2 0x3361 JUMPI PUSH1 0x40 MLOAD PUSH3 0x461BCD PUSH1 0xE5 SHL DUP2 MSTORE PUSH1 0x4 ADD PUSH2 0x56B SWAP1 PUSH2 0x3F65 JUMP JUMPDEST PUSH2 0x3E5 PUSH1 0x0 PUSH2 0x3372 PUSH2 0x7CD DUP7 PUSH2 0x32F3 JUMP JUMPDEST SWAP1 POP PUSH1 0x0 PUSH2 0x338D PUSH2 0x3383 DUP9 DUP9 PUSH2 0x32F3 JUMP JUMPDEST PUSH2 0x2174 DUP11 DUP9 PUSH2 0x32F3 JUMP JUMPDEST SWAP1 POP PUSH1 0x0 PUSH2 0x33BA DUP8 PUSH2 0x33B4 PUSH2 0x33A2 DUP12 DUP11 PUSH2 0x3101 JUMP JUMPDEST PUSH2 0x33AE DUP7 PUSH2 0x3E8 PUSH2 0x32F3 JUMP JUMPDEST SWAP1 PUSH2 0x3427 JUMP JUMPDEST SWAP1 PUSH2 0x32F3 JUMP JUMPDEST SWAP1 POP PUSH1 0x0 PUSH2 0x33CD PUSH1 0x4 PUSH2 0x33B4 DUP8 DUP6 PUSH2 0x32F3 JUMP JUMPDEST SWAP1 POP PUSH1 0x0 PUSH2 0x33ED PUSH2 0x33E8 DUP4 PUSH2 0x33E2 DUP9 DUP1 PUSH2 0x32F3 JUMP JUMPDEST SWAP1 PUSH2 0x3101 JUMP JUMPDEST PUSH2 0x3459 JUMP JUMPDEST SWAP1 POP PUSH1 0x0 PUSH2 0x33FB DUP3 DUP8 PUSH2 0x30D9 JUMP JUMPDEST SWAP1 POP PUSH1 0x0 PUSH2 0x340A DUP9 PUSH1 0x2 PUSH2 0x32F3 JUMP JUMPDEST SWAP1 POP PUSH2 0x3416 DUP3 DUP3 PUSH2 0x3427 JUMP JUMPDEST SWAP14 SWAP13 POP POP POP POP POP POP POP POP POP POP POP POP POP JUMP JUMPDEST PUSH1 0x0 DUP1 DUP3 GT PUSH2 0x3448 JUMPI PUSH1 0x40 MLOAD PUSH3 0x461BCD PUSH1 0xE5 SHL DUP2 MSTORE PUSH1 0x4 ADD PUSH2 0x56B SWAP1 PUSH2 0x3DF6 JUMP JUMPDEST DUP2 DUP4 DUP2 PUSH2 0x3451 JUMPI INVALID JUMPDEST DIV SWAP4 SWAP3 POP POP POP JUMP JUMPDEST PUSH1 0x0 DUP2 PUSH2 0x3468 JUMPI POP PUSH1 0x0 PUSH2 0x40D JUMP JUMPDEST DUP2 PUSH1 0x1 PUSH1 0x1 PUSH1 0x80 SHL DUP3 LT PUSH2 0x3481 JUMPI PUSH1 0x80 SWAP2 SWAP1 SWAP2 SHR SWAP1 PUSH1 0x40 SHL JUMPDEST PUSH9 0x10000000000000000 DUP3 LT PUSH2 0x349C JUMPI PUSH1 0x40 SWAP2 SWAP1 SWAP2 SHR SWAP1 PUSH1 0x20 SHL JUMPDEST PUSH5 0x100000000 DUP3 LT PUSH2 0x34B3 JUMPI PUSH1 0x20 SWAP2 SWAP1 SWAP2 SHR SWAP1 PUSH1 0x10 SHL JUMPDEST PUSH3 0x10000 DUP3 LT PUSH2 0x34C8 JUMPI PUSH1 0x10 SWAP2 SWAP1 SWAP2 SHR SWAP1 PUSH1 0x8 SHL JUMPDEST PUSH2 0x100 DUP3 LT PUSH2 0x34DC JUMPI PUSH1 0x8 SWAP2 SWAP1 SWAP2 SHR SWAP1 PUSH1 0x4 SHL JUMPDEST PUSH1 0x10 DUP3 LT PUSH2 0x34EF JUMPI PUSH1 0x4 SWAP2 SWAP1 SWAP2 SHR SWAP1 PUSH1 0x2 SHL JUMPDEST PUSH1 0x8 DUP3 LT PUSH2 0x34FB JUMPI PUSH1 0x1 SHL JUMPDEST PUSH1 0x1 DUP2 DUP6 DUP2 PUSH2 0x3506 JUMPI INVALID JUMPDEST DIV DUP3 ADD SWAP1 SHR SWAP1 POP PUSH1 0x1 DUP2 DUP6 DUP2 PUSH2 0x3518 JUMPI INVALID JUMPDEST DIV DUP3 ADD SWAP1 SHR SWAP1 POP PUSH1 0x1 DUP2 DUP6 DUP2 PUSH2 0x352A JUMPI INVALID JUMPDEST DIV DUP3 ADD SWAP1 SHR SWAP1 POP PUSH1 0x1 DUP2 DUP6 DUP2 PUSH2 0x353C JUMPI INVALID JUMPDEST DIV DUP3 ADD SWAP1 SHR SWAP1 POP PUSH1 0x1 DUP2 DUP6 DUP2 PUSH2 0x354E JUMPI INVALID JUMPDEST DIV DUP3 ADD SWAP1 SHR SWAP1 POP PUSH1 0x1 DUP2 DUP6 DUP2 PUSH2 0x3560 JUMPI INVALID JUMPDEST DIV DUP3 ADD SWAP1 SHR SWAP1 POP PUSH1 0x1 DUP2 DUP6 DUP2 PUSH2 0x3572 JUMPI INVALID JUMPDEST DIV DUP3 ADD SWAP1 SHR SWAP1 POP PUSH1 0x0 DUP2 DUP6 DUP2 PUSH2 0x3584 JUMPI INVALID JUMPDEST DIV SWAP1 POP DUP1 DUP3 LT PUSH2 0x3594 JUMPI DUP1 PUSH2 0x3596 JUMP JUMPDEST DUP2 JUMPDEST SWAP6 SWAP5 POP POP POP POP POP JUMP JUMPDEST PUSH1 0x0 DUP1 DUP4 PUSH1 0x1F DUP5 ADD SLT PUSH2 0x35B0 JUMPI DUP2 DUP3 REVERT JUMPDEST POP DUP2 CALLDATALOAD PUSH8 0xFFFFFFFFFFFFFFFF DUP2 GT ISZERO PUSH2 0x35C7 JUMPI DUP2 DUP3 REVERT JUMPDEST PUSH1 0x20 DUP4 ADD SWAP2 POP DUP4 PUSH1 0x20 DUP1 DUP4 MUL DUP6 ADD ADD GT ISZERO PUSH2 0x35E1 JUMPI PUSH1 0x0 DUP1 REVERT JUMPDEST SWAP3 POP SWAP3 SWAP1 POP JUMP JUMPDEST PUSH1 0x0 DUP1 DUP4 PUSH1 0x1F DUP5 ADD SLT PUSH2 0x35F9 JUMPI DUP2 DUP3 REVERT JUMPDEST POP DUP2 CALLDATALOAD PUSH8 0xFFFFFFFFFFFFFFFF DUP2 GT ISZERO PUSH2 0x3610 JUMPI DUP2 DUP3 REVERT JUMPDEST PUSH1 0x20 DUP4 ADD SWAP2 POP DUP4 PUSH1 0x20 DUP3 DUP6 ADD ADD GT ISZERO PUSH2 0x35E1 JUMPI PUSH1 0x0 DUP1 REVERT JUMPDEST PUSH1 0x0 PUSH2 0x100 DUP3 DUP5 SUB SLT ISZERO PUSH2 0x363A JUMPI DUP1 DUP2 REVERT JUMPDEST POP SWAP2 SWAP1 POP JUMP JUMPDEST PUSH1 0x0 PUSH1 0x20 DUP3 DUP5 SUB SLT ISZERO PUSH2 0x3651 JUMPI DUP1 DUP2 REVERT JUMPDEST DUP2 CALLDATALOAD PUSH2 0x646 DUP2 PUSH2 0x421F JUMP JUMPDEST PUSH1 0x0 PUSH1 0x20 DUP3 DUP5 SUB SLT ISZERO PUSH2 0x366D JUMPI DUP1 DUP2 REVERT JUMPDEST DUP2 MLOAD PUSH2 0x646 DUP2 PUSH2 0x421F JUMP JUMPDEST PUSH1 0x0 DUP1 PUSH1 0x40 DUP4 DUP6 SUB SLT ISZERO PUSH2 0x368A JUMPI DUP1 DUP2 REVERT JUMPDEST DUP3 CALLDATALOAD PUSH2 0x3695 DUP2 PUSH2 0x421F JUMP JUMPDEST SWAP2 POP PUSH1 0x20 DUP4 ADD CALLDATALOAD PUSH2 0x36A5 DUP2 PUSH2 0x421F JUMP JUMPDEST DUP1 SWAP2 POP POP SWAP3 POP SWAP3 SWAP1 POP JUMP JUMPDEST PUSH1 0x0 DUP1 PUSH1 0x0 DUP1 PUSH1 0x0 DUP1 PUSH1 0x0 DUP1 PUSH1 0xA0 DUP10 DUP12 SUB SLT ISZERO PUSH2 0x36CB JUMPI DUP4 DUP5 REVERT JUMPDEST DUP9 CALLDATALOAD PUSH2 0x36D6 DUP2 PUSH2 0x421F JUMP JUMPDEST SWAP8 POP PUSH1 0x20 DUP10 ADD CALLDATALOAD PUSH2 0x36E6 DUP2 PUSH2 0x421F JUMP JUMPDEST SWAP7 POP PUSH1 0x40 DUP10 ADD CALLDATALOAD PUSH8 0xFFFFFFFFFFFFFFFF DUP1 DUP3 GT ISZERO PUSH2 0x3702 JUMPI DUP6 DUP7 REVERT JUMPDEST PUSH2 0x370E DUP13 DUP4 DUP14 ADD PUSH2 0x359F JUMP JUMPDEST SWAP1 SWAP9 POP SWAP7 POP PUSH1 0x60 DUP12 ADD CALLDATALOAD SWAP2 POP DUP1 DUP3 GT ISZERO PUSH2 0x3726 JUMPI DUP6 DUP7 REVERT JUMPDEST PUSH2 0x3732 DUP13 DUP4 DUP14 ADD PUSH2 0x359F JUMP JUMPDEST SWAP1 SWAP7 POP SWAP5 POP PUSH1 0x80 DUP12 ADD CALLDATALOAD SWAP2 POP DUP1 DUP3 GT ISZERO PUSH2 0x374A JUMPI DUP4 DUP5 REVERT JUMPDEST POP PUSH2 0x3757 DUP12 DUP3 DUP13 ADD PUSH2 0x35E8 JUMP JUMPDEST SWAP10 SWAP13 SWAP9 SWAP12 POP SWAP7 SWAP10 POP SWAP5 SWAP8 SWAP4 SWAP7 SWAP3 SWAP6 SWAP5 POP POP POP JUMP JUMPDEST PUSH1 0x0 DUP1 PUSH1 0x0 PUSH2 0x140 DUP5 DUP7 SUB SLT ISZERO PUSH2 0x3780 JUMPI DUP3 DUP4 REVERT JUMPDEST DUP4 CALLDATALOAD PUSH2 0x378B DUP2 PUSH2 0x421F JUMP JUMPDEST SWAP3 POP PUSH1 0x20 DUP5 ADD CALLDATALOAD PUSH2 0x379B DUP2 PUSH2 0x421F JUMP JUMPDEST SWAP2 POP PUSH2 0x37AA DUP6 PUSH1 0x40 DUP7 ADD PUSH2 0x3628 JUMP JUMPDEST SWAP1 POP SWAP3 POP SWAP3 POP SWAP3 JUMP JUMPDEST PUSH1 0x0 DUP1 PUSH1 0x0 DUP1 PUSH2 0x160 DUP6 DUP8 SUB SLT ISZERO PUSH2 0x37C9 JUMPI DUP4 DUP5 REVERT JUMPDEST DUP5 CALLDATALOAD PUSH2 0x37D4 DUP2 PUSH2 0x421F JUMP JUMPDEST SWAP4 POP PUSH1 0x20 DUP6 ADD CALLDATALOAD PUSH2 0x37E4 DUP2 PUSH2 0x421F JUMP JUMPDEST SWAP3 POP PUSH2 0x37F3 DUP7 PUSH1 0x40 DUP8 ADD PUSH2 0x3628 JUMP JUMPDEST SWAP4 SWAP7 SWAP3 SWAP6 POP SWAP3 SWAP4 PUSH2 0x140 ADD CALLDATALOAD SWAP3 POP POP JUMP JUMPDEST PUSH1 0x0 DUP1 PUSH1 0x0 DUP4 DUP6 SUB PUSH2 0x120 DUP2 SLT ISZERO PUSH2 0x381A JUMPI DUP4 DUP5 REVERT JUMPDEST DUP5 CALLDATALOAD PUSH2 0x3825 DUP2 PUSH2 0x421F JUMP JUMPDEST SWAP4 POP PUSH1 0x20 DUP6 ADD CALLDATALOAD PUSH2 0x3835 DUP2 PUSH2 0x421F JUMP JUMPDEST SWAP3 POP PUSH1 0xE0 PUSH1 0x3F NOT DUP3 ADD SLT ISZERO PUSH2 0x3848 JUMPI DUP2 DUP3 REVERT JUMPDEST POP PUSH1 0x40 DUP5 ADD SWAP1 POP SWAP3 POP SWAP3 POP SWAP3 JUMP JUMPDEST PUSH1 0x0 DUP1 PUSH1 0x0 DUP1 PUSH1 0x80 DUP6 DUP8 SUB SLT ISZERO PUSH2 0x386B JUMPI DUP2 DUP3 REVERT JUMPDEST DUP5 MLOAD PUSH2 0x3876 DUP2 PUSH2 0x421F JUMP JUMPDEST PUSH1 0x20 DUP7 ADD MLOAD SWAP1 SWAP5 POP PUSH2 0x3887 DUP2 PUSH2 0x421F JUMP JUMPDEST PUSH1 0x40 DUP7 ADD MLOAD PUSH1 0x60 SWAP1 SWAP7 ADD MLOAD SWAP5 SWAP8 SWAP1 SWAP7 POP SWAP3 POP POP POP JUMP JUMPDEST PUSH1 0x0 DUP1 PUSH1 0x0 DUP1 PUSH1 0x0 DUP1 PUSH1 0xA0 DUP8 DUP10 SUB SLT ISZERO PUSH2 0x38B5 JUMPI DUP4 DUP5 REVERT JUMPDEST DUP7 CALLDATALOAD PUSH2 0x38C0 DUP2 PUSH2 0x421F JUMP JUMPDEST SWAP6 POP PUSH1 0x20 DUP8 ADD CALLDATALOAD PUSH2 0x38D0 DUP2 PUSH2 0x421F JUMP JUMPDEST SWAP5 POP PUSH1 0x40 DUP8 ADD CALLDATALOAD SWAP4 POP PUSH1 0x60 DUP8 ADD CALLDATALOAD SWAP3 POP PUSH1 0x80 DUP8 ADD CALLDATALOAD PUSH8 0xFFFFFFFFFFFFFFFF DUP2 GT ISZERO PUSH2 0x38F9 JUMPI DUP3 DUP4 REVERT JUMPDEST PUSH2 0x3905 DUP10 DUP3 DUP11 ADD PUSH2 0x35E8 JUMP JUMPDEST SWAP8 SWAP11 SWAP7 SWAP10 POP SWAP5 SWAP8 POP SWAP3 SWAP6 SWAP4 SWAP5 SWAP3 POP POP POP JUMP JUMPDEST PUSH1 0x0 DUP1 PUSH1 0x0 DUP1 PUSH1 0x40 DUP6 DUP8 SUB SLT ISZERO PUSH2 0x392C JUMPI DUP2 DUP3 REVERT JUMPDEST DUP5 CALLDATALOAD PUSH8 0xFFFFFFFFFFFFFFFF DUP1 DUP3 GT ISZERO PUSH2 0x3943 JUMPI DUP4 DUP5 REVERT JUMPDEST PUSH2 0x394F DUP9 DUP4 DUP10 ADD PUSH2 0x359F JUMP JUMPDEST SWAP1 SWAP7 POP SWAP5 POP PUSH1 0x20 DUP8 ADD CALLDATALOAD SWAP2 POP DUP1 DUP3 GT ISZERO PUSH2 0x3967 JUMPI DUP4 DUP5 REVERT JUMPDEST POP PUSH2 0x3974 DUP8 DUP3 DUP9 ADD PUSH2 0x359F JUMP JUMPDEST SWAP6 SWAP9 SWAP5 SWAP8 POP SWAP6 POP POP POP POP JUMP JUMPDEST PUSH1 0x0 PUSH1 0x20 DUP1 DUP4 DUP6 SUB SLT ISZERO PUSH2 0x3992 JUMPI DUP2 DUP3 REVERT JUMPDEST DUP3 MLOAD PUSH8 0xFFFFFFFFFFFFFFFF DUP2 GT ISZERO PUSH2 0x39A8 JUMPI DUP3 DUP4 REVERT JUMPDEST DUP4 ADD PUSH1 0x1F DUP2 ADD DUP6 SGT PUSH2 0x39B8 JUMPI DUP3 DUP4 REVERT JUMPDEST DUP1 MLOAD PUSH2 0x39CB PUSH2 0x39C6 DUP3 PUSH2 0x41D3 JUMP JUMPDEST PUSH2 0x41AC JUMP JUMPDEST DUP2 DUP2 MSTORE DUP4 DUP2 ADD SWAP1 DUP4 DUP6 ADD DUP6 DUP5 MUL DUP6 ADD DUP7 ADD DUP10 LT ISZERO PUSH2 0x39E7 JUMPI DUP7 DUP8 REVERT JUMPDEST DUP7 SWAP5 POP JUMPDEST DUP4 DUP6 LT ISZERO PUSH2 0x3A09 JUMPI DUP1 MLOAD DUP4 MSTORE PUSH1 0x1 SWAP5 SWAP1 SWAP5 ADD SWAP4 SWAP2 DUP6 ADD SWAP2 DUP6 ADD PUSH2 0x39EB JUMP JUMPDEST POP SWAP8 SWAP7 POP POP POP POP POP POP POP JUMP JUMPDEST PUSH1 0x0 PUSH1 0x20 DUP3 DUP5 SUB SLT ISZERO PUSH2 0x3A26 JUMPI DUP1 DUP2 REVERT JUMPDEST DUP2 CALLDATALOAD PUSH2 0x646 DUP2 PUSH2 0x4237 JUMP JUMPDEST PUSH1 0x0 PUSH1 0x20 DUP3 DUP5 SUB SLT ISZERO PUSH2 0x3A42 JUMPI DUP1 DUP2 REVERT JUMPDEST DUP2 MLOAD PUSH2 0x646 DUP2 PUSH2 0x4237 JUMP JUMPDEST PUSH1 0x0 PUSH1 0x20 DUP3 DUP5 SUB SLT ISZERO PUSH2 0x3A5E JUMPI DUP1 DUP2 REVERT JUMPDEST DUP2 CALLDATALOAD PUSH1 0x1 PUSH1 0x1 PUSH1 0xE0 SHL SUB NOT DUP2 AND DUP2 EQ PUSH2 0x646 JUMPI DUP2 DUP3 REVERT JUMPDEST PUSH1 0x0 DUP1 PUSH1 0x0 PUSH1 0x60 DUP5 DUP7 SUB SLT ISZERO PUSH2 0x3A89 JUMPI DUP1 DUP2 REVERT JUMPDEST DUP4 MLOAD PUSH2 0x3A94 DUP2 PUSH2 0x4245 JUMP JUMPDEST PUSH1 0x20 DUP6 ADD MLOAD SWAP1 SWAP4 POP PUSH2 0x3AA5 DUP2 PUSH2 0x4245 JUMP JUMPDEST PUSH1 0x40 DUP6 ADD MLOAD SWAP1 SWAP3 POP PUSH4 0xFFFFFFFF DUP2 AND DUP2 EQ PUSH2 0x3ABE JUMPI DUP2 DUP3 REVERT JUMPDEST DUP1 SWAP2 POP POP SWAP3 POP SWAP3 POP SWAP3 JUMP JUMPDEST PUSH1 0x0 PUSH1 0x20 DUP3 DUP5 SUB SLT ISZERO PUSH2 0x3ADA JUMPI DUP1 DUP2 REVERT JUMPDEST POP MLOAD SWAP2 SWAP1 POP JUMP JUMPDEST PUSH1 0x0 DUP1 PUSH1 0x40 DUP4 DUP6 SUB SLT ISZERO PUSH2 0x3AF3 JUMPI DUP2 DUP3 REVERT JUMPDEST POP POP DUP1 MLOAD PUSH1 0x20 SWAP1 SWAP2 ADD MLOAD SWAP1 SWAP3 SWAP1 SWAP2 POP JUMP JUMPDEST PUSH1 0x0 DUP1 PUSH1 0x0 PUSH1 0x60 DUP5 DUP7 SUB SLT ISZERO PUSH2 0x3B18 JUMPI DUP1 DUP2 REVERT JUMPDEST DUP4 MLOAD SWAP3 POP PUSH1 0x20 DUP5 ADD MLOAD SWAP2 POP PUSH1 0x40 DUP5 ADD MLOAD SWAP1 POP SWAP3 POP SWAP3 POP SWAP3 JUMP JUMPDEST PUSH1 0x0 DUP2 MLOAD DUP1 DUP5 MSTORE PUSH1 0x20 DUP1 DUP6 ADD SWAP5 POP DUP1 DUP5 ADD DUP4 JUMPDEST DUP4 DUP2 LT ISZERO PUSH2 0x3B69 JUMPI DUP2 MLOAD PUSH1 0x1 PUSH1 0x1 PUSH1 0xA0 SHL SUB AND DUP8 MSTORE SWAP6 DUP3 ADD SWAP6 SWAP1 DUP3 ADD SWAP1 PUSH1 0x1 ADD PUSH2 0x3B44 JUMP JUMPDEST POP SWAP5 SWAP6 SWAP5 POP POP POP POP POP JUMP JUMPDEST PUSH1 0x0 DUP3 MLOAD PUSH2 0x3B86 DUP2 DUP5 PUSH1 0x20 DUP8 ADD PUSH2 0x41F3 JUMP JUMPDEST SWAP2 SWAP1 SWAP2 ADD SWAP3 SWAP2 POP POP JUMP JUMPDEST PUSH1 0x1 PUSH1 0x1 PUSH1 0xA0 SHL SUB SWAP2 SWAP1 SWAP2 AND DUP2 MSTORE PUSH1 0x20 ADD SWAP1 JUMP JUMPDEST PUSH1 0x1 PUSH1 0x1 PUSH1 0xA0 SHL SUB SWAP3 DUP4 AND DUP2 MSTORE SWAP2 AND PUSH1 0x20 DUP3 ADD MSTORE PUSH1 0x40 ADD SWAP1 JUMP JUMPDEST PUSH1 0x1 PUSH1 0x1 PUSH1 0xA0 SHL SUB SWAP8 DUP9 AND DUP2 MSTORE SWAP6 DUP8 AND PUSH1 0x20 DUP8 ADD MSTORE PUSH1 0x40 DUP7 ADD SWAP5 SWAP1 SWAP5 MSTORE PUSH1 0x60 DUP6 ADD SWAP3 SWAP1 SWAP3 MSTORE PUSH1 0x80 DUP5 ADD MSTORE SWAP1 SWAP3 AND PUSH1 0xA0 DUP3 ADD MSTORE PUSH1 0xC0 DUP2 ADD SWAP2 SWAP1 SWAP2 MSTORE PUSH1 0xE0 ADD SWAP1 JUMP JUMPDEST PUSH1 0x1 PUSH1 0x1 PUSH1 0xA0 SHL SUB SWAP9 DUP10 AND DUP2 MSTORE SWAP7 DUP9 AND PUSH1 0x20 DUP9 ADD MSTORE PUSH1 0x40 DUP8 ADD SWAP6 SWAP1 SWAP6 MSTORE PUSH1 0x60 DUP7 ADD SWAP4 SWAP1 SWAP4 MSTORE PUSH1 0x80 DUP6 ADD SWAP2 SWAP1 SWAP2 MSTORE PUSH1 0xA0 DUP5 ADD MSTORE SWAP1 SWAP3 AND PUSH1 0xC0 DUP3 ADD MSTORE PUSH1 0xE0 DUP2 ADD SWAP2 SWAP1 SWAP2 MSTORE PUSH2 0x100 ADD SWAP1 JUMP JUMPDEST PUSH1 0x1 PUSH1 0x1 PUSH1 0xA0 SHL SUB SWAP3 SWAP1 SWAP3 AND DUP3 MSTORE PUSH1 0x20 DUP3 ADD MSTORE PUSH1 0x40 ADD SWAP1 JUMP JUMPDEST PUSH1 0x1 PUSH1 0x1 PUSH1 0xA0 SHL SUB SWAP4 SWAP1 SWAP4 AND DUP4 MSTORE PUSH1 0x20 DUP4 ADD SWAP2 SWAP1 SWAP2 MSTORE PUSH1 0x40 DUP3 ADD MSTORE PUSH1 0x60 ADD SWAP1 JUMP JUMPDEST SWAP1 ISZERO ISZERO DUP2 MSTORE PUSH1 0x20 ADD SWAP1 JUMP JUMPDEST PUSH1 0x1 PUSH1 0x1 PUSH1 0xE0 SHL SUB NOT SWAP2 SWAP1 SWAP2 AND DUP2 MSTORE PUSH1 0x20 ADD SWAP1 JUMP JUMPDEST PUSH1 0x0 PUSH1 0x20 DUP3 MSTORE DUP3 MLOAD DUP1 PUSH1 0x20 DUP5 ADD MSTORE PUSH2 0x3CC0 DUP2 PUSH1 0x40 DUP6 ADD PUSH1 0x20 DUP8 ADD PUSH2 0x41F3 JUMP JUMPDEST PUSH1 0x1F ADD PUSH1 0x1F NOT AND SWAP2 SWAP1 SWAP2 ADD PUSH1 0x40 ADD SWAP3 SWAP2 POP POP JUMP JUMPDEST PUSH1 0x20 DUP1 DUP3 MSTORE PUSH1 0x18 SWAP1 DUP3 ADD MSTORE PUSH32 0x6E6F74207468652070656E64696E6720676F7665726E6F720000000000000000 PUSH1 0x40 DUP3 ADD MSTORE PUSH1 0x60 ADD SWAP1 JUMP JUMPDEST PUSH1 0x20 DUP1 DUP3 MSTORE PUSH1 0x1B SWAP1 DUP3 ADD MSTORE PUSH32 0x536166654D6174683A206164646974696F6E206F766572666C6F770000000000 PUSH1 0x40 DUP3 ADD MSTORE PUSH1 0x60 ADD SWAP1 JUMP JUMPDEST PUSH1 0x20 DUP1 DUP3 MSTORE PUSH1 0x1B SWAP1 DUP3 ADD MSTORE PUSH32 0x6F7261636C65206E6F7420737570706F7274206C7020746F6B656E0000000000 PUSH1 0x40 DUP3 ADD MSTORE PUSH1 0x60 ADD SWAP1 JUMP JUMPDEST PUSH1 0x20 DUP1 DUP3 MSTORE PUSH1 0x1E SWAP1 DUP3 ADD MSTORE PUSH32 0x536166654D6174683A207375627472616374696F6E206F766572666C6F770000 PUSH1 0x40 DUP3 ADD MSTORE PUSH1 0x60 ADD SWAP1 JUMP JUMPDEST PUSH1 0x20 DUP1 DUP3 MSTORE PUSH1 0x26 SWAP1 DUP3 ADD MSTORE PUSH32 0x416464726573733A20696E73756666696369656E742062616C616E636520666F PUSH1 0x40 DUP3 ADD MSTORE PUSH6 0x1C8818D85B1B PUSH1 0xD2 SHL PUSH1 0x60 DUP3 ADD MSTORE PUSH1 0x80 ADD SWAP1 JUMP JUMPDEST PUSH1 0x20 DUP1 DUP3 MSTORE PUSH1 0x1A SWAP1 DUP3 ADD MSTORE PUSH32 0x536166654D6174683A206469766973696F6E206279207A65726F000000000000 PUSH1 0x40 DUP3 ADD MSTORE PUSH1 0x60 ADD SWAP1 JUMP JUMPDEST PUSH1 0x20 DUP1 DUP3 MSTORE PUSH1 0x10 SWAP1 DUP3 ADD MSTORE PUSH16 0x3737BA103A34329033B7BB32B93737B9 PUSH1 0x81 SHL PUSH1 0x40 DUP3 ADD MSTORE PUSH1 0x60 ADD SWAP1 JUMP JUMPDEST PUSH1 0x20 DUP1 DUP3 MSTORE PUSH1 0x25 SWAP1 DUP3 ADD MSTORE PUSH32 0x6C70546F6B656E732026207374617475736573206C656E677468206D69736D61 PUSH1 0x40 DUP3 ADD MSTORE PUSH5 0x1D18DA1959 PUSH1 0xDA SHL PUSH1 0x60 DUP3 ADD MSTORE PUSH1 0x80 ADD SWAP1 JUMP JUMPDEST PUSH1 0x20 DUP1 DUP3 MSTORE PUSH1 0xB SWAP1 DUP3 ADD MSTORE PUSH11 0x3737903638103A37B5B2B7 PUSH1 0xA9 SHL PUSH1 0x40 DUP3 ADD MSTORE PUSH1 0x60 ADD SWAP1 JUMP JUMPDEST PUSH1 0x20 DUP1 DUP3 MSTORE PUSH1 0x12 SWAP1 DUP3 ADD MSTORE PUSH18 0x34B731B7B93932B1BA103638103A37B5B2B7 PUSH1 0x71 SHL PUSH1 0x40 DUP3 ADD MSTORE PUSH1 0x60 ADD SWAP1 JUMP JUMPDEST PUSH1 0x20 DUP1 DUP3 MSTORE PUSH1 0x18 SWAP1 DUP3 ADD MSTORE PUSH32 0x6C7020746F6B656E206E6F742077686974656C69737465640000000000000000 PUSH1 0x40 DUP3 ADD MSTORE PUSH1 0x60 ADD SWAP1 JUMP JUMPDEST PUSH1 0x20 DUP1 DUP3 MSTORE PUSH1 0x21 SWAP1 DUP3 ADD MSTORE PUSH32 0x536166654D6174683A206D756C7469706C69636174696F6E206F766572666C6F PUSH1 0x40 DUP3 ADD MSTORE PUSH1 0x77 PUSH1 0xF8 SHL PUSH1 0x60 DUP3 ADD MSTORE PUSH1 0x80 ADD SWAP1 JUMP JUMPDEST PUSH1 0x20 DUP1 DUP3 MSTORE PUSH1 0x8 SWAP1 DUP3 ADD MSTORE PUSH8 0x14995D995C9CD959 PUSH1 0xC2 SHL PUSH1 0x40 DUP3 ADD MSTORE PUSH1 0x60 ADD SWAP1 JUMP JUMPDEST PUSH1 0x20 DUP1 DUP3 MSTORE PUSH1 0x28 SWAP1 DUP3 ADD MSTORE PUSH32 0x636F6C6C61746572616C20746F6B656E202620776D696E697263686566206D69 PUSH1 0x40 DUP3 ADD MSTORE PUSH8 0x1CDB585D18DA1959 PUSH1 0xC2 SHL PUSH1 0x60 DUP3 ADD MSTORE PUSH1 0x80 ADD SWAP1 JUMP JUMPDEST PUSH1 0x20 DUP1 DUP3 MSTORE PUSH1 0xD SWAP1 DUP3 ADD MSTORE PUSH13 0x1A5B98DBDC9C9958DD081C1A59 PUSH1 0x9A SHL PUSH1 0x40 DUP3 ADD MSTORE PUSH1 0x60 ADD SWAP1 JUMP JUMPDEST PUSH1 0x20 DUP1 DUP3 MSTORE PUSH1 0x1D SWAP1 DUP3 ADD MSTORE PUSH32 0x416464726573733A2063616C6C20746F206E6F6E2D636F6E7472616374000000 PUSH1 0x40 DUP3 ADD MSTORE PUSH1 0x60 ADD SWAP1 JUMP JUMPDEST PUSH1 0x20 DUP1 DUP3 MSTORE PUSH1 0x14 SWAP1 DUP3 ADD MSTORE PUSH20 0x696E636F727265637420756E6465726C79696E67 PUSH1 0x60 SHL PUSH1 0x40 DUP3 ADD MSTORE PUSH1 0x60 ADD SWAP1 JUMP JUMPDEST PUSH1 0x20 DUP1 DUP3 MSTORE PUSH1 0x27 SWAP1 DUP3 ADD MSTORE PUSH32 0x636F6C6C61746572616C20746F6B656E202620776D696E6963686566206D6973 PUSH1 0x40 DUP3 ADD MSTORE PUSH7 0x1B585D18DA1959 PUSH1 0xCA SHL PUSH1 0x60 DUP3 ADD MSTORE PUSH1 0x80 ADD SWAP1 JUMP JUMPDEST PUSH1 0x20 DUP1 DUP3 MSTORE PUSH1 0x2A SWAP1 DUP3 ADD MSTORE PUSH32 0x5361666545524332303A204552433230206F7065726174696F6E20646964206E PUSH1 0x40 DUP3 ADD MSTORE PUSH10 0x1BDD081CDD58D8D95959 PUSH1 0xB2 SHL PUSH1 0x60 DUP3 ADD MSTORE PUSH1 0x80 ADD SWAP1 JUMP JUMPDEST PUSH1 0x20 DUP1 DUP3 MSTORE PUSH1 0x36 SWAP1 DUP3 ADD MSTORE PUSH32 0x5361666545524332303A20617070726F76652066726F6D206E6F6E2D7A65726F PUSH1 0x40 DUP3 ADD MSTORE PUSH22 0x20746F206E6F6E2D7A65726F20616C6C6F77616E6365 PUSH1 0x50 SHL PUSH1 0x60 DUP3 ADD MSTORE PUSH1 0x80 ADD SWAP1 JUMP JUMPDEST SWAP1 DUP2 MSTORE PUSH1 0x20 ADD SWAP1 JUMP JUMPDEST SWAP2 DUP3 MSTORE PUSH1 0x1 PUSH1 0x1 PUSH1 0xA0 SHL SUB AND PUSH1 0x20 DUP3 ADD MSTORE PUSH1 0x40 ADD SWAP1 JUMP JUMPDEST PUSH1 0x0 DUP7 DUP3 MSTORE DUP6 PUSH1 0x20 DUP4 ADD MSTORE PUSH1 0xA0 PUSH1 0x40 DUP4 ADD MSTORE PUSH2 0x4181 PUSH1 0xA0 DUP4 ADD DUP7 PUSH2 0x3B31 JUMP JUMPDEST PUSH1 0x1 PUSH1 0x1 PUSH1 0xA0 SHL SUB SWAP5 SWAP1 SWAP5 AND PUSH1 0x60 DUP4 ADD MSTORE POP PUSH1 0x80 ADD MSTORE SWAP4 SWAP3 POP POP POP JUMP JUMPDEST SWAP2 DUP3 MSTORE PUSH1 0x20 DUP3 ADD MSTORE PUSH1 0x40 ADD SWAP1 JUMP JUMPDEST PUSH1 0x40 MLOAD DUP2 DUP2 ADD PUSH8 0xFFFFFFFFFFFFFFFF DUP2 GT DUP3 DUP3 LT OR ISZERO PUSH2 0x41CB JUMPI PUSH1 0x0 DUP1 REVERT JUMPDEST PUSH1 0x40 MSTORE SWAP2 SWAP1 POP JUMP JUMPDEST PUSH1 0x0 PUSH8 0xFFFFFFFFFFFFFFFF DUP3 GT ISZERO PUSH2 0x41E9 JUMPI DUP1 DUP2 REVERT JUMPDEST POP PUSH1 0x20 SWAP1 DUP2 MUL ADD SWAP1 JUMP JUMPDEST PUSH1 0x0 JUMPDEST DUP4 DUP2 LT ISZERO PUSH2 0x420E JUMPI DUP2 DUP2 ADD MLOAD DUP4 DUP3 ADD MSTORE PUSH1 0x20 ADD PUSH2 0x41F6 JUMP JUMPDEST DUP4 DUP2 GT ISZERO PUSH2 0x470 JUMPI POP POP PUSH1 0x0 SWAP2 ADD MSTORE JUMP JUMPDEST PUSH1 0x1 PUSH1 0x1 PUSH1 0xA0 SHL SUB DUP2 AND DUP2 EQ PUSH2 0x4234 JUMPI PUSH1 0x0 DUP1 REVERT JUMPDEST POP JUMP JUMPDEST DUP1 ISZERO ISZERO DUP2 EQ PUSH2 0x4234 JUMPI PUSH1 0x0 DUP1 REVERT JUMPDEST PUSH1 0x1 PUSH1 0x1 PUSH1 0x70 SHL SUB DUP2 AND DUP2 EQ PUSH2 0x4234 JUMPI PUSH1 0x0 DUP1 REVERT INVALID LOG2 PUSH5 0x6970667358 0x22 SLT KECCAK256 PUSH31 0x47E1BE2DC2BAE73312709257988F3BB6F99A5A51D3ADF8F46118B81DAB9C1F PUSH5 0x736F6C6343 STOP MOD 0xC STOP CALLER ",
  "sha1": "588fb2a1f4dc87a6f5092c0bd7a6924a8526f504",
  "source": "// SPDX-License-Identifier: MIT\n\npragma solidity 0.6.12;\npragma experimental ABIEncoderV2;\n\nimport 'OpenZeppelin/openzeppelin-contracts@3.4.0/contracts/token/ERC20/IERC20.sol';\nimport 'OpenZeppelin/openzeppelin-contracts@3.4.0/contracts/math/SafeMath.sol';\n\nimport './WhitelistSpell.sol';\nimport '../utils/HomoraMath.sol';\nimport '../../interfaces/IUniswapV2Factory.sol';\nimport '../../interfaces/IUniswapV2Router02.sol';\nimport '../../interfaces/IUniswapV2Pair.sol';\nimport '../../interfaces/IWMiniChefV2.sol';\n\ncontract SushiswapSpellV1 is WhitelistSpell {\n  using SafeMath for uint;\n  using HomoraMath for uint;\n\n  IUniswapV2Factory public immutable factory; // Sushiswap factory\n  IUniswapV2Router02 public immutable router; // Sushiswap router\n\n  mapping(address => mapping(address => address)) public pairs; // Mapping from tokenA to (mapping from tokenB to LP token)\n\n  IWMiniChefV2 public immutable wminichef; // Wrapped miniChef\n\n  address public immutable sushi; // Sushi token address\n  address public immutable rewardToken;\n\n  constructor(\n    IBank _bank,\n    address _werc20,\n    IUniswapV2Router02 _router,\n    address _wminichef,\n    address _celo,\n    address _rewardToken\n  ) public WhitelistSpell(_bank, _werc20, _celo) {\n    router = _router;\n    factory = IUniswapV2Factory(_router.factory());\n    wminichef = IWMiniChefV2(_wminichef);\n    IWMiniChefV2(_wminichef).setApprovalForAll(address(_bank), true);\n    sushi = address(IWMiniChefV2(_wminichef).sushi());\n    rewardToken = _rewardToken;\n  }\n\n  /// @dev Return the LP token for the token pairs (can be in any order)\n  /// @param tokenA Token A to get LP token\n  /// @param tokenB Token B to get LP token\n  function getAndApprovePair(address tokenA, address tokenB) public returns (address) {\n    address lp = pairs[tokenA][tokenB];\n    if (lp == address(0)) {\n      lp = factory.getPair(tokenA, tokenB);\n      require(lp != address(0), 'no lp token');\n      ensureApprove(tokenA, address(router));\n      ensureApprove(tokenB, address(router));\n      ensureApprove(lp, address(router));\n      pairs[tokenA][tokenB] = lp;\n      pairs[tokenB][tokenA] = lp;\n    }\n    return lp;\n  }\n\n  /// @dev Compute optimal deposit amount\n  /// @param amtA amount of token A desired to deposit\n  /// @param amtB amount of token B desired to deposit\n  /// @param resA amount of token A in reserve\n  /// @param resB amount of token B in reserve\n  function optimalDeposit(\n    uint amtA,\n    uint amtB,\n    uint resA,\n    uint resB\n  ) internal pure returns (uint swapAmt, bool isReversed) {\n    if (amtA.mul(resB) >= amtB.mul(resA)) {\n      swapAmt = _optimalDepositA(amtA, amtB, resA, resB);\n      isReversed = false;\n    } else {\n      swapAmt = _optimalDepositA(amtB, amtA, resB, resA);\n      isReversed = true;\n    }\n  }\n\n  /// @dev Compute optimal deposit amount helper.\n  /// @param amtA amount of token A desired to deposit\n  /// @param amtB amount of token B desired to deposit\n  /// @param resA amount of token A in reserve\n  /// @param resB amount of token B in reserve\n  /// Formula: https://blog.alphafinance.io/byot/\n  function _optimalDepositA(\n    uint amtA,\n    uint amtB,\n    uint resA,\n    uint resB\n  ) internal pure returns (uint) {\n    require(amtA.mul(resB) >= amtB.mul(resA), 'Reversed');\n    uint a = 997;\n    uint b = uint(1997).mul(resA);\n    uint _c = (amtA.mul(resB)).sub(amtB.mul(resA));\n    uint c = _c.mul(1000).div(amtB.add(resB)).mul(resA);\n    uint d = a.mul(c).mul(4);\n    uint e = HomoraMath.sqrt(b.mul(b).add(d));\n    uint numerator = e.sub(b);\n    uint denominator = a.mul(2);\n    return numerator.div(denominator);\n  }\n\n  struct Amounts {\n    uint amtAUser; // Supplied tokenA amount\n    uint amtBUser; // Supplied tokenB amount\n    uint amtLPUser; // Supplied LP token amount\n    uint amtABorrow; // Borrow tokenA amount\n    uint amtBBorrow; // Borrow tokenB amount\n    uint amtLPBorrow; // Borrow LP token amount\n    uint amtAMin; // Desired tokenA amount (slippage control)\n    uint amtBMin; // Desired tokenB amount (slippage control)\n  }\n\n  /// @dev Add liquidity to Sushiswap pool\n  /// @param tokenA Token A for the pair\n  /// @param tokenB Token B for the pair\n  /// @param amt Amounts of tokens to supply, borrow, and get.\n  function addLiquidityInternal(\n    address tokenA,\n    address tokenB,\n    Amounts calldata amt,\n    address lp\n  ) internal {\n    require(whitelistedLpTokens[lp], 'lp token not whitelisted');\n\n    // 1. Get user input amounts\n    doTransmit(tokenA, amt.amtAUser);\n    doTransmit(tokenB, amt.amtBUser);\n    doTransmit(lp, amt.amtLPUser);\n\n    // 2. Borrow specified amounts\n    doBorrow(tokenA, amt.amtABorrow);\n    doBorrow(tokenB, amt.amtBBorrow);\n    doBorrow(lp, amt.amtLPBorrow);\n\n    // 3. Calculate optimal swap amount\n    uint swapAmt;\n    bool isReversed;\n    {\n      uint amtA = IERC20(tokenA).balanceOf(address(this));\n      uint amtB = IERC20(tokenB).balanceOf(address(this));\n      uint resA;\n      uint resB;\n      if (IUniswapV2Pair(lp).token0() == tokenA) {\n        (resA, resB, ) = IUniswapV2Pair(lp).getReserves();\n      } else {\n        (resB, resA, ) = IUniswapV2Pair(lp).getReserves();\n      }\n      (swapAmt, isReversed) = optimalDeposit(amtA, amtB, resA, resB);\n    }\n\n    // 4. Swap optimal amount\n    if (swapAmt > 0) {\n      address[] memory path = new address[](2);\n      (path[0], path[1]) = isReversed ? (tokenB, tokenA) : (tokenA, tokenB);\n      router.swapExactTokensForTokens(swapAmt, 0, path, address(this), block.timestamp);\n    }\n\n    // 5. Add liquidity\n    uint balA = IERC20(tokenA).balanceOf(address(this));\n    uint balB = IERC20(tokenB).balanceOf(address(this));\n    if (balA > 0 || balB > 0) {\n      router.addLiquidity(\n        tokenA,\n        tokenB,\n        balA,\n        balB,\n        amt.amtAMin,\n        amt.amtBMin,\n        address(this),\n        block.timestamp\n      );\n    }\n  }\n\n  /// @dev Add liquidity to Sushiswap pool, with no staking rewards (use WERC20 wrapper)\n  /// @param tokenA Token A for the pair\n  /// @param tokenB Token B for the pair\n  /// @param amt Amounts of tokens to supply, borrow, and get.\n  function addLiquidityWERC20(\n    address tokenA,\n    address tokenB,\n    Amounts calldata amt\n  ) external payable {\n    address lp = getAndApprovePair(tokenA, tokenB);\n    // 1-5. add liquidity\n    addLiquidityInternal(tokenA, tokenB, amt, lp);\n\n    // 6. Put collateral\n    doPutCollateral(lp, IERC20(lp).balanceOf(address(this)));\n\n    // 7. Refund leftovers to users\n    doRefund(tokenA);\n    doRefund(tokenB);\n  }\n\n  /// @dev Add liquidity to Sushiswap pool, with staking to miniChef\n  /// @param tokenA Token A for the pair\n  /// @param tokenB Token B for the pair\n  /// @param amt Amounts of tokens to supply, borrow, and get.\n  /// @param pid Pool id\n  function addLiquidityWMiniChef(\n    address tokenA,\n    address tokenB,\n    Amounts calldata amt,\n    uint pid\n  ) external payable {\n    address lp = getAndApprovePair(tokenA, tokenB);\n    address lpToken = wminichef.chef().lpToken(pid);\n    require(lpToken == lp, 'incorrect lp token');\n\n    // 1-5. add liquidity\n    addLiquidityInternal(tokenA, tokenB, amt, lp);\n\n    // 6. Take out collateral\n    (, address collToken, uint collId, uint collSize) = bank.getCurrentPositionInfo();\n    if (collSize > 0) {\n      (uint decodedPid, ) = wminichef.decodeId(collId);\n      require(pid == decodedPid, 'incorrect pid');\n      require(collToken == address(wminichef), 'collateral token & wminirchef mismatched');\n      bank.takeCollateral(address(wminichef), collId, collSize);\n      wminichef.burn(collId, collSize);\n    }\n\n    // 7. Put collateral\n    ensureApprove(lp, address(wminichef));\n    uint amount = IERC20(lp).balanceOf(address(this));\n    uint id = wminichef.mint(pid, amount);\n    bank.putCollateral(address(wminichef), id, amount);\n\n    // 8. Refund leftovers to users\n    doRefund(tokenA);\n    doRefund(tokenB);\n\n    // 9. Refund sushi\n    doRefund(sushi);\n    doRefund(rewardToken);\n  }\n\n  struct RepayAmounts {\n    uint amtLPTake; // Take out LP token amount (from Homora)\n    uint amtLPWithdraw; // Withdraw LP token amount (back to caller)\n    uint amtARepay; // Repay tokenA amount\n    uint amtBRepay; // Repay tokenB amount\n    uint amtLPRepay; // Repay LP token amount\n    uint amtAMin; // Desired tokenA amount\n    uint amtBMin; // Desired tokenB amount\n  }\n\n  /// @dev Remove liquidity from Sushiswap pool\n  /// @param tokenA Token A for the pair\n  /// @param tokenB Token B for the pair\n  /// @param amt Amounts of tokens to take out, withdraw, repay, and get.\n  function removeLiquidityInternal(\n    address tokenA,\n    address tokenB,\n    RepayAmounts calldata amt,\n    address lp\n  ) internal {\n    require(whitelistedLpTokens[lp], 'lp token not whitelisted');\n    uint positionId = bank.POSITION_ID();\n\n    uint amtARepay = amt.amtARepay;\n    uint amtBRepay = amt.amtBRepay;\n    uint amtLPRepay = amt.amtLPRepay;\n\n    // 2. Compute repay amount if MAX_INT is supplied (max debt)\n    if (amtARepay == uint(-1)) {\n      amtARepay = bank.borrowBalanceCurrent(positionId, tokenA);\n    }\n    if (amtBRepay == uint(-1)) {\n      amtBRepay = bank.borrowBalanceCurrent(positionId, tokenB);\n    }\n    if (amtLPRepay == uint(-1)) {\n      amtLPRepay = bank.borrowBalanceCurrent(positionId, lp);\n    }\n\n    // 3. Compute amount to actually remove\n    uint amtLPToRemove = IERC20(lp).balanceOf(address(this)).sub(amt.amtLPWithdraw);\n\n    // 4. Remove liquidity\n    uint amtA;\n    uint amtB;\n    if (amtLPToRemove > 0) {\n      (amtA, amtB) = router.removeLiquidity(\n        tokenA,\n        tokenB,\n        amtLPToRemove,\n        0,\n        0,\n        address(this),\n        block.timestamp\n      );\n    }\n\n    // 5. MinimizeTrading\n    uint amtADesired = amtARepay.add(amt.amtAMin);\n    uint amtBDesired = amtBRepay.add(amt.amtBMin);\n\n    if (amtA < amtADesired && amtB > amtBDesired) {\n      address[] memory path = new address[](2);\n      (path[0], path[1]) = (tokenB, tokenA);\n      router.swapTokensForExactTokens(\n        amtADesired.sub(amtA),\n        amtB.sub(amtBDesired),\n        path,\n        address(this),\n        block.timestamp\n      );\n    } else if (amtA > amtADesired && amtB < amtBDesired) {\n      address[] memory path = new address[](2);\n      (path[0], path[1]) = (tokenA, tokenB);\n      router.swapTokensForExactTokens(\n        amtBDesired.sub(amtB),\n        amtA.sub(amtADesired),\n        path,\n        address(this),\n        block.timestamp\n      );\n    }\n\n    // 6. Repay\n    doRepay(tokenA, amtARepay);\n    doRepay(tokenB, amtBRepay);\n    doRepay(lp, amtLPRepay);\n\n    // 7. Slippage control\n    require(IERC20(tokenA).balanceOf(address(this)) >= amt.amtAMin);\n    require(IERC20(tokenB).balanceOf(address(this)) >= amt.amtBMin);\n    require(IERC20(lp).balanceOf(address(this)) >= amt.amtLPWithdraw);\n\n    // 8. Refund leftover\n    doRefund(tokenA);\n    doRefund(tokenB);\n    doRefund(lp);\n  }\n\n  /// @dev Remove liquidity from Sushiswap pool, with no staking rewards (use WERC20 wrapper)\n  /// @param tokenA Token A for the pair\n  /// @param tokenB Token B for the pair\n  /// @param amt Amounts of tokens to take out, withdraw, repay, and get.\n  function removeLiquidityWERC20(\n    address tokenA,\n    address tokenB,\n    RepayAmounts calldata amt\n  ) external {\n    address lp = getAndApprovePair(tokenA, tokenB);\n\n    // 1. Take out collateral\n    doTakeCollateral(lp, amt.amtLPTake);\n\n    // 2-8. remove liquidity\n    removeLiquidityInternal(tokenA, tokenB, amt, lp);\n  }\n\n  /// @dev Remove liquidity from Sushiswap pool, from miniChef staking\n  /// @param tokenA Token A for the pair\n  /// @param tokenB Token B for the pair\n  /// @param amt Amounts of tokens to take out, withdraw, repay, and get.\n  function removeLiquidityWMiniChef(\n    address tokenA,\n    address tokenB,\n    RepayAmounts calldata amt\n  ) external {\n    address lp = getAndApprovePair(tokenA, tokenB);\n    (, address collToken, uint collId, ) = bank.getCurrentPositionInfo();\n    require(IWMiniChefV2(collToken).getUnderlyingToken(collId) == lp, 'incorrect underlying');\n    require(collToken == address(wminichef), 'collateral token & wminichef mismatched');\n\n    // 1. Take out collateral\n    bank.takeCollateral(address(wminichef), collId, amt.amtLPTake);\n    wminichef.burn(collId, amt.amtLPTake);\n\n    // 2-8. remove liquidity\n    removeLiquidityInternal(tokenA, tokenB, amt, lp);\n\n    // 9. Refund sushi\n    doRefund(sushi);\n    doRefund(rewardToken);\n  }\n\n  /// @dev Harvest SUSHI reward tokens to in-exec position's owner\n  function harvestWMiniChef() external {\n    (, address collToken, uint collId, ) = bank.getCurrentPositionInfo();\n    (uint pid, ) = wminichef.decodeId(collId);\n    address lp = wminichef.getUnderlyingToken(collId);\n    require(whitelistedLpTokens[lp], 'lp token not whitelisted');\n    require(collToken == address(wminichef), 'collateral token & wminichef mismatched');\n\n    // 1. Take out collateral\n    bank.takeCollateral(address(wminichef), collId, uint(-1));\n    wminichef.burn(collId, uint(-1));\n\n    // 2. put collateral\n    uint amount = IERC20(lp).balanceOf(address(this));\n    ensureApprove(lp, address(wminichef));\n    uint id = wminichef.mint(pid, amount);\n    bank.putCollateral(address(wminichef), id, amount);\n\n    // 3. Refund sushi\n    doRefund(sushi);\n    doRefund(rewardToken);\n  }\n}",
  "sourcePath": "contracts/spell/SushiswapSpell.sol",
  "type": "contract"
}