{
  "abi": [
    {
      "anonymous": false,
      "inputs": [
        {
          "indexed": true,
          "internalType": "address",
          "name": "previousOwner",
          "type": "address"
        },
        {
          "indexed": true,
          "internalType": "address",
          "name": "newOwner",
          "type": "address"
        }
      ],
      "name": "OwnershipTransferred",
      "type": "event"
    },
    {
      "inputs": [],
      "name": "CELO",
      "outputs": [
        {
          "internalType": "address",
          "name": "",
          "type": "address"
        }
      ],
      "stateMutability": "pure",
      "type": "function"
    },
    {
      "inputs": [],
      "name": "MCELO",
      "outputs": [
        {
          "internalType": "address",
          "name": "",
          "type": "address"
        }
      ],
      "stateMutability": "pure",
      "type": "function"
    },
    {
      "inputs": [
        {
          "internalType": "address",
          "name": "tokenA",
          "type": "address"
        },
        {
          "internalType": "address",
          "name": "tokenB",
          "type": "address"
        }
      ],
      "name": "addPair",
      "outputs": [],
      "stateMutability": "nonpayable",
      "type": "function"
    },
    {
      "inputs": [],
      "name": "factory",
      "outputs": [
        {
          "internalType": "address",
          "name": "",
          "type": "address"
        }
      ],
      "stateMutability": "view",
      "type": "function"
    },
    {
      "inputs": [
        {
          "internalType": "address",
          "name": "pair",
          "type": "address"
        }
      ],
      "name": "lastObservation",
      "outputs": [
        {
          "components": [
            {
              "internalType": "uint256",
              "name": "timestamp",
              "type": "uint256"
            },
            {
              "internalType": "uint256",
              "name": "price0Cumulative",
              "type": "uint256"
            },
            {
              "internalType": "uint256",
              "name": "price1Cumulative",
              "type": "uint256"
            }
          ],
          "internalType": "struct IUbeswapV1Oracle.Observation",
          "name": "",
          "type": "tuple"
        }
      ],
      "stateMutability": "view",
      "type": "function"
    },
    {
      "inputs": [
        {
          "internalType": "address",
          "name": "pair",
          "type": "address"
        }
      ],
      "name": "observationLength",
      "outputs": [
        {
          "internalType": "uint256",
          "name": "",
          "type": "uint256"
        }
      ],
      "stateMutability": "view",
      "type": "function"
    },
    {
      "inputs": [
        {
          "internalType": "address",
          "name": "",
          "type": "address"
        },
        {
          "internalType": "uint256",
          "name": "",
          "type": "uint256"
        }
      ],
      "name": "observations",
      "outputs": [
        {
          "internalType": "uint256",
          "name": "timestamp",
          "type": "uint256"
        },
        {
          "internalType": "uint256",
          "name": "price0Cumulative",
          "type": "uint256"
        },
        {
          "internalType": "uint256",
          "name": "price1Cumulative",
          "type": "uint256"
        }
      ],
      "stateMutability": "view",
      "type": "function"
    },
    {
      "inputs": [],
      "name": "owner",
      "outputs": [
        {
          "internalType": "address",
          "name": "",
          "type": "address"
        }
      ],
      "stateMutability": "view",
      "type": "function"
    },
    {
      "inputs": [
        {
          "internalType": "address",
          "name": "tokenA",
          "type": "address"
        },
        {
          "internalType": "address",
          "name": "tokenB",
          "type": "address"
        }
      ],
      "name": "pairFor",
      "outputs": [
        {
          "internalType": "address",
          "name": "",
          "type": "address"
        }
      ],
      "stateMutability": "pure",
      "type": "function"
    },
    {
      "inputs": [
        {
          "internalType": "address",
          "name": "tokenA",
          "type": "address"
        }
      ],
      "name": "pairForCELO",
      "outputs": [
        {
          "internalType": "address",
          "name": "",
          "type": "address"
        }
      ],
      "stateMutability": "pure",
      "type": "function"
    },
    {
      "inputs": [
        {
          "internalType": "address",
          "name": "tokenA",
          "type": "address"
        }
      ],
      "name": "pairForMCELO",
      "outputs": [
        {
          "internalType": "address",
          "name": "",
          "type": "address"
        }
      ],
      "stateMutability": "pure",
      "type": "function"
    },
    {
      "inputs": [],
      "name": "pairs",
      "outputs": [
        {
          "internalType": "address[]",
          "name": "",
          "type": "address[]"
        }
      ],
      "stateMutability": "view",
      "type": "function"
    },
    {
      "inputs": [],
      "name": "periodSize",
      "outputs": [
        {
          "internalType": "uint256",
          "name": "",
          "type": "uint256"
        }
      ],
      "stateMutability": "view",
      "type": "function"
    },
    {
      "inputs": [],
      "name": "renounceOwnership",
      "outputs": [],
      "stateMutability": "nonpayable",
      "type": "function"
    },
    {
      "inputs": [
        {
          "internalType": "address",
          "name": "newOwner",
          "type": "address"
        }
      ],
      "name": "transferOwnership",
      "outputs": [],
      "stateMutability": "nonpayable",
      "type": "function"
    },
    {
      "inputs": [
        {
          "internalType": "address",
          "name": "tokenA",
          "type": "address"
        },
        {
          "internalType": "address",
          "name": "tokenB",
          "type": "address"
        }
      ],
      "name": "update",
      "outputs": [
        {
          "internalType": "bool",
          "name": "",
          "type": "bool"
        }
      ],
      "stateMutability": "nonpayable",
      "type": "function"
    },
    {
      "inputs": [
        {
          "internalType": "uint256",
          "name": "i",
          "type": "uint256"
        },
        {
          "internalType": "uint256",
          "name": "length",
          "type": "uint256"
        }
      ],
      "name": "updateFor",
      "outputs": [
        {
          "internalType": "bool",
          "name": "updated",
          "type": "bool"
        }
      ],
      "stateMutability": "nonpayable",
      "type": "function"
    },
    {
      "inputs": [
        {
          "internalType": "address",
          "name": "pair",
          "type": "address"
        }
      ],
      "name": "updatePair",
      "outputs": [
        {
          "internalType": "bool",
          "name": "",
          "type": "bool"
        }
      ],
      "stateMutability": "nonpayable",
      "type": "function"
    },
    {
      "inputs": [],
      "name": "work",
      "outputs": [],
      "stateMutability": "nonpayable",
      "type": "function"
    },
    {
      "inputs": [],
      "name": "workable",
      "outputs": [
        {
          "internalType": "bool",
          "name": "",
          "type": "bool"
        }
      ],
      "stateMutability": "view",
      "type": "function"
    },
    {
      "inputs": [
        {
          "internalType": "address",
          "name": "pair",
          "type": "address"
        }
      ],
      "name": "workable",
      "outputs": [
        {
          "internalType": "bool",
          "name": "",
          "type": "bool"
        }
      ],
      "stateMutability": "view",
      "type": "function"
    }
  ],
  "bytecode": "608060405234801561001057600080fd5b50600061001b61006a565b600080546001600160a01b0319166001600160a01b0383169081178255604051929350917f8be0079c531659141344cd1fd0a4f28419497f9722a3daafe3b4186f6b6457e0908290a35061006e565b3390565b6112b08061007d6000396000f3fe608060405234801561001057600080fd5b50600436106101375760003560e01c806396ed28f9116100b8578063c640752d1161007c578063c640752d14610265578063c9ff6f4d14610278578063e4463eb21461028b578063f2fde38b14610293578063f60e673e146102a6578063ffb0a4a0146102ae57610137565b806396ed28f91461021c5780639f4713031461022f578063b4b5b8b014610242578063b6f3e0871461024a578063c45a01551461025d57610137565b8063322e9f04116100ff578063322e9f04146101da578063715018a6146101e457806380bb2bac146101ec57806381bfb885146101f45780638da5cb5b1461021457610137565b8063024599661461013c57806306ffce60146101675780631b56bbf914610187578063202e1e43146101a757806330f5fd5b146101c7575b600080fd5b61014f61014a366004610f08565b6102c3565b60405161015e9392919061124f565b60405180910390f35b61017a610175366004610eb9565b610302565b60405161015e919061103c565b61019a610195366004610eb9565b610332565b60405161015e919061109d565b6101ba6101b5366004610eb9565b610385565b60405161015e9190611225565b61017a6101d5366004610eb9565b6103f3565b6101e2610416565b005b6101e2610481565b61019a61050a565b610207610202366004610eb9565b610562565b60405161015e9190611246565b61017a61057d565b61017a61022a366004610ed4565b61058c565b61019a61023d366004610eb9565b6105b6565b61017a6105ce565b6101e2610258366004610ed4565b610631565b61017a6107a2565b61019a610273366004610ed4565b6107ba565b61019a610286366004610f9e565b61082f565b6102076108b6565b6101e26102a1366004610eb9565b6108bc565b61017a61097c565b6102b66109d7565b60405161015e9190611050565b600360205281600052604060002081815481106102dc57fe5b600091825260209091206003909102018054600182015460029092015490935090915083565b600061032a7362d5b84be28a183abb507e125b384122d2c25fae836103256105ce565b610a39565b90505b919050565b600061033c610aa9565b6001600160a01b031661034d61057d565b6001600160a01b03161461037c5760405162461bcd60e51b815260040161037390611133565b60405180910390fd5b61032a82610aad565b61038d610e6f565b6001600160a01b0382166000908152600360205260409020805460001981019081106103b557fe5b906000526020600020906003020160405180606001604052908160008201548152602001600182015481526020016002820154815250509050919050565b600061032a7362d5b84be28a183abb507e125b384122d2c25fae8361032561097c565b61041e610aa9565b6001600160a01b031661042f61057d565b6001600160a01b0316146104555760405162461bcd60e51b815260040161037390611133565b600061045f610b53565b90508061047e5760405162461bcd60e51b8152600401610373906111f5565b50565b610489610aa9565b6001600160a01b031661049a61057d565b6001600160a01b0316146104c05760405162461bcd60e51b815260040161037390611133565b600080546040516001600160a01b03909116907f8be0079c531659141344cd1fd0a4f28419497f9722a3daafe3b4186f6b6457e0908390a3600080546001600160a01b0319169055565b6000805b600154811015610559576105426001828154811061052857fe5b6000918252602090912001546001600160a01b03166105b6565b1561055157600191505061055f565b60010161050e565b50600090505b90565b6001600160a01b031660009081526003602052604090205490565b6000546001600160a01b031690565b60006105ad7362d5b84be28a183abb507e125b384122d2c25fae8484610a39565b90505b92915050565b60006107086105c483610385565b5142031192915050565b6000806105d9610b87565b90508061a4ec141561060257737037f7296b2fc7908de7b57a89efaa8319f0c50091505061055f565b8061aef31415610629577386f61eb83e10e914fc6f321f5dd3c2dd4860a00391505061055f565b600091505090565b610639610aa9565b6001600160a01b031661064a61057d565b6001600160a01b0316146106705760405162461bcd60e51b815260040161037390611133565b60006106917362d5b84be28a183abb507e125b384122d2c25fae8484610a39565b6001600160a01b03811660009081526002602052604090205490915060ff16156106cd5760405162461bcd60e51b815260040161037390611168565b6001600160a01b0381166000818152600260205260408120805460ff19166001908117909155805480820182559082527fb10e2d527612073b26eecdfd717e6a320cf44b4afac2b0732d9fcbe2b7fa0cf60180546001600160a01b0319169092179091558061073b83610b8b565b506001600160a01b039094166000908152600360208181526040808420815160608101835242815280840196875291820198895280546001818101835591865292909420905191909202909101908155915190820155925160029093019290925550505050565b7362d5b84be28a183abb507e125b384122d2c25fae81565b60006107c4610aa9565b6001600160a01b03166107d561057d565b6001600160a01b0316146107fb5760405162461bcd60e51b815260040161037390611133565b600061081c7362d5b84be28a183abb507e125b384122d2c25fae8585610a39565b905061082781610aad565b949350505050565b6000610839610aa9565b6001600160a01b031661084a61057d565b6001600160a01b0316146108705760405162461bcd60e51b815260040161037390611133565b818310156105b0576108a26001848154811061088857fe5b6000918252602090912001546001600160a01b0316610aad565b156108ab575060015b600190920191610870565b61070881565b6108c4610aa9565b6001600160a01b03166108d561057d565b6001600160a01b0316146108fb5760405162461bcd60e51b815260040161037390611133565b6001600160a01b0381166109215760405162461bcd60e51b8152600401610373906110a8565b600080546040516001600160a01b03808516939216917f8be0079c531659141344cd1fd0a4f28419497f9722a3daafe3b4186f6b6457e091a3600080546001600160a01b0319166001600160a01b0392909216919091179055565b600080610987610b87565b90508061a4ec14156109b05773471ece3750da237f93b8e339c536989b8978a43891505061055f565b8061aef314156106295773f194afdf50b03e69bd7d057c1aa9e10c9954e4c991505061055f565b60606001805480602002602001604051908101604052809291908181526020018280548015610a2f57602002820191906000526020600020905b81546001600160a01b03168152600190910190602001808311610a11575b5050505050905090565b6000806000610a488585610d60565b91509150858282604051602001610a60929190610fbf565b60405160208183030381529060405280519060200120604051602001610a87929190610fe6565b60408051601f1981840301815291905280516020909101209695505050505050565b3390565b6000610ab7610e6f565b610ac083610385565b80519091504203610708811115610b4957600080610add86610b8b565b506001600160a01b03881660009081526003602081815260408084208151606081018352428152808401978852918201958652805460018181018355918652929094209051919092029091019081559251838201559051600290920191909155945061032d9350505050565b5060009392505050565b6000805b600154811015610b8357610b716001828154811061088857fe5b15610b7b57600191505b600101610b57565b5090565b4690565b6000806000610b98610dea565b9050836001600160a01b0316635909c0d56040518163ffffffff1660e01b815260040160206040518083038186803b158015610bd357600080fd5b505afa158015610be7573d6000803e3d6000fd5b505050506040513d601f19601f82011682018060405250810190610c0b9190610f86565b9250836001600160a01b0316635a3d54936040518163ffffffff1660e01b815260040160206040518083038186803b158015610c4657600080fd5b505afa158015610c5a573d6000803e3d6000fd5b505050506040513d601f19601f82011682018060405250810190610c7e9190610f86565b91506000806000866001600160a01b0316630902f1ac6040518163ffffffff1660e01b815260040160606040518083038186803b158015610cbe57600080fd5b505afa158015610cd2573d6000803e3d6000fd5b505050506040513d601f19601f82011682018060405250810190610cf69190610f32565b9250925092508363ffffffff168163ffffffff1614610d565780840363ffffffff8116610d238486610df4565b516001600160e01b031602969096019563ffffffff8116610d448585610df4565b516001600160e01b0316029590950194505b5050509193909250565b600080826001600160a01b0316846001600160a01b03161415610d955760405162461bcd60e51b8152600401610373906110ee565b826001600160a01b0316846001600160a01b031610610db5578284610db8565b83835b90925090506001600160a01b038216610de35760405162461bcd60e51b815260040161037390611187565b9250929050565b63ffffffff421690565b610dfc610e90565b6000826001600160701b031611610e255760405162461bcd60e51b8152600401610373906111be565b6040805160208101909152806001600160701b0384166dffffffffffffffffffffffffffff60701b607087901b1681610e5a57fe5b046001600160e01b0316815250905092915050565b60405180606001604052806000815260200160008152602001600081525090565b60408051602081019091526000815290565b80356001600160a01b03811681146105b057600080fd5b600060208284031215610eca578081fd5b6105ad8383610ea2565b60008060408385031215610ee6578081fd5b610ef08484610ea2565b9150610eff8460208501610ea2565b90509250929050565b60008060408385031215610f1a578182fd5b610f248484610ea2565b946020939093013593505050565b600080600060608486031215610f46578081fd5b8351610f5181611265565b6020850151909350610f6281611265565b604085015190925063ffffffff81168114610f7b578182fd5b809150509250925092565b600060208284031215610f97578081fd5b5051919050565b60008060408385031215610fb0578182fd5b50508035926020909101359150565b6bffffffffffffffffffffffff19606093841b811682529190921b16601482015260280190565b6001600160f81b0319815260609290921b6bffffffffffffffffffffffff1916600183015260158201527fb3b8ff62960acea3a88039ebcf80699f15786f1b17cebd82802f7375827a339c603582015260550190565b6001600160a01b0391909116815260200190565b6020808252825182820181905260009190848201906040850190845b818110156110915783516001600160a01b03168352928401929184019160010161106c565b50909695505050505050565b901515815260200190565b60208082526026908201527f4f776e61626c653a206e6577206f776e657220697320746865207a65726f206160408201526564647265737360d01b606082015260800190565b60208082526025908201527f556e697377617056324c6962726172793a204944454e544943414c5f41444452604082015264455353455360d81b606082015260800190565b6020808252818101527f4f776e61626c653a2063616c6c6572206973206e6f7420746865206f776e6572604082015260600190565b60208082526005908201526435b737bbb760d91b604082015260600190565b6020808252601e908201527f556e697377617056324c6962726172793a205a45524f5f414444524553530000604082015260600190565b60208082526017908201527f4669786564506f696e743a204449565f42595f5a45524f000000000000000000604082015260600190565b602080825260169082015275556e697377617056324f7261636c653a2021776f726b60501b604082015260600190565b81518152602080830151908201526040918201519181019190915260600190565b90815260200190565b9283526020830191909152604082015260600190565b6001600160701b038116811461047e57600080fdfea264697066735822122042f2d8df9383def3d2a1d78649ad5d59246eb138b281c4d48c717e554df3ce3f64736f6c634300060c0033",
  "bytecodeSha1": "46ed391fdf991841e75c34f9cdb5ecd8df3fd67e",
  "compiler": {
    "evm_version": "istanbul",
    "optimizer": {
      "enabled": true,
      "runs": 200
    },
    "version": "0.6.12+commit.27d51765"
  },
  "contractName": "UbeswapV1Oracle",
  "language": "Solidity",
  "natspec": {
    "kind": "dev",
    "methods": {
      "owner()": {
        "details": "Returns the address of the current owner."
      },
      "renounceOwnership()": {
        "details": "Leaves the contract without owner. It will not be possible to call `onlyOwner` functions anymore. Can only be called by the current owner. NOTE: Renouncing ownership will leave the contract without an owner, thereby removing any functionality that is only available to the owner."
      },
      "transferOwnership(address)": {
        "details": "Transfers ownership of the contract to a new account (`newOwner`). Can only be called by the current owner."
      }
    },
    "version": 1
  },
  "opcodes": "PUSH1 0x80 PUSH1 0x40 MSTORE CALLVALUE DUP1 ISZERO PUSH2 0x10 JUMPI PUSH1 0x0 DUP1 REVERT JUMPDEST POP PUSH1 0x4 CALLDATASIZE LT PUSH2 0x137 JUMPI PUSH1 0x0 CALLDATALOAD PUSH1 0xE0 SHR DUP1 PUSH4 0x96ED28F9 GT PUSH2 0xB8 JUMPI DUP1 PUSH4 0xC640752D GT PUSH2 0x7C JUMPI DUP1 PUSH4 0xC640752D EQ PUSH2 0x265 JUMPI DUP1 PUSH4 0xC9FF6F4D EQ PUSH2 0x278 JUMPI DUP1 PUSH4 0xE4463EB2 EQ PUSH2 0x28B JUMPI DUP1 PUSH4 0xF2FDE38B EQ PUSH2 0x293 JUMPI DUP1 PUSH4 0xF60E673E EQ PUSH2 0x2A6 JUMPI DUP1 PUSH4 0xFFB0A4A0 EQ PUSH2 0x2AE JUMPI PUSH2 0x137 JUMP JUMPDEST DUP1 PUSH4 0x96ED28F9 EQ PUSH2 0x21C JUMPI DUP1 PUSH4 0x9F471303 EQ PUSH2 0x22F JUMPI DUP1 PUSH4 0xB4B5B8B0 EQ PUSH2 0x242 JUMPI DUP1 PUSH4 0xB6F3E087 EQ PUSH2 0x24A JUMPI DUP1 PUSH4 0xC45A0155 EQ PUSH2 0x25D JUMPI PUSH2 0x137 JUMP JUMPDEST DUP1 PUSH4 0x322E9F04 GT PUSH2 0xFF JUMPI DUP1 PUSH4 0x322E9F04 EQ PUSH2 0x1DA JUMPI DUP1 PUSH4 0x715018A6 EQ PUSH2 0x1E4 JUMPI DUP1 PUSH4 0x80BB2BAC EQ PUSH2 0x1EC JUMPI DUP1 PUSH4 0x81BFB885 EQ PUSH2 0x1F4 JUMPI DUP1 PUSH4 0x8DA5CB5B EQ PUSH2 0x214 JUMPI PUSH2 0x137 JUMP JUMPDEST DUP1 PUSH4 0x2459966 EQ PUSH2 0x13C JUMPI DUP1 PUSH4 0x6FFCE60 EQ PUSH2 0x167 JUMPI DUP1 PUSH4 0x1B56BBF9 EQ PUSH2 0x187 JUMPI DUP1 PUSH4 0x202E1E43 EQ PUSH2 0x1A7 JUMPI DUP1 PUSH4 0x30F5FD5B EQ PUSH2 0x1C7 JUMPI JUMPDEST PUSH1 0x0 DUP1 REVERT JUMPDEST PUSH2 0x14F PUSH2 0x14A CALLDATASIZE PUSH1 0x4 PUSH2 0xF08 JUMP JUMPDEST PUSH2 0x2C3 JUMP JUMPDEST PUSH1 0x40 MLOAD PUSH2 0x15E SWAP4 SWAP3 SWAP2 SWAP1 PUSH2 0x124F JUMP JUMPDEST PUSH1 0x40 MLOAD DUP1 SWAP2 SUB SWAP1 RETURN JUMPDEST PUSH2 0x17A PUSH2 0x175 CALLDATASIZE PUSH1 0x4 PUSH2 0xEB9 JUMP JUMPDEST PUSH2 0x302 JUMP JUMPDEST PUSH1 0x40 MLOAD PUSH2 0x15E SWAP2 SWAP1 PUSH2 0x103C JUMP JUMPDEST PUSH2 0x19A PUSH2 0x195 CALLDATASIZE PUSH1 0x4 PUSH2 0xEB9 JUMP JUMPDEST PUSH2 0x332 JUMP JUMPDEST PUSH1 0x40 MLOAD PUSH2 0x15E SWAP2 SWAP1 PUSH2 0x109D JUMP JUMPDEST PUSH2 0x1BA PUSH2 0x1B5 CALLDATASIZE PUSH1 0x4 PUSH2 0xEB9 JUMP JUMPDEST PUSH2 0x385 JUMP JUMPDEST PUSH1 0x40 MLOAD PUSH2 0x15E SWAP2 SWAP1 PUSH2 0x1225 JUMP JUMPDEST PUSH2 0x17A PUSH2 0x1D5 CALLDATASIZE PUSH1 0x4 PUSH2 0xEB9 JUMP JUMPDEST PUSH2 0x3F3 JUMP JUMPDEST PUSH2 0x1E2 PUSH2 0x416 JUMP JUMPDEST STOP JUMPDEST PUSH2 0x1E2 PUSH2 0x481 JUMP JUMPDEST PUSH2 0x19A PUSH2 0x50A JUMP JUMPDEST PUSH2 0x207 PUSH2 0x202 CALLDATASIZE PUSH1 0x4 PUSH2 0xEB9 JUMP JUMPDEST PUSH2 0x562 JUMP JUMPDEST PUSH1 0x40 MLOAD PUSH2 0x15E SWAP2 SWAP1 PUSH2 0x1246 JUMP JUMPDEST PUSH2 0x17A PUSH2 0x57D JUMP JUMPDEST PUSH2 0x17A PUSH2 0x22A CALLDATASIZE PUSH1 0x4 PUSH2 0xED4 JUMP JUMPDEST PUSH2 0x58C JUMP JUMPDEST PUSH2 0x19A PUSH2 0x23D CALLDATASIZE PUSH1 0x4 PUSH2 0xEB9 JUMP JUMPDEST PUSH2 0x5B6 JUMP JUMPDEST PUSH2 0x17A PUSH2 0x5CE JUMP JUMPDEST PUSH2 0x1E2 PUSH2 0x258 CALLDATASIZE PUSH1 0x4 PUSH2 0xED4 JUMP JUMPDEST PUSH2 0x631 JUMP JUMPDEST PUSH2 0x17A PUSH2 0x7A2 JUMP JUMPDEST PUSH2 0x19A PUSH2 0x273 CALLDATASIZE PUSH1 0x4 PUSH2 0xED4 JUMP JUMPDEST PUSH2 0x7BA JUMP JUMPDEST PUSH2 0x19A PUSH2 0x286 CALLDATASIZE PUSH1 0x4 PUSH2 0xF9E JUMP JUMPDEST PUSH2 0x82F JUMP JUMPDEST PUSH2 0x207 PUSH2 0x8B6 JUMP JUMPDEST PUSH2 0x1E2 PUSH2 0x2A1 CALLDATASIZE PUSH1 0x4 PUSH2 0xEB9 JUMP JUMPDEST PUSH2 0x8BC JUMP JUMPDEST PUSH2 0x17A PUSH2 0x97C JUMP JUMPDEST PUSH2 0x2B6 PUSH2 0x9D7 JUMP JUMPDEST PUSH1 0x40 MLOAD PUSH2 0x15E SWAP2 SWAP1 PUSH2 0x1050 JUMP JUMPDEST PUSH1 0x3 PUSH1 0x20 MSTORE DUP2 PUSH1 0x0 MSTORE PUSH1 0x40 PUSH1 0x0 KECCAK256 DUP2 DUP2 SLOAD DUP2 LT PUSH2 0x2DC JUMPI INVALID JUMPDEST PUSH1 0x0 SWAP2 DUP3 MSTORE PUSH1 0x20 SWAP1 SWAP2 KECCAK256 PUSH1 0x3 SWAP1 SWAP2 MUL ADD DUP1 SLOAD PUSH1 0x1 DUP3 ADD SLOAD PUSH1 0x2 SWAP1 SWAP3 ADD SLOAD SWAP1 SWAP4 POP SWAP1 SWAP2 POP DUP4 JUMP JUMPDEST PUSH1 0x0 PUSH2 0x32A PUSH20 0x62D5B84BE28A183ABB507E125B384122D2C25FAE DUP4 PUSH2 0x325 PUSH2 0x5CE JUMP JUMPDEST PUSH2 0xA39 JUMP JUMPDEST SWAP1 POP JUMPDEST SWAP2 SWAP1 POP JUMP JUMPDEST PUSH1 0x0 PUSH2 0x33C PUSH2 0xAA9 JUMP JUMPDEST PUSH1 0x1 PUSH1 0x1 PUSH1 0xA0 SHL SUB AND PUSH2 0x34D PUSH2 0x57D JUMP JUMPDEST PUSH1 0x1 PUSH1 0x1 PUSH1 0xA0 SHL SUB AND EQ PUSH2 0x37C JUMPI PUSH1 0x40 MLOAD PUSH3 0x461BCD PUSH1 0xE5 SHL DUP2 MSTORE PUSH1 0x4 ADD PUSH2 0x373 SWAP1 PUSH2 0x1133 JUMP JUMPDEST PUSH1 0x40 MLOAD DUP1 SWAP2 SUB SWAP1 REVERT JUMPDEST PUSH2 0x32A DUP3 PUSH2 0xAAD JUMP JUMPDEST PUSH2 0x38D PUSH2 0xE6F JUMP JUMPDEST PUSH1 0x1 PUSH1 0x1 PUSH1 0xA0 SHL SUB DUP3 AND PUSH1 0x0 SWAP1 DUP2 MSTORE PUSH1 0x3 PUSH1 0x20 MSTORE PUSH1 0x40 SWAP1 KECCAK256 DUP1 SLOAD PUSH1 0x0 NOT DUP2 ADD SWAP1 DUP2 LT PUSH2 0x3B5 JUMPI INVALID JUMPDEST SWAP1 PUSH1 0x0 MSTORE PUSH1 0x20 PUSH1 0x0 KECCAK256 SWAP1 PUSH1 0x3 MUL ADD PUSH1 0x40 MLOAD DUP1 PUSH1 0x60 ADD PUSH1 0x40 MSTORE SWAP1 DUP2 PUSH1 0x0 DUP3 ADD SLOAD DUP2 MSTORE PUSH1 0x20 ADD PUSH1 0x1 DUP3 ADD SLOAD DUP2 MSTORE PUSH1 0x20 ADD PUSH1 0x2 DUP3 ADD SLOAD DUP2 MSTORE POP POP SWAP1 POP SWAP2 SWAP1 POP JUMP JUMPDEST PUSH1 0x0 PUSH2 0x32A PUSH20 0x62D5B84BE28A183ABB507E125B384122D2C25FAE DUP4 PUSH2 0x325 PUSH2 0x97C JUMP JUMPDEST PUSH2 0x41E PUSH2 0xAA9 JUMP JUMPDEST PUSH1 0x1 PUSH1 0x1 PUSH1 0xA0 SHL SUB AND PUSH2 0x42F PUSH2 0x57D JUMP JUMPDEST PUSH1 0x1 PUSH1 0x1 PUSH1 0xA0 SHL SUB AND EQ PUSH2 0x455 JUMPI PUSH1 0x40 MLOAD PUSH3 0x461BCD PUSH1 0xE5 SHL DUP2 MSTORE PUSH1 0x4 ADD PUSH2 0x373 SWAP1 PUSH2 0x1133 JUMP JUMPDEST PUSH1 0x0 PUSH2 0x45F PUSH2 0xB53 JUMP JUMPDEST SWAP1 POP DUP1 PUSH2 0x47E JUMPI PUSH1 0x40 MLOAD PUSH3 0x461BCD PUSH1 0xE5 SHL DUP2 MSTORE PUSH1 0x4 ADD PUSH2 0x373 SWAP1 PUSH2 0x11F5 JUMP JUMPDEST POP JUMP JUMPDEST PUSH2 0x489 PUSH2 0xAA9 JUMP JUMPDEST PUSH1 0x1 PUSH1 0x1 PUSH1 0xA0 SHL SUB AND PUSH2 0x49A PUSH2 0x57D JUMP JUMPDEST PUSH1 0x1 PUSH1 0x1 PUSH1 0xA0 SHL SUB AND EQ PUSH2 0x4C0 JUMPI PUSH1 0x40 MLOAD PUSH3 0x461BCD PUSH1 0xE5 SHL DUP2 MSTORE PUSH1 0x4 ADD PUSH2 0x373 SWAP1 PUSH2 0x1133 JUMP JUMPDEST PUSH1 0x0 DUP1 SLOAD PUSH1 0x40 MLOAD PUSH1 0x1 PUSH1 0x1 PUSH1 0xA0 SHL SUB SWAP1 SWAP2 AND SWAP1 PUSH32 0x8BE0079C531659141344CD1FD0A4F28419497F9722A3DAAFE3B4186F6B6457E0 SWAP1 DUP4 SWAP1 LOG3 PUSH1 0x0 DUP1 SLOAD PUSH1 0x1 PUSH1 0x1 PUSH1 0xA0 SHL SUB NOT AND SWAP1 SSTORE JUMP JUMPDEST PUSH1 0x0 DUP1 JUMPDEST PUSH1 0x1 SLOAD DUP2 LT ISZERO PUSH2 0x559 JUMPI PUSH2 0x542 PUSH1 0x1 DUP3 DUP2 SLOAD DUP2 LT PUSH2 0x528 JUMPI INVALID JUMPDEST PUSH1 0x0 SWAP2 DUP3 MSTORE PUSH1 0x20 SWAP1 SWAP2 KECCAK256 ADD SLOAD PUSH1 0x1 PUSH1 0x1 PUSH1 0xA0 SHL SUB AND PUSH2 0x5B6 JUMP JUMPDEST ISZERO PUSH2 0x551 JUMPI PUSH1 0x1 SWAP2 POP POP PUSH2 0x55F JUMP JUMPDEST PUSH1 0x1 ADD PUSH2 0x50E JUMP JUMPDEST POP PUSH1 0x0 SWAP1 POP JUMPDEST SWAP1 JUMP JUMPDEST PUSH1 0x1 PUSH1 0x1 PUSH1 0xA0 SHL SUB AND PUSH1 0x0 SWAP1 DUP2 MSTORE PUSH1 0x3 PUSH1 0x20 MSTORE PUSH1 0x40 SWAP1 KECCAK256 SLOAD SWAP1 JUMP JUMPDEST PUSH1 0x0 SLOAD PUSH1 0x1 PUSH1 0x1 PUSH1 0xA0 SHL SUB AND SWAP1 JUMP JUMPDEST PUSH1 0x0 PUSH2 0x5AD PUSH20 0x62D5B84BE28A183ABB507E125B384122D2C25FAE DUP5 DUP5 PUSH2 0xA39 JUMP JUMPDEST SWAP1 POP JUMPDEST SWAP3 SWAP2 POP POP JUMP JUMPDEST PUSH1 0x0 PUSH2 0x708 PUSH2 0x5C4 DUP4 PUSH2 0x385 JUMP JUMPDEST MLOAD TIMESTAMP SUB GT SWAP3 SWAP2 POP POP JUMP JUMPDEST PUSH1 0x0 DUP1 PUSH2 0x5D9 PUSH2 0xB87 JUMP JUMPDEST SWAP1 POP DUP1 PUSH2 0xA4EC EQ ISZERO PUSH2 0x602 JUMPI PUSH20 0x7037F7296B2FC7908DE7B57A89EFAA8319F0C500 SWAP2 POP POP PUSH2 0x55F JUMP JUMPDEST DUP1 PUSH2 0xAEF3 EQ ISZERO PUSH2 0x629 JUMPI PUSH20 0x86F61EB83E10E914FC6F321F5DD3C2DD4860A003 SWAP2 POP POP PUSH2 0x55F JUMP JUMPDEST PUSH1 0x0 SWAP2 POP POP SWAP1 JUMP JUMPDEST PUSH2 0x639 PUSH2 0xAA9 JUMP JUMPDEST PUSH1 0x1 PUSH1 0x1 PUSH1 0xA0 SHL SUB AND PUSH2 0x64A PUSH2 0x57D JUMP JUMPDEST PUSH1 0x1 PUSH1 0x1 PUSH1 0xA0 SHL SUB AND EQ PUSH2 0x670 JUMPI PUSH1 0x40 MLOAD PUSH3 0x461BCD PUSH1 0xE5 SHL DUP2 MSTORE PUSH1 0x4 ADD PUSH2 0x373 SWAP1 PUSH2 0x1133 JUMP JUMPDEST PUSH1 0x0 PUSH2 0x691 PUSH20 0x62D5B84BE28A183ABB507E125B384122D2C25FAE DUP5 DUP5 PUSH2 0xA39 JUMP JUMPDEST PUSH1 0x1 PUSH1 0x1 PUSH1 0xA0 SHL SUB DUP2 AND PUSH1 0x0 SWAP1 DUP2 MSTORE PUSH1 0x2 PUSH1 0x20 MSTORE PUSH1 0x40 SWAP1 KECCAK256 SLOAD SWAP1 SWAP2 POP PUSH1 0xFF AND ISZERO PUSH2 0x6CD JUMPI PUSH1 0x40 MLOAD PUSH3 0x461BCD PUSH1 0xE5 SHL DUP2 MSTORE PUSH1 0x4 ADD PUSH2 0x373 SWAP1 PUSH2 0x1168 JUMP JUMPDEST PUSH1 0x1 PUSH1 0x1 PUSH1 0xA0 SHL SUB DUP2 AND PUSH1 0x0 DUP2 DUP2 MSTORE PUSH1 0x2 PUSH1 0x20 MSTORE PUSH1 0x40 DUP2 KECCAK256 DUP1 SLOAD PUSH1 0xFF NOT AND PUSH1 0x1 SWAP1 DUP2 OR SWAP1 SWAP2 SSTORE DUP1 SLOAD DUP1 DUP3 ADD DUP3 SSTORE SWAP1 DUP3 MSTORE PUSH32 0xB10E2D527612073B26EECDFD717E6A320CF44B4AFAC2B0732D9FCBE2B7FA0CF6 ADD DUP1 SLOAD PUSH1 0x1 PUSH1 0x1 PUSH1 0xA0 SHL SUB NOT AND SWAP1 SWAP3 OR SWAP1 SWAP2 SSTORE DUP1 PUSH2 0x73B DUP4 PUSH2 0xB8B JUMP JUMPDEST POP PUSH1 0x1 PUSH1 0x1 PUSH1 0xA0 SHL SUB SWAP1 SWAP5 AND PUSH1 0x0 SWAP1 DUP2 MSTORE PUSH1 0x3 PUSH1 0x20 DUP2 DUP2 MSTORE PUSH1 0x40 DUP1 DUP5 KECCAK256 DUP2 MLOAD PUSH1 0x60 DUP2 ADD DUP4 MSTORE TIMESTAMP DUP2 MSTORE DUP1 DUP5 ADD SWAP7 DUP8 MSTORE SWAP2 DUP3 ADD SWAP9 DUP10 MSTORE DUP1 SLOAD PUSH1 0x1 DUP2 DUP2 ADD DUP4 SSTORE SWAP2 DUP7 MSTORE SWAP3 SWAP1 SWAP5 KECCAK256 SWAP1 MLOAD SWAP2 SWAP1 SWAP3 MUL SWAP1 SWAP2 ADD SWAP1 DUP2 SSTORE SWAP2 MLOAD SWAP1 DUP3 ADD SSTORE SWAP3 MLOAD PUSH1 0x2 SWAP1 SWAP4 ADD SWAP3 SWAP1 SWAP3 SSTORE POP POP POP POP JUMP JUMPDEST PUSH20 0x62D5B84BE28A183ABB507E125B384122D2C25FAE DUP2 JUMP JUMPDEST PUSH1 0x0 PUSH2 0x7C4 PUSH2 0xAA9 JUMP JUMPDEST PUSH1 0x1 PUSH1 0x1 PUSH1 0xA0 SHL SUB AND PUSH2 0x7D5 PUSH2 0x57D JUMP JUMPDEST PUSH1 0x1 PUSH1 0x1 PUSH1 0xA0 SHL SUB AND EQ PUSH2 0x7FB JUMPI PUSH1 0x40 MLOAD PUSH3 0x461BCD PUSH1 0xE5 SHL DUP2 MSTORE PUSH1 0x4 ADD PUSH2 0x373 SWAP1 PUSH2 0x1133 JUMP JUMPDEST PUSH1 0x0 PUSH2 0x81C PUSH20 0x62D5B84BE28A183ABB507E125B384122D2C25FAE DUP6 DUP6 PUSH2 0xA39 JUMP JUMPDEST SWAP1 POP PUSH2 0x827 DUP2 PUSH2 0xAAD JUMP JUMPDEST SWAP5 SWAP4 POP POP POP POP JUMP JUMPDEST PUSH1 0x0 PUSH2 0x839 PUSH2 0xAA9 JUMP JUMPDEST PUSH1 0x1 PUSH1 0x1 PUSH1 0xA0 SHL SUB AND PUSH2 0x84A PUSH2 0x57D JUMP JUMPDEST PUSH1 0x1 PUSH1 0x1 PUSH1 0xA0 SHL SUB AND EQ PUSH2 0x870 JUMPI PUSH1 0x40 MLOAD PUSH3 0x461BCD PUSH1 0xE5 SHL DUP2 MSTORE PUSH1 0x4 ADD PUSH2 0x373 SWAP1 PUSH2 0x1133 JUMP JUMPDEST DUP2 DUP4 LT ISZERO PUSH2 0x5B0 JUMPI PUSH2 0x8A2 PUSH1 0x1 DUP5 DUP2 SLOAD DUP2 LT PUSH2 0x888 JUMPI INVALID JUMPDEST PUSH1 0x0 SWAP2 DUP3 MSTORE PUSH1 0x20 SWAP1 SWAP2 KECCAK256 ADD SLOAD PUSH1 0x1 PUSH1 0x1 PUSH1 0xA0 SHL SUB AND PUSH2 0xAAD JUMP JUMPDEST ISZERO PUSH2 0x8AB JUMPI POP PUSH1 0x1 JUMPDEST PUSH1 0x1 SWAP1 SWAP3 ADD SWAP2 PUSH2 0x870 JUMP JUMPDEST PUSH2 0x708 DUP2 JUMP JUMPDEST PUSH2 0x8C4 PUSH2 0xAA9 JUMP JUMPDEST PUSH1 0x1 PUSH1 0x1 PUSH1 0xA0 SHL SUB AND PUSH2 0x8D5 PUSH2 0x57D JUMP JUMPDEST PUSH1 0x1 PUSH1 0x1 PUSH1 0xA0 SHL SUB AND EQ PUSH2 0x8FB JUMPI PUSH1 0x40 MLOAD PUSH3 0x461BCD PUSH1 0xE5 SHL DUP2 MSTORE PUSH1 0x4 ADD PUSH2 0x373 SWAP1 PUSH2 0x1133 JUMP JUMPDEST PUSH1 0x1 PUSH1 0x1 PUSH1 0xA0 SHL SUB DUP2 AND PUSH2 0x921 JUMPI PUSH1 0x40 MLOAD PUSH3 0x461BCD PUSH1 0xE5 SHL DUP2 MSTORE PUSH1 0x4 ADD PUSH2 0x373 SWAP1 PUSH2 0x10A8 JUMP JUMPDEST PUSH1 0x0 DUP1 SLOAD PUSH1 0x40 MLOAD PUSH1 0x1 PUSH1 0x1 PUSH1 0xA0 SHL SUB DUP1 DUP6 AND SWAP4 SWAP3 AND SWAP2 PUSH32 0x8BE0079C531659141344CD1FD0A4F28419497F9722A3DAAFE3B4186F6B6457E0 SWAP2 LOG3 PUSH1 0x0 DUP1 SLOAD PUSH1 0x1 PUSH1 0x1 PUSH1 0xA0 SHL SUB NOT AND PUSH1 0x1 PUSH1 0x1 PUSH1 0xA0 SHL SUB SWAP3 SWAP1 SWAP3 AND SWAP2 SWAP1 SWAP2 OR SWAP1 SSTORE JUMP JUMPDEST PUSH1 0x0 DUP1 PUSH2 0x987 PUSH2 0xB87 JUMP JUMPDEST SWAP1 POP DUP1 PUSH2 0xA4EC EQ ISZERO PUSH2 0x9B0 JUMPI PUSH20 0x471ECE3750DA237F93B8E339C536989B8978A438 SWAP2 POP POP PUSH2 0x55F JUMP JUMPDEST DUP1 PUSH2 0xAEF3 EQ ISZERO PUSH2 0x629 JUMPI PUSH20 0xF194AFDF50B03E69BD7D057C1AA9E10C9954E4C9 SWAP2 POP POP PUSH2 0x55F JUMP JUMPDEST PUSH1 0x60 PUSH1 0x1 DUP1 SLOAD DUP1 PUSH1 0x20 MUL PUSH1 0x20 ADD PUSH1 0x40 MLOAD SWAP1 DUP2 ADD PUSH1 0x40 MSTORE DUP1 SWAP3 SWAP2 SWAP1 DUP2 DUP2 MSTORE PUSH1 0x20 ADD DUP3 DUP1 SLOAD DUP1 ISZERO PUSH2 0xA2F JUMPI PUSH1 0x20 MUL DUP3 ADD SWAP2 SWAP1 PUSH1 0x0 MSTORE PUSH1 0x20 PUSH1 0x0 KECCAK256 SWAP1 JUMPDEST DUP2 SLOAD PUSH1 0x1 PUSH1 0x1 PUSH1 0xA0 SHL SUB AND DUP2 MSTORE PUSH1 0x1 SWAP1 SWAP2 ADD SWAP1 PUSH1 0x20 ADD DUP1 DUP4 GT PUSH2 0xA11 JUMPI JUMPDEST POP POP POP POP POP SWAP1 POP SWAP1 JUMP JUMPDEST PUSH1 0x0 DUP1 PUSH1 0x0 PUSH2 0xA48 DUP6 DUP6 PUSH2 0xD60 JUMP JUMPDEST SWAP2 POP SWAP2 POP DUP6 DUP3 DUP3 PUSH1 0x40 MLOAD PUSH1 0x20 ADD PUSH2 0xA60 SWAP3 SWAP2 SWAP1 PUSH2 0xFBF JUMP JUMPDEST PUSH1 0x40 MLOAD PUSH1 0x20 DUP2 DUP4 SUB SUB DUP2 MSTORE SWAP1 PUSH1 0x40 MSTORE DUP1 MLOAD SWAP1 PUSH1 0x20 ADD KECCAK256 PUSH1 0x40 MLOAD PUSH1 0x20 ADD PUSH2 0xA87 SWAP3 SWAP2 SWAP1 PUSH2 0xFE6 JUMP JUMPDEST PUSH1 0x40 DUP1 MLOAD PUSH1 0x1F NOT DUP2 DUP5 SUB ADD DUP2 MSTORE SWAP2 SWAP1 MSTORE DUP1 MLOAD PUSH1 0x20 SWAP1 SWAP2 ADD KECCAK256 SWAP7 SWAP6 POP POP POP POP POP POP JUMP JUMPDEST CALLER SWAP1 JUMP JUMPDEST PUSH1 0x0 PUSH2 0xAB7 PUSH2 0xE6F JUMP JUMPDEST PUSH2 0xAC0 DUP4 PUSH2 0x385 JUMP JUMPDEST DUP1 MLOAD SWAP1 SWAP2 POP TIMESTAMP SUB PUSH2 0x708 DUP2 GT ISZERO PUSH2 0xB49 JUMPI PUSH1 0x0 DUP1 PUSH2 0xADD DUP7 PUSH2 0xB8B JUMP JUMPDEST POP PUSH1 0x1 PUSH1 0x1 PUSH1 0xA0 SHL SUB DUP9 AND PUSH1 0x0 SWAP1 DUP2 MSTORE PUSH1 0x3 PUSH1 0x20 DUP2 DUP2 MSTORE PUSH1 0x40 DUP1 DUP5 KECCAK256 DUP2 MLOAD PUSH1 0x60 DUP2 ADD DUP4 MSTORE TIMESTAMP DUP2 MSTORE DUP1 DUP5 ADD SWAP8 DUP9 MSTORE SWAP2 DUP3 ADD SWAP6 DUP7 MSTORE DUP1 SLOAD PUSH1 0x1 DUP2 DUP2 ADD DUP4 SSTORE SWAP2 DUP7 MSTORE SWAP3 SWAP1 SWAP5 KECCAK256 SWAP1 MLOAD SWAP2 SWAP1 SWAP3 MUL SWAP1 SWAP2 ADD SWAP1 DUP2 SSTORE SWAP3 MLOAD DUP4 DUP3 ADD SSTORE SWAP1 MLOAD PUSH1 0x2 SWAP1 SWAP3 ADD SWAP2 SWAP1 SWAP2 SSTORE SWAP5 POP PUSH2 0x32D SWAP4 POP POP POP POP JUMP JUMPDEST POP PUSH1 0x0 SWAP4 SWAP3 POP POP POP JUMP JUMPDEST PUSH1 0x0 DUP1 JUMPDEST PUSH1 0x1 SLOAD DUP2 LT ISZERO PUSH2 0xB83 JUMPI PUSH2 0xB71 PUSH1 0x1 DUP3 DUP2 SLOAD DUP2 LT PUSH2 0x888 JUMPI INVALID JUMPDEST ISZERO PUSH2 0xB7B JUMPI PUSH1 0x1 SWAP2 POP JUMPDEST PUSH1 0x1 ADD PUSH2 0xB57 JUMP JUMPDEST POP SWAP1 JUMP JUMPDEST CHAINID SWAP1 JUMP JUMPDEST PUSH1 0x0 DUP1 PUSH1 0x0 PUSH2 0xB98 PUSH2 0xDEA JUMP JUMPDEST SWAP1 POP DUP4 PUSH1 0x1 PUSH1 0x1 PUSH1 0xA0 SHL SUB AND PUSH4 0x5909C0D5 PUSH1 0x40 MLOAD DUP2 PUSH4 0xFFFFFFFF AND PUSH1 0xE0 SHL DUP2 MSTORE PUSH1 0x4 ADD PUSH1 0x20 PUSH1 0x40 MLOAD DUP1 DUP4 SUB DUP2 DUP7 DUP1 EXTCODESIZE ISZERO DUP1 ISZERO PUSH2 0xBD3 JUMPI PUSH1 0x0 DUP1 REVERT JUMPDEST POP GAS STATICCALL ISZERO DUP1 ISZERO PUSH2 0xBE7 JUMPI RETURNDATASIZE PUSH1 0x0 DUP1 RETURNDATACOPY RETURNDATASIZE PUSH1 0x0 REVERT JUMPDEST POP POP POP POP PUSH1 0x40 MLOAD RETURNDATASIZE PUSH1 0x1F NOT PUSH1 0x1F DUP3 ADD AND DUP3 ADD DUP1 PUSH1 0x40 MSTORE POP DUP2 ADD SWAP1 PUSH2 0xC0B SWAP2 SWAP1 PUSH2 0xF86 JUMP JUMPDEST SWAP3 POP DUP4 PUSH1 0x1 PUSH1 0x1 PUSH1 0xA0 SHL SUB AND PUSH4 0x5A3D5493 PUSH1 0x40 MLOAD DUP2 PUSH4 0xFFFFFFFF AND PUSH1 0xE0 SHL DUP2 MSTORE PUSH1 0x4 ADD PUSH1 0x20 PUSH1 0x40 MLOAD DUP1 DUP4 SUB DUP2 DUP7 DUP1 EXTCODESIZE ISZERO DUP1 ISZERO PUSH2 0xC46 JUMPI PUSH1 0x0 DUP1 REVERT JUMPDEST POP GAS STATICCALL ISZERO DUP1 ISZERO PUSH2 0xC5A JUMPI RETURNDATASIZE PUSH1 0x0 DUP1 RETURNDATACOPY RETURNDATASIZE PUSH1 0x0 REVERT JUMPDEST POP POP POP POP PUSH1 0x40 MLOAD RETURNDATASIZE PUSH1 0x1F NOT PUSH1 0x1F DUP3 ADD AND DUP3 ADD DUP1 PUSH1 0x40 MSTORE POP DUP2 ADD SWAP1 PUSH2 0xC7E SWAP2 SWAP1 PUSH2 0xF86 JUMP JUMPDEST SWAP2 POP PUSH1 0x0 DUP1 PUSH1 0x0 DUP7 PUSH1 0x1 PUSH1 0x1 PUSH1 0xA0 SHL SUB AND PUSH4 0x902F1AC PUSH1 0x40 MLOAD DUP2 PUSH4 0xFFFFFFFF AND PUSH1 0xE0 SHL DUP2 MSTORE PUSH1 0x4 ADD PUSH1 0x60 PUSH1 0x40 MLOAD DUP1 DUP4 SUB DUP2 DUP7 DUP1 EXTCODESIZE ISZERO DUP1 ISZERO PUSH2 0xCBE JUMPI PUSH1 0x0 DUP1 REVERT JUMPDEST POP GAS STATICCALL ISZERO DUP1 ISZERO PUSH2 0xCD2 JUMPI RETURNDATASIZE PUSH1 0x0 DUP1 RETURNDATACOPY RETURNDATASIZE PUSH1 0x0 REVERT JUMPDEST POP POP POP POP PUSH1 0x40 MLOAD RETURNDATASIZE PUSH1 0x1F NOT PUSH1 0x1F DUP3 ADD AND DUP3 ADD DUP1 PUSH1 0x40 MSTORE POP DUP2 ADD SWAP1 PUSH2 0xCF6 SWAP2 SWAP1 PUSH2 0xF32 JUMP JUMPDEST SWAP3 POP SWAP3 POP SWAP3 POP DUP4 PUSH4 0xFFFFFFFF AND DUP2 PUSH4 0xFFFFFFFF AND EQ PUSH2 0xD56 JUMPI DUP1 DUP5 SUB PUSH4 0xFFFFFFFF DUP2 AND PUSH2 0xD23 DUP5 DUP7 PUSH2 0xDF4 JUMP JUMPDEST MLOAD PUSH1 0x1 PUSH1 0x1 PUSH1 0xE0 SHL SUB AND MUL SWAP7 SWAP1 SWAP7 ADD SWAP6 PUSH4 0xFFFFFFFF DUP2 AND PUSH2 0xD44 DUP6 DUP6 PUSH2 0xDF4 JUMP JUMPDEST MLOAD PUSH1 0x1 PUSH1 0x1 PUSH1 0xE0 SHL SUB AND MUL SWAP6 SWAP1 SWAP6 ADD SWAP5 POP JUMPDEST POP POP POP SWAP2 SWAP4 SWAP1 SWAP3 POP JUMP JUMPDEST PUSH1 0x0 DUP1 DUP3 PUSH1 0x1 PUSH1 0x1 PUSH1 0xA0 SHL SUB AND DUP5 PUSH1 0x1 PUSH1 0x1 PUSH1 0xA0 SHL SUB AND EQ ISZERO PUSH2 0xD95 JUMPI PUSH1 0x40 MLOAD PUSH3 0x461BCD PUSH1 0xE5 SHL DUP2 MSTORE PUSH1 0x4 ADD PUSH2 0x373 SWAP1 PUSH2 0x10EE JUMP JUMPDEST DUP3 PUSH1 0x1 PUSH1 0x1 PUSH1 0xA0 SHL SUB AND DUP5 PUSH1 0x1 PUSH1 0x1 PUSH1 0xA0 SHL SUB AND LT PUSH2 0xDB5 JUMPI DUP3 DUP5 PUSH2 0xDB8 JUMP JUMPDEST DUP4 DUP4 JUMPDEST SWAP1 SWAP3 POP SWAP1 POP PUSH1 0x1 PUSH1 0x1 PUSH1 0xA0 SHL SUB DUP3 AND PUSH2 0xDE3 JUMPI PUSH1 0x40 MLOAD PUSH3 0x461BCD PUSH1 0xE5 SHL DUP2 MSTORE PUSH1 0x4 ADD PUSH2 0x373 SWAP1 PUSH2 0x1187 JUMP JUMPDEST SWAP3 POP SWAP3 SWAP1 POP JUMP JUMPDEST PUSH4 0xFFFFFFFF TIMESTAMP AND SWAP1 JUMP JUMPDEST PUSH2 0xDFC PUSH2 0xE90 JUMP JUMPDEST PUSH1 0x0 DUP3 PUSH1 0x1 PUSH1 0x1 PUSH1 0x70 SHL SUB AND GT PUSH2 0xE25 JUMPI PUSH1 0x40 MLOAD PUSH3 0x461BCD PUSH1 0xE5 SHL DUP2 MSTORE PUSH1 0x4 ADD PUSH2 0x373 SWAP1 PUSH2 0x11BE JUMP JUMPDEST PUSH1 0x40 DUP1 MLOAD PUSH1 0x20 DUP2 ADD SWAP1 SWAP2 MSTORE DUP1 PUSH1 0x1 PUSH1 0x1 PUSH1 0x70 SHL SUB DUP5 AND PUSH14 0xFFFFFFFFFFFFFFFFFFFFFFFFFFFF PUSH1 0x70 SHL PUSH1 0x70 DUP8 SWAP1 SHL AND DUP2 PUSH2 0xE5A JUMPI INVALID JUMPDEST DIV PUSH1 0x1 PUSH1 0x1 PUSH1 0xE0 SHL SUB AND DUP2 MSTORE POP SWAP1 POP SWAP3 SWAP2 POP POP JUMP JUMPDEST PUSH1 0x40 MLOAD DUP1 PUSH1 0x60 ADD PUSH1 0x40 MSTORE DUP1 PUSH1 0x0 DUP2 MSTORE PUSH1 0x20 ADD PUSH1 0x0 DUP2 MSTORE PUSH1 0x20 ADD PUSH1 0x0 DUP2 MSTORE POP SWAP1 JUMP JUMPDEST PUSH1 0x40 DUP1 MLOAD PUSH1 0x20 DUP2 ADD SWAP1 SWAP2 MSTORE PUSH1 0x0 DUP2 MSTORE SWAP1 JUMP JUMPDEST DUP1 CALLDATALOAD PUSH1 0x1 PUSH1 0x1 PUSH1 0xA0 SHL SUB DUP2 AND DUP2 EQ PUSH2 0x5B0 JUMPI PUSH1 0x0 DUP1 REVERT JUMPDEST PUSH1 0x0 PUSH1 0x20 DUP3 DUP5 SUB SLT ISZERO PUSH2 0xECA JUMPI DUP1 DUP2 REVERT JUMPDEST PUSH2 0x5AD DUP4 DUP4 PUSH2 0xEA2 JUMP JUMPDEST PUSH1 0x0 DUP1 PUSH1 0x40 DUP4 DUP6 SUB SLT ISZERO PUSH2 0xEE6 JUMPI DUP1 DUP2 REVERT JUMPDEST PUSH2 0xEF0 DUP5 DUP5 PUSH2 0xEA2 JUMP JUMPDEST SWAP2 POP PUSH2 0xEFF DUP5 PUSH1 0x20 DUP6 ADD PUSH2 0xEA2 JUMP JUMPDEST SWAP1 POP SWAP3 POP SWAP3 SWAP1 POP JUMP JUMPDEST PUSH1 0x0 DUP1 PUSH1 0x40 DUP4 DUP6 SUB SLT ISZERO PUSH2 0xF1A JUMPI DUP2 DUP3 REVERT JUMPDEST PUSH2 0xF24 DUP5 DUP5 PUSH2 0xEA2 JUMP JUMPDEST SWAP5 PUSH1 0x20 SWAP4 SWAP1 SWAP4 ADD CALLDATALOAD SWAP4 POP POP POP JUMP JUMPDEST PUSH1 0x0 DUP1 PUSH1 0x0 PUSH1 0x60 DUP5 DUP7 SUB SLT ISZERO PUSH2 0xF46 JUMPI DUP1 DUP2 REVERT JUMPDEST DUP4 MLOAD PUSH2 0xF51 DUP2 PUSH2 0x1265 JUMP JUMPDEST PUSH1 0x20 DUP6 ADD MLOAD SWAP1 SWAP4 POP PUSH2 0xF62 DUP2 PUSH2 0x1265 JUMP JUMPDEST PUSH1 0x40 DUP6 ADD MLOAD SWAP1 SWAP3 POP PUSH4 0xFFFFFFFF DUP2 AND DUP2 EQ PUSH2 0xF7B JUMPI DUP2 DUP3 REVERT JUMPDEST DUP1 SWAP2 POP POP SWAP3 POP SWAP3 POP SWAP3 JUMP JUMPDEST PUSH1 0x0 PUSH1 0x20 DUP3 DUP5 SUB SLT ISZERO PUSH2 0xF97 JUMPI DUP1 DUP2 REVERT JUMPDEST POP MLOAD SWAP2 SWAP1 POP JUMP JUMPDEST PUSH1 0x0 DUP1 PUSH1 0x40 DUP4 DUP6 SUB SLT ISZERO PUSH2 0xFB0 JUMPI DUP2 DUP3 REVERT JUMPDEST POP POP DUP1 CALLDATALOAD SWAP3 PUSH1 0x20 SWAP1 SWAP2 ADD CALLDATALOAD SWAP2 POP JUMP JUMPDEST PUSH12 0xFFFFFFFFFFFFFFFFFFFFFFFF NOT PUSH1 0x60 SWAP4 DUP5 SHL DUP2 AND DUP3 MSTORE SWAP2 SWAP1 SWAP3 SHL AND PUSH1 0x14 DUP3 ADD MSTORE PUSH1 0x28 ADD SWAP1 JUMP JUMPDEST PUSH1 0x1 PUSH1 0x1 PUSH1 0xF8 SHL SUB NOT DUP2 MSTORE PUSH1 0x60 SWAP3 SWAP1 SWAP3 SHL PUSH12 0xFFFFFFFFFFFFFFFFFFFFFFFF NOT AND PUSH1 0x1 DUP4 ADD MSTORE PUSH1 0x15 DUP3 ADD MSTORE PUSH32 0xB3B8FF62960ACEA3A88039EBCF80699F15786F1B17CEBD82802F7375827A339C PUSH1 0x35 DUP3 ADD MSTORE PUSH1 0x55 ADD SWAP1 JUMP JUMPDEST PUSH1 0x1 PUSH1 0x1 PUSH1 0xA0 SHL SUB SWAP2 SWAP1 SWAP2 AND DUP2 MSTORE PUSH1 0x20 ADD SWAP1 JUMP JUMPDEST PUSH1 0x20 DUP1 DUP3 MSTORE DUP3 MLOAD DUP3 DUP3 ADD DUP2 SWAP1 MSTORE PUSH1 0x0 SWAP2 SWAP1 DUP5 DUP3 ADD SWAP1 PUSH1 0x40 DUP6 ADD SWAP1 DUP5 JUMPDEST DUP2 DUP2 LT ISZERO PUSH2 0x1091 JUMPI DUP4 MLOAD PUSH1 0x1 PUSH1 0x1 PUSH1 0xA0 SHL SUB AND DUP4 MSTORE SWAP3 DUP5 ADD SWAP3 SWAP2 DUP5 ADD SWAP2 PUSH1 0x1 ADD PUSH2 0x106C JUMP JUMPDEST POP SWAP1 SWAP7 SWAP6 POP POP POP POP POP POP JUMP JUMPDEST SWAP1 ISZERO ISZERO DUP2 MSTORE PUSH1 0x20 ADD SWAP1 JUMP JUMPDEST PUSH1 0x20 DUP1 DUP3 MSTORE PUSH1 0x26 SWAP1 DUP3 ADD MSTORE PUSH32 0x4F776E61626C653A206E6577206F776E657220697320746865207A65726F2061 PUSH1 0x40 DUP3 ADD MSTORE PUSH6 0x646472657373 PUSH1 0xD0 SHL PUSH1 0x60 DUP3 ADD MSTORE PUSH1 0x80 ADD SWAP1 JUMP JUMPDEST PUSH1 0x20 DUP1 DUP3 MSTORE PUSH1 0x25 SWAP1 DUP3 ADD MSTORE PUSH32 0x556E697377617056324C6962726172793A204944454E544943414C5F41444452 PUSH1 0x40 DUP3 ADD MSTORE PUSH5 0x4553534553 PUSH1 0xD8 SHL PUSH1 0x60 DUP3 ADD MSTORE PUSH1 0x80 ADD SWAP1 JUMP JUMPDEST PUSH1 0x20 DUP1 DUP3 MSTORE DUP2 DUP2 ADD MSTORE PUSH32 0x4F776E61626C653A2063616C6C6572206973206E6F7420746865206F776E6572 PUSH1 0x40 DUP3 ADD MSTORE PUSH1 0x60 ADD SWAP1 JUMP JUMPDEST PUSH1 0x20 DUP1 DUP3 MSTORE PUSH1 0x5 SWAP1 DUP3 ADD MSTORE PUSH5 0x35B737BBB7 PUSH1 0xD9 SHL PUSH1 0x40 DUP3 ADD MSTORE PUSH1 0x60 ADD SWAP1 JUMP JUMPDEST PUSH1 0x20 DUP1 DUP3 MSTORE PUSH1 0x1E SWAP1 DUP3 ADD MSTORE PUSH32 0x556E697377617056324C6962726172793A205A45524F5F414444524553530000 PUSH1 0x40 DUP3 ADD MSTORE PUSH1 0x60 ADD SWAP1 JUMP JUMPDEST PUSH1 0x20 DUP1 DUP3 MSTORE PUSH1 0x17 SWAP1 DUP3 ADD MSTORE PUSH32 0x4669786564506F696E743A204449565F42595F5A45524F000000000000000000 PUSH1 0x40 DUP3 ADD MSTORE PUSH1 0x60 ADD SWAP1 JUMP JUMPDEST PUSH1 0x20 DUP1 DUP3 MSTORE PUSH1 0x16 SWAP1 DUP3 ADD MSTORE PUSH22 0x556E697377617056324F7261636C653A2021776F726B PUSH1 0x50 SHL PUSH1 0x40 DUP3 ADD MSTORE PUSH1 0x60 ADD SWAP1 JUMP JUMPDEST DUP2 MLOAD DUP2 MSTORE PUSH1 0x20 DUP1 DUP4 ADD MLOAD SWAP1 DUP3 ADD MSTORE PUSH1 0x40 SWAP2 DUP3 ADD MLOAD SWAP2 DUP2 ADD SWAP2 SWAP1 SWAP2 MSTORE PUSH1 0x60 ADD SWAP1 JUMP JUMPDEST SWAP1 DUP2 MSTORE PUSH1 0x20 ADD SWAP1 JUMP JUMPDEST SWAP3 DUP4 MSTORE PUSH1 0x20 DUP4 ADD SWAP2 SWAP1 SWAP2 MSTORE PUSH1 0x40 DUP3 ADD MSTORE PUSH1 0x60 ADD SWAP1 JUMP JUMPDEST PUSH1 0x1 PUSH1 0x1 PUSH1 0x70 SHL SUB DUP2 AND DUP2 EQ PUSH2 0x47E JUMPI PUSH1 0x0 DUP1 REVERT INVALID LOG2 PUSH5 0x6970667358 0x22 SLT KECCAK256 TIMESTAMP CALLCODE 0xD8 0xDF SWAP4 DUP4 0xDE RETURN 0xD2 LOG1 0xD7 DUP7 0x49 0xAD 0x5D MSIZE 0x24 PUSH15 0xB138B281C4D48C717E554DF3CE3F64 PUSH20 0x6F6C634300060C00330000000000000000000000 ",
  "sha1": "b2aae5ac6e30bc4161a28cc748fb0bc6ca1509cc",
  "source": "// SPDX-License-Identifier: MIT\n\npragma solidity 0.6.12;\npragma experimental ABIEncoderV2;\n\nimport 'OpenZeppelin/openzeppelin-contracts@3.4.0/contracts/math/SafeMath.sol';\nimport 'OpenZeppelin/openzeppelin-contracts@3.4.0/contracts/access/Ownable.sol';\nimport './UniswapV2OracleLibrary.sol';\nimport '../utils/FixedPoint.sol';\nimport '../../interfaces/IKeep3rV1Oracle.sol';\nimport '../../interfaces/IUbeswapV1Oracle.sol';\n\n// sliding oracle that uses observations collected to provide moving price averages in the past\ncontract UbeswapV1Oracle is IUbeswapV1Oracle, Ownable {\n  using SafeMath for uint;\n  using FixedPoint for *;\n  \n  address public constant override factory = 0x62d5b84bE28a183aBB507E125B384122D2C25fAE;\n  // this is redundant with granularity and windowSize, but stored for gas savings & informational purposes.\n  uint public constant override periodSize = 1800; // 30 minutes\n\n  address[] internal _pairs;\n  mapping(address => bool) internal _known;\n\n  function pairs() external view override returns (address[] memory) {\n    return _pairs;\n  }\n\n  mapping(address => Observation[]) public observations;\n  \n  function observationLength(address pair) external view override returns (uint) {\n    return observations[pair].length;\n  }\n  \n  function pairFor(address tokenA, address tokenB) external pure override returns (address) {\n    return UniswapV2Library.pairFor(factory, tokenA, tokenB);\n  }\n  \n  function pairForCELO(address tokenA) external pure override returns (address) {\n    return UniswapV2Library.pairFor(factory, tokenA, CELO());\n  }\n\n  function pairForMCELO(address tokenA) external pure override returns (address) {\n    return UniswapV2Library.pairFor(factory, tokenA, MCELO());\n  }\n\n  function updatePair(address pair) external onlyOwner override returns (bool) {\n    return _update(pair);\n  }\n\n  function update(address tokenA, address tokenB) external onlyOwner override returns (bool) {\n    address pair = UniswapV2Library.pairFor(factory, tokenA, tokenB);\n    return _update(pair);\n  }\n\n  function addPair(address tokenA, address tokenB) onlyOwner external override {\n    address pair = UniswapV2Library.pairFor(factory, tokenA, tokenB);\n    require(!_known[pair], \"known\");\n    _known[pair] = true;\n    _pairs.push(pair);\n\n    (uint price0Cumulative, uint price1Cumulative,) = UniswapV2OracleLibrary.currentCumulativePrices(pair);\n    observations[pair].push(Observation(block.timestamp, price0Cumulative, price1Cumulative));\n  }\n\n  function work() public onlyOwner override {\n    bool worked = _updateAll();\n    require(worked, \"UniswapV2Oracle: !work\");\n  }\n  \n  function lastObservation(address pair) public view override returns (Observation memory) {\n    return observations[pair][observations[pair].length-1];\n  }\n\n  function _updateAll() internal returns (bool updated) {\n    for (uint i = 0; i < _pairs.length; i++) {\n      if (_update(_pairs[i])) {\n        updated = true;\n      }\n    }\n  }\n\n  function updateFor(uint i, uint length) external onlyOwner override returns (bool updated) {\n    for (; i < length; i++) {\n      if (_update(_pairs[i])) {\n        updated = true;\n      }\n    }\n  }\n\n  function workable(address pair) public view override returns (bool) {\n    return (block.timestamp - lastObservation(pair).timestamp) > periodSize;\n  }\n\n  function workable() external view override returns (bool) {\n    for (uint i = 0; i < _pairs.length; i++) {\n      if (workable(_pairs[i])) {\n        return true;\n      }\n    }\n    return false;\n  }\n\n  function _update(address pair) internal returns (bool) {\n    // we only want to commit updates once per period (i.e. windowSize / granularity)\n    Observation memory _point = lastObservation(pair);\n    uint timeElapsed = block.timestamp - _point.timestamp;\n    if (timeElapsed > periodSize) {\n      (uint price0Cumulative, uint price1Cumulative,) = UniswapV2OracleLibrary.currentCumulativePrices(pair);\n      observations[pair].push(Observation(block.timestamp, price0Cumulative, price1Cumulative));\n      return true;\n    }\n    return false;\n  }\n\n  function computeAmountOut(\n    uint priceCumulativeStart, uint priceCumulativeEnd,\n    uint timeElapsed, uint amountIn\n  ) private pure returns (uint amountOut) {\n    // overflow is desired.\n    FixedPoint.uq112x112 memory priceAverage = FixedPoint.uq112x112(\n      uint224((priceCumulativeEnd - priceCumulativeStart) / timeElapsed)\n    );\n    amountOut = priceAverage.mul(amountIn).decode144();\n  }\n\n  function CELO() public pure override returns (address) {\n    uint256 chainId = computeChainId();\n    if (chainId == 42220) {\n      return 0x471EcE3750Da237f93B8E339c536989b8978a438;\n    } else if (chainId == 44787) {\n      return 0xF194afDf50B03e69Bd7D057c1Aa9e10c9954E4C9;\n    }\n    return address(0);\n  }\n\n  function MCELO() public pure override returns (address) {\n    uint256 chainId = computeChainId();\n    if (chainId == 42220) {\n      return 0x7037F7296B2fc7908de7b57a89efaa8319f0C500;\n    } else if (chainId == 44787) {\n      return 0x86f61EB83e10e914fc6F321F5dD3c2dD4860a003;\n    }\n    return address(0);\n  }\n\n  function computeChainId() internal pure returns (uint256) {\n    uint256 chainId;\n    assembly {\n      chainId := chainid()\n    }\n    return chainId;\n  }\n}\n",
  "sourcePath": "contracts/oracle/UbeswapV1Oracle.sol",
  "type": "contract"
}