{
  "abi": [
    {
      "inputs": [
        {
          "internalType": "contract IBaseOracle",
          "name": "_base",
          "type": "address"
        }
      ],
      "stateMutability": "nonpayable",
      "type": "constructor"
    },
    {
      "inputs": [],
      "name": "base",
      "outputs": [
        {
          "internalType": "contract IBaseOracle",
          "name": "",
          "type": "address"
        }
      ],
      "stateMutability": "view",
      "type": "function"
    }
  ],
  "bytecode": "60a060405234801561001057600080fd5b5060405161010d38038061010d8339818101604052602081101561003357600080fd5b5051606081901b6001600160601b0319166080526001600160a01b031660a9610064600039806051525060a96000f3fe6080604052348015600f57600080fd5b506004361060285760003560e01c80635001f3b514602d575b600080fd5b6033604f565b604080516001600160a01b039092168252519081900360200190f35b7f00000000000000000000000000000000000000000000000000000000000000008156fea264697066735822122026c27895f1c1510244365d25880a8f05c6dea1d43942434998864bcb8abaa43064736f6c634300060c0033",
  "bytecodeSha1": "3e359da0112c313ad6548c3812430f1c814c6365",
  "compiler": {
    "evm_version": "istanbul",
    "optimizer": {
      "enabled": true,
      "runs": 200
    },
    "version": "0.6.12+commit.27d51765"
  },
  "contractName": "UsingBaseOracle",
  "language": "Solidity",
  "natspec": {
    "kind": "dev",
    "methods": {},
    "version": 1
  },
  "opcodes": "PUSH1 0x80 PUSH1 0x40 MSTORE CALLVALUE DUP1 ISZERO PUSH1 0xF JUMPI PUSH1 0x0 DUP1 REVERT JUMPDEST POP PUSH1 0x4 CALLDATASIZE LT PUSH1 0x28 JUMPI PUSH1 0x0 CALLDATALOAD PUSH1 0xE0 SHR DUP1 PUSH4 0x5001F3B5 EQ PUSH1 0x2D JUMPI JUMPDEST PUSH1 0x0 DUP1 REVERT JUMPDEST PUSH1 0x33 PUSH1 0x4F JUMP JUMPDEST PUSH1 0x40 DUP1 MLOAD PUSH1 0x1 PUSH1 0x1 PUSH1 0xA0 SHL SUB SWAP1 SWAP3 AND DUP3 MSTORE MLOAD SWAP1 DUP2 SWAP1 SUB PUSH1 0x20 ADD SWAP1 RETURN JUMPDEST PUSH32 0x0 DUP2 JUMP INVALID LOG2 PUSH5 0x6970667358 0x22 SLT KECCAK256 0x26 0xC2 PUSH25 0x95F1C1510244365D25880A8F05C6DEA1D43942434998864BCB DUP11 0xBA LOG4 ADDRESS PUSH5 0x736F6C6343 STOP MOD 0xC STOP CALLER ",
  "sha1": "5259cb5f4941d81453d2205ef9869425a92876f1",
  "source": "// SPDX-License-Identifier: MIT\n\npragma solidity 0.6.12;\n\nimport '../../interfaces/IBaseOracle.sol';\n\ncontract UsingBaseOracle {\n  IBaseOracle public immutable base; // Base oracle source\n\n  constructor(IBaseOracle _base) public {\n    base = _base;\n  }\n}\n",
  "sourcePath": "contracts/oracle/UsingBaseOracle.sol",
  "type": "contract"
}