{
  "abi": [
    {
      "constant": true,
      "inputs": [],
      "name": "registry",
      "outputs": [
        {
          "internalType": "contract IRegistry",
          "name": "",
          "type": "address"
        }
      ],
      "payable": false,
      "stateMutability": "view",
      "type": "function"
    }
  ],
  "bytecode": "6080604052348015600f57600080fd5b50608a8061001e6000396000f3fe6080604052348015600f57600080fd5b506004361060285760003560e01c80637b10399914602d575b600080fd5b6033604f565b604080516001600160a01b039092168252519081900360200190f35b61ce108156fea265627a7a7231582084a6b1c10e8124a4317606da8f37063458fee7582a1720a0e44a32e64b97f0c464736f6c63430005110032",
  "bytecodeSha1": "62cf6a363244f38355597fc14b58eff55b7ebbee",
  "compiler": {
    "evm_version": "istanbul",
    "optimizer": {
      "enabled": true,
      "runs": 200
    },
    "version": "0.5.17+commit.d19bba13"
  },
  "contractName": "UsingRegistry",
  "language": "Solidity",
  "natspec": {
    "methods": {}
  },
  "opcodes": "PUSH1 0x80 PUSH1 0x40 MSTORE CALLVALUE DUP1 ISZERO PUSH1 0xF JUMPI PUSH1 0x0 DUP1 REVERT JUMPDEST POP PUSH1 0x4 CALLDATASIZE LT PUSH1 0x28 JUMPI PUSH1 0x0 CALLDATALOAD PUSH1 0xE0 SHR DUP1 PUSH4 0x7B103999 EQ PUSH1 0x2D JUMPI JUMPDEST PUSH1 0x0 DUP1 REVERT JUMPDEST PUSH1 0x33 PUSH1 0x4F JUMP JUMPDEST PUSH1 0x40 DUP1 MLOAD PUSH1 0x1 PUSH1 0x1 PUSH1 0xA0 SHL SUB SWAP1 SWAP3 AND DUP3 MSTORE MLOAD SWAP1 DUP2 SWAP1 SUB PUSH1 0x20 ADD SWAP1 RETURN JUMPDEST PUSH2 0xCE10 DUP2 JUMP INVALID LOG2 PUSH6 0x627A7A723158 KECCAK256 DUP5 0xA6 0xB1 0xC1 0xE DUP2 0x24 LOG4 BALANCE PUSH23 0x6DA8F37063458FEE7582A1720A0E44A32E64B97F0C464 PUSH20 0x6F6C634300051100320000000000000000000000 ",
  "sha1": "72fa90262250c2e03aa45eb7725fd5f3f29feef8",
  "source": "pragma solidity ^0.5.0;\n\nimport 'OpenZeppelin/openzeppelin-contracts@2.3.0/contracts/math/SafeMath.sol';\nimport \"../../interfaces/IPriceOracleGetter.sol\";\n\ninterface ISortedOracles {\n    function medianRate(address) external view returns (uint256, uint256);\n    function medianTimestamp(address) external view returns (uint256);\n}\n\ninterface IRegistry {\n    function getAddressForOrDie(bytes32) external view returns (address);\n}\n\ncontract UsingRegistry {\n    bytes32 constant GOLD_TOKEN_REGISTRY_ID = keccak256(abi.encodePacked(\"GoldToken\"));\n    bytes32 constant SORTED_ORACLES_REGISTRY_ID = keccak256(abi.encodePacked(\"SortedOracles\"));\n\n    IRegistry constant public registry = IRegistry(0x000000000000000000000000000000000000ce10);\n\n    function getGoldToken() internal view returns (address) {\n        return registry.getAddressForOrDie(GOLD_TOKEN_REGISTRY_ID);\n    }\n\n    function getSortedOracles() internal view returns (ISortedOracles) {\n        return ISortedOracles(registry.getAddressForOrDie(SORTED_ORACLES_REGISTRY_ID));\n    }\n}\n\n/// @title CeloProxyPriceProvider\n/// @author Moola\n/// @notice Proxy smart contract to get the price of an asset from a price source, with Celo SortedOracles\n///         smart contracts as the only option\ncontract CeloProxyPriceProvider is IPriceOracleGetter, UsingRegistry {\n    using SafeMath for uint256;\n\n    /// @notice Gets an asset price by address\n    /// @param _asset The asset address\n    function getAssetPrice(address _asset) public view returns(uint256) {\n        if (_asset == getGoldToken()) {\n            return 1 ether;\n        }\n        uint256 _price;\n        uint256 _divisor;\n        ISortedOracles _oracles = getSortedOracles();\n        (_price, _divisor) = _oracles.medianRate(_asset);\n        require(_price > 0, \"Reported price is 0\");\n        uint _reportTime = _oracles.medianTimestamp(_asset);\n        require(block.timestamp.sub(_reportTime) < 10 minutes, \"Reported price is older than 10 minutes\");\n        return _divisor.mul(1 ether).div(_price);\n    }\n\n    /// @dev Return the value of the given input as CELO per unit, multiplied by 2**112.\n    /// @param token The ERC-20 token to check the value.\n    function getCELOPx(address token) external view returns (uint) {\n        uint unscaledPrice = getAssetPrice(token);\n        uint px = (unscaledPrice * 2**112) / 10**18;\n        require(px != 0, 'no px');\n        return px;\n    }\n}\n",
  "sourcePath": "contracts/oracle/SortedOracleProxy.sol",
  "type": "contract"
}